:020000040800F2
:100000000000022075510008E91E0008EB1E0008E0
:10001000ED1E0008EF1E0008F11E000800000000A1
:10002000000000000000000000000000A14E0008D9
:10003000F31E000800000000414F0008A54F000813
:10004000C5510008C5510008C5510008C551000838
:10005000C5510008C5510008C5510008C551000828
:10006000C5510008C5510008C5510008C551000818
:10007000C5510008C5510008C5510008C551000808
:100080008906000899060008C5510008C5510008F6
:10009000C5510008C5510008C5510008C5510008E8
:1000A000C5510008C5510008C5510008C5510008D8
:1000B000C5510008C5510008C5510008C5510008C8
:1000C000C5510008C5510008C5510008C5510008B8
:1000D000C5510008F51E000855060008C551000866
:1000E000C5510008C5510008C5510008C551000898
:1000F000C5510008C5510008C5510008C551000888
:10010000C5510008C5510008C5510008C551000877
:10011000C5510008C5510008C5510008051F000859
:10012000C5510008C5510008151F0008C551000839
:10013000C5510008C5510008C5510008C551000847
:10014000C5510008C5510008C5510008C551000837
:10015000C5510008C5510008251F0008C5510008F9
:10016000C5510008C5510008C5510008C551000817
:10017000C5510008C5510008C55100080000000025
:08018000C5510008C55100083B
:1001900010B5054C237833B9044B13B10448AFF3C1
:1001A00000800123237010BD7400002000000000B7
:1001B0005C62000808B5034B1BB103490348AFF369
:1001C000008008BD00000000780000205C6200088C
:1001D00001F0FF01102A2BDB10F0070F08D010F8F8
:1001E000013B013A8B422DD010F0070F42B3F6D1FC
:1001F000F0B441EA012141EA014122F007047FF015
:1002000000070023F0E80256083C85EA010586EA6B
:10021000010685FA47F5A3FA87F586FA47F6A5FAA7
:1002200087F68EB9EED1F0BC01F0FF0102F00702B3
:1002300032B110F8013B013A83EA010313B1F8D15E
:100240000020704701387047002D06BF354603383F
:10025000073815F0010F07D1013015F4807F02BF78
:10026000013015F4C03F0130F0BC0138704700BFC9
:1002700053B94AB9002908BF00281CBF4FF0FF310D
:100280004FF0FF3000F06EB9ADF1080C6DE904CE0F
:1002900000F006F8DDF804E0DDE9022304B0704761
:1002A0002DE9F047089D04468C46002B40F08380E2
:1002B0008A42174647D9B2FA82F242B1C2F120000F
:1002C00024FA00F09140974040EA010C94404FEA34
:1002D0001748230CBCFBF8F61FFA87FE08FB16C173
:1002E00043EA014306FB0EF1994209D9FB1806F1D6
:1002F000FF3080F01981994240F21681023E3B4462
:100300005B1AA4B2B3FBF8F008FB103344EA0344D1
:1003100000FB0EFEA64509D93C1900F1FF3380F021
:100320000581A64540F2028102383C4440EA06407D
:10033000A4EB0E0400261DB1D4400023C5E9004300
:100340003146BDE8F08702B9FFDEB2FA82F2002A38
:1003500050D1CB1B4FEA174E1FFA87F80126B3FB8B
:10036000FEFC210C0EFB1C3341EA034108FB0CF39D
:100370008B4207D979180CF1FF3002D28B4200F280
:10038000E9808446C91AA3B2B1FBFEF00EFB10113E
:1003900043EA014408FB00F8A04507D93C1900F1E5
:1003A000FF3302D2A04500F2D9801846A4EB08041E
:1003B00040EA0C40BFE78B4209D9002D00F0B18024
:1003C0000026C5E9000130463146BDE8F087B3FAA2
:1003D00083F6002E4AD18B4202D3824200F2B880CB
:1003E000841A61EB030101208C46002DA8D0C5E9D9
:1003F000004CA5E7C2F1200320FA03F6974001FA6A
:1004000002F04FEA174ED9403043030CB1FBFEF621
:100410001FFA87F80EFB161143EA014306FB08F1A9
:10042000994204FA02F409D9FB1806F1FF3C80F066
:100430008D80994240F28A80023E3B445B1A81B231
:10044000B3FBFEF00EFB103341EA034100FB08F35F
:100450008B4207D9791800F1FF3C73D28B4271D9D6
:1004600002383944CB1A40EA064678E7C6F1200C38
:1004700003FA06F422FA0CF31C4320FA0CF701FAF3
:1004800006F34FEA144E21FA0CF11F433B0CB1FB6B
:10049000FEF91FFA84F80EFB191143EA014109FB2A
:1004A00008FA8A4502FA06F200FA06F308D961183A
:1004B00009F1FF3048D28A4546D9A9F10209214401
:1004C000A1EB0A01BFB2B1FBFEF00EFB101147EA2F
:1004D000014700FB08F8B84507D9E71900F1FF31DB
:1004E0002ED2B8452CD90238274440EA0940A7EB60
:1004F0000807A0FB02894F45C64649461AD317D0C4
:100500005DB1B3EB0E0267EB010707FA0CFCF2409A
:100510004CEA0202F740C5E9002700263146BDE853
:10052000F0872E4628460BE70646E9E61846FDE624
:100530004345E5D2B8EB020E69EB04010138DFE771
:100540000846D2E760468DE78146B9E7664675E71B
:1005500030464AE7ACF1020C394413E702383C4418
:1005600024E700BF704700BF10B584B0002301939B
:10057000214B5B6B1B685C68C4F180041F4B1B68DC
:10058000A3420CD01BD21E4A1A440392E31A0293D0
:10059000002301AA02A91B48006803F0F5FC174BD1
:1005A0001C60802C25D0019B3BB1174B4FF0805233
:1005B0001A60BFF34F8FBFF36F8F04B010BD104AA6
:1005C0001A440392C3F180030293002301AA02A9F3
:1005D0000C48006803F0D8FC002CE0D0084B0393D3
:1005E0000294002301AA02A90648006803F0CCFC8B
:1005F000D5E700221A60D6E7D84F002090000020EF
:1006000004010020D04D002004ED00E000B583B0CF
:10061000002300930A4B0B4A0821052003F06AFCD3
:10062000094B186009480268D36843F01003D3608F
:100630008022074903F08CF903B05DF804FB00BF8A
:1006400094000020DC000020D04D0020D84F002076
:100650000401002000B583B00A4B1B681A6812F031
:10066000100F0BD0002201921A6801925B6801936F
:10067000019BFFF779FF03B05DF804FB014803F02D
:1006800069FAF8E7D84F002008B5024B586B02F022
:100690001BFA08BDD84F002008B5024B186B02F0BA
:1006A00013FA08BDD84F002008B50268034B9A42E0
:1006B00000D008BDFFF758FFFBE700BF0044004033
:1006C00008B50268034B9A4200D008BDFFF74CFF03
:1006D000FBE700BF0044004010B50B4C236800212D
:1006E00059639963D9631964204602F0B9FE042165
:1006F000204602F0B5FE0821204602F0B1FE0C2192
:10070000204602F0ADFE10BDD84D002050B40B4C79
:100710002668F46AA4B2A04228BF20467063A142B2
:1007200028BF21463164A24228BF2246B2639C42C0
:1007300028BF1C46F46350BC704700BFD84D002052
:10074000437A827A43EA0223C27A43EA0243462B7F
:1007500000D0704770B50446C678262E28BF2626DE
:10076000164D26220021284604F06EFD324604F183
:100770000C01284604F05AFDEB88AA88698828886D
:10078000FFF7C4FF0E4E304604F0ECFDA1790D4892
:1007900004F062FD29880C4804F05EFD69880B486E
:1007A00004F05AFDA9880A4804F056FDE988094872
:1007B00004F052FD304604F0D5FD70BDE80D002078
:1007C00090620008A4620008D0620008E462000899
:1007D000F86200080C6300082DE9F04FADF5117DBB
:1007E00083468A46019300230B70CB780F2B00F2CF
:1007F0009180DFE813F010001000360059007C00F3
:10080000BD00D100E500F9001F01410169018D0122
:10081000ED01ED013702FD2A12D0FE2A7AD1022322
:100820008AF803300023C37082709AF80C3043F0CA
:1008300001038AF80C304FF0FF330370437069E016
:1008400002238AF803300023C37082709AF80C30B8
:1008500023F001038AF80C304FF0FF33037043702C
:1008600058E0C27000238AF804300388D9B24A40A5
:1008700082EA0212D2B21B0A43EA02231BB283EAC3
:10088000C20383EA121303809AF80C3013F0010FAD
:1008900006D000230371437105238AF8033039E041
:1008A00003238AF8033035E0027132F001030BD0E4
:1008B0009AF8023001338AF8023000238AF80030B7
:1008C00001238AF8033025E00388D9B24A4082EA3E
:1008D0000212D2B21B0A43EA02231BB283EAC2030A
:1008E00083EA1213038004238AF8033012E0427172
:1008F0000388D9B24A4082EA0212D2B21B0A43EA02
:1009000002231BB283EAC20383EA12130380052386
:100910008AF803309AF80030012B00F04887019ADA
:1009200012B19BF80330D3709A9B9BB19AF80330B5
:100930009A9AD3709AF8043013719AF805300133FB
:100940005371BAF8083013819AF8023053819AF83B
:100950000C30137300238AF802309AF80030022B0F
:1009600000F034879AF800000DF5117DBDE8F08F96
:1009700082710388D9B24A4082EA0212D2B21B0ABB
:1009800043EA02231BB283EAC20383EA1213038001
:1009900006238AF80330BDE7C2710388D9B24A4002
:1009A00082EA0212D2B21B0A43EA02231BB283EA92
:1009B000C20383EA1213038007238AF80330A9E7EE
:1009C00002720388D9B24A4082EA0212D2B21B0AEA
:1009D00043EA02231BB283EAC20383EA12130380B1
:1009E00008238AF8033095E7427200238372C372AA
:1009F0000388D9B24A4082EA0212D2B21B0A43EA01
:100A000002231BB283EAC20383EA121303809AF81B
:100A10000C3013F0010F09D0C3781BB10B238AF8F7
:100A2000033077E70C238AF8033073E709238AF849
:100A300003306FE7437A817A43EA0123C17A43EABC
:100A4000014343EA02214372C1F307238372090C75
:100A5000C1720388D9B24A4082EA0212D2B21B0A9A
:100A600043EA02231BB283EAC20383EA1213038020
:100A70000A238AF803304DE7437A817A43EA012357
:100A8000C17A43EA014343EA02414372C3F30723B5
:100A900083720B0CC3720388D9B24A4082EA0212F5
:100AA000D2B21B0A43EA02231BB283EAC20383EADF
:100AB00012130380C3781BB10B238AF8033029E794
:100AC0000C238AF8033025E700F10C039AF8041090
:100AD000481C8AF804005A54BBF80030D9B24A4086
:100AE00082EA0212D2B21B0A43EA02231BB283EA51
:100AF000C20383EA1213ABF800309AF804209BF883
:100B000003309A427FF406AF0C238AF8033001E7E2
:100B1000447A837A44EA0324C37A44EA03442746A6
:100B2000C5250026AE4248D273190133590823F077
:100B3000010000EB5303AB4850F823309F4238D3F9
:100B40009F4238D801EB4103A64850F823309C421D
:100B500035D101EB410110EB810433D02379BBF88F
:100B60000010C8B2434083EA0313D8B20B0A43EA29
:100B700000231BB283EAC00383EA1013ABF80030F2
:100B8000DBB29A4220D00E238AF803308BF814216E
:100B9000002C3FF4BFAE9AF80430A2799342BFF420
:100BA000B9AE0BF10C00D21A0021184404F04CFB32
:100BB000B0E64D1EB6E70E46B4E73146C2E7002464
:100BC0002346CCE70023CAE70D238AF80330DDE78C
:100BD0000E2B04D093B20188B3EB112F18D002234F
:100BE0008AF800308BF815219BF8043013F0010FC0
:100BF00012D00F238AF803300D238AF80D309AF8AB
:100C00000030022B3FF486AE00238AF8003081E6E4
:100C100001238AF80030E5E7DAF81030ABB11A6B3F
:100C200062B19BF809309BF80A1043EA01239BF854
:100C30000B1043EA01415046904730B99AF8003012
:100C4000022B02D003238AF8003001238AF80330F4
:100C5000019800283FF45EAE40F22312594604F09A
:100C6000E5FA57E69AF80D30C3F10D03034483F813
:100C700016219AF80D30013BDBB28AF80D30002BBB
:100C80007FF448AEDAF810201192DAF814300B93A2
:100C9000002A00F07E85831C0E9300F58B730D9364
:100CA00000F21D130C93002337934F4B38934F4B97
:100CB00039934F4B3A934F4B3B934F4B3C934F4B96
:100CC0003D934F4B3E9303F17453A3F52303A3F6D7
:100CD00092433F9310324FF48073369300252023C4
:100CE0000F909346CDF840A09A460BE02246594615
:100CF00040AB581904F09AFA2544A344AAEB040A1D
:100D0000402D09D0BAF1000F00F0C580C5F14004B4
:100D10005445EBD95446E9E700230F2B11DC40A8DA
:100D200000EB830124AC04EB8302CD7804F823505C
:100D30008C7854704978917010F82310D170013379
:100D4000EBE7389B0293399B03933A9B04933B9BBD
:100D500005933C9B06933D9B07933E9B08933F9BCB
:100D6000099300230F2B0ADC90AA02EB8302A2F561
:100D7000D872116850AA42F823100133F2E710220A
:100D800020E0931E50A951F823004FEAF04383EA74
:100D9000704383EA9023D01F51F820000344A2F14E
:100DA0000F0051F820404FEAB44080EAF41080EA86
:100DB000D4000344A2F1100051F82000034441F88C
:100DC000223001323F2ADCDDDDF82490DDF820C03E
:100DD000DDF81CE00699DDF81480049E039F02985C
:100DE00000253CE02C63000867E6096A85AE67BB16
:100DF00072F36E3C3AF54FA57F520E518C68059BFD
:100E0000ABD9831F4FEAF12383EAB11383EA7163FD
:100E10004B4401EA0E022CEA010462401344A84A42
:100E200052F82520134450AA52F8252013444FEAC3
:100E3000703282EAB00282EAB05287EA06040440C5
:100E400007EA060984EA090422440135E146F4462A
:100E50008E4603EB0801B0463E46074698183F2DE4
:100E6000D0DD029B03443893039B3B443993049B9E
:100E700033443A93059B43443B93069B0B443C937A
:100E8000079B73443D93089B63443E93099B4B44EB
:100E90003F93002536E7CDF828A0DDF83CB0DDF81B
:100EA00040A09BF803300A330293369D05EBC30341
:100EB00036939D4202D9379B01333793C5F3C5055D
:100EC000CDF83CB0DDF838B0CDF838A0DDF808A09A
:100ED0000BE02246594640AB581904F0A7F92544C7
:100EE000A344AAEB040A402D09D0BAF1000F00F088
:100EF000B580C5F140045445EBD95446E9E70023D9
:100F00000F2B11DC40A800EB830124AC04EB83021F
:100F1000CD7804F823508C7854704978917010F88B
:100F20002310D1700133EBE7389B0293399B039375
:100F30003A9B04933B9B05933C9B06933D9B0793F5
:100F40003E9B08933F9B099300230F2B0ADC90AA3A
:100F500002EB8302A2F5D872116850AA42F823105E
:100F60000133F2E7102220E0931E50A951F823002C
:100F70004FEAF04383EA704383EA9023D01F51F88D
:100F800020000344A2F10F0051F820404FEAB44082
:100F900080EAF41080EAD4000344A2F1100051F872
:100FA0002000034441F8223001323F2ADCDDDDF825
:100FB0002490DDF820C0DDF81CE00699DDF81480EF
:100FC000049E039F029800252CE04FEAF12383EA58
:100FD000B11383EA71634B4401EA0E022CEA010467
:100FE00062401344364A52F82520134450AA52F85E
:100FF000252013444FEA703282EAB00282EAB052EE
:1010000087EA0604044007EA060984EA0904224440
:101010000135E146F4468E4603EB0801B0463E46F4
:10102000074698183F2DD0DD029B03443893039B5D
:101030003B443993049B33443A93059B43443B938D
:10104000069B0B443C93079B73443D93089B63446E
:101050003E93099B4B443F930A9D46E7CDF808A079
:10106000DDF83CB0DDF838A00BF58A731A46369DE2
:1010700005F1100336939D4202D9379B0133379314
:10108000C5F3C5050223CDF838B09346CDF83CA092
:101090009A460BE02246594640AB581904F0C6F870
:1010A0002544A344AAEB040A402D3CD0BAF1000F1A
:1010B00000F0B780C5F140045445EBD95446E9E748
:1010C000746C000840A800EB830124AC04EB83029D
:1010D000CD7804F823508C7854704978917010F8CA
:1010E0002310D17001330F2BECDD389B0393399B18
:1010F00004933A9B05933B9B06933C9B07933D9B34
:1011000008933E9B09933F9B0A9300230F2B0CDC13
:1011100090AA02EB8302A2F5D872116850AA42F895
:1011200023100133F2E70023DDE7102220E0931EB5
:1011300050A951F823004FEAF04383EA704383EA51
:101140009023D01F51F820000344A2F10F0051F862
:1011500020404FEAB44080EAF41080EAD40003440F
:10116000A2F1100051F82000034441F8223001326E
:101170003F2ADCDDDDF82890DDF824C0DDF820E032
:101180000799DDF81880059E049F039800252CE040
:101190004FEAF12383EAB11383EA71634B4401EA16
:1011A0000E022CEA010462401344C54A52F825207D
:1011B000134450AA52F8252013444FEA703282EAB1
:1011C000B00282EAB05287EA0604044007EA060940
:1011D00084EA090422440135E146F4468E4603EBD5
:1011E0000801B0463E46074698183F2DD0DD039BC8
:1011F00003443893049B3B443993059B33443A930F
:10120000069B43443B93079B0B443C93089B7344CE
:101210003D93099B63443E930A9B4B443F93029D3D
:1012200044E7CDF828A0DDF838B0DDF83CA0369DC5
:1012300005F1380336939D4202D9379B013337932A
:10124000C5F3C5050723CDF838B0DDF834B0CDF8C7
:1012500034A09A460BE02246594640AB581903F099
:10126000E5FF2544A344AAEB040A402D09D0BAF1B6
:10127000000F00F0B580C5F140045445EBD9544649
:10128000E9E700230F2B11DC40A800EB830124AC1D
:1012900004EB8302CD7804F823508C78547049789D
:1012A000917010F82310D1700133EBE7389B029353
:1012B000399B03933A9B04933B9B05933C9B06937A
:1012C0003D9B07933E9B08933F9B099300230F2B65
:1012D0000ADC90AA02EB8302A2F5D872116850AA28
:1012E00042F823100133F2E7102220E0931E50A9A8
:1012F00051F823004FEAF04383EA704383EA9023D6
:10130000D01F51F820000344A2F10F0051F82040F3
:101310004FEAB44080EAF41080EAD4000344A2F11A
:10132000100051F82000034441F8223001323F2AD6
:10133000DCDDDDF82490DDF820C0DDF81CE0069946
:10134000DDF81480049E039F029800253F2D2DDCBC
:101350004FEAF12383EAB11383EA71634B4401EA54
:101360000E022CEA010462401344554A52F825202B
:10137000134450AA52F8252013444FEA703282EAEF
:10138000B00282EAB05287EA0604044007EA06097E
:1013900084EA090422440135E146F4468E4603EB13
:1013A0000801B0463E4607469818CFE7029B034423
:1013B0003893039B3B443993049B33443A93059BF6
:1013C00043443B93069B0B443C93079B73443D93E0
:1013D000089B63443E93099B4B443F930A9D46E719
:1013E000CDF828A0DDF838B0DDF834A0369BDC0855
:1013F000C4F1770404F03F04671C24AE80238DF809
:101400009030472200210DF1910003F01DFF369D21
:1014100004F10803F5542A0AE31DF2542A0CA31D13
:10142000F2542A0E631DF254379B221DB354190A3D
:10143000E21CB154190CA21CB1541B0EF35504F15B
:1014400009031A4605EBC30336939D4202D9379B25
:1014500001333793C5F3C50524ABCDF834B09B46B3
:10146000CDF838A092460BE02246594640AB5819B9
:1014700003F0DCFE2544A344AAEB040A402D09D066
:10148000BAF1000F00F0B880C5F140045445EBD923
:101490005446E9E700230F2B14DC40A800EB83013E
:1014A00014AA02EB8302CC7814AD05F823408C78A3
:1014B00054704978917010F82310D1700133EAE725
:1014C000746C0008389B0293399B03933A9B0493F6
:1014D0003B9B05933C9B06933D9B07933E9B089348
:1014E0003F9B099300230F2B0ADC90AA02EB830297
:1014F000A2F5F872116850AA42F823100133F2E7FE
:10150000102220E0931E50A951F823004FEAF04327
:1015100083EA704383EA9023D01F51F820000344EC
:10152000A2F10F0051F820404FEAB44080EAF410D5
:1015300080EAD4000344A2F1100051F820000344D3
:1015400041F8223001323F2ADCDDDDF82490DDF85D
:1015500020C0DDF81CE00699DDF81480049E039F8E
:10156000029800252CE04FEAF12383EAB11383EAC5
:1015700071634B4401EA0E022CEA010462401344F9
:10158000994A52F82520134450AA52F825201344B2
:101590004FEA703282EAB00282EAB05287EA060469
:1015A000044007EA060984EA090422440135E146B9
:1015B000F4468E4603EB0801B0463E4607469818AF
:1015C0003F2DD0DD029B03443893039B3B4439936A
:1015D000049B33443A93059B43443B93069B0B4443
:1015E0003C93079B73443D93089B63443E93099B44
:1015F0004B443F930A9D43E7DDF834B0DDF838A053
:101600009DF8E3308DF850309DF8E2308DF8513080
:101610009DF8E1308DF852309DF8E0308DF8533070
:101620009DF8E7308DF854309DF8E6308DF8553050
:1016300006220C9914A803F0EBFD30B3002484B902
:10164000DAF810301B6B63B19BF809209BF80A1085
:1016500042EA01229BF80B1042EA014150469847AA
:1016600010B9002C00F09F8001238AF8003001237C
:101670008AF80330019800283FF44CA940F2231265
:10168000594603F0D3FDFFF745B99BF81611002228
:101690000023CDE924230BF21715DBF81701249062
:1016A000BBF81B31ADF894300B9E002E73D0002494
:1016B00001E00134A4B23088844215D29BF807209F
:1016C00004EBC4033344DB789A42F2D19BF8082040
:1016D00004EBC40333441B799A42EAD104EBC407F8
:1016E000F3199B789942E4D1844222D10F2854D82F
:1016F000249B259E3D4A9B1812934FF0000346EB16
:1017000003031393119BD3E90223DDE912679F4280
:1017100008BF964243D39BF8072004EBC4030B9EFB
:101720003344DA709BF808201A71997001303080C8
:1017300015E000220023CDE9502304EBC4030B9AEB
:10174000134453F8050F50909B88ADF84431DDE900
:101750002423DDE95001994208BF904217D204EBDF
:10176000C4040B9B23441C462B68C4F80530AB888B
:10177000A4F80930DDE92401119CD4E902238B424D
:1017800008BF82420DD2C4E90201012457E70024B8
:1017900055E7012453E7002451E700244FE70024D4
:1017A0004DE701244BE703238AF800305FE79BF8FD
:1017B00006308AF80530BAF8083013B90022AAF8C2
:1017C0000A200133AAF80830FFF7A9B801990029C7
:1017D0003FF4C8A89BF814319BF8152143EA022373
:1017E0000B80FFF7BFB800BF746C0008808D5B00F2
:1017F00030B585B012E0039B1D5D1A4B00931A4B68
:101800002A461A491A48FEF7E7FF831EDBB2012B6E
:101810000FD918BB0134029BA342ECD84FF0FF3222
:1018200002A9144B186802F017FC0128F6D1002415
:10183000F1E70E4B9A7801329A7000221A70012259
:10184000DA70FD2D01D00020E3E70222DA70084BA8
:101850000022DA704FF6FF721A80F4E70248FEF7B2
:101860006FFFD7E7100E0020700600201006002042
:1018700084010020D04D002000B585B0FEF7C6FEE3
:10188000074B0293074B01930123009300234FF46E
:10189000C0720549054802F015FE05B05DF804FB6D
:1018A000940D00209407002020630008F117000821
:1018B00000B583B001904FF6FF73012201A90348E0
:1018C00001F0D5FF019803B05DF804FB984F0020AC
:1018D00070B50C4616460025B54205DA14F8010B22
:1018E000FFF7E6FF0135F7E7304670BD30B595B03C
:1018F0003022002108A803F0A7FC002403940494DC
:1019000005940694079401941B4B1A6C42F0805284
:101910001A641B6C03F080530193019B0294174BD4
:101920001A6842F480421A601B6803F480430293F1
:10193000029B012308934FF48033099302250E95EF
:101940004FF480030F9304231093A8221192129551
:10195000139308A800F04EFB0F23039304950594FE
:101960004FF4A05306934FF480530793052103A827
:1019700000F09CFD15B030BD003802400070004002
:1019800008B501F0E3F9FFF7B1FF00F01FF800F030
:1019900067F800F083F900F00DF900F099F9FEF70F
:1019A0009BFEFFF769FF00F0A9F803F0D3F8FEE70C
:1019B00008B50268034B9A4200D008BD01F0E0F977
:1019C000FBE700BF001400407047000030B58BB04B
:1019D00000240594069407940894099401941E4BDE
:1019E0001A6B42F004021A631A6B02F004020192AD
:1019F000019A02941A6B42F080021A631A6B02F089
:101A000080020292029A03941A6B42F001021A6356
:101A10001A6B02F001020392039A04941A6B42F0CB
:101A200008021A631B6B03F008030493049B0B4D1D
:101A300001224FF40051284600F012FF4FF40053EA
:101A40000593012306930793089405A9284600F0FF
:101A500021FE0BB030BD00BF00380240000802403C
:101A600010B582B0002400941A4B1A6B42F4800225
:101A70001A631A6B02F480020092009A01941A6BA6
:101A800042F400121A631B6B03F400130193019BD1
:101A900022460521102001F017F9102001F048F925
:101AA00022460521112001F00FF9112001F040F923
:101AB000224621463A2001F007F93A2001F038F990
:101AC00022462146462001F0FFF8462001F030F979
:101AD00002B010BD0038024008B5012003F074F8D0
:101AE000FBE70000034B0360034B0B608023136094
:101AF000704700BF28100020280E002030B589B0A4
:101B000001AC074D0FCD0FC495E8070084E807002E
:101B1000002101A803F023F8024B186009B030BD82
:101B200074620008D44D00200268094B9A4200D02C
:101B3000704782B000230193064B1A6C42F00402F6
:101B40001A641B6C03F004030193019B02B07047FD
:101B5000000800400038024000B587B00023019320
:101B6000029303930493059302680F4B9A4202D0A9
:101B700007B05DF804FB002300930C4A116B41F0A1
:101B800008011163126B02F008020092009A4FF4F0
:101B9000704201920222029203930493059201A9DA
:101BA000034800F077FDE3E70008004000380240FA
:101BB000000C024000B58FB000230A930B930C93E6
:101BC0000D93089309930193029303930493059350
:101BD000069307932F48304A02604360836040F6C3
:101BE000EF22C2600361836101F0D4FA002839D189
:101BF0004FF480530A930AA9264801F0B1FB00284C
:101C000033D1244801F0E0FA002831D100230893B1
:101C1000099308A91F4801F043FC60BB60230193AE
:101C2000002202920392059201A91A4801F01EFBBC
:101C300020BB04220DEB0201164801F017FB00BB8C
:101C4000082201A9134801F011FBE8B90C2201A9EF
:101C5000104801F00BFBD0B90E48FFF77DFF0FB025
:101C60005DF804FBFFF7B0FEC2E7FFF7ADFEC8E783
:101C7000FFF7AAFECAE7FFF7A7FECFE7FFF7A4FE2C
:101C8000D7E7FFF7A1FEDBE7FFF79EFEDEE7FFF7F2
:101C90009BFEE1E7D84D00200008004008B50A4847
:101CA0000A4B03604FF41653436000238360C36004
:101CB00003610C2242618361C36101F0A9FD00B997
:101CC00008BDFFF781FEFBE7984F002000100140A0
:101CD00008B50A480A4B03604FF4E1334360002320
:101CE0008360C36003610C2242618361C36101F0C0
:101CF0008FFD00B908BDFFF767FEFBE7D84F002056
:101D00000044004030B58BB0044600230593069391
:101D10000793089309930368674A934204D0674A7C
:101D2000934262D00BB030BD00250195644B5A6CD4
:101D300042F010025A645A6C02F010020192019AA9
:101D400002951A6B42F001021A631B6B03F0010348
:101D50000293029B4FF4C0630593022306930795F9
:101D6000032308930723099305A9564800F092FC22
:101D70005548564B03604FF0006343608560C56073
:101D80004FF48063036145618561C5610562456209
:101D900000F0ECFD18BB4C4B63639C634C484D4B0F
:101DA00003604FF000634360402383600023C360FF
:101DB0004FF48062026143618361C36103624362E5
:101DC00000F0D4FD70B9424B23639C63002211469E
:101DD000252000F079FF252000F0AAFFA2E7FFF7F9
:101DE000F3FDD8E7FFF7F0FDEDE700250395344B51
:101DF0001A6C42F400321A641A6C02F40032039234
:101E0000039A04951A6B42F001021A631B6B03F0EC
:101E100001030493049B0C23059302230693079567
:101E2000032308930723099305A9264800F032FCF1
:101E300029482A4B03604FF0006343608560C5600A
:101E40004FF480630361456185614FF48073C36122
:101E50004FF400330362456200F088FD28BB1E4B3F
:101E600063639C631E481F4B03604FF00063436035
:101E7000402383600023C3604FF4806202614361AA
:101E80008361C3614FF480320262436200F06EFDF1
:101E900070B9134B23639C6300220521262000F0B8
:101EA00013FF262000F044FF3CE7FFF78DFDD6E747
:101EB000FFF78AFDEDE700BF00100140004400403D
:101EC0000038024000000240D84E0020406402402A
:101ED000784E0020B8640240184E0020886002400E
:101EE000384F0020A06002407047FEE7FEE7FEE7A3
:101EF000FEE7704708B5024801F02CFE08BD00BFA0
:101F0000984F002008B5024801F023F808BD00BF33
:101F10001850002008B5024800F0D6FD08BD00BFEB
:101F2000D84E002008B5024800F0CEFD08BD00BF25
:101F3000784E002000B583B0002200920D4B596C02
:101F400041F480415964596C01F480410091009939
:101F50000192196C41F0805119641B6C03F080539D
:101F60000193019B0F216FF0010000F0ADFE03B063
:101F70005DF804FB0038024010B588B0014600222D
:101F8000372000F0A1FE372000F0D2FE002401949B
:101F9000144B1A6C42F020021A641B6C03F02003ED
:101FA0000193019B02A903A800F056FB00F034FB4B
:101FB00043000D48A0FB03239B0C013B0B480C4A3C
:101FC000026040F2E732C26043600461846001F065
:101FD000E1F810B1012008B010BD044800F0A3FFE3
:101FE000F9E700BF0038024083DE1B431850002091
:101FF00000140040002800F0D98170B582B004467A
:10200000036813F0010F3BD0A64B9B6803F00C0351
:10201000042B2CD0A34B9B6803F00C03082B21D07E
:102020006368B3F5803F4FD0B3F5A02F52D09D4BDE
:102030001A6822F480321A601A6822F480221A6028
:102040006368002B50D000F0A7FE0546954B1B6837
:1020500013F4003F14D100F09FFE401B6428F5D913
:102060000320AAE18F4B5B6813F4800FD8D08D4B0F
:102070001B6813F4003F03D06368002B00F09881C5
:10208000236813F0020F54D0864B9B6813F00C0F9B
:102090003ED0844B9B6803F00C03082B33D0E368DD
:1020A000002B67D0804B01221A6000F075FE0546B8
:1020B0007C4B1B6813F0020F53D100F06DFE401BE8
:1020C0000228F5D9032078E1764A136843F4803377
:1020D0001360B5E7734B1A6842F480221A601A68DD
:1020E00042F480321A60ABE700F056FE05466D4BB5
:1020F0001B6813F4003FC3D000F04EFE401B642861
:10210000F5D9032059E1674B5B6813F4800FC6D102
:10211000644B1B6813F0020F03D0E368012B40F0FF
:102120004981604A136823F0F803216943EAC10337
:102130001360236813F0080F40D0636963B35B4BEF
:1021400001221A6000F028FE0546564B5B6F13F023
:10215000020F33D100F020FE401B0228F5D90320E6
:102160002BE1504A136823F0F803216943EAC103C5
:102170001360DEE74C4B00221A6000F00DFE0546AE
:10218000484B1B6813F0020FD3D000F005FE401B34
:102190000228F5D9032010E1444B00221A6000F018
:1021A000FBFD05463F4B5B6F13F0020F06D000F0BE
:1021B000F3FD401B0228F5D90320FEE0236813F04D
:1021C000040F78D0374B1B6C13F0805F0DD10023C8
:1021D0000193344B1A6C42F080521A641B6C03F06A
:1021E00080530193019B012500E00025304B1B68C3
:1021F00013F4807F21D0A368012B32D0052B36D079
:10220000284B1A6F22F001021A671A6F22F004029B
:102210001A67A368002B34D000F0BEFD0646214BA0
:102220001B6F13F0020F45D100F0B6FD801B41F289
:1022300088339842F3D90320BFE01D4A136843F462
:102240008073136000F0A8FD0646194B1B6813F459
:10225000807FD0D100F0A0FD801B0228F5D903209B
:10226000ABE0104A136F43F001031367D1E70D4B46
:102270001A6F42F004021A671A6F42F001021A67DD
:10228000C7E700F089FD0646064B1B6F13F0020FEF
:1022900010D000F081FD801B41F288339842F3D9C1
:1022A00003208AE00038024000004742800E474287
:1022B00000700040E5B9A369002B7DD0464A9268C2
:1022C00002F00C02082A51D0022B17D0434B0022F7
:1022D0001A6000F061FD04463F4B1B6813F0007F5D
:1022E00042D000F059FD001B0228F5D9032064E01C
:1022F000394A136C23F080531364DCE7374B002218
:102300001A6000F049FD0546334B1B6813F0007F4F
:1023100006D000F041FD401B0228F5D903204CE017
:10232000E369226A1343626A43EA8213A26A52088B
:10233000013A43EA0243E26A43EA0263264A5360EF
:10234000264B01221A6000F027FD0446224B1B6831
:1023500013F0007F06D100F01FFD001B0228F5D905
:1023600003202AE0002028E0002026E0012B26D0D0
:10237000194B5B6803F48001E269914221D103F0BB
:102380003F02216A8A421ED1616A47F6C0721A4032
:102390008A421AD103F44032A16A8A4217D103F06B
:1023A0007063E26A934214D1002006E00120704776
:1023B000012002E0012000E0002002B070BD0120F9
:1023C000FBE70120F9E70120F7E70120F5E701200D
:1023D000F3E70120F1E700BF003802406000474208
:1023E000F8B52F4B9B6803F00C03042B53D0082B3C
:1023F00053D12B4B5A6802F03F025B6813F4800FF5
:1024000028D0274B5B68C3F3881358010021C01AFA
:1024100061F100018E0146EA906687013C1A66EB85
:102420000105E90041EA5471E000C01841F10001E2
:102430004B0243EAD0534402204619460023FDF7DD
:1024400017FF174B5B68C3F3014301335B00B0FB1D
:10245000F3F023E0124B5B68C3F388135C010025A3
:10246000E41A65F10005AE0146EA9466A701381B3F
:1024700066EB0501CC0044EA5074C500E81844F14D
:1024800000018B0243EA9053840220461946002340
:10249000FDF7EEFED5E7034800E00348F8BD00BFB6
:1024A0000038024000127A000024F400002800F0F6
:1024B0009B8070B50D4604464F4B1B6803F00F031D
:1024C0008B4208D2CBB24C4A1370136803F00F034F
:1024D0008B4240F08B80236813F0020F17D013F06B
:1024E000040F04D0454A936843F4E0539360236893
:1024F00013F0080F04D0414A936843F4604393609B
:102500003E4A936823F0F003A1680B43936023686D
:1025100013F0010F32D06368012B21D09A1E012ADB
:1025200025D9364A126812F0020F61D033498A6801
:1025300022F0030213438B6000F02EFC06462F4B63
:102540009B6803F00C036268B3EB820F16D000F0B7
:1025500023FC801B41F288339842F0D9032042E0EB
:10256000264A126812F4003FE0D101203BE0234AE2
:10257000126812F0007FD9D1012034E01E4B1B6895
:1025800003F00F03AB4207D9EAB21B4B1A701B686A
:1025900003F00F03AB422DD1236813F0040F06D0D4
:1025A000164A936823F4E053E1680B439360236871
:1025B00013F0080F07D0114A936823F46043216990
:1025C00043EAC1039360FFF70BFF0C4B9B68C3F317
:1025D00003130B4AD35CD8400A4B18600A4B1868A7
:1025E000FFF7CAFC002070BD012070470120FAE708
:1025F0000120F8E70120F6E7003C024000380240E5
:10260000886D00080800002004000020014B1868B5
:10261000704700BF0800002008B5FFF7F7FF044B24
:102620009B68C3F38223034AD35CD84008BD00BF34
:1026300000380240986D000808B5FFF7E7FF044B2B
:102640009B68C3F34233034AD35CD84008BD00BF44
:1026500000380240986D00080F2303600B4B9A6806
:1026600002F0030242609A6802F0F00282609A6807
:1026700002F4E052C2609B68DB0803F4E05303619C
:10268000034B1B6803F00F030B60704700380240D8
:10269000003C024000230F2B00F2D980F0B583B03C
:1026A00039E0072200E00022B2403A430234684E8B
:1026B00046F82420674A1468EA4324EA05064F686E
:1026C00017F4803F01D045EA0406624C2660646836
:1026D00002EA04064F6817F4003F01D045EA0406F9
:1026E0005C4C6660A46802EA04064F6817F4801F19
:1026F00001D045EA0406574CA660E46822404E68C3
:1027000016F4001F01D045EA0402524CE260013386
:102710000F2B00F29A8001229A400C6804EA02050D
:1027200032EA0404F3D14C68661E012E03D9112C41
:1027300001D0122C12D186685F000324BC4026EA27
:102740000406CC68BC4034438460466826EA02062E
:102750004C68C4F300129A4032434260C7685E007E
:102760000324B440E24327EA04078C68B4403C43A6
:10277000C4604C68022C01D0122C13D1DF0808373A
:1027800050F827E003F007044FEA840C0F2404FA02
:102790000CF42EEA040E0C6904FA0CF444EA0E045C
:1027A00040F82740046814404A6802F00302B2402F
:1027B000224302604A6812F0805FA8D00022019292
:1027C000254A546C44F480445464526C02F48042B0
:1027D0000192019A9C08A61C1D4A52F8267003F02B
:1027E000030296000F22B24027EA02071B4A9042DA
:1027F0003FF459AF02F5806290421AD002F5806230
:10280000904218D002F58062904216D002F58062A4
:10281000904214D002F58062904212D002F580629C
:10282000904210D002F5806290423FF43AAF082205
:102830003AE7012238E7022236E7032234E704228E
:1028400032E7052230E706222EE703B0F0BD7047DD
:1028500000380140003C01400038024000000240C6
:102860000AB18161704709048161704730B405681D
:102870002C6824F480242C60046863608368402BF7
:1028800005D0036899600368DA6030BC704703685C
:102890009A600368D960F8E710B40368D9B21039B8
:1028A0000C4AA2FB014212090B4CA25CC2655F29D3
:1028B00009D923F47F7323F0030304338365806D08
:1028C0005DF8044B704723F47F7323F003038365A3
:1028D000F5E700BFABAAAAAA806D0008836A8269E7
:1028E00092B9012B0AD0022B02D00BB10020704705
:1028F000C36A13F0807F28D100207047C36AB3F108
:10290000C07F24D000207047B2F5005F09D0022BB1
:1029100025D9032B25D1C36A13F0807F23D1002052
:102920007047032B03D8DFE803F01404140A0020D7
:102930007047C36A13F0807F0DD100207047C36ACF
:10294000B3F1C07F09D000207047012070470120FB
:102950007047012070470120704701207047012017
:1029600070470020704701207047000070B5044692
:1029700000F012FA002C5BD00546002384F83430B6
:10298000022384F835302268136823F001031360B2
:1029900023681A6812F0010F0AD000F0FDF9431BFA
:1029A000052BF5D920236365032084F8350070BD1D
:1029B0001A68204810406168A2680A43E1680A4327
:1029C00021690A4361690A43A1690A43E1690A432B
:1029D000216A0A430243616A04291ED01A602668EC
:1029E000756925F00705636A1D43042B07D1A36AA7
:1029F0001D43E36A1BB12046FFF770FF90B9756174
:102A00002046FFF749FFE26D3F239340836000209B
:102A10006065012384F83530C9E7E16A206B014322
:102A20000A43DBE740236365012084F83500BEE7F5
:102A30000120BCE73F8010F038B50446856D90F862
:102A4000340001282BD0012084F8340094F835009C
:102A5000C0B2012804D0002384F83430022038BDED
:102A6000022084F83500002060652046FFF7FEFE56
:102A7000E26D3F239340AB602268136843F0160376
:102A80001360236C23B12268136843F008031360BA
:102A90002268136843F0010313600020DFE702207F
:102AA000DDE790F83530DBB2022B03D0802343659D
:102AB00001207047052380F835300268136823F041
:102AC0000103136000207047F0B583B00446002373
:102AD0000193724B1D68724BA3FB0535AD0A876DE0
:102AE0003E68C26D08239340334210D003681A68D1
:102AF00012F0040F0BD01A6822F004021A60C26DA3
:102B000008239340BB60436D43F001034365E26DCE
:102B100001239340334209D02268526912F0800F9A
:102B200004D0BB60636D43F002036365E26D042370
:102B30009340334209D02268126812F0020F04D089
:102B4000BB60636D43F004036365E26D1023934043
:102B5000334224D02268126812F0080F1FD0BB60E5
:102B600023681A6812F4802F0DD01B6813F4002F0D
:102B700004D1236C9BB12046984710E0A36C73B13D
:102B8000204698470BE01A6812F4807F03D11A6838
:102B900022F008021A60236C0BB120469847E26DC0
:102BA00020239340334255D02268126812F0100F50
:102BB00050D0BB6094F83530DBB2052B0ED02368C3
:102BC0001A6812F4802F33D01B6813F4002F2AD117
:102BD000636C002B3ED0204698473BE02268136888
:102BE00023F0160313602268536923F080035361B6
:102BF000236CA3B12268136823F008031360E26D0D
:102C00003F239340BB60002384F83430012384F8D1
:102C10003530236D002B3FD0204698473CE0A36C15
:102C2000002BE7D1EBE7E36BA3B12046984711E017
:102C30001A6812F4807F09D11A6822F010021A6013
:102C4000002384F83430012384F83530E36B0BB172
:102C500020469847636DFBB1636D13F0010F17D0E9
:102C6000052384F835302268136823F001031360CC
:102C7000019B01330193AB4204D823681B6813F016
:102C8000010FF5D1002384F83430012384F8353066
:102C9000E36C0BB12046984703B0F0BD080000205C
:102CA000B5814E1B074AD36823F4E0631B041B0C59
:102CB000000200F4E060034343F0BF6343F40033D9
:102CC000D360704700ED00E030B4174BDB68C3F30E
:102CD0000223C3F10704042C28BF04241D1D062D64
:102CE00018D9033B4FF0FF3505FA04F421EA04013B
:102CF000994005FA03F322EA0303194300280BDB8A
:102D00000901C9B200F1604000F5614080F800138C
:102D100030BC70470023E5E700F00F000901C9B29D
:102D2000024B1954F4E700BF00ED00E014ED00E0A1
:102D3000002807DB00F01F02400901239340024AEC
:102D400042F82030704700BF00E100E008B50B4BAF
:102D50001A6842F400721A601A6842F480621A60BB
:102D60001A6842F480721A600320FFF79BFF00206C
:102D7000FFF702F9FFF7DEF8002008BD003C024033
:102D8000034A1168034B1B780B441360704700BF64
:102D90005850002000000020014B1868704700BF09
:102DA0005850002030B4036A23F001030362056A1F
:102DB0004268846924F073040B681C4325F0020503
:102DC0008B682B43104DA84203D005F58065A842BF
:102DD00005D123F00803CD682B4323F004030A4DEB
:102DE000A84203D005F58065A84205D122F44072BF
:102DF0004D6915438A692A43426084614A68426387
:102E0000036230BC704700BF0000014030B4036A69
:102E100023F480730362036A4268C46924F0730474
:102E20000D682C4323F400738D6843EA0523124D8B
:102E3000A84203D005F58065A84206D123F40063BB
:102E4000CD6843EA052323F480630B4DA84203D0E9
:102E500005F58065A84207D122F440524D6942EA47
:102E600005128D6942EA05124260C4614A68C26374
:102E7000036230BC704700BF0000014030B4036AF9
:102E800023F480530362036A4468C26922F4E64271
:102E90000D6842EA052223F400538D6843EA0533A6
:102EA000094DA84203D005F58065A84204D124F459
:102EB00080444D6944EA85144460C2614A680264F2
:102EC000036230BC704700BF0000014030B4036AA9
:102ED000056A25F001050562846924F0F00444EADE
:102EE000021423F00A030B438461036230BC704771
:102EF00030B4056A25F0100505628469036A24F47C
:102F0000704444EA023423F0A00343EA01138461CD
:102F1000036230BC7047836823F070030B4343F0B7
:102F20000703836070470268D36843F00103D360EE
:102F30000268936803F00703062B03D0136843F07D
:102F40000103136000207047704770477047704757
:102F5000704710B5044603681A6912F0020F11D0C9
:102F6000DA6812F0020F0DD06FF002021A6101232D
:102F7000037703689B6913F0030F70D0FFF7E6FF38
:102F80000023237723681A6912F0040F12D0DA683D
:102F900012F0040F0ED06FF004021A61022323779F
:102FA00023689B6913F4407F5FD02046FFF7CEFF74
:102FB0000023237723681A6912F0080F12D0DA6809
:102FC00012F0080F0ED06FF008021A610423237765
:102FD0002368DB6913F0030F4ED02046FFF7B6FFDE
:102FE0000023237723681A6912F0100F12D0DA68D1
:102FF00012F0100F0ED06FF010021A610823237721
:103000002368DB6913F4407F3DD02046FFF79EFF25
:103010000023237723681A6912F0010F03D0DA68BE
:1030200012F0010F36D123681A6912F0800F03D015
:10303000DA6812F0800F34D123681A6912F0400F59
:1030400003D0DA6812F0400F32D123681A6912F007
:10305000200F03D0DA6812F0200F30D110BDFFF737
:1030600074FF2046FFF773FF8AE72046FFF76DFFE6
:103070002046FFF76CFF9BE72046FFF766FF2046E0
:10308000FFF765FFACE72046FFF75FFF2046FFF73D
:103090005EFFBDE76FF001021A612046FEF788FC73
:1030A000C1E76FF080021A61204600F03EFAC3E7E4
:1030B0006FF040021A612046FFF74AFFC5E76FF044
:1030C00020021A61204600F02FFAC7E70368304A51
:1030D000904212D0B0F1804F0FD0A2F57C429042C6
:1030E0000BD002F58062904207D002F580629042D8
:1030F00003D002F57842904203D123F070034A686E
:103100001343234A90422AD0B0F1804F27D0A2F532
:103110007C42904223D002F5806290421FD002F59B
:10312000806290421BD002F57842904217D002F59F
:103130007052904213D002F5806290420FD002F597
:10314000806290420BD0A2F59832904207D002F5EF
:103150008062904203D002F58062904203D123F452
:103160004073CA68134323F080034A691343036022
:103170008B68C3620B688362054B984203D003F5EA
:103180008063984201D10B69036301234361704757
:1031900000000140B0B110B5044690F83D3063B175
:1031A000022384F83D30214651F8040BFFF78EFFCF
:1031B000012384F83D30002010BD80F83C30FEF73C
:1031C000B3FCEDE701207047B0B110B5044690F8AC
:1031D0003D3063B1022384F83D30214651F8040BA1
:1031E000FFF774FF012384F83D30002010BD80F804
:1031F0003C30FFF7A9FEEDE70120704730B4036AC9
:1032000023F010030362036A4468826922F4E642F1
:103210000D6842EA052223F020038D6843EA051376
:10322000114DA84203D005F58065A84206D123F0D0
:103230008003CD6843EA051323F040030A4DA842FA
:1032400003D005F58065A84207D124F440644D6998
:1032500044EA85048D6944EA8504446082614A68D1
:103260008263036230BC70470000014038B590F8BB
:103270003C30012B66D004460D46012380F83C30DB
:10328000022380F83D300C2A1AD8DFE802F0071933
:103290001919201919193419191947000068FFF76D
:1032A00081FD2268936943F0080393612268936962
:1032B00023F0040393612268936929690B439361A6
:1032C000012384F83D30002084F83C0038BD0068BC
:1032D000FFF794FF2268936943F4006393612268C7
:1032E000936923F48063936122689369296943EAAF
:1032F00001239361E4E70068FFF788FD2268D36942
:1033000043F00803D3612268D36923F00403D36137
:103310002268D36929690B43D361D1E70068FFF7BD
:10332000ADFD2268D36943F40063D3612268D36999
:1033300023F48063D3612268D369296943EA0123B6
:10334000D361BDE70220C1E710B4846824F47F4450
:1033500042EA03220A43224382605DF8044B70472D
:1033600090F83C30012B66D010B50446012380F85C
:103370003C30022380F83D300268936823F47F4399
:1033800023F0770393600B68602B40D022D8402B4A
:1033900047D00BD9502B0ED1CA6849680068FFF797
:1033A00095FD50212068FFF7B6FD04E0202B0CD0DE
:1033B00008D9302B09D0012384F83D30002084F84F
:1033C0003C0010BD0BB1102BF5D119462068FFF75A
:1033D000A2FDF0E7702B0ED0B3F5005FEBD1CB6808
:1033E0004A6889680068FFF7AFFF2268936843F472
:1033F00080439360DFE7CB684A6889680068FFF71D
:10340000A3FF2268936843F077039360D3E7CA6809
:1034100049680068FFF76CFD60212068FFF77BFDBD
:10342000C9E7CA6849680068FFF750FD4021206875
:10343000FFF771FDBFE70220704710B401F01F01D4
:10344000012303FA01F4036A23EA04030362036A13
:1034500002FA01F10B4303625DF8044B7047000070
:1034600010B5044601220068FFF7E7FF23680B4A06
:10347000934203D002F58062934203D15A6C42F426
:1034800000425A642268936803F00703062B03D0B6
:10349000136843F001031360002010BD00000140D9
:1034A00090F83C30012B3BD030B4012380F83C3005
:1034B000022380F83D3003685C689D6824F0700446
:1034C0000A6822435A600368164A93421AD0B3F13D
:1034D000804F17D0A2F57C42934213D002F5806250
:1034E00093420FD002F5806293420BD002F57842EE
:1034F000934207D002F57052934203D0A2F5943262
:10350000934204D125F080054A6815439D6001234C
:1035100080F83D30002380F83C30184630BC7047BE
:103520000220704700000140704770470268D3686E
:1035300023F0C003D360202380F83930704702683D
:10354000D36823F49073D3600268536923F00103B6
:103550005361202380F83A30704790F83930DBB25D
:10356000212B01D0022070478368B3F5805F17D00C
:10357000036A5A1C02621A7803685A60C38C9BB2B1
:10358000013B9BB2C3844BB90268D36823F080032C
:10359000D3600268D36843F04003D36000207047D3
:1035A000036A1B880268C3F30803536003691BB9ED
:1035B000036A02330362E1E7036A01330362DDE772
:1035C00070B504460268136923F44053C1680B4385
:1035D000136183680269134342691343C2691A4342
:1035E0000168CB6823F4164323F00C031343CB602C
:1035F0000268536923F4407381690B435361C369C3
:10360000B3F5004F36D00368654A934200F09A80C4
:1036100002F58062934200F09580FEF7FDFF0026E0
:10362000051846EB06012D1846EB0101CB0043EAD5
:103630005573EA001546194663689A009B0F2818CF
:1036400046EB0101FCF714FE564DA5FB0032510973
:10365000642303FB11031B013233A5FB03235B0926
:1036600003F0F00202EB011203F00F032168134490
:103670008B6093E003684A4A934233D002F580623C
:1036800093422FD0FEF7C8FF0026051846EB06012F
:103690002D1846EB0101CB0043EA5573EA001546AD
:1036A000194662683346921846EB0303281846EB26
:1036B0000101FCF7DDFD3B4DA5FB00325109642300
:1036C00003FB1103DB003233A5FB03235B095A0024
:1036D00002F4F87202EB011203F0070321681344AD
:1036E0008B605BE0FEF7A8FF0026051846EB06019D
:1036F0002D1846EB0101CB0043EA5573EA0015464D
:10370000194662683346921846EB0303281846EBC5
:103710000101FCF7ADFD234DA5FB003251096423E7
:1037200003FB1103DB003233A5FB03235B095A00C3
:1037300002F4F87202EB011203F00703216813444C
:103740008B602BE0FEF778FF0026051846EB06019C
:103750002D1846EB0101CB0043EA5573EA001546EC
:10376000194663689A009B0F281846EB0101FCF785
:103770007FFD0C4DA5FB00325109642303FB1103AF
:103780001B013233A5FB03235B0903F0F00202EBBC
:10379000011203F00F03216813448B6070BD00BF5A
:1037A000001001401F85EB512DE9F84305460F46F7
:1037B00016469946DDF820802C68246837EA040311
:1037C0000CBF01240024B4421FD1B8F1FF3FF3D055
:1037D000B8F1000F05D0FFF7DFFAA0EB0900404574
:1037E000EAD92A68D36823F4D073D3602A6853696E
:1037F00023F001035361202385F8393085F83A30EE
:10380000002385F83830032000E00020BDE8F8836D
:1038100058B310B5044690F839300BB3242384F81C
:1038200039302268D36823F40053D3602046FFF771
:10383000C7FE2268136923F4904313612268536919
:1038400023F02A0353612268D36843F40053D36002
:103850000020E063202384F8393084F83A3010BD2A
:1038600080F83830FEF74EFAD8E7012070472DE98E
:10387000F04383B01E4690F83930DBB2202B59D18B
:1038800004460D469046002958D0002A58D090F89A
:103890003830012B56D0012380F838304FF0000922
:1038A000C0F83C90212380F83930FFF775FA0746BD
:1038B000A4F82480A4F8268084F8389017E00096B5
:1038C0003B46002280212046FFF76EFF00283BD1B7
:1038D0002B882268C3F30803536023690BB90235B0
:1038E00005E0013503E015F8012B23685A60E38CED
:1038F0009BB29BB1E28C92B2013A92B2E284A3688D
:10390000B3F5805FDBD000963B4600228021204645
:10391000FFF74AFF0028E6D003200CE000963B4664
:10392000002240212046FFF73FFF78B9202384F88A
:10393000393000E0022003B0BDE8F0830120FAE74F
:103940000120F8E70220F6E70320F4E70320F2E77E
:1039500030B583B0044690F83A00C0B220283CD17C
:1039600000293DD0002A3DD094F83830012B3BD0BF
:10397000012384F83830A162A2850025E563222363
:1039800084F83A30636B1948D863636B184818643D
:10399000636B1848D864636B1D65206813460A463C
:1039A000011D606BFFF748F8019523681A680192C2
:1039B0005A680192019A84F83850DA6842F48072A9
:1039C000DA602268536943F0010353612268536946
:1039D00043F040035361284600E0022003B030BDAD
:1039E0000120FBE70120F9E70220F7E7153A00087C
:1039F000F13A0008FD3A0008704708B50168CA6846
:103A000022F04002CA60202280F83920FFF7F4FF3C
:103A1000002008BD08B50346806B1B681B6813F4C3
:103A2000807F13D10023C3850268D36823F4807399
:103A3000D3600268536923F001035361026853693C
:103A400023F040035361202380F83A30FCF72CFE2A
:103A500008BD08B590F83A30DBB2222B46D1836816
:103A6000B3F5805F0FD003690BBB03685A68836AA4
:103A7000591C81621A70C38D9BB2013B9BB2C385F6
:103A8000F3B1002008BD826A036943B903685B682B
:103A9000C3F308031380836A02338362EBE703688E
:103AA0005B68DBB21380836A01338362E3E70368F8
:103AB0005B68826A511C816203F07F031370DAE74E
:103AC0000268D36823F02003D3600268D36823F42C
:103AD0008073D3600268536923F00103536120238C
:103AE00080F83A30FCF7E0FD0020CBE70220C9E780
:103AF00008B5806BFCF7E4FD08BD704710B5846B1A
:103B000023685A6994F83930DBB2212B10D023682E
:103B10005A6902F0400294F83A30DBB2222B11D0FD
:103B2000E36B43F01003E3632046FFF7E6FF10BDAD
:103B300002F08002002AEAD00023E3842046FFF747
:103B4000F5FCE4E7002AEBD00023E3852046FFF7ED
:103B5000F6FCE5E710B5044602681368D1685269BF
:103B600013F00F0005D113F0200F02D011F0200F39
:103B700013D128B112F0010213D111F4907F10D1AA
:103B800013F0800F02D011F0800F6CD113F0400FB2
:103B900002D011F0400F6AD110BD2046FFF759FF47
:103BA000FAE713F0010F06D011F4807F03D0E06B29
:103BB00040F00100E06313F0040F04D01AB1E06B91
:103BC00040F00200E06313F0020F04D01AB1E06B82
:103BD00040F00400E06313F0080F07D011F0200F4D
:103BE00000D11AB1E26B42F00802E263E26B002AF4
:103BF000D2D013F0200F02D011F0200F21D1236872
:103C00005B6903F04003E26B12F0080F00D123B3AD
:103C10002046FFF794FC23685A6912F0400F18D031
:103C20005A6922F040025A61636B73B1124A1A65F5
:103C3000606BFEF736FF0028AED0606B036D9847CF
:103C4000AAE72046FFF705FFD9E72046FFF755FF13
:103C5000A2E72046FFF751FF9EE72046FFF74DFF02
:103C60000023E36398E72046FFF777FC94E72046BC
:103C7000FFF7C3FE90E700BF7D3C000808B5806BEE
:103C80000023C385C384FFF738FF08BD054BD3F875
:103C9000882042F47002C3F888204FF000629A60D6
:103CA000704700BF00ED00E000F1080343604FF0F3
:103CB000FF328260C360036100230360704700230A
:103CC0000361704743684B609A688A6051609960ED
:103CD0000861036801330360704730B40D68B5F1C3
:103CE000FF3F11D000F108031C465B681A68AA4226
:103CF000FAD963684B6099608C6061600861036801
:103D00000133036030BC70470469F2E7036941681E
:103D100082688A60416851605A68824206D00022F7
:103D200002611A68013A1A601868704782685A601E
:103D3000F5E710B5044601F0C5F8A36B23B90124DB
:103D400001F0E2F8204610BD0024F9E770B5044602
:103D50001546866B026C5AB903681BB10020013608
:103D6000A66370BD806800F095FE0023A360F6E7AF
:103D70006DB9406801F05AFA226C636813446360BD
:103D8000A268934219D3236863602846E7E7C068B6
:103D900001F04CFA226C5142E3689B1AE3602268FE
:103DA000934202D2A3680B44E360022D01D00020AD
:103DB000D5E726B1013E0020D1E72846CFE7002015
:103DC000CDE70346026C6AB110B50846D9681144C4
:103DD000D9609C68A14201D31968D960D96801F003
:103DE00025FA10BD704738B5054601F06BF895F817
:103DF000454064B203E000F037FE013C64B2002CA1
:103E000008DD6B6A33B105F1240000F099FD00284C
:103E1000F3D0F0E7FF2385F8453001F075F801F0A5
:103E200051F895F8444064B203E000F01DFE013CF7
:103E300064B2002C08DD2B6933B105F1100000F0ED
:103E40007FFD0028F3D0F0E7FF2385F8443001F030
:103E50005BF838BD38B5E0B10D46044601F032F8E4
:103E60002168E26B236C03FB0210A0600020A063BA
:103E70006160013A02FB0313E360FF2384F84430DE
:103E800084F84530EDB9236963B901F03DF80120AC
:103E900038BD4FF0500383F31188BFF36F8FBFF32A
:103EA0004F8FFEE704F1100000F04AFD0028ECD02F
:103EB000084B4FF080521A60BFF34F8FBFF36F8FE4
:103EC000E3E704F11000FFF7EFFE04F12400FFF731
:103ED000EBFEDAE704ED00E010B5034602980C466D
:103EE00031B90060C36304640121FFF7B3FF10BD63
:103EF0000260F7E740B94FF0500383F31188BFF336
:103F00006F8FBFF34F8FFEE730B585B01C46054677
:103F100053B192B189B94FF0500383F31188BFF3C5
:103F20006F8FBFF34F8FFEE74FF0500383F311887D
:103F3000BFF36F8FBFF34F8FFEE76AB14823039340
:103F4000039B482B13D04FF0500383F31188BFF32A
:103F50006F8FBFF34F8FFEE70029EFD04FF0500374
:103F600083F31188BFF36F8FBFF34F8FFEE7039B7F
:103F7000012384F8463000949DF820302846FFF74E
:103F8000ABFF204605B030BD2DE9F84390B189461E
:103F900090461F460446B1B1022F20D1E36B012B9E
:103FA0001DD04FF0500383F31188BFF36F8FBFF321
:103FB0004F8FFEE74FF0500383F31188BFF36F8FED
:103FC000BFF34F8FFEE7036C002BE5D04FF050039B
:103FD00083F31188BFF36F8FBFF34F8FFEE701F0BC
:103FE0009BF8EFF311864FF0500383F31188BFF372
:103FF0006F8FBFF34F8FA26BE36B9A4206D3022FF2
:1040000004D0002086F31188BDE8F88394F8455069
:104010006DB23A4649462046FFF798FEB5F1FF3F9C
:1040200005D06B1C5BB284F845300120EAE7636A77
:104030000BB90120E6E704F1240000F081FC30B167
:10404000B8F1000F05D00120C8F80000DAE7012020
:10405000D8E70120D6E70000F0B585B0019290B115
:104060000E460446C1B100F005FD074600BB019BAA
:10407000002B5CD04FF0500383F31188BFF36F8F98
:10408000BFF34F8FFEE74FF0500383F31188BFF368
:104090006F8FBFF34F8FFEE7036C002BE3D04FF021
:1040A000500383F31188BFF36F8FBFF34F8FFEE789
:1040B00000273CE031462046FFF783FE013DA56323
:1040C000236923B900F020FF012005B0F0BD04F101
:1040D000100000F035FC0028F4D0354B4FF0805232
:1040E0001A60BFF34F8FBFF36F8FEBE700F00CFF49
:1040F0000020EAE702A800F069FC012721E0002384
:1041000084F8443029E0002384F845302BE0204631
:10411000FFF769FE00F00EFB09E02046FFF763FEA3
:1041200000F008FB2046FFF704FE00283DD100F018
:10413000C9FEA56B002DBDD1019B002BD6D0002F51
:10414000D8D000F0E1FE00F061FA00F0BBFE94F878
:1041500044305BB2B3F1FF3FD1D094F845305BB24D
:10416000B3F1FF3FCFD000F0CFFE01A902A800F0CD
:1041700039FC0028D1D12046FFF7DBFD0028C6D04E
:10418000019904F1240000F0C3FB2046FFF72BFE49
:1041900000F0D0FA0028CAD1054B4FF080521A60C7
:1041A000BFF34F8FBFF36F8FC1E700208DE700BFD4
:1041B00004ED00E0084B1B681B6823B9074B4FF068
:1041C000FF321A607047044B1B68DB68DB685A6873
:1041D000024B1A60704700BF80100020541100206D
:1041E0002DE9F04780469946089EDDF824A00A9CF8
:1041F000276B02F18042013A07EB820727F007079D
:1042000089B30D4600220F2A07D8A95CA31883F8AA
:104210003410AB5C0BB10132F5E7002384F8433076
:10422000062E00D90626E66266640025A564201DD8
:10423000FFF745FD04F11800FFF741FD2461C6F1C9
:104240000706A6616462E56484F850504A46414618
:10425000384600F00DFE2060BAF1000F01D0CAF818
:104260000040BDE8F087002384F83430D8E7000030
:1042700038B5002407E004EB840293000E4818448C
:10428000FFF712FD0134062CF5D90C4D2846FFF737
:104290000BFD0B4C2046FFF707FD0A48FFF704FD16
:1042A0000948FFF701FD0948FFF7FEFC084B1D60B8
:1042B000084B1C6038BD00BF881000202C11002066
:1042C000401100205C110020881100207411002092
:1042D000801000208410002010B5044600F0F2FD8C
:1042E000204A1368013313601F4B1B685BB11F4BDF
:1042F0001B686BB91C4B1B68DA6AE36A9A4207D8E1
:10430000194B1C6004E0184B1C601368012B26D06D
:10431000174A136801331360E06A01238340154A8A
:1043200011680B43136000EB8000211D124B03EB5F
:104330008000FFF7C7FC00F0E7FD0C4B1B686BB17A
:10434000094B1B68DA6AE36A9A4207D20B4B4FF0BB
:1043500080521A60BFF34F8FBFF36F8F10BDFFF70E
:1043600087FFD5E7141100207C1000207011002079
:1043700024110020281100208810002004ED00E006
:1043800010B5044690F8513063B1012B11D0022BC7
:104390000ED04FF0500383F31188BFF36F8FBFF33C
:1043A0004F8FFEE7006B00F0EDFC204600F0EAFCCA
:1043B00010BD00F0E7FCFBE70F4B1B68D3B110B555
:1043C00000F080FD0D4BDB68DC68201DFFF79EFCD4
:1043D0000B4A1368013B1360074A1368013B1360E3
:1043E00000F092FD2046FFF7CBFF034B1B68002B2C
:1043F000E6D110BD704700BF1811002088110020C1
:104400001411002008B5FFF7D7FF064B1B68012BDE
:10441000F9D9054B4FF080521A60BFF34F8FBFF3AD
:104420006F8FF0E78810002004ED00E070B50446BF
:104430000D461D4B1E681D4B18680430FFF766FCC7
:1044400050B91A4B1B68DA6A012303FA02F21849C1
:104450000B6823EA02030B60B4F1FF3F0DD0344434
:10446000124B1B685C60A64210D9124B18680F4BA8
:1044700019680431FFF731FC70BD002DEFD00B4BF4
:10448000196804310C48FFF71DFCF5E70B4B186861
:10449000064B19680431FFF720FC094B1B68A34247
:1044A000EAD9074B1C60E7E79C1100207C10002034
:1044B000281100208410002074110020801000209A
:1044C0005411002070B586B00B9D0C9C75B1B4B131
:1044D00054260496049E542E1AD04FF0500383F3B2
:1044E0001188BFF36F8FBFF34F8FFEE74FF050037C
:1044F00083F31188BFF36F8FBFF34F8FFEE74FF049
:10450000500383F31188BFF36F8FBFF34F8FFEE724
:10451000049E2563022584F85150002503950294DA
:1045200005AD01950A9D0095FFF75AFE2046FFF75D
:10453000D3FE059806B070BD2DE9F04385B007465F
:10454000884614461E46900000F0A4FB00B3814646
:10455000542000F09FFB0546B0B1C0F83090E5B1A3
:10456000002385F85130039302950D9B01930C9B1A
:1045700000933346224641463846FFF731FE28462F
:10458000FFF7AAFE012005E0484600F0FBFBE6E746
:104590004FF0FF3005B0BDE8F0834FF0FF30F9E792
:1045A00010B588B000240594069407AA06A905A8AA
:1045B000FDF798FA059B0293069B0193009423460E
:1045C000079A0D490D48FFF77DFF90B14FF050035A
:1045D00083F31188BFF36F8FBFF34F8F084B4FF0FA
:1045E000FF321A60074B01221A60074B1C6000F073
:1045F0000BFD08B010BD00BFA06D00080544000809
:1046000054110020701100209C110020024A1368F0
:1046100001331360704700BF20110020F8B53A4BFA
:104620001B68002B64D1394B1D6801351D60C5B96D
:10463000374B1B681B6843B14FF0500383F311885D
:10464000BFF36F8FBFF34F8FFEE7314A1168314BD5
:10465000186810601960304A136801331360FFF75F
:10466000A9FD2E4B1B68AB4238D900242C4B1B688C
:10467000DB6A03EB83039A002A4B9B58012B3CD93E
:1046800001243AE00124224B1B681B6843B3204BF2
:104690001B68DB68DE6873689D4226D3371D384689
:1046A000FFF734FBB36A1BB106F11800FFF72EFBCE
:1046B000F36A01229A401C49086802430A6003EB2E
:1046C00083039A00394617481044FFF7FBFAF26A51
:1046D000134B1B68DB6A9A42D4D2D4E70024D2E79A
:1046E0000E4B4FF0FF321A60C0E70C4A1360BDE773
:1046F0000E4A13680133136000240D4B1B6803B18D
:1047000001242046F8BD00BF201100209C1100208C
:104710008010002084100020581100205411002027
:104720007C10002088100020281100201C1100207F
:10473000A011002038B5344B1B6843B94FF050032B
:1047400083F31188BFF36F8FBFF34F8FFEE700F045
:10475000B9FB2D4B1A68013A1A601B68002B4DD12A
:104760002A4B1B680BB9002449E00024284B1B6826
:104770001BB3274BDB68DC6804F11800FFF7C6FAAF
:10478000251D2846FFF7C2FAE06A01238340214A2B
:1047900011680B43136000EB800029461E4B03EBAE
:1047A0008000FFF78FFAE26A1C4B1B68DB6A9A42B3
:1047B000DCD31B4B01221A60D8E70CB1FFF7FAFCDF
:1047C000184B1C6874B9164B1C68C4B1164B4FF0DB
:1047D00080521A60BFF34F8FBFF36F8F01240EE03A
:1047E000013C07D0FFF71AFF0028F9D00C4B01223B
:1047F0001A60F5E70B4B00221A60E4E7002400F092
:1048000083FB204638BD00BF20110020141100207A
:104810005C11002028110020881000207C1000204E
:10482000A01100201C11002004ED00E010B5A8B17B
:1048300004460F4B1B6843B14FF0500383F31188BC
:10484000BFF36F8FBFF34F8FFEE7FFF7DFFE00214F
:104850002046FFF7EBFDFFF76DFF38B9054B4FF032
:1048600080521A60BFF34F8FBFF36F8F10BD00BF30
:104870002011002004ED00E0204B1B681BB1204BF1
:1048800001221A6070471E4B00221A601D4B1B68E4
:10489000B3FA83F3DBB2C3F11F0303EB83018A0096
:1048A00019498A5842B94FF0500383F31188BFF376
:1048B0006F8FBFF34F8FFEE710B4134903EB8300F4
:1048C00082000A4450684068506003EB8304A200F1
:1048D00014460832114488420BD003EB83039A003C
:1048E000094B13445B68DA68084B1A605DF8044BA7
:1048F00070474068044A22445060EEE720110020CF
:10490000A011002028110020881000207C10002019
:1049100058B110B50C46094B19681831FFF7DDF98D
:1049200001212046FFF782FD10BD4FF0500383F3B5
:104930001188BFF36F8FBFF34F8FFEE77C1000200D
:1049400038B5C368DC6824B304F118052846FFF7BE
:10495000DDF9184B1B682BBB251D2846FFF7D6F940
:10496000E06A01238340144A11680B43136000EB93
:1049700080002946114B03EB8000FFF7A3F9E26AA0
:104980000F4B1B68DB6A9A4211D901200D4B18604E
:104990000EE04FF0500383F31188BFF36F8FBFF326
:1049A0004F8FFEE729460848FFF78CF9E7E700201C
:1049B00038BD00BF201100202811002088100020E1
:1049C0007C100020A01100205C110020034B1B680C
:1049D0000360034B1B684360704700BF5811002001
:1049E0009C110020F8B5C8B10C460546F9B100F09D
:1049F00069FA1B4B19686B68C81A2268B2F1FF3F4D
:104A000026D02F68174E3668B74201D08B4224D982
:104A1000824215D80023236001241AE04FF050038E
:104A200083F31188BFF36F8FBFF34F8FFEE74FF013
:104A3000500383F31188BFF36F8FBFF34F8FFEE7EF
:104A40005B1A134423602846FFF7C0FF002400E0F0
:104A5000002400F059FA2046F8BD0124F9E700BF10
:104A60009C11002058110020014B01221A60704750
:104A7000A0110020054B1B6833B1054B1B680BB11F
:104A800000207047022070470120704770110020FD
:104A90002011002000284CD038B50446274B1B6855
:104AA000834208D04FF0500383F31188BFF36F8F18
:104AB000BFF34F8FFEE7836C43B94FF0500383F38E
:104AC0001188BFF36F8FBFF34F8FFEE7013B836405
:104AD000C16A426C91422ED00BB1002038BD051D39
:104AE0002846FFF713F970B9E26A02EB82039B00D4
:104AF0001349CB583BB9012303FA02F211490B6861
:104B000023EA02030B60606CE062C0F10703A3615B
:104B1000012404FA00F30B4A11680B43136000EB05
:104B200080002946064B03EB8000FFF7CBF82046B8
:104B3000D4E7002070470020D0E700BF7C100020A1
:104B40008810002028110020842801D003307047ED
:104B50000020704708B5FFF723FD002008BD2DE9B0
:104B6000F04387B004460F464569BDB18669AEB1D2
:104B7000D0F80480D0F80090B0F90800FFF7E4FF07
:104B80000296019500903B46226949464046FFF750
:104B900099FC0590059807B0BDE8F0836568266824
:104BA000D4F81080B4F90800FFF7CEFF05AB0193ED
:104BB00000903B461FFA88F231462846FFF7BCFCBE
:104BC0000128E7D00020E6E708B500B90120FFF78B
:104BD0002DFE002008BD0000124A12F0070F1ED063
:104BE000D11D21F00701C1F5705313440A460E4848
:104BF0000260002141601344083B23F007030B4887
:104C0000036059601960991A51601360084B19606C
:104C1000084B1960084B4FF000421A6070474FF480
:104C20007053E4E7A8110020B44D0020A411002027
:104C3000B04D0020AC4D0020A84D002010B4134B07
:104C40001A461B688342FBD35168541884420AD029
:104C500041684418A3420BD00360904200D010601A
:104C60005DF8044B70474068014451601046EFE71F
:104C7000074C2468A34206D05B681944416013685E
:104C80001B680360E9E70460E7E700BFB44D00205C
:104C9000A411002070B50446FFF7B8FC344B1B6824
:104CA000A3B1344B1B681C424AD134B1083414F010
:104CB000070F02D024F007040834002C42D02E4BFA
:104CC0001B68A3424DD32D4B1D6804E0FFF784FF02
:104CD000E7E72B4615466A68A24202D22A68002AF4
:104CE000F7D1234A1268AA423DD01E6808362A68C6
:104CF0001A606B681B1B102B10D9281910F0070FB6
:104D000008D04FF0500383F31188BFF36F8FBFF3C8
:104D10004F8FFEE743606C60FFF790FF6A681649AB
:104D20000B689B1A0B60164909688B4201D2144923
:104D30000B60104B1B6813436B6000232B6002E079
:104D4000002600E00026FFF7F5FC16F0070F0CD058
:104D50004FF0500383F31188BFF36F8FBFF34F8F72
:104D6000FEE70026EFE70026EDE7304670BD00BF06
:104D7000A4110020A84D0020AC4D0020B44D00200F
:104D8000B04D002080B338B50446A0F1080550F8B6
:104D9000043C164A1268134208D14FF0500383F3C3
:104DA0001188BFF36F8FBFF34F8FFEE750F8081CD9
:104DB00041B14FF0500383F31188BFF36F8FBFF3FE
:104DC0004F8FFEE723EA020340F8043CFFF71EFC86
:104DD00054F8041C064A13680B4413602846FFF776
:104DE0002DFFFFF7A7FC38BD704700BFA84D00207E
:104DF000AC4D002082B0002301930D4B1B68B3F132
:104E0000FF3F08D04FF0500383F31188BFF36F8F3B
:104E1000BFF34F8FFEE74FF0500383F31188BFF3CA
:104E20006F8FBFF34F8F019B002BFCD002B07047F8
:104E30000C00002008480068006880F308884FF0E4
:104E4000000080F3148862B661B6BFF34F8FBFF3E2
:104E50006F8F00DF00BF000008ED00E0DFF80C00FE
:104E6000016841F4700101607047000088ED00E0C6
:104E70004FF0807340F8043C21F0010140F8081C19
:104E8000054B40F80C3C40F8202C6FF0020340F832
:104E9000243C4438704700BFF54D00080000000076
:104EA000074B19680868B0E8F04F80F30988BFF332
:104EB0006F8F4FF0000080F311887047AFF30080D0
:104EC0007C1000204FF0500383F31188BFF36F8FE5
:104ED000BFF34F8F0A4A136801331360012B00D0D0
:104EE0007047084B1B6813F0FF0FF9D04FF05003C9
:104EF00083F31188BFF36F8FBFF34F8FFEE700BFBF
:104F00000C00002004ED00E0094B1B6843B94FF092
:104F1000500383F31188BFF36F8FBFF34F8FFEE70A
:104F2000013B034A13600BB983F31188704700BF3C
:104F30000C00002000000000000000000000000045
:104F4000EFF30980BFF36F8F154B1A681EF0100F37
:104F500008BF20ED108A20E9F04F10602DE909000C
:104F60004FF0500080F31188BFF34F8FBFF36F8F66
:104F7000FFF782FC4FF0000080F3118809BC19682C
:104F80000868B0E8F04F1EF0100F08BFB0EC108AB0
:104F900080F30988BFF36F8F704700BFAFF30080C5
:104FA0007C10002008B54FF0500383F31188BFF345
:104FB0006F8FBFF34F8FFFF731FB18B1034B4FF0EB
:104FC00080521A60002383F3118808BD04ED00E0CD
:104FD000084A0023136008490B60084B1B68084906
:104FE000A1FB03139B09013B06490B6007231360D8
:104FF000704700BF10E000E018E000E0080000206B
:10500000D34D621014E000E03A4B1A683A4B9A42D2
:1050100029D0384B1A68394B9A422DD010B582B03E
:10502000374B1A78D2B20192FF221A701B78DBB28A
:105030008DF803309DF8033003F05003314A1370AC
:10504000314B07221A609DF8033013F0800F1CD0FB
:105050002D4A1368013B13609DF803305B00DBB2FF
:105060008DF80330EFE74FF0500383F31188BFF35F
:105070006F8FBFF34F8FFEE74FF0500383F311881C
:10508000BFF36F8FBFF34F8FFEE71F4B1B68032BE0
:1050900008D04FF0500383F31188BFF36F8FBFF335
:1050A0004F8FFEE71B0203F4E063174A1360019B76
:1050B000DBB2134A1370154B1A6842F470021A607F
:1050C0001A6842F070421A60FFF782FF0024104B0A
:1050D0001C60FFF7C3FE0F4A136843F040431360A0
:1050E000FFF7A8FEFFF7C8FBFFF784FE204602B0DB
:1050F00010BD00BF00ED00E071C20F4170C20F4152
:1051000000E400E0BC4D0020C04D002020ED00E098
:105110000C00002034EF00E0EFF305830F2B0FD9D4
:10512000104A9B5CDBB2104A12789A4208D94FF0C1
:10513000500383F31188BFF36F8FBFF34F8FFEE7E8
:105140000A4B1B6803F4E063094A1268934208D9CA
:105150004FF0500383F31188BFF36F8FBFF34F8F6E
:10516000FEE77047F0E300E0BC4D00200CED00E0EE
:10517000C04D0020DFF834D0002103E00C4B5B5819
:10518000435004310B480C4B42189A42F6D30B4A59
:1051900002E0002342F8043B094B9A42F9D3FEF7A0
:1051A00075FD00F011F8FCF7EBFB704700000220E2
:1051B000506E0008000000207400002074000020E1
:1051C0006C500020FEE7000070B50D4D0D4C641BC7
:1051D000A4100026A64209D10B4D0C4C01F03EF85C
:1051E000641BA4100026A64205D170BD55F8043BEF
:1051F00098470136EEE755F8043B98470136F2E749
:10520000486E0008486E0008486E00084C6E0008A2
:1052100030B501390024A24201D1002005E0035D30
:1052200001340D5DAB42F6D0581B30BD0A449142AB
:1052300000F1FF3300D1704710B511F8014B03F8AE
:10524000014F9142F9D110BD02440346934200D16F
:10525000704703F8011BF9E70FB40A4B13B51C683C
:1052600024B1A36913B9204600F05EFA05AB049A95
:10527000A1680193204600F02FFC02B0BDE8104069
:1052800004B070471000002070B50E46054618B1F6
:1052900083690BB900F048FAAB69AC6813B92846CA
:1052A00000F042FA2C4B9C4220D16C68636EDB0705
:1052B00005D4A389980502D4A06D00F0D3FAA38980
:1052C00019071DD52369DBB1013EA36816F8011F3C
:1052D000013BA36039BB002B38DA22460A2128465D
:1052E00000F048F8013011D00A2511E01B4B9C4218
:1052F00001D1AC68DAE71A4B9C4208BFEC68D5E7ED
:105300002146284600F088F80028DDD04FF0FF3510
:10531000636EDA0705D4A3899B0502D4A06D00F063
:10532000A2FA284670BD002B04DAA2699A4206DC74
:105330000A2904D023685A1C22601970C5E7224646
:10534000284600F017F80130BFD1DFE723680A25AF
:105350005A1C22601D70DBE7CC6D0008EC6D000864
:10536000AC6D0008024B01461868FFF78DBF00BF07
:1053700010000020F8B50E461446054618B18369A2
:105380000BB900F0D1F9214B9C422BD16C68A36979
:10539000A360A3891A072FD523696BB323692068FB
:1053A000C01A6369F6B28342374604DC21462846B8
:1053B00000F026F930BBA368013BA36023685A1CA8
:1053C00022601E7063690130834204D0A389DB0729
:1053D00006D50A2E04D12146284600F011F988B9D5
:1053E0003846F8BD0A4B9C4201D1AC68CFE7094B67
:1053F0009C4208BFEC68CAE72146284600F00CF83A
:105400000028CBD04FF0FF37EAE700BFCC6D000893
:10541000EC6D0008AC6D0008324B70B51D68064697
:105420000C4625B1AB6913B9284600F07DF92E4B27
:105430009C420FD16C68A389B4F90C2019072CD4B5
:10544000DD0611D40923336042F04003A3814FF0FD
:10545000FF303EE0254B9C4201D1AC68EBE7244B8A
:105460009C4208BFEC68E6E7580712D5616B41B172
:1054700004F14403994202D0304600F059FA002367
:105480006363A38923F02403A3810023636023695A
:105490002360A38943F00803A38123694BB9A3893F
:1054A00003F42073B3F5007F03D02146304600F0AB
:1054B000FFF9A089B4F90C2010F001030AD00023F1
:1054C000A36063695B42A361236943B910F0800064
:1054D000BAD170BD810758BF6369A360F4E70020AB
:1054E000F7E700BF10000020CC6D0008EC6D00084D
:1054F000AC6D00088A892DE9F041054610070C467D
:1055000058D44B68002B05DC0B6C002B02DC002010
:10551000BDE8F081E66A002EF9D0002312F4805233
:105520002F682B6032D0606DA3895A0705D5636858
:10553000C01A636B0BB1236CC01A00230246E66AE3
:10554000216A2846B047431CA38906D129681D2932
:105550002CD82A4ACA40D60728D500226260D9042E
:105560002269226004D5421C01D12B6803B9606511
:10557000616B2F600029CAD004F14403994202D024
:10558000284600F0D5F900206063C1E7216A0123B5
:105590002846B047411CC7D12B68002BC4D01D2B17
:1055A00001D0162B01D12F60B1E7A38943F040034E
:1055B000A381ADE70F69002FA9D093070E6808BF3C
:1055C0004B690F6018BF0023A6EB07088B60B8F18A
:1055D000000F9CDD216AA66A43463A462846B0473A
:1055E000002806DCA38943F04003A3814FF0FF307D
:1055F0008EE70744A8EB0008E9E700BF0100402060
:1056000038B50B6905460C4613B90025284638BD48
:1056100018B183690BB900F087F8144B9C421BD179
:105620006C68B4F90C30002BEFD0626ED00704D454
:10563000990502D4A06D00F015F928462146FFF720
:1056400059FF636EDA070546E0D4A3899B05DDD4D4
:10565000A06D00F008F9D9E7054B9C4201D1AC6878
:10566000DFE7044B9C4208BFEC68DAE7CC6D00082A
:10567000EC6D0008AC6D0008002310B50446C0E9CD
:105680000033C0E90433836081814366C281836152
:10569000194608225C30FFF7D7FD054B6362054BC6
:1056A000A362054BE362054B2462236310BD00BF78
:1056B00081600008A3600008DB600008FF6000084C
:1056C000014900F0AFB800BF0156000870B54A1E8E
:1056D000682555430E4605F1740100F079F904463A
:1056E00040B10021C0E900160C30A06005F168024D
:1056F000FFF7AAFD204670BD014800F0B3B800BF17
:1057000064500020014800F0AEB800BF6450002093
:10571000014800F0A7B800BF5F500020014800F02A
:10572000A2B800BF5F50002010B50446FFF7F0FF9D
:10573000A3691BB1BDE81040FFF7F0BFC4E9123305
:105740002365134B134A1B68A262A34204BF0123C3
:10575000A361204600F020F86060204600F01CF8AD
:10576000A060204600F018F80022E0600421606884
:10577000FFF782FFA06801220921FFF77DFFE068A3
:1057800002221221FFF778FF0123A361D2E700BFB5
:10579000A86D0008C1560008F8B50746FFF7ACFF32
:1057A0001E4B1E68B36913B93046FFF7BDFF48367C
:1057B000D6E90134013B03D533680BB33668F7E70C
:1057C000B4F90C50D5B9164BE36004F15800656686
:1057D00000F047F8FFF796FFC4E90155C4E9045506
:1057E0002560A5610822294604F15C00FFF72CFD25
:1057F000C4E90D55C4E912552046F8BD6834D9E70F
:1058000004213846FFF762FF044630600028D5D1F6
:10581000FFF778FF0C233B60EEE700BFA86D0008A0
:105820000100FFFF2DE9F8430646884600F14804D1
:105830000027D4E90195B9F1010905D52468002CA8
:10584000F7D13846BDE8F883AB89012B07D9B5F904
:105850000E30013303D029463046C0470743683530
:10586000E9E770477047704770B50E46B1F90E1002
:10587000002996B014461D4607DA00232B60B38931
:105880001A0610D44FF480630EE06A4600F05EFC06
:105890000028F2DB019A02F47042A2F500535A424A
:1058A0005A412A60EEE740230020236016B070BD05
:1058B0008B8973B59D0706460C4607D504F147034F
:1058C000236023610123636102B070BD01AB6A46AE
:1058D000FFF7CAFF00990546304600F079F848B94D
:1058E000B4F90C309A05EFD423F0030343F002031C
:1058F000A381E3E70D4BB362A389206043F08003EB
:10590000A381009B6361019B20615BB1B4F90E1020
:10591000304600F02DFC28B1A38923F0030343F0A7
:105920000103A381A0890543A581CDE7C1560008E5
:1059300037B5002948D051F8043C0190002BA1F163
:105940000404B8BFE41800F035FC204A019813683D
:10595000154633B96360146003B0BDE8304000F011
:105960002FBCA3420BD921686218934204BF1A6866
:105970005B68636004BF521822602C60ECE71A4633
:105980005B680BB1A342FAD911685518A5420BD137
:10599000246821445418A3421160DDD11C685B685F
:1059A000536021441160D7E702D90C230360D3E789
:1059B000256861198B4204BF19685B68636004BF86
:1059C000491921605460C7E703B030BDC44D0020C1
:1059D000F8B5CD1C25F0030508350C2D38BF0C2576
:1059E000002D064601DBA94203D90C2333600020B9
:1059F000F8BD00F0DFFB21490A6814469CB9204F2E
:105A00003B6823B92146304600F02AFB386029461E
:105A1000304600F025FB431C23D10C233360304675
:105A200000F0CEFBE3E723685B1B17D40B2B03D9F5
:105A300023601C44256004E06368A2420CBF0B6035
:105A40005360304600F0BCFB04F10B00231D20F036
:105A50000700C21ACCD01B1AA350C9E722466468BB
:105A6000CCE7C41C24F00304A042E3D0211A304642
:105A700000F0F6FA0130DDD1CFE700BFC44D0020C1
:105A8000C84D00209368013B002B10B4936008DAE6
:105A90009469A34201DB0A2903D15DF8044BFFF7A7
:105AA00069BC1368581C1060197008465DF8044BF7
:105AB0007047F8B506460F461446D518AC4201D1DA
:105AC000002007E014F8011B3A463046FFF7DAFFE2
:105AD000431CF3D1F8BD00002DE9F04F0D469DB0F9
