:020000040800F2
:1000000000000220354A0008811C0008831C0008FB
:10001000851C0008871C0008891C000800000000DF
:100020000000000000000000000000006147000820
:100030008B1C00080000000001480008654800080B
:10004000854A0008854A0008854A0008854A000854
:10005000854A0008854A0008854A0008854A000844
:10006000854A0008854A0008854A0008854A000834
:10007000854A000889060008854A00089906000894
:10008000854A0008854A0008854A0008854A000814
:10009000854A0008854A0008854A0008854A000804
:1000A000854A0008854A0008854A0008854A0008F4
:1000B000854A0008854A0008854A0008854A0008E4
:1000C000854A0008854A0008854A0008854A0008D4
:1000D000854A00088D1C0008854A0008854A0008EA
:1000E000854A0008854A0008854A0008854A0008B4
:1000F000854A0008854A0008854A0008854A0008A4
:10010000854A0008854A0008854A0008854A000893
:1001100055060008854A0008854A00089D1C00080D
:10012000854A0008854A0008AD1C0008854A000879
:10013000854A0008854A0008854A0008854A000863
:10014000854A0008854A0008854A0008854A000853
:10015000854A0008854A0008BD1C0008854A000839
:10016000854A0008854A0008854A0008854A000833
:10017000854A0008854A0008854A000800000000FA
:08018000854A0008854A0008C9
:1001900010B5054C237833B9044B13B10448AFF3C1
:1001A00000800123237010BD7400002000000000B7
:1001B000305A000808B5034B1BB103490348AFF39D
:1001C000008008BD0000000078000020305A0008C0
:1001D00001F0FF01102A2BDB10F0070F08D010F8F8
:1001E000013B013A8B422DD010F0070F42B3F6D1FC
:1001F000F0B441EA012141EA014122F007047FF015
:1002000000070023F0E80256083C85EA010586EA6B
:10021000010685FA47F5A3FA87F586FA47F6A5FAA7
:1002200087F68EB9EED1F0BC01F0FF0102F00702B3
:1002300032B110F8013B013A83EA010313B1F8D15E
:100240000020704701387047002D06BF354603383F
:10025000073815F0010F07D1013015F4807F02BF78
:10026000013015F4C03F0130F0BC0138704700BFC9
:1002700053B94AB9002908BF00281CBF4FF0FF310D
:100280004FF0FF3000F06EB9ADF1080C6DE904CE0F
:1002900000F006F8DDF804E0DDE9022304B0704761
:1002A0002DE9F047089D04468C46002B40F08380E2
:1002B0008A42174647D9B2FA82F242B1C2F120000F
:1002C00024FA00F09140974040EA010C94404FEA34
:1002D0001748230CBCFBF8F61FFA87FE08FB16C173
:1002E00043EA014306FB0EF1994209D9FB1806F1D6
:1002F000FF3080F01981994240F21681023E3B4462
:100300005B1AA4B2B3FBF8F008FB103344EA0344D1
:1003100000FB0EFEA64509D93C1900F1FF3380F021
:100320000581A64540F2028102383C4440EA06407D
:10033000A4EB0E0400261DB1D4400023C5E9004300
:100340003146BDE8F08702B9FFDEB2FA82F2002A38
:1003500050D1CB1B4FEA174E1FFA87F80126B3FB8B
:10036000FEFC210C0EFB1C3341EA034108FB0CF39D
:100370008B4207D979180CF1FF3002D28B4200F280
:10038000E9808446C91AA3B2B1FBFEF00EFB10113E
:1003900043EA014408FB00F8A04507D93C1900F1E5
:1003A000FF3302D2A04500F2D9801846A4EB08041E
:1003B00040EA0C40BFE78B4209D9002D00F0B18024
:1003C0000026C5E9000130463146BDE8F087B3FAA2
:1003D00083F6002E4AD18B4202D3824200F2B880CB
:1003E000841A61EB030101208C46002DA8D0C5E9D9
:1003F000004CA5E7C2F1200320FA03F6974001FA6A
:1004000002F04FEA174ED9403043030CB1FBFEF621
:100410001FFA87F80EFB161143EA014306FB08F1A9
:10042000994204FA02F409D9FB1806F1FF3C80F066
:100430008D80994240F28A80023E3B445B1A81B231
:10044000B3FBFEF00EFB103341EA034100FB08F35F
:100450008B4207D9791800F1FF3C73D28B4271D9D6
:1004600002383944CB1A40EA064678E7C6F1200C38
:1004700003FA06F422FA0CF31C4320FA0CF701FAF3
:1004800006F34FEA144E21FA0CF11F433B0CB1FB6B
:10049000FEF91FFA84F80EFB191143EA014109FB2A
:1004A00008FA8A4502FA06F200FA06F308D961183A
:1004B00009F1FF3048D28A4546D9A9F10209214401
:1004C000A1EB0A01BFB2B1FBFEF00EFB101147EA2F
:1004D000014700FB08F8B84507D9E71900F1FF31DB
:1004E0002ED2B8452CD90238274440EA0940A7EB60
:1004F0000807A0FB02894F45C64649461AD317D0C4
:100500005DB1B3EB0E0267EB010707FA0CFCF2409A
:100510004CEA0202F740C5E9002700263146BDE853
:10052000F0872E4628460BE70646E9E61846FDE624
:100530004345E5D2B8EB020E69EB04010138DFE771
:100540000846D2E760468DE78146B9E7664675E71B
:1005500030464AE7ACF1020C394413E702383C4418
:1005600024E700BF704700BF10B584B0002301939B
:10057000214B5B6B1B685C68C4F180041F4B1B68DC
:10058000A3420CD01BD21E4A1A440392E31A0293D0
:10059000002301AA02A91B48006803F051F9174B78
:1005A0001C60802C25D0019B3BB1174B4FF0805233
:1005B0001A60BFF34F8FBFF36F8F04B010BD104AA6
:1005C0001A440392C3F180030293002301AA02A9F3
:1005D0000C48006803F034F9002CE0D0084B03937A
:1005E0000294002301AA02A90648006803F028F932
:1005F000D5E700221A60D6E7104F002090000020B7
:1006000004010020A84D002004ED00E000B583B0F7
:10061000002300930A4B0B4A0821052003F0C6F87B
:10062000094B186009480268D36843F01003D3608F
:100630008022074902F0E8FD03B05DF804FB00BF2B
:1006400094000020DC000020A84D0020104F002066
:100650000401002000B583B00A4B1B681A6812F031
:10066000100F0BD0002201921A6801925B6801936F
:10067000019BFFF779FF03B05DF804FB014802F02E
:10068000C5FEF8E7104F002008B5024B586B02F08A
:10069000E7F808BD104F002008B5024B186B02F0B8
:1006A000DFF808BD104F002008B50268034B9A42DE
:1006B00000D008BDFFF758FFFBE700BF004C00402B
:1006C00008B50268034B9A4200D008BDFFF74CFF03
:1006D000FBE700BF004C00402DE9F04FADF50F7D6A
:1006E000029001910026B246B2E0BBF1FD0F12D09C
:1006F000BBF1FE0F7DD1B54A0223D370B44B00216C
:10070000D97083F802B0117B41F0010111734FF6EB
:10071000FF721A806DE0AD4A0223D370AC4B00210A
:10072000D97083F802B0117B21F0010111734FF6EB
:10073000FF721A805DE0A64981F803B0A348002348
:1007400003710B88DAB28BEA020282EA0212D2B299
:100750001B0A43EA02231BB283EAC20383EA121391
:100760000B80037B13F0010F05D000220A714A7140
:100770000522C2703DE0954B0322DA7039E0944BBC
:1007800083F804B03BF0010308D0904B9A78013213
:100790009A7000221A700122DA702AE08C490B88C4
:1007A000DAB28BEA020282EA0212D2B21B0A43EAEE
:1007B00002231BB283EAC20383EA12130B80834B2A
:1007C0000422DA7015E0824981F805B00B88DAB2AC
:1007D0008BEA020282EA0212D2B21B0A43EA022325
:1007E0001BB283EAC20383EA12130B80774B052204
:1007F000DA70764B1B78012B00F07287744BDA7835
:10080000744BDA70714BD978734AD17019791171C0
:100810005979013151711989118199785181197B67
:10082000117300229A701B78022B00F06787674BC8
:100830001A78931EDBB2012B40F26B8732B1654B05
:100840009B68C3F31723462B00F07A870AF1010A4D
:10085000019B9A4580F07B87029B13F80AB05B4BA3
:1008600000221A70DB780F2BC3D801A252F823F0B4
:10087000EB060008EB060008370700087F070008B2
:10088000C7070008B1080008DF0800080D090008C4
:100890003B0900088D090008DD090008290A000845
:1008A0006D0A0008250B0008250B0008A50B0008A1
:1008B000474981F806B00B88DAB28BEA020282EA75
:1008C0000212D2B21B0A43EA02231BB283EAC2031A
:1008D00083EA12130B803D4B0622DA7089E73C490C
:1008E00081F807B00B88DAB28BEA020282EA0212C0
:1008F000D2B21B0A43EA02231BB283EAC20383EA91
:1009000012130B80314B0722DA7072E7304981F8FD
:1009100008B00B88DAB28BEA020282EA0212D2B283
:100920001B0A43EA02231BB283EAC20383EA1213BF
:100930000B80264B0822DA705BE7254981F809B065
:1009400000238B72CB720B88DAB28BEA020282EA46
:100950000212D2B21B0A43EA02231BB283EAC20389
:1009600083EA12130B80194B1B7B13F0010F09D084
:10097000CB781BB1154B0B22DA703AE7134B0C22E4
:10098000DA7036E7114B0922DA7032E710498A68CB
:10099000C2F3172242EA0B234A72C3F307228A7278
:1009A0001B0CCB720B88DAB28BEA020282EA0212CB
:1009B000D2B21B0A43EA02231BB283EAC20383EAD0
:1009C00012130B80014B0A22DA7012E71006002086
:1009D0008401002070060020E80D0020A3498B68E8
:1009E000C3F3172343EA0B424B72C3F307238B7203
:1009F000130CCB720B88DAB28BEA020282EA021283
:100A0000D2B21B0A43EA02231BB283EAC20383EA7F
:100A100012130B80CB781BB1954B0B22DA70E8E6F2
:100A2000934B0C22DA70E4E6914A1379591C117148
:100A30008E4800F10C0202F803B00388DAB28BEAA8
:100A4000020282EA0212D2B21B0A43EA02231BB25A
:100A500083EAC20383EA12130380C9B2C3789942BE
:100A60007FF4C7AE824B0C22DA70C2E67F4B9868E7
:100A7000C0F31720C5240025A54248D22B19013305
:100A80005A0823F0010101EB53037A4951F823304E
:100A9000984238D3984238D802EB4203754951F84E
:100AA0002330984235D102EB420211EB820133D060
:100AB0000C796E480388DAB2624082EA0212D2B23E
:100AC0001B0A43EA02231BB283EAC20383EA12131E
:100AD0009BB20380DBB29B4520D0654B0E22DA70BF
:100AE000624B83F814B100293FF483AE604B1B794D
:100AF0008A799342BFF47DAED21A00215E48184431
:100B000004F002F875E6541EB6E71546B4E72A4627
:100B1000C2E700210C46CCE70024CAE7544B0D2263
:100B2000DA70DDE70E2B06D01FFA8BF34F4A1288DE
:100B3000B3EB122F16D04E4B02221A704B4B83F898
:100B400015B11B7913F0010F10D0494B0F22DA7049
:100B50000D225A731B78022B3FF44BAE444B0022FC
:100B60001A7046E6424B01221A70E7E7404B1B69B8
:100B700073B11B6B2BB13D4A9168090A3C489847F9
:100B800030B93B4B1B78022B02D0394B03221A7031
:100B9000374B0122DA7040F223123449374803F010
:100BA000A5FF26E632494B7BC3F10D002F4A0244D4
:100BB00082F816B1013BDBB24B73002B7FF419AE08
:100BC0000A690F924B690C93002A00F07B85002381
:100BD00035932B4B36932B4B37932B4B38932B4B17
:100BE00039932B4B3A932B4B3B932B4B3C9303F179
:100BF0007453A3F52303A3F692433D9310324FF4AD
:100C00008073349300252023CDF82CB0CDF834A088
:100C10009A4693460BE0224659463EAB581903F0DC
:100C200065FF2544A344AAEB040A402D09D0BAF17C
:100C3000000F00F0CD80C5F140045445EBD9544677
:100C4000E9E700230F2B29DC3EA800EB830122AC4F
:100C500004EB8302CD7804F823508C7854704978E3
:100C6000917010F82310D1700133EBE7840100205C
:100C700010060020785A000890010020700600201D
:100C800067E6096A85AE67BB72F36E3C3AF54FA51D
:100C90007F520E518C68059BABD9831F369B039303
:100CA000379B0493389B0593399B06933A9B079394
:100CB0003B9B08933C9B09933D9B0A9300230F2B7E
:100CC0000ADC8EAA02EB8302A2F5D87211684EAA42
:100CD00042F823100133F2E7102220E0931E4EA9C0
:100CE00051F823004FEAF04383EA704383EA9023EC
:100CF000D01F51F820000344A2F10F0051F820400A
:100D00004FEAB44080EAF41080EAD4000344A2F130
:100D1000100051F82000034441F8223001323F2AEC
:100D2000DCDDDDF82890DDF824C0DDF820E007994F
:100D3000DDF81880059E049F039800253F2D2DDCCB
:100D40004FEAF12383EAB11383EA71634B4401EA6A
:100D50000E022CEA010462401344BA4A52F82520DC
:100D600013444EAA52F8252013444FEA703282EA07
:100D7000B00282EAB05287EA0604044007EA060994
:100D800084EA090422440135E146F4468E4603EB29
:100D90000801B0463E4607469818CFE7039B034438
:100DA0003693049B3B443793059B33443893069B0F
:100DB00043443993079B0B443A93089B73443B93FA
:100DC000099B63443C930A9B4B443D9300252EE7CB
:100DD000DDF82CB0CDF82CA0DDF834A09A4BDB78F0
:100DE0000A330393349D05EBC30334939D4202D928
:100DF000359B01333593C5F3C505944BCDF834B01D
:100E0000CDF838A0DDF80CA09B460BE022465946F1
:100E10003EAB581903F06AFE2544A344AAEB040A2A
:100E2000402D09D0BAF1000F00F0B580C5F14004A3
:100E30005445EBD95446E9E700230F2B11DC3EA8BB
:100E400000EB830122AC04EB8302CD7804F823503D
:100E50008C7854704978917010F82310D170013358
:100E6000EBE7369B0393379B0493389B0593399BA1
:100E700006933A9B07933B9B08933C9B09933D9BAE
:100E80000A9300230F2B0ADC8EAA02EB8302A2F541
:100E9000D87211684EAA42F823100133F2E71022EB
:100EA00020E0931E4EA951F823004FEAF04383EA55
:100EB000704383EA9023D01F51F820000344A2F12D
:100EC0000F0051F820404FEAB44080EAF41080EA65
:100ED000D4000344A2F1100051F82000034441F86B
:100EE000223001323F2ADCDDDDF82890DDF824C015
:100EF000DDF820E00799DDF81880059E049F03982F
:100F000000253F2D2DDC4FEAF12383EAB11383EA5C
:100F100071634B4401EA0E022CEA0104624013445F
:100F2000484A52F8252013444EAA52F8252013446B
:100F30004FEA703282EAB00282EAB05287EA0604CF
:100F4000044007EA060984EA090422440135E1461F
:100F5000F4468E4603EB0801B0463E460746981815
:100F6000CFE7039B03443693049B3B443793059B95
:100F700033443893069B43443993079B0B443A937D
:100F8000089B73443B93099B63443C930A9B4B44EB
:100F90003D930B9D46E7DDF834B0CDF80CA0DDF8AD
:100FA00038A0349D05F1100334939D4202D9359B3E
:100FB00001333593C5F3C505254B0222CDF834B076
:100FC000CDF838A092469B460BE0224659463EABF0
:100FD000581903F08BFD2544A344AAEB040A402DC5
:100FE00009D0BAF1000F00F0BD80C5F140045445AE
:100FF000EBD95446E9E700230F2B11DC3EA800EBA8
:10100000830122AC04EB8302CD7804F823508C7862
:1010100054704978917010F82310D1700133EBE7C8
:10102000369B0493379B0593389B0693399B079314
:101030003A9B08933B9B09933C9B0A933D9B0B93E4
:10104000002311E0C0630008840100208601002015
:10105000980200208EAA02EB8302A2F5D8721168D2
:101060004EAA42F8231001330F2BF3DD102220E0AB
:10107000931E4EA951F823004FEAF04383EA7043D0
:1010800083EA9023D01F51F820000344A2F10F00FF
:1010900051F820404FEAB44080EAF41080EAD400CE
:1010A0000344A2F1100051F82000034441F822301B
:1010B00001323F2ADCDDDDF82C90DDF828C0DDF8B8
:1010C00024E00899DDF81C80069E059F0498002501
:1010D0002CE04FEAF12383EAB11383EA71634B44B6
:1010E00001EA0E022CEA010462401344C54A52F898
:1010F000252013444EAA52F8252013444FEA70329B
:1011000082EAB00282EAB05287EA0604044007EAA3
:10111000060984EA090422440135E146F4468E4674
:1011200003EB0801B0463E46074698183F2DD0DD38
:10113000049B03443693059B3B443793069B3344FF
:101140003893079B43443993089B0B443A93099B7C
:1011500073443B930A9B63443C930B9B4B443D93EA
:10116000039D3EE7DDF834B0CDF82CA0DDF838A0C3
:10117000349D05F1380334939D4202D9359B0133E8
:101180003593C5F3C505A04B0722CDF834B0CDF893
:1011900038A092469B460BE0224659463EAB581972
:1011A00003F0A4FC2544A344AAEB040A402D09D073
:1011B000BAF1000F00F0B580C5F140045445EBD9F9
:1011C0005446E9E700230F2B11DC3EA800EB830116
:1011D00022AC04EB8302CD7804F823508C78547051
:1011E0004978917010F82310D1700133EBE7369BEA
:1011F0000393379B0493389B0593399B06933A9B43
:1012000007933B9B08933C9B09933D9B0A930023C8
:101210000F2B0ADC8EAA02EB8302A2F5D8721168AA
:101220004EAA42F823100133F2E7102220E0931E69
:101230004EA951F823004FEAF04383EA704383EA52
:101240009023D01F51F820000344A2F10F0051F861
:1012500020404FEAB44080EAF41080EAD40003440E
:10126000A2F1100051F82000034441F8223001326D
:101270003F2ADCDDDDF82890DDF824C0DDF820E031
:101280000799DDF81880059E049F039800253F2DDF
:101290002DDC4FEAF12383EAB11383EA71634B44F7
:1012A00001EA0E022CEA010462401344554A52F846
:1012B000252013444EAA52F8252013444FEA7032D9
:1012C00082EAB00282EAB05287EA0604044007EAE2
:1012D000060984EA090422440135E146F4468E46B3
:1012E00003EB0801B0463E4607469818CFE7039B3C
:1012F00003443693049B3B443793059B3344389314
:10130000069B43443993079B0B443A93089B7344D1
:101310003B93099B63443C930A9B4B443D930B9D39
:1013200046E7DDF834B0CDF82CA0DDF838A0349BCA
:10133000DC08C4F1770404F03F04671C22AE80236C
:101340008DF88830472200210DF1890003F0DCFB85
:10135000349D04F10803F5542A0AE31DF2542A0CC3
:10136000A31DF2542A0E631DF254359B221DB35463
:10137000190AE21CB154190CA21CB1541B0EF355EE
:1013800004F109031A4605EBC30334939D4202D9C5
:10139000359B01333593C5F3C50522ABCDF834B089
:1013A000CDF838A092469B460BE0224659463EAB0C
:1013B000581903F09BFB2544A344AAEB040A402DD3
:1013C00009D0BAF1000F00F0BB80C5F140045445CC
:1013D000EBD95446E9E700230F2B17DC3EA800EBBE
:1013E000830112AA02EB8302CC7812AD05F82340E8
:1013F0008C7854704978917010F82310D1700133B3
:10140000EAE700BFC06300089A020020369B0393FE
:10141000379B0493389B0593399B06933A9B07931C
:101420003B9B08933C9B09933D9B0A9300230F2B06
:101430000ADC8EAA02EB8302A2F5F87211684EAAAA
:1014400042F823100133F2E7102220E0931E4EA948
:1014500051F823004FEAF04383EA704383EA902374
:10146000D01F51F820000344A2F10F0051F8204092
:101470004FEAB44080EAF41080EAD4000344A2F1B9
:10148000100051F82000034441F8223001323F2A75
:10149000DCDDDDF82890DDF824C0DDF820E00799D8
:1014A000DDF81880059E049F039800252CE04FEA84
:1014B000F12383EAB11383EA71634B4401EA0E021C
:1014C0002CEA010462401344A34A52F82520134435
:1014D0004EAA52F8252013444FEA703282EAB00235
:1014E00082EAB05287EA0604044007EA060984EA61
:1014F000090422440135E146F4468E4603EB080117
:10150000B0463E46074698183F2DD0DD039B034466
:101510003693049B3B443793059B33443893069B97
:1015200043443993079B0B443A93089B73443B9382
:10153000099B63443C930A9B4B443D930B9D40E7BE
:10154000DDF834B0DDF838A09DF8DB308DF8483098
:101550009DF8DA308DF849309DF8D9308DF84A3051
:101560009DF8D8308DF84B309DF8DF308DF84C3039
:101570009DF8DE308DF84D300622784912A803F030
:10158000A7FAE0B100244CB9754B1B691B6B2BB15A
:10159000744A9168090A7248984710B9002C00F003
:1015A0009B806F4B01221A706D4B0122DA7040F262
:1015B00023126C496C4803F099FAFFF71AB969498C
:1015C00091F8165100220023CDE92223D1F817010A
:1015D0002290B1F81B31ADF88C300C98002873D0F4
:1015E000002401E00134A4B201888C4215D25D4B85
:1015F000DA7904EBC4030344DB789A42F2D1594B05
:101600001A7A04EBC40303441B799A42EAD104EB2F
:10161000C40683199B789D42E4D18C4221D10F29C5
:1016200054D8229B2398514A9B1810934FF00003E3
:1016300040EB030311930F9BD3E90223DDE910670D
:101640009F4208BF964243D3464AD07904EBC40375
:101650000C9E3344D870127A1A719D70013131801A
:1016600015E000220023CDE94E2304EBC4030C9ABD
:10167000134453F8050F4E909B88ADF83C31DDE9DB
:101680002223DDE94E01994208BF904218D204EBB3
:10169000C4040C9B23441C46354B1A68C4F805202F
:1016A0009B88A4F80930DDE922010F9CD4E90223CC
:1016B0008B4208BF82420DD2C4E90201012462E7D5
:1016C000002460E701245EE700245CE700245AE779
:1016D000002458E7012456E7214B03221A7063E7E0
:1016E000204B9A791E4B5A711B8913B91C4A002151
:1016F000518101331A4A1381FFF780B8194A92F8D1
:10170000143192F8152143EA0223174A1380FFF798
:101710008EB8134B9A7801329A7000221A70012207
:10172000DA70BBF1FD0F02D00022FFF787B802226A
:10173000DA700C4B0022DA704FF6FF721A80F3E772
:10174000094B99790B4803F0E7F9FFF77FB80DF5DE
:101750000F7DBDE8F08F00BFC0630008A10200202C
:10176000100600208401002070060020808D5B00A0
:101770009B020020645A000800B583B003E0009982
:101780000198FEF7A9FF4FF0FF326946034B186836
:1017900002F0BEF80128F6D1F1E700BFA84D002005
:1017A00000B585B0FEF732FF074B0293074B01935C
:1017B0000123009300234FF4C0720549054802F04D
:1017C000DDFA05B05DF804FB940D002094070020BD
:1017D0006C5A00087917000800B583B001904FF6E5
:1017E000FF73012201A9034801F09DFC019803B099
:1017F0005DF804FBD04E002070B50C46164600255F
:10180000B54205DA14F8010BFFF7E6FF0135F7E7FB
:10181000304670BD30B595B03022002108A803F0E5
:1018200073F9002403940494059406940794019496
:101830001B4B1A6C42F080521A641B6C03F08053ED
:101840000193019B0294174B1A6842F480421A607C
:101850001B6803F480430293029B012308934FF417
:101860008033099302250E954FF480030F930423D0
:101870001093A82211921295139308A800F086FAEB
:101880000F230393049505944FF4A05306934FF44C
:1018900080530793052103A800F0D4FC15B030BD98
:1018A000003802400070004008B501F01BF9FFF756
:1018B000B1FF00F01BF800F059F800F0D5F800F087
:1018C000B9F8FFF76DFF00F09FF802F09FFDFEE70B
:1018D00008B50268034B9A4200D008BD01F01CF91C
:1018E000FBE700BF001400407047000030B589B02E
:1018F0000024039404940594069407940094194BCF
:101900001A6B42F004021A631A6B02F0040200928E
:10191000009A01941A6B42F080021A631A6B02F06B
:1019200080020192019A02941A6B42F001021A633A
:101930001B6B03F001030293029B0B4D01224FF43A
:101940000051284600F058FE4FF400530393012342
:1019500004930593069403A9284600F067FD09B097
:1019600030BD00BF003802400008024010B582B010
:10197000002400941A4B1A6B42F400121A631A6B7B
:1019800002F400120092009A01941A6B42F4800251
:101990001A631B6B03F480030193019B224605210C
:1019A0000D2001F05DF80D2001F08EF82246052192
:1019B0000F2001F055F80F2001F086F8224605218E
:1019C0003A2001F04DF83A2001F07EF82246052138
:1019D000462001F045F8462001F076F802B010BD2F
:1019E0000038024008B5012002F04AFDFBE7000084
:1019F000034B0360034B0B6080231360704700BFF1
:101A000000100020000E002030B589B001AC074D59
:101A10000FCD0FC495E8070084E80700002101A856
:101A200002F0F9FC024B186009B030BD485A0008BA
:101A3000AC4D002008B50A480A4B03604FF4E1336F
:101A4000436000238360C36003610C2242618361B1
:101A5000C36101F039FB00B908BDFFF745FFFBE7A3
:101A6000104F0020004C004008B50A480A4B0360A4
:101A70004FF41653436000238360C36003610C225C
:101A800042618361C36101F01FFB00B908BDFFF72C
:101A90002BFFFBE7D04E00200010014030B58BB08B
:101AA000044600230593069307930893099303685C
:101AB000674A934204D0674A934267D00BB030BD67
:101AC00000250195644B1A6C42F400221A641A6CCA
:101AD00002F400220192019A02951A6B42F001026F
:101AE0001A631B6B03F001030293029B032305930C
:101AF000022206920122079208930823099305A95E
:101B0000564800F093FC5648564B03604FF0006374
:101B1000436040238360C5604FF480630361456187
:101B20008561C5614FF480330362456200F0EAFDD0
:101B300030BB4B4B23639C634B484C4B03604FF0D3
:101B40000063436000238360C3604FF480620261DE
:101B5000436183614FF48072C2614FF400320262CC
:101B6000436200F0CFFD70B93F4B63639C6300227A
:101B70000521342000F074FF342000F0A5FF9DE71C
:101B8000FFF7B2FED5E7FFF7AFFEEDE700250395BF
:101B9000314B5A6C42F010025A645A6C02F0100237
:101BA0000392039A04951A6B42F001021A631B6BAD
:101BB00003F001030493049B4FF4C06305930223D5
:101BC00006930795032308930723099305A9234840
:101BD00000F02CFC2648274B03604FF00063436065
:101BE0008560C5604FF48063036145618561C561AF
:101BF0000562456200F086FD18BB1D4B63639C6364
:101C00001D481E4B03604FF0006343604023836018
:101C10000023C3604FF48062026143618361C3614A
:101C20000362436200F06EFD70B9134B23639C6343
:101C300000220521252000F013FF252000F044FF9D
:101C40003CE7FFF751FED8E7FFF74EFEEDE700BF98
:101C5000004C0040001001400038024000000240EB
:101C6000504F002070600240B04D002040600240A4
:101C7000704E002040640240104E0020B8640240C4
:101C80007047FEE7FEE7FEE7FEE7704708B502484B
:101C900001F0BCFB08BD00BFD04E002008B50248D3
:101CA00000F062FF08BD00BFB04F002008B5024839
:101CB00000F0D6FD08BD00BF704E002008B50248F8
:101CC00000F0CEFD08BD00BF104E002000B583B06F
:101CD000002200920D4B596C41F480415964596CBB
:101CE00001F48041009100990192196C41F08051FA
:101CF00019641B6C03F080530193019B0F216FF05B
:101D0000010000F0ADFE03B05DF804FB00380240B6
:101D100010B588B001460022372000F0A1FE372020
:101D200000F0D2FE00240194144B1A6C42F0200201
:101D30001A641B6C03F020030193019B02A903A802
:101D400000F056FB00F034FB43000D48A0FB0323DA
:101D50009B0C013B0B480C4A026040F2E732C26028
:101D600043600461846001F021F810B1012008B0E3
:101D700010BD044800F0E3FEF9E700BF0038024060
:101D800083DE1B43B04F002000140040002800F009
:101D9000D98170B582B00446036813F0010F3BD0BF
:101DA000A64B9B6803F00C03042B2CD0A34B9B6821
:101DB00003F00C03082B21D06368B3F5803F4FD0AC
:101DC000B3F5A02F52D09D4B1A6822F480321A60CE
:101DD0001A6822F480221A606368002B50D000F049
:101DE000A7FE0546954B1B6813F4003F14D100F085
:101DF0009FFE401B6428F5D90320AAE18F4B5B6846
:101E000013F4800FD8D08D4B1B6813F4003F03D020
:101E10006368002B00F09881236813F0020F54D000
:101E2000864B9B6813F00C0F3ED0844B9B6803F0ED
:101E30000C03082B33D0E368002B67D0804B0122C2
:101E40001A6000F075FE05467C4B1B6813F0020F0C
:101E500053D100F06DFE401B0228F5D9032078E134
:101E6000764A136843F480331360B5E7734B1A68FE
:101E700042F480221A601A6842F480321A60ABE79A
:101E800000F056FE05466D4B1B6813F4003FC3D0AF
:101E900000F04EFE401B6428F5D9032059E1674B42
:101EA0005B6813F4800FC6D1644B1B6813F0020FFC
:101EB00003D0E368012B40F04981604A136823F0A6
:101EC000F803216943EAC1031360236813F0080F84
:101ED00040D0636963B35B4B01221A6000F028FEB7
:101EE0000546564B5B6F13F0020F33D100F020FE16
:101EF000401B0228F5D903202BE1504A136823F038
:101F0000F803216943EAC1031360DEE74C4B00226A
:101F10001A6000F00DFE0546484B1B6813F0020FD7
:101F2000D3D000F005FE401B0228F5D9032010E1B4
:101F3000444B00221A6000F0FBFD05463F4B5B6FEF
:101F400013F0020F06D000F0F3FD401B0228F5D974
:101F50000320FEE0236813F0040F78D0374B1B6C8E
:101F600013F0805F0DD100230193344B1A6C42F0C3
:101F700080521A641B6C03F080530193019B01256E
:101F800000E00025304B1B6813F4807F21D0A3684C
:101F9000012B32D0052B36D0284B1A6F22F00102CC
:101FA0001A671A6F22F004021A67A368002B34D054
:101FB00000F0BEFD0646214B1B6F13F0020F45D10A
:101FC00000F0B6FD801B41F288339842F3D903201C
:101FD000BFE01D4A136843F48073136000F0A8FD4E
:101FE0000646194B1B6813F4807FD0D100F0A0FD8A
:101FF000801B0228F5D90320ABE0104A136F43F091
:1020000001031367D1E70D4B1A6F42F004021A6700
:102010001A6F42F001021A67C7E700F089FD064611
:10202000064B1B6F13F0020F10D000F081FD801BD8
:1020300041F288339842F3D903208AE00038024005
:1020400000004742800E474200700040E5B9A36996
:10205000002B7DD0464A926802F00C02082A51D02B
:10206000022B17D0434B00221A6000F061FD04469A
:102070003F4B1B6813F0007F42D000F059FD001B5E
:102080000228F5D9032064E0394A136C23F0805309
:102090001364DCE7374B00221A6000F049FD054667
:1020A000334B1B6813F0007F06D000F041FD401B4E
:1020B0000228F5D903204CE0E369226A1343626ADF
:1020C00043EA8213A26A5208013A43EA0243E26AEF
:1020D00043EA0263264A5360264B01221A6000F04D
:1020E00027FD0446224B1B6813F0007F06D100F049
:1020F0001FFD001B0228F5D903202AE0002028E05C
:10210000002026E0012B26D0194B5B6803F48001E8
:10211000E269914221D103F03F02216A8A421ED135
:10212000616A47F6C0721A408A421AD103F44032FB
:10213000A16A8A4217D103F07063E26A934214D114
:10214000002006E001207047012002E0012000E0AD
:10215000002002B070BD0120FBE70120F9E701205B
:10216000F7E70120F5E70120F3E70120F1E700BFE1
:102170000038024060004742F8B52F4B9B6803F0DF
:102180000C03042B53D0082B53D12B4B5A6802F06D
:102190003F025B6813F4800F28D0274B5B68C3F3C2
:1021A000881358010021C01A61F100018E0146EA2E
:1021B000906687013C1A66EB0105E90041EA54711B
:1021C000E000C01841F100014B0243EAD053440241
:1021D000204619460023FEF74BF8174B5B68C3F304
:1021E000014301335B00B0FBF3F023E0124B5B686B
:1021F000C3F388135C010025E41A65F10005AE0104
:1022000046EA9466A701381B66EB0501CC0044EA58
:102210005074C500E81844F100018B0243EA905362
:102220008402204619460023FEF722F8D5E703482A
:1022300000E00348F8BD00BF0038024000127A00F9
:102240000024F400002800F09B8070B50D46044681
:102250004F4B1B6803F00F038B4208D2CBB24C4AA2
:102260001370136803F00F038B4240F08B802368D8
:1022700013F0020F17D013F0040F04D0454A9368EF
:1022800043F4E0539360236813F0080F04D0414AED
:10229000936843F4604393603E4A936823F0F003ED
:1022A000A1680B439360236813F0010F32D0636879
:1022B000012B21D09A1E012A25D9364A126812F024
:1022C000020F61D033498A6822F0030213438B6006
:1022D00000F02EFC06462F4B9B6803F00C0362684F
:1022E000B3EB820F16D000F023FC801B41F2883341
:1022F0009842F0D9032042E0264A126812F4003FC7
:10230000E0D101203BE0234A126812F0007FD9D1CE
:10231000012034E01E4B1B6803F00F03AB4207D9CA
:10232000EAB21B4B1A701B6803F00F03AB422DD1AE
:10233000236813F0040F06D0164A936823F4E05381
:10234000E1680B439360236813F0080F07D0114A2C
:10235000936823F46043216943EAC1039360FFF764
:102360000BFF0C4B9B68C3F303130B4AD35CD840A1
:102370000A4B18600A4B1868FFF7CAFC002070BDB2
:10238000012070470120FAE70120F8E70120F6E775
:10239000003C024000380240D464000808000020DD
:1023A00004000020014B1868704700BF080000209F
:1023B00008B5FFF7F7FF044B9B68C3F38223034A7A
:1023C000D35CD84008BD00BF00380240E464000878
:1023D00008B5FFF7E7FF044B9B68C3F34233034A9A
:1023E000D35CD84008BD00BF00380240E464000858
:1023F0000F2303600B4B9A6802F0030242609A6855
:1024000002F0F00282609A6802F4E052C2609B68B7
:10241000DB0803F4E0530361034B1B6803F00F0375
:102420000B60704700380240003C024000230F2B35
:1024300000F2D980F0B583B039E0072200E0002235
:10244000B2403A430234684E46F82420674A146882
:10245000EA4324EA05064F6817F4803F01D045EAB5
:102460000406624C2660646802EA04064F6817F4AA
:10247000003F01D045EA04065C4C6660A46802EAAD
:1024800004064F6817F4801F01D045EA0406574C34
:10249000A660E46822404E6816F4001F01D045EAA9
:1024A0000402524CE26001330F2B00F29A800122A9
:1024B0009A400C6804EA020532EA0404F3D14C683D
:1024C000661E012E03D9112C01D0122C12D1866860
:1024D0005F000324BC4026EA0406CC68BC403443B9
:1024E0008460466826EA02064C68C4F300129A40EB
:1024F00032434260C7685E000324B440E24327EAE7
:1025000004078C68B4403C43C4604C68022C01D082
:10251000122C13D1DF08083750F827E003F0070426
:102520004FEA840C0F2404FA0CF42EEA040E0C6912
:1025300004FA0CF444EA0E0440F8274004681440FE
:102540004A6802F00302B240224302604A6812F075
:10255000805FA8D000220192254A546C44F4804444
:102560005464526C02F480420192019A9C08A61CA9
:102570001D4A52F8267003F0030296000F22B24063
:1025800027EA02071B4A90423FF459AF02F58062E6
:1025900090421AD002F58062904218D002F5806213
:1025A000904216D002F58062904214D002F580620B
:1025B000904212D002F58062904210D002F5806203
:1025C00090423FF43AAF08223AE7012238E702226C
:1025D00036E7032234E7042232E7052230E70622F9
:1025E0002EE703B0F0BD704700380140003C0140C9
:1025F00000380240000002400AB1816170470904BE
:102600008161704730B405682C6824F480242C6004
:10261000046863608368402B05D003689960036891
:10262000DA6030BC704703689A600368D960F8E7E5
:1026300010B40368D9B210390C4AA2FB0142120946
:102640000B4CA25CC2655F2909D923F47F7323F088
:10265000030304338365806D5DF8044B704723F4F6
:102660007F7323F003038365F5E700BFABAAAAAA33
:10267000CC640008836A826992B9012B0AD0022BCC
:1026800002D00BB100207047C36A13F0807F28D1BD
:1026900000207047C36AB3F1C07F24D00020704788
:1026A000B2F5005F09D0022B25D9032B25D1C36ACF
:1026B00013F0807F23D100207047032B03D8DFE87D
:1026C00003F01404140A00207047C36A13F0807FDB
:1026D0000DD100207047C36AB3F1C07F09D000203C
:1026E000704701207047012070470120704701208A
:1026F000704701207047012070470020704701207B
:102700007047000070B5044600F012FA002C5BD050
:102710000546002384F83430022384F835302268DB
:10272000136823F00103136023681A6812F0010F85
:102730000AD000F0FDF9431B052BF5D92023636572
:10274000032084F8350070BD1A6820481040616885
:10275000A2680A43E1680A4321690A4361690A439E
:10276000A1690A43E1690A43216A0A430243616A93
:1027700004291ED01A602668756925F00705636A6A
:102780001D43042B07D1A36A1D43E36A1BB12046F6
:10279000FFF770FF90B975612046FFF749FFE26DC2
:1027A0003F239340836000206065012384F8353027
:1027B000C9E7E16A206B01430A43DBE74023636515
:1027C000012084F83500BEE70120BCE73F8010F00F
:1027D00038B50446856D90F8340001282BD00120CF
:1027E00084F8340094F83500C0B2012804D00023E6
:1027F00084F83430022038BD022084F835000020EF
:1028000060652046FFF7FEFEE26D3F239340AB601C
:102810002268136843F016031360236C23B1226807
:10282000136843F0080313602268136843F0010340
:1028300013600020DFE70220DDE790F83530DBB2DF
:10284000022B03D08023436501207047052380F8C5
:1028500035300268136823F00103136000207047CD
:10286000F0B583B0044600230193724B1D68724B90
:10287000A3FB0535AD0A876D3E68C26D0823934002
:10288000334210D003681A6812F0040F0BD01A6894
:1028900022F004021A60C26D08239340BB60436DAE
:1028A00043F001034365E26D01239340334209D0B5
:1028B0002268526912F0800F04D0BB60636D43F050
:1028C00002036365E26D04239340334209D022681A
:1028D000126812F0020F04D0BB60636D43F0040372
:1028E0006365E26D10239340334224D0226812685E
:1028F00012F0080F1FD0BB6023681A6812F4802FF3
:102900000DD01B6813F4002F04D1236C9BB120461B
:10291000984710E0A36C73B1204698470BE01A6803
:1029200012F4807F03D11A6822F008021A60236C27
:102930000BB120469847E26D20239340334255D097
:102940002268126812F0100F50D0BB6094F8353036
:10295000DBB2052B0ED023681A6812F4802F33D017
:102960001B6813F4002F2AD1636C002B3ED0204645
:1029700098473BE02268136823F01603136022682F
:10298000536923F080035361236CA3B12268136859
:1029900023F008031360E26D3F239340BB600023E4
:1029A00084F83430012384F83530236D002B3FD078
:1029B000204698473CE0A36C002BE7D1EBE7E36BA4
:1029C000A3B12046984711E01A6812F4807F09D11C
:1029D0001A6822F010021A60002384F834300123B0
:1029E00084F83530E36B0BB120469847636DFBB13B
:1029F000636D13F0010F17D0052384F8353022687A
:102A0000136823F001031360019B01330193AB4270
:102A100004D823681B6813F0010FF5D1002384F854
:102A20003430012384F83530E36C0BB120469847ED
:102A300003B0F0BD08000020B5814E1B074AD368E3
:102A400023F4E0631B041B0C000200F4E06003436A
:102A500043F0BF6343F40033D360704700ED00E000
:102A600030B4174BDB68C3F30223C3F10704042C13
:102A700028BF04241D1D062D18D9033B4FF0FF3538
:102A800005FA04F421EA0401994005FA03F322EA65
:102A90000303194300280BDB0901C9B200F16040B0
:102AA00000F5614080F8001330BC70470023E5E773
:102AB00000F00F000901C9B2024B1954F4E700BF3E
:102AC00000ED00E014ED00E0002807DB00F01F023D
:102AD000400901239340024A42F82030704700BF6A
:102AE00000E100E008B50B4B1A6842F400721A606E
:102AF0001A6842F480621A601A6842F480721A609E
:102B00000320FFF79BFF0020FFF702F9FFF7DEF835
:102B1000002008BD003C0240034A1168034B1B78AB
:102B20000B441360704700BFF04F002000000020EE
:102B3000014B1868704700BFF04F002070470268D3
:102B4000D36843F00103D3600268936803F007037E
:102B5000062B03D0136843F0010313600020704775
:102B6000704770477047704710B5044603681A698C
:102B700012F0020F11D0DA6812F0020F0DD06FF0D0
:102B800002021A610123037703689B6913F0030FA4
:102B900070D0FFF7E6FF0023237723681A6912F04D
:102BA000040F12D0DA6812F0040F0ED06FF0040296
:102BB0001A610223237723689B6913F4407F5FD057
:102BC0002046FFF7CEFF0023237723681A6912F00F
:102BD000080F12D0DA6812F0080F0ED06FF008025A
:102BE0001A61042323772368DB6913F0030F4ED0A7
:102BF0002046FFF7B6FF0023237723681A6912F0F7
:102C0000100F12D0DA6812F0100F0ED06FF0100211
:102C10001A61082323772368DB6913F4407F3DD0D2
:102C20002046FFF79EFF0023237723681A6912F0DE
:102C3000010F03D0DA6812F0010F36D123681A6948
:102C400012F0800F03D0DA6812F0800F34D12368BD
:102C50001A6912F0400F03D0DA6812F0400F32D137
:102C600023681A6912F0200F03D0DA6812F0200FDF
:102C700030D110BDFFF774FF2046FFF773FF8AE7DE
:102C80002046FFF76DFF2046FFF76CFF9BE72046CD
:102C9000FFF766FF2046FFF765FFACE72046FFF72A
:102CA0005FFF2046FFF75EFFBDE76FF001021A618C
:102CB0002046FEF70DFEC1E76FF080021A61204644
:102CC00000F08FF8C3E76FF040021A612046FFF76B
:102CD0004AFFC5E76FF020021A61204600F080F835
:102CE000C7E700000368304A904212D0B0F1804F2D
:102CF0000FD0A2F57C4290420BD002F58062904248
:102D000007D002F58062904203D002F578429042EB
:102D100003D123F070034A681343234A90422AD018
:102D2000B0F1804F27D0A2F57C42904223D002F52B
:102D3000806290421FD002F5806290421BD002F563
:102D40007842904217D002F57052904213D002F5AB
:102D5000806290420FD002F5806290420BD0A2F5C3
:102D60009832904207D002F58062904203D002F57B
:102D70008062904203D123F44073CA68134323F066
:102D800080034A69134303608B68C3620B688362E4
:102D9000054B984203D003F58063984201D10B693B
:102DA000036301234361704700000140B0B110B5D7
:102DB000044690F83D3063B1022384F83D3021464B
:102DC00051F8040BFFF78EFF012384F83D300020FB
:102DD00010BD80F83C30FFF7B1FEEDE701207047F1
:102DE000704770470268D36823F0C003D360202384
:102DF00080F8393070470268D36823F49073D36049
:102E00000268536923F001035361202380F83A30AC
:102E1000704790F83930DBB2212B01D00220704787
:102E20008368B3F5805F17D0036A5A1C02621A7870
:102E300003685A60C38C9BB2013B9BB2C3844BB9FD
:102E40000268D36823F08003D3600268D36843F03C
:102E50004003D36000207047036A1B880268C3F3F5
:102E60000803536003691BB9036A02330362E1E795
:102E7000036A01330362DDE770B504460268136933
:102E800023F44053C1680B43136183680269134301
:102E900042691343C2691A430168CB6823F416439D
:102EA00023F00C031343CB600268536923F440738F
:102EB00081690B435361C369B3F5004F36D0036892
:102EC000654A934200F09A8002F58062934200F0D6
:102ED0009580FFF76DFA0026051846EB06012D18C0
:102EE00046EB0101CB0043EA5573EA00154619464B
:102EF00063689A009B0F281846EB0101FDF7B8F9AB
:102F0000564DA5FB00325109642303FB11031B013D
:102F10003233A5FB03235B0903F0F00202EB01123D
:102F200003F00F03216813448B6093E003684A4A5F
:102F3000934233D002F5806293422FD0FFF738FAE4
:102F40000026051846EB06012D1846EB0101CB00C3
:102F500043EA5573EA0015461946626833469218EB
:102F600046EB0303281846EB0101FDF781F93B4DC1
:102F7000A5FB00325109642303FB1103DB0032334C
:102F8000A5FB03235B095A0002F4F87202EB01125D
:102F900003F00703216813448B605BE0FFF718FA26
:102FA0000026051846EB06012D1846EB0101CB0063
:102FB00043EA5573EA00154619466268334692188B
:102FC00046EB0303281846EB0101FDF751F9234DA9
:102FD000A5FB00325109642303FB1103DB003233EC
:102FE000A5FB03235B095A0002F4F87202EB0112FD
:102FF00003F00703216813448B602BE0FFF7E8F927
:103000000026051846EB06012D1846EB0101CB0002
:1030100043EA5573EA001546194663689A009B0F08
:10302000281846EB0101FDF723F90C4DA5FB0032F2
:103030005109642303FB11031B013233A5FB032356
:103040005B0903F0F00202EB011203F00F032168A9
:1030500013448B6070BD00BF001001401F85EB5111
:103060002DE9F84305460F4616469946DDF82080BF
:103070002C68246837EA04030CBF01240024B442FE
:103080001FD1B8F1FF3FF3D0B8F1000F05D0FFF723
:103090004FFDA0EB09004045EAD92A68D36823F424
:1030A000D073D3602A68536923F00103536120234E
:1030B00085F8393085F83A30002385F83830032018
:1030C00000E00020BDE8F88358B310B5044690F83E
:1030D00039300BB3242384F839302268D36823F4C1
:1030E0000053D3602046FFF7C7FE2268136923F41C
:1030F000904313612268536923F02A0353612268C5
:10310000D36843F40053D3600020E063202384F8A5
:10311000393084F83A3010BD80F83830FEF7BEFC04
:10312000D8E7012070472DE9F04383B01E4690F8A0
:103130003930DBB2202B59D104460D469046002988
:1031400058D0002A58D090F83830012B56D001239F
:1031500080F838304FF00009C0F83C90212380F807
:103160003930FFF7E5FC0746A4F82480A4F8268050
:1031700084F8389017E000963B46002280212046D4
:10318000FFF76EFF00283BD12B882268C3F30803AA
:10319000536023690BB9023505E0013503E015F8EA
:1031A000012B23685A60E38C9BB29BB1E28C92B2F4
:1031B000013A92B2E284A368B3F5805FDBD0009657
:1031C0003B46002280212046FFF74AFF0028E6D038
:1031D00003200CE000963B46002240212046FFF7EA
:1031E0003FFF78B9202384F8393000E0022003B093
:1031F000BDE8F0830120FAE70120F8E70220F6E7B6
:103200000320F4E70320F2E730B583B0044690F8DA
:103210003A00C0B220283CD100293DD0002A3DD040
:1032200094F83830012B3BD0012384F83830A16268
:10323000A2850025E563222384F83A30636B1948A0
:10324000D863636B18481864636B1848D864636B61
:103250001D65206813460A46011D606BFFF7B8FA2A
:10326000019523681A6801925A680192019A84F8BC
:103270003850DA6842F48072DA602268536943F0A9
:10328000010353612268536943F0400353612846A8
:1032900000E0022003B030BD0120FBE70120F9E788
:1032A0000220F7E7CD320008A9330008B533000843
:1032B000704708B50168CA6822F04002CA6020223F
:1032C00080F83920FFF7F4FF002008BD08B5034659
:1032D000806B1B681B6813F4807F13D10023C385A8
:1032E0000268D36823F48073D3600268536923F0C3
:1032F000010353610268536923F0400353612023A3
:1033000080F83A30FDF7D0F908BD08B590F83A30AA
:10331000DBB2222B46D18368B3F5805F0FD00369FF
:103320000BBB03685A68836A591C81621A70C38D8B
:103330009BB2013B9BB2C385F3B1002008BD826AFA
:10334000036943B903685B68C3F308031380836AA6
:1033500002338362EBE703685B68DBB21380836A46
:1033600001338362E3E703685B68826A511C816210
:1033700003F07F031370DAE70268D36823F02003B9
:10338000D3600268D36823F48073D3600268536902
:1033900023F001035361202380F83A30FDF784F9CC
:1033A0000020CBE70220C9E708B5806BFDF788F95C
:1033B00008BD704710B5846B23685A6994F839309A
:1033C000DBB2212B10D023685A6902F0400294F836
:1033D0003A30DBB2222B11D0E36B43F01003E363EE
:1033E0002046FFF7E6FF10BD02F08002002AEAD077
:1033F0000023E3842046FFF7F5FCE4E7002AEBD046
:103400000023E3852046FFF7F6FCE5E710B5044608
:1034100002681368D168526913F00F0005D113F0E8
:10342000200F02D011F0200F13D128B112F00102A9
:1034300013D111F4907F10D113F0800F02D011F04E
:10344000800F6CD113F0400F02D011F0400F6AD101
:1034500010BD2046FFF759FFFAE713F0010F06D021
:1034600011F4807F03D0E06B40F00100E06313F0C3
:10347000040F04D01AB1E06B40F00200E06313F0D7
:10348000020F04D01AB1E06B40F00400E06313F0C7
:10349000080F07D011F0200F00D11AB1E26B42F0F3
:1034A0000802E263E26B002AD2D013F0200F02D0B0
:1034B00011F0200F21D123685B6903F04003E26B18
:1034C00012F0080F00D123B32046FFF794FC2368C5
:1034D0005A6912F0400F18D05A6922F040025A611E
:1034E000636B73B1124A1A65606BFFF7A6F9002887
:1034F000AED0606B036D9847AAE72046FFF705FF43
:10350000D9E72046FFF755FFA2E72046FFF751FF16
:103510009EE72046FFF74DFF0023E36398E7204630
:10352000FFF777FC94E72046FFF7C3FE90E700BF64
:103530003535000808B5806B0023C385C384FFF7C9
:1035400038FF08BD054BD3F8882042F47002C3F859
:1035500088204FF000629A60704700BF00ED00E0E5
:1035600000F1080343604FF0FF328260C3600361E3
:1035700000230360704700230361704743684B607A
:103580009A688A605160996008610368013303603A
:10359000704730B40D68B5F1FF3F11D000F108035A
:1035A0001C465B681A68AA42FAD963684B60996046
:1035B0008C606160086103680133036030BC704750
:1035C0000469F2E70369416882688A604168516072
:1035D0005A68824206D0002202611A68013A1A60D3
:1035E0001868704782685A60F5E710B5044601F024
:1035F000C9F8A36B23B9012401F0E6F8204610BDF9
:103600000024F9E770B504461546866B026C5AB97A
:1036100003681BB100200136A66370BD806800F00E
:1036200095FE0023A360F6E76DB9406801F05EFAED
:10363000226C636813446360A268934219D32368C1
:1036400063602846E7E7C06801F050FA226C5142F7
:10365000E3689B1AE3602268934202D2A3680B449A
:10366000E360022D01D00020D5E726B1013E002005
:10367000D1E72846CFE70020CDE70346026C6AB1C8
:1036800010B50846D9681144D9609C68A14201D39D
:103690001968D960D96801F029FA10BD704738B5AA
:1036A000054601F06FF895F8454064B203E000F07C
:1036B00037FE013C64B2002C08DD6B6A33B105F1C2
:1036C000240000F099FD0028F3D0F0E7FF2385F8EF
:1036D000453001F079F801F055F895F8444064B2AE
:1036E00003E000F01DFE013C64B2002C08DD2B69F4
:1036F00033B105F1100000F07FFD0028F3D0F0E7B2
:10370000FF2385F8443001F05FF838BD38B5E0B1EB
:103710000D46044601F036F82168E26B236C03FB8A
:103720000210A0600020A0636160013A02FB031355
:10373000E360FF2384F8443084F84530EDB9236911
:1037400063B901F041F8012038BD4FF0500383F315
:103750001188BFF36F8FBFF34F8FFEE704F11000A6
:1037600000F04AFD0028ECD0084B4FF080521A6060
:10377000BFF34F8FBFF36F8FE3E704F11000FFF744
:10378000EFFE04F12400FFF7EBFEDAE704ED00E0C2
:1037900010B5034602980C4631B90060C363046457
:1037A0000121FFF7B3FF10BD0260F7E740B94FF00A
:1037B000500383F31188BFF36F8FBFF34F8FFEE782
:1037C00030B585B01C46054653B192B189B94FF06A
:1037D000500383F31188BFF36F8FBFF34F8FFEE762
:1037E0004FF0500383F31188BFF36F8FBFF34F8FF8
:1037F000FEE76AB148230393039B482B13D04FF095
:10380000500383F31188BFF36F8FBFF34F8FFEE731
:103810000029EFD04FF0500383F31188BFF36F8F6F
:10382000BFF34F8FFEE7039B012384F846300094DB
:103830009DF820302846FFF7ABFF204605B030BD8D
:103840002DE9F84390B1894690461F460446B1B130
:10385000022F20D1E36B012B1DD04FF0500383F3D7
:103860001188BFF36F8FBFF34F8FFEE74FF0500308
:1038700083F31188BFF36F8FBFF34F8FFEE7036CA5
:10388000002BE5D04FF0500383F31188BFF36F8F07
:10389000BFF34F8FFEE701F09FF8EFF311864FF073
:1038A000500383F31188BFF36F8FBFF34F8FA26B69
:1038B000E36B9A4206D3022F04D0002086F31188CE
:1038C000BDE8F88394F845506DB23A464946204623
:1038D000FFF798FEB5F1FF3F05D06B1C5BB284F893
:1038E00045300120EAE7636A0BB90120E6E704F1FD
:1038F000240000F081FC30B1B8F1000F05D00120A8
:10390000C8F80000DAE70120D8E70120D6E7000078
:10391000F0B585B0019290B10E460446C1B100F0F9
:1039200005FD074600BB019B002B5CD04FF0500308
:1039300083F31188BFF36F8FBFF34F8FFEE74FF014
:10394000500383F31188BFF36F8FBFF34F8FFEE7F0
:10395000036C002BE3D04FF0500383F31188BFF3C7
:103960006F8FBFF34F8FFEE700273CE031462046C4
:10397000FFF783FE013DA563236923B900F024FF0F
:10398000012005B0F0BD04F1100000F035FC002866
:10399000F4D0354B4FF080521A60BFF34F8FBFF316
:1039A0006F8FEBE700F010FF0020EAE702A800F0BD
:1039B00069FC012721E0002384F8443029E000233A
:1039C00084F845302BE02046FFF769FE00F00EFB3F
:1039D00009E02046FFF763FE00F008FB2046FFF7F2
:1039E00004FE00283DD100F0CDFEA56B002DBDD119
:1039F000019B002BD6D0002FD8D000F0E5FE00F0C0
:103A000061FA00F0BFFE94F844305BB2B3F1FF3FBF
:103A1000D1D094F845305BB2B3F1FF3FCFD000F086
:103A2000D3FE01A902A800F039FC0028D1D120461C
:103A3000FFF7DBFD0028C6D0019904F1240000F057
:103A4000C3FB2046FFF72BFE00F0D0FA0028CAD1B6
:103A5000054B4FF080521A60BFF34F8FBFF36F8F4B
:103A6000C1E700208DE700BF04ED00E0084B1B68B4
:103A70001B6823B9074B4FF0FF321A607047044BA5
:103A80001B68DB68DB685A68024B1A60704700BF2E
:103A9000581000202C1100202DE9F047804699464F
:103AA000089EDDF824A00A9C276B02F18042013AAF
:103AB00007EB820727F0070789B30D4600220F2A7C
:103AC00007D8A95CA31883F83410AB5C0BB10132A2
:103AD000F5E7002384F84330062E00D90626E66277
:103AE00066640025A564201DFFF745FD04F118005C
:103AF000FFF741FD2461C6F10706A6616462E56433
:103B000084F850504A464146384600F00DFE206089
:103B1000BAF1000F01D0CAF80040BDE8F0870023D9
:103B200084F83430D8E7000038B5002407E004EB0F
:103B3000840293000E481844FFF712FD0134062C4E
:103B4000F5D90C4D2846FFF70BFD0B4C2046FFF72F
:103B500007FD0A48FFF704FD0948FFF701FD094882
:103B6000FFF7FEFC084B1D60084B1C6038BD00BF12
:103B700060100020041100201811002034110020D2
:103B8000601100204C110020581000205C10002013
:103B900010B5044600F0F6FD204A136801331360A7
:103BA0001F4B1B685BB11F4B1B686BB91C4B1B6821
:103BB000DA6AE36A9A4207D8194B1C6004E0184B92
:103BC0001C601368012B26D0174A13680133136059
:103BD000E06A01238340154A11680B43136000EB30
:103BE0008000211D124B03EB8000FFF7C7FC00F0A3
:103BF000EBFD0C4B1B686BB1094B1B68DA6AE36A7F
:103C00009A4207D20B4B4FF080521A60BFF34F8F8E
:103C1000BFF36F8F10BDFFF787FFD5E7EC100020D3
:103C20005410002048110020FC100020001100203A
:103C30006010002004ED00E010B5044690F851300B
:103C400063B1012B11D0022B0ED04FF0500383F340
:103C50001188BFF36F8FBFF34F8FFEE7006B00F04B
:103C6000EDFC204600F0EAFC10BD00F0E7FCFBE7AD
:103C70000F4B1B68D3B110B500F084FD0D4BDB6812
:103C8000DC68201DFFF79EFC0B4A1368013B1360A4
:103C9000074A1368013B136000F096FD2046FFF7CA
:103CA000CBFF034B1B68002BE6D110BD704700BF54
:103CB000F010002060110020EC10002008B5FFF784
:103CC000D7FF064B1B68012BF9D9054B4FF08052EB
:103CD0001A60BFF34F8FBFF36F8FF0E760100020C3
:103CE00004ED00E070B504460D461D4B1E681D4BEB
:103CF00018680430FFF766FC50B91A4B1B68DA6A83
:103D0000012303FA02F218490B6823EA02030B604D
:103D1000B4F1FF3F0DD03444124B1B685C60A642E7
:103D200010D9124B18680F4B19680431FFF731FC9A
:103D300070BD002DEFD00B4B196804310C48FFF714
:103D40001DFCF5E70B4B1868064B19680431FFF7AB
:103D500020FC094B1B68A342EAD9074B1C60E7E72C
:103D60007411002054100020001100205C1000206D
:103D70004C110020581000202C11002070B586B086
:103D80000B9D0C9C75B1B4B154260496049E542E20
:103D90001AD04FF0500383F31188BFF36F8FBFF336
:103DA0004F8FFEE74FF0500383F31188BFF36F8FFF
:103DB000BFF34F8FFEE74FF0500383F31188BFF33B
:103DC0006F8FBFF34F8FFEE7049E2563022584F8B3
:103DD000515000250395029405AD01950A9D00956B
:103DE000FFF75AFE2046FFF7D3FE059806B070BDD8
:103DF0002DE9F04385B00746884614461E469000DC
:103E000000F0A4FB00B38146542000F09FFB054660
:103E1000B0B1C0F83090E5B1002385F8513003937C
:103E200002950D9B01930C9B00933346224641461D
:103E30003846FFF731FE2846FFF7AAFE012005E0CD
:103E4000484600F0FBFBE6E74FF0FF3005B0BDE869
:103E5000F0834FF0FF30F9E710B588B000240594E7
:103E6000069407AA06A905A8FDF7C2FD059B0293C3
:103E7000069B019300942346079A0D490D48FFF7CE
:103E80007DFF90B14FF0500383F31188BFF36F8F24
:103E9000BFF34F8F084B4FF0FF321A60074B0122E0
:103EA0001A60074B1C6000F00FFD08B010BD00BF8A
:103EB000EC640008BD3C00082C11002048110020D3
:103EC00074110020024A136801331360704700BF69
:103ED000F8100020F8B53A4B1B68002B64D1394B21
:103EE0001D6801351D60C5B9374B1B681B6843B1A0
:103EF0004FF0500383F31188BFF36F8FBFF34F8FE1
:103F0000FEE7314A1168314B186810601960304A79
:103F1000136801331360FFF7A9FD2E4B1B68AB42FA
:103F200038D900242C4B1B68DB6A03EB83039A000F
:103F30002A4B9B58012B3CD901243AE00124224B07
:103F40001B681B6843B3204B1B68DB68DE68736823
:103F50009D4226D3371D3846FFF734FBB36A1BB1A9
:103F600006F11800FFF72EFBF36A01229A401C4964
:103F7000086802430A6003EB83039A003946174836
:103F80001044FFF7FBFAF26A134B1B68DB6A9A4294
:103F9000D4D2D4E70024D2E70E4B4FF0FF321A60A0
:103FA000C0E70C4A1360BDE70E4A13680133136083
:103FB00000240D4B1B6803B101242046F8BD00BF4F
:103FC000F810002074110020581000205C10002010
:103FD000301100202C11002054100020601000200F
:103FE00000110020F41000207811002038B5344B67
:103FF0001B6843B94FF0500383F31188BFF36F8FF1
:10400000BFF34F8FFEE700F0BDFB2D4B1A68013A5E
:104010001A601B68002B4DD12A4B1B680BB900247A
:1040200049E00024284B1B681BB3274BDB68DC6886
:1040300004F11800FFF7C6FA251D2846FFF7C2FA5B
:10404000E06A01238340214A11680B43136000EBAF
:10405000800029461E4B03EB8000FFF78FFAE26ACF
:104060001C4B1B68DB6A9A42DCD31B4B01221A6093
:10407000D8E70CB1FFF7FAFC184B1C6874B9164B63
:104080001C68C4B1164B4FF080521A60BFF34F8FBB
:10409000BFF36F8F01240EE0013C07D0FFF71AFF3A
:1040A0000028F9D00C4B01221A60F5E70B4B0022D7
:1040B0001A60E4E7002400F087FB204638BD00BF0B
:1040C000F8100020EC100020341100200011002016
:1040D000601000205410002078110020F4100020FF
:1040E00004ED00E010B5A8B104460F4B1B6843B1C6
:1040F0004FF0500383F31188BFF36F8FBFF34F8FDF
:10410000FEE7FFF7DFFE00212046FFF7EBFDFFF79C
:104110006DFF38B9054B4FF080521A60BFF34F8FD7
:10412000BFF36F8F10BD00BFF810002004ED00E05A
:10413000204B1B681BB1204B01221A6070471E4B9D
:1041400000221A601D4B1B68B3FA83F3DBB2C3F184
:104150001F0303EB83018A0019498A5842B94FF0C3
:10416000500383F31188BFF36F8FBFF34F8FFEE7C8
:1041700010B4134903EB830082000A44506840687E
:10418000506003EB8304A2001446083211448842B5
:104190000BD003EB83039A00094B13445B68DA6886
:1041A000084B1A605DF8044B70474068044A22448B
:1041B0005060EEE7F8100020781100200011002078
:1041C000601000205410002058B110B50C46094B67
:1041D00019681831FFF7DDF901212046FFF782FD4C
:1041E00010BD4FF0500383F31188BFF36F8FBFF3FF
:1041F0004F8FFEE75410002038B5C368DC6824B345
:1042000004F118052846FFF7DDF9184B1B682BBB96
:10421000251D2846FFF7D6F9E06A01238340144A9A
:1042200011680B43136000EB80002946114B03EB30
:104230008000FFF7A3F9E26A0F4B1B68DB6A9A4222
:1042400011D901200D4B18600EE04FF0500383F39D
:104250001188BFF36F8FBFF34F8FFEE729460848E1
:10426000FFF78CF9E7E7002038BD00BFF810002009
:104270000011002060100020541000207811002050
:1042800034110020034B1B680360034B1B68436021
:10429000704700BF3011002074110020F8B5C8B17C
:1042A0000C460546F9B100F06DFA1B4B19686B68B6
:1042B000C81A2268B2F1FF3F26D02F68174E366821
:1042C000B74201D08B4224D9824215D80023236003
:1042D00001241AE04FF0500383F31188BFF36F8F6E
:1042E000BFF34F8FFEE74FF0500383F31188BFF306
:1042F0006F8FBFF34F8FFEE75B1A1344236028468E
:10430000FFF7C0FF002400E0002400F05DFA204623
:10431000F8BD0124F9E700BF74110020301100201E
:10432000014B01221A60704778110020054B1B6871
:1043300033B1054B1B680BB100207047022070475A
:104340000120704748110020F810002000284CD0B0
:1043500038B50446274B1B68834208D04FF0500302
:1043600083F31188BFF36F8FBFF34F8FFEE7836C2A
:1043700043B94FF0500383F31188BFF36F8FBFF33E
:104380004F8FFEE7013B8364C16A426C91422ED09D
:104390000BB1002038BD051D2846FFF713F970B991
:1043A000E26A02EB82039B001349CB583BB901231D
:1043B00003FA02F211490B6823EA02030B60606CF6
:1043C000E062C0F10703A361012404FA00F30B4A81
:1043D00011680B43136000EB80002946064B03EB8A
:1043E0008000FFF7CBF82046D4E70020704700207C
:1043F000D0E700BF54100020601000200011002002
:10440000842801D0033070470020704708B5FFF7BB
:1044100023FD002008BD2DE9F04387B004460F4678
:104420004569BDB18669AEB1D0F80480D0F800907E
:10443000B0F90800FFF7E4FF0296019500903B46B3
:10444000226949464046FFF799FC0590059807B058
:10445000BDE8F08365682668D4F81080B4F90800D8
:10446000FFF7CEFF05AB019300903B461FFA88F2A1
:1044700031462846FFF7BCFC0128E7D00020E6E7DC
:1044800008B500B90120FFF72DFE002008BD00008F
:10449000124A12F0070F1ED0D11D21F00701C1F5FD
:1044A000705313440A460E480260002141601344D1
:1044B000083B23F007030B48036059601960991A01
:1044C00051601360084B1960084B1960084B4FF09E
:1044D00000421A6070474FF47053E4E780110020E7
:1044E0008C4D00207C110020884D0020844D002040
:1044F000804D002010B4134B1A461B688342FBD337
:104500005168541884420AD041684418A3420BD021
:104510000360904200D010605DF8044B7047406823
:10452000014451601046EFE7074C2468A34206D0CF
:104530005B681944416013681B680360E9E7046025
:10454000E7E700BF8C4D00207C11002070B50446C9
:10455000FFF7B8FC344B1B68A3B1344B1B681C42FB
:104560004AD134B1083414F0070F02D024F0070404
:104570000834002C42D02E4B1B68A3424DD32D4B48
:104580001D6804E0FFF784FFE7E72B4615466A68DD
:10459000A24202D22A68002AF7D1234A1268AA420C
:1045A0003DD01E6808362A681A606B681B1B102BEA
:1045B00010D9281910F0070F08D04FF0500383F3DB
:1045C0001188BFF36F8FBFF34F8FFEE743606C60BE
:1045D000FFF790FF6A6816490B689B1A0B60164933
:1045E00009688B4201D214490B60104B1B681343BE
:1045F0006B6000232B6002E0002600E00026FFF73E
:10460000F5FC16F0070F0CD04FF0500383F3118820
:10461000BFF36F8FBFF34F8FFEE70026EFE7002653
:10462000EDE7304670BD00BF7C110020804D0020BA
:10463000844D00208C4D0020884D002080B338B57B
:104640000446A0F1080550F8043C164A12681342CB
:1046500008D14FF0500383F31188BFF36F8FBFF37E
:104660004F8FFEE750F8081C41B14FF0500383F321
:104670001188BFF36F8FBFF34F8FFEE723EA02036A
:1046800040F8043CFFF71EFC54F8041C064A13686B
:104690000B4413602846FFF72DFFFFF7A7FC38BD3A
:1046A000704700BF804D0020844D002082B0002361
:1046B00001930D4B1B68B3F1FF3F08D04FF050033F
:1046C00083F31188BFF36F8FBFF34F8FFEE74FF077
:1046D000500383F31188BFF36F8FBFF34F8F019B9C
:1046E000002BFCD002B070470C0000200848006886
:1046F000006880F308884FF0000080F3148862B6E9
:1047000061B6BFF34F8FBFF36F8F00DF00BF0000B4
:1047100008ED00E0DFF80C00016841F47001016071
:104720007047000088ED00E04FF0807340F8043CD3
:1047300021F0010140F8081C054B40F80C3C40F802
:10474000202C6FF0020340F8243C4438704700BF2F
:10475000AD4600080000000000000000000000005E
:10476000074B19680868B0E8F04F80F30988BFF379
:104770006F8F4FF0000080F311887047AFF3008017
:10478000541000204FF0500383F31188BFF36F8F54
:10479000BFF34F8F0A4A136801331360012B00D017
:1047A0007047084B1B6813F0FF0FF9D04FF0500310
:1047B00083F31188BFF36F8FBFF34F8FFEE700BF06
:1047C0000C00002004ED00E0094B1B6843B94FF0DA
:1047D000500383F31188BFF36F8FBFF34F8FFEE752
:1047E000013B034A13600BB983F31188704700BF84
:1047F0000C0000200000000000000000000000008D
:10480000EFF30980BFF36F8F154B1A681EF0100F7E
:1048100008BF20ED108A20E9F04F10602DE9090053
:104820004FF0500080F31188BFF34F8FBFF36F8FAD
:10483000FFF77EFC4FF0000080F3118809BC196877
:104840000868B0E8F04F1EF0100F08BFB0EC108AF7
:1048500080F30988BFF36F8F704700BFAFF300800C
:104860005410002008B54FF0500383F31188BFF3B4
:104870006F8FBFF34F8FFFF72DFB18B1034B4FF036
:1048800080521A60002383F3118808BD04ED00E014
:10489000084A0023136008490B60084B1B6808494D
:1048A000A1FB03139B09013B06490B60072313601F
:1048B000704700BF10E000E018E000E008000020B2
:1048C000D34D621014E000E03A4B1A683A4B9A421A
:1048D00029D0384B1A68394B9A422DD010B582B086
:1048E000374B1A78D2B20192FF221A701B78DBB2D2
:1048F0008DF803309DF8033003F05003314A1370F4
:10490000314B07221A609DF8033013F0800F1CD042
:104910002D4A1368013B13609DF803305B00DBB246
:104920008DF80330EFE74FF0500383F31188BFF3A6
:104930006F8FBFF34F8FFEE74FF0500383F3118863
:10494000BFF36F8FBFF34F8FFEE71F4B1B68032B27
:1049500008D04FF0500383F31188BFF36F8FBFF37C
:104960004F8FFEE71B0203F4E063174A1360019BBD
:10497000DBB2134A1370154B1A6842F470021A60C6
:104980001A6842F070421A60FFF782FF0024104B51
:104990001C60FFF7BFFE0F4A136843F040431360EB
:1049A000FFF7A4FEFFF7C4FBFFF780FE204602B02E
:1049B00010BD00BF00ED00E071C20F4170C20F4199
:1049C00000E400E0944D0020984D002020ED00E030
:1049D0000C00002034EF00E0EFF305830F2B0FD91C
:1049E000104A9B5CDBB2104A12789A4208D94FF009
:1049F000500383F31188BFF36F8FBFF34F8FFEE730
:104A00000A4B1B6803F4E063094A1268934208D911
:104A10004FF0500383F31188BFF36F8FBFF34F8FB5
:104A2000FEE77047F0E300E0944D00200CED00E05D
:104A3000984D0020DFF834D0002103E00C4B5B5888
:104A4000435004310B480C4B42189A42F6D30B4AA0
:104A500002E0002342F8043B094B9A42F9D3FEF7E7
:104A600071FD00F011F8FCF71FFF704700000220F5
:104A70009C650008000000207400002074000020E5
:104A800004500020FEE7000070B50D4D0D4C641B76
:104A9000A4100026A64209D10B4D0C4C00F0C8FF13
:104AA000641BA4100026A64205D170BD55F8043B36
:104AB00098470136EEE755F8043B98470136F2E790
:104AC00094650008946500089465000898650008DE
:104AD00030B501390024A24201D1002005E0035D78
:104AE00001340D5DAB42F6D0581B30BD0A449142F3
:104AF00000F1FF3300D1704710B511F8014B03F8F6
:104B0000014F9142F9D110BD02440346934200D1B6
:104B1000704703F8011BF9E70FB40A4B13B51C6883
:104B200024B1A36913B9204600F066F805AB049AD6
:104B3000A1680193204600F083F902B0BDE810405F
:104B400004B0704710000020002310B50446C0E9EF
:104B50000033C0E90433836081814366C28183618D
:104B6000194608225C30FFF7CFFF054B6362054B07
:104B7000A362054BE362054B2462236310BD00BFB3
:104B8000E95300080B540008435400086754000818
:104B9000014900F0AFB800BF4157000870B54A1E88
:104BA000682555430E4605F1740100F0C5F804462A
:104BB00040B10021C0E900160C30A06005F1680288
:104BC000FFF7A2FF204670BD014800F0B3B800BF58
:104BD000FC4F0020014800F0AEB800BFFC4F0020A1
:104BE000014800F0A7B800BFF74F0020014800F0CF
:104BF000A2B800BFF74F002010B50446FFF7F0FF42
:104C0000A3691BB1BDE81040FFF7F0BFC4E9123340
:104C10002365134B134A1B68A262A34204BF0123FE
:104C2000A361204600F020F86060204600F01CF8E8
:104C3000A060204600F018F80022E06004216068BF
:104C4000FFF782FFA06801220921FFF77DFFE068DE
:104C500002221221FFF778FF0123A361D2E700BFF0
:104C6000F4640008914B0008F8B50746FFF7ACFF65
:104C70001E4B1E68B36913B93046FFF7BDFF4836B7
:104C8000D6E90134013B03D533680BB33668F7E747
:104C9000B4F90C50D5B9164BE36004F158006566C1
:104CA00000F047F8FFF796FFC4E90155C4E9045541
:104CB0002560A5610822294604F15C00FFF724FF66
:104CC000C4E90D55C4E912552046F8BD6834D9E74A
:104CD00004213846FFF762FF044630600028D5D132
:104CE000FFF778FF0C233B60EEE700BFF464000899
:104CF0000100FFFF2DE9F8430646884600F148040D
:104D00000027D4E90195B9F1010905D52468002CE3
:104D1000F7D13846BDE8F883AB89012B07D9B5F93F
:104D20000E30013303D029463046C047074368356B
:104D3000E9E7704770477047F8B5CD1C25F00305CB
:104D400008350C2D38BF0C25002D064601DBA94285
:104D500003D90C2333600020F8BD00F0A3FD2149E6
:104D60000A6814469CB9204F3B6823B92146304657
:104D700000F02AFB38602946304600F025FB431C32
:104D800023D10C233360304600F092FDE3E7236823
:104D90005B1B17D40B2B03D923601C44256004E054
:104DA0006368A2420CBF0B605360304600F080FD88
:104DB00004F10B00231D20F00700C21ACCD01B1AEF
:104DC000A350C9E722466468CCE7C41C24F003045E
:104DD000A042E3D0211A304600F0F6FA0130DDD1CE
:104DE000CFE700BF9C4D0020A04D00209368013B01
:104DF000002B10B4936008DA9469A34201DB0A29FE
:104E000003D15DF8044B00F033BB1368581C1060ED
:104E1000197008465DF8044B7047F8B506460F4612
:104E20001446D518AC4201D1002007E014F8011B4C
:104E30003A463046FFF7DAFF431CF3D1F8BD0000D5
:104E40002DE9F04F0D469DB014469846064618B120
:104E500083690BB9FFF7D0FE894B9D421BD1756862
:104E60006B6ED90705D4AB899A0502D4A86DFFF7FC
:104E700061FFAB891B0701D52B69EBB92946304689
:104E800000F05AFBC0B16B6EDC070ED54FF0FF305F
:104E90001DB0BDE8F08F7B4B9D4201D1B568DFE7C7
:104EA000794B9D4208BFF568DAE7AB899805EDD4E8
:104EB000A86DFFF740FFE9E70023099320238DF851
:104EC0002930CDF80C803023DFF8C0818DF82A30EE
:104ED0004FF0010923469A4613F8012B0AB1252AFF
:104EE000F9D1BAEB040B0BD05B462246294630467B
:104EF000FFF793FF013000F0AA80099A5A44099203
:104F00009AF80030002B00F0A28000234FF0FF320F
:104F1000CDE905230AF1010A049307938DF8533074
:104F20001A935446052214F8011B5848FBF750F910
:104F3000049AD8B9D10644BF20238DF85330130703
:104F400044BF2B238DF853309AF800302A2B15D00C
:104F5000079A544600204FF00A0C214611F8013BF5
:104F6000303B092B4ED9B0B1079214E0A0EB0803F7
:104F700009FA03F313430493A246D2E7039B191DD6
:104F80001B680391002BBBBF5B4242F002020793F8
:104F90000793B8BF049223782E2B0CD163782A2B69
:104FA00035D1039B1A1D1B680392002BB8BF4FF02D
:104FB000FF3302340593DFF8E4A021780322504642
:104FC000FBF706F940B14023A0EB0A0003FA00F01A
:104FD000049B03430134049314F8011B2C488DF8FF
:104FE00028100622FBF7F4F800283FD0294B1BBB02
:104FF000039B073323F0070308330393099B3B44C8
:10500000099367E70CFB02320C460120A5E7002359
:105010000134059319464FF00A0C204610F8012B75
:10502000303A092A03D9002BC5D00591C3E70CFB00
:10503000012104460123F0E703AB00932A46164BF7
:1050400004A93046AFF300800746781CD6D16B6EBA
:10505000D90705D4AB899A0502D4A86DFFF76BFE7A
:10506000AB895B063FF512AF099811E703AB0093DC
:105070002A46094B04A9304600F080F8E4E700BF57
:105080001865000838650008F864000858650008CD
:1050900062650008000000001B4E00085E65000805
:1050A0002DE9F047164699468A680B69DDF820809D
:1050B0009342B8BF1346336091F8432007460C462D
:1050C0000AB1013333602368990642BF3368023363
:1050D0003360256815F0060506D104F1190AE36866
:1050E00032689B1AAB4226DC94F84320131E2268D8
:1050F00018BF012392062BD404F1430249463846D7
:10510000C04701301ED02368E568326803F006030B
:10511000042B08BFAD1AA36822690CBF25EAE57508
:1051200000259342C4BF9B1AED1800261A34B542DD
:105130001AD1002008E00123524649463846C047AC
:10514000013003D14FF0FF30BDE8F0870135C6E7ED
:10515000E1185A1C302081F84300224494F845108D
:1051600082F843100233C7E70123224649463846F6
:10517000C0470130E6D00136D9E700002DE9FF47EE
:105180000C469146277E0C99782F80469A4604F16A
:10519000430207D8622F0AD8002F00F0D880582F7A
:1051A00000F0A38004F1420684F842703AE0A7F1CF
:1051B0006303152BF6D801A050F823F01552000810
:1051C00029520008A5510008A5510008A551000862
:1051D000A551000829520008A5510008A551000852
:1051E000A5510008A5510008355300085952000880
:1051F00017530008A5510008A5510008575300088F
:10520000A551000859520008A5510008A5510008F1
:105210001F5300080B681A1D1B680A6004F1420640
:1052200084F842300123A3E0256808682E0600F1C7
:1052300004030AD505680B60002D03DA2D236D42A7
:1052400084F843305E480A2319E015F0400F0568E2
:105250000B6018BF2DB2EFE70B682568181D0860BA
:10526000280601D51D6802E06906FBD51D88544853
:105270006F2F0CBF08230A23002184F843106668AF
:10528000A660002EA2BF216821F0040121600DB9A3
:10529000002E4DD01646B5FBF3F103FB1157C75D49
:1052A00006F8017D2F46BB420D46F4D9082B0BD1E1
:1052B0002368DF0708D5236961689942DEBF302380
:1052C00006F8013C06F1FF36921B2261CDF800A0E2
:1052D0004B4603AA21464046FFF7E2FE01304CD17F
:1052E0004FF0FF3004B0BDE8F087354884F84570D2
:1052F00023680E681F0656F8045B0E6014D5D907A4
:1053000044BF43F0200323601DB9236823F020032A
:1053100023601023B0E7236843F020032360782341
:10532000284884F84530E3E75E0648BFADB2E6E7BB
:105330001646BBE70B68266860691D1D0D603506C3
:105340001B6801D5186002E07106FBD518800023A8
:1053500023611646BAE70B681A1D0A601E68626868
:1053600000213046FAF734FF08B1801B60606368A3
:105370002361002384F84330A8E723693246494675
:105380004046D0470130ABD023689B0713D4E06878
:10539000039B9842B8BF1846A4E70123324649460A
:1053A0004046D04701309BD00135E36803995B1A32
:1053B000AB42F2DCEBE7002504F11906F5E700BF8C
:1053C000696500087A65000838B5064D0023044673
:1053D00008462B6000F01EFB431C02D12B6803B172
:1053E000236038BD0050002010B50C46B1F90E10F6
:1053F00000F0B4FA0028ABBF636DA3891B1823F437
:105400008053ACBF6365A38110BD2DE9F0411F46F9
:105410008B89DB0505460C46164605D5B1F90E10FD
:105420000223002200F0C8F9A389B4F90E1023F476
:105430008053A38132463B462846BDE8F04100F048
:1054400069B810B50C46B1F90E1000F0B5F9431C5F
:10545000A38915BF606523F4805343F48053A3816F
:1054600018BFA38110BDB1F90E1000F0D3B8000031
:10547000F8B50E461446054618B183690BB9FFF717
:10548000BBFB214B9C422BD16C68A369A360A38911
:105490001A072FD523696BB323692068C01A636983
:1054A000F6B28342374604DC2146284600F048F92C
:1054B00030BBA368013BA36023685A1C22601E70A6
:1054C00063690130834204D0A389DB0706D50A2E25
:1054D00004D12146284600F033F988B93846F8BD92
:1054E0000A4B9C4201D1AC68CFE7094B9C4208BFF4
:1054F000EC68CAE72146284600F01EF80028CBD009
:105500004FF0FF37EAE700BF18650008386500086C
:10551000F864000838B5074D0446084611460022D5
:105520002A601A46FCF768F9431C02D12B6803B1C4
:10553000236038BD00500020324B70B51D68064610
:105540000C4625B1AB6913B92846FFF755FB2E4B26
:105550009C420FD16C68A389B4F90C2019072CD494
:10556000DD0611D40923336042F04003A3814FF0DC
:10557000FF303EE0254B9C4201D1AC68EBE7244B69
:105580009C4208BFEC68E6E7580712D5616B41B151
:1055900004F14403994202D0304600F08FF9002311
:1055A0006363A38923F02403A38100236360236939
:1055B0002360A38943F00803A38123694BB9A3891E
:1055C00003F42073B3F5007F03D02146304600F08A
:1055D00029F9A089B4F90C2010F001030AD00023A6
:1055E000A36063695B42A361236943B910F0800043
:1055F000BAD170BD810758BF6369A360F4E700208A
:10560000F7E700BF100000201865000838650008A3
:10561000F864000838B5064D0023044608462B60A0
:1056200000F0D0F9431C02D12B6803B1236038BDD0
:10563000005000208A892DE9F041054610070C46EC
:1056400058D44B68002B05DC0B6C002B02DC0020CF
:10565000BDE8F081E66A002EF9D0002312F48052F2
:105660002F682B6032D0606DA3895A0705D5636817
:10567000C01A636B0BB1236CC01A00230246E66AA2
:10568000216A2846B047431CA38906D129681D29F1
:105690002CD82A4ACA40D60728D500226260D904ED
:1056A0002269226004D5421C01D12B6803B96065D0
:1056B000616B2F600029CAD004F14403994202D0E3
:1056C000284600F0FBF800206063C1E7216A01234F
:1056D0002846B047411CC7D12B68002BC4D01D2BD6
:1056E00001D0162B01D12F60B1E7A38943F040030D
:1056F000A381ADE70F69002FA9D093070E6808BFFB
:105700004B690F6018BF0023A6EB07088B60B8F148
:10571000000F9CDD216AA66A43463A462846B047F8
:10572000002806DCA38943F04003A3814FF0FF303B
:105730008EE70744A8EB0008E9E700BF010040201E
:1057400038B50B6905460C4613B90025284638BD07
:1057500018B183690BB9FFF74FFA144B9C421BD168
:105760006C68B4F90C30002BEFD0626ED00704D413
:10577000990502D4A06DFFF7DDFA28462146FFF710
:1057800059FF636EDA070546E0D4A3899B05DDD493
:10579000A06DFFF7D0FAD9E7054B9C4201D1AC6868
:1057A000DFE7044B9C4208BFEC68DAE718650008A5
:1057B00038650008F864000838B5074D0446084607
:1057C000114600222A601A4600F014F9431C02D147
:1057D0002B6803B1236038BD0050002070B50E4621
:1057E000B1F90E10002996B014461D4607DA0023C1
:1057F0002B60B3891A0610D44FF480630EE06A461A
:1058000000F0BEF80028F2DB019A02F47042A2F523
:1058100000535A425A412A60EEE740230020236099
:1058200016B070BD8B8973B59D0706460C4607D52B
:1058300004F14703236023610123636102B070BD5B
:1058400001AB6A46FFF7CAFF009905463046FFF7ED
:1058500073FA48B9B4F90C309A05EFD423F0030376
:1058600043F00203A381E3E70D4BB362A3892060F9
:1058700043F08003A381009B6361019B20615BB1C6
:10588000B4F90E10304600F08DF828B1A38923F04A
:10589000030343F00103A381A0890543A581CDE75C
:1058A000914B00080148FFF745BA00BFF84F0020B0
:1058B0000148FFF740BA00BFF84F002037B5002974
:1058C00048D051F8043C0190002BA1F10404B8BF6A
:1058D000E418FFF7E7FF204A01981368154633B92B
:1058E0006360146003B0BDE83040FFF7E1BFA3423E
:1058F0000BD921686218934204BF1A685B68636021
:1059000004BF521822602C60ECE71A465B680BB1AA
:10591000A342FAD911685518A5420BD12468214435
:105920005418A3421160DDD11C685B6853602144A8
:105930001160D7E702D90C230360D3E7256861190A
:105940008B4204BF19685B68636004BF491921601A
:105950005460C7E703B030BD9C4D002038B5074DFB
:1059600004460846114600222A601A4600F04AF80A
:10597000431C02D12B6803B1236038BD00500020C6
:1059800038B5074D00230446084611462B6000F049
:1059900021F8431C02D12B6803B1236038BD00BF3E
:1059A0000050002038B5064D0023044608462B6001
:1059B00000F018F8431C02D12B6803B1236038BDF6
:1059C00000500020024B58221A604FF0FF30704701
:1059D00000500020024B58221A604FF0FF307047F1
:1059E00000500020024B58221A600020704700BF70
:1059F00000500020024B58221A604FF0FF307047D1
:105A000000500020024B58221A604FF0FF307047C0
:105A100000500020044A05491368002B08BF0B46BC
:105A20001844106018467047A44D0020085000200C
:105A3000F8B500BFF8BC08BC9E467047F8B500BF7B
:085A4000F8BC08BC9E4670474B
:105A4800C0640008E519000800000000000000001C
:105A580080000000000000000000000025750D0A0D
:105A6800000000004D61766C696E6B5461736B00C9
:105A780000000000320909000000000001000000D9
:105A88007C1F1F000000000002000000890C0C00B1
:105A98000000000004000000ED0E0E030C0D0000D5
:105AA80005000000D91C1C010000000006000000D1
:105AB80068030300000000000700000077202000B2
:105AC8000000000008000000752424000000000009
