:020000040800F2
:10000000000002204570000821210008232100087B
:1000100025210008272100082921000800000000F0
:10002000000000000000000000000000716D0008EA
:100030002B21000800000000116E0008756E0008FA
:10004000957000089570000895700008957000087C
:10005000957000089570000895700008957000086C
:100060009570000895700008957000082D21000813
:10007000957000089570000895700008957000084C
:10008000790F0008890F0008957000089570000826
:10009000957000089570000895700008957000082C
:1000A000957000089570000895700008957000081C
:1000B0009570000895700008957000083D210008B3
:1000C0004D21000895700008957000089570000893
:1000D000957000085D210008450F00089570000824
:1000E00095700008957000089570000895700008DC
:1000F0009570000895700008957000086D21000843
:1001000095700008957000089570000895700008BB
:100110009570000895700008957000087D21000812
:1001200095700008957000088D21000895700008F2
:10013000957000089570000895700008957000088B
:10014000957000089570000895700008957000087B
:1001500095700008957000089D21000895700008B2
:10016000957000089570000895700008957000085B
:100170009570000895700008957000080000000058
:0801800095700008957000085D
:1001900010B5054C237833B9044B13B10448AFF3C1
:1001A00000800123237010BDE0010020000000004A
:1001B000289A000808B5034B1BB103490348AFF365
:1001C000008008BD00000000E4010020289A00081B
:1001D000034613F8012B002AFBD1181A0138704787
:1001E00001F0FF01102A2BDB10F0070F08D010F8E8
:1001F000013B013A8B422DD010F0070F42B3F6D1EC
:10020000F0B441EA012141EA014122F007047FF004
:1002100000070023F0E80256083C85EA010586EA5B
:10022000010685FA47F5A3FA87F586FA47F6A5FA97
:1002300087F68EB9EED1F0BC01F0FF0102F00702A3
:1002400032B110F8013B013A83EA010313B1F8D14E
:100250000020704701387047002D06BF354603382F
:10026000073815F0010F07D1013015F4807F02BF68
:10027000013015F4C03F0130F0BC0138704700BFB9
:1002800081F0004102E000BF83F0004330B54FEA47
:1002900041044FEA430594EA050F08BF90EA020FB4
:1002A0001FBF54EA000C55EA020C7FEA645C7FEA47
:1002B000655C00F0E2804FEA5454D4EB5555B8BF6A
:1002C0006D420CDD2C4480EA020281EA030382EADB
:1002D000000083EA010180EA020281EA0303362D6D
:1002E00088BF30BD11F0004F4FEA01314FF4801C40
:1002F0004CEA113102D0404261EB410113F0004F52
:100300004FEA03334CEA133302D0524263EB430308
:1003100094EA050F00F0A780A4F10104D5F1200EA6
:100320000DDB02FA0EFC22FA05F2801841F1000101
:1003300003FA0EF2801843FA05F359410EE0A5F1D5
:1003400020050EF1200E012A03FA0EFC28BF4CF006
:10035000020C43FA05F3C01851EBE37101F00045BC
:1003600007D54FF0000EDCF1000C7EEB00006EEBC9
:100370000101B1F5801F1BD3B1F5001F0CD3490853
:100380005FEA30004FEA3C0C04F101044FEA4452AA
:1003900012F5800F80F09A80BCF1004F08BF5FEA31
:1003A000500C50F1000041EB045141EA050130BD11
:1003B0005FEA4C0C404141EB0101013C28BFB1F523
:1003C000801FE9D291F0000F04BF01460020B1FA6E
:1003D00081F308BF2033A3F10B03B3F120020CDA41
:1003E0000C3208DD02F1140CC2F10C0201FA0CF01F
:1003F00021FA02F10CE002F11402D8BFC2F1200C84
:1004000001FA02F120FA0CFCDCBF41EA0C01904039
:10041000E41AA2BF01EB0451294330BD6FEA040482
:100420001F3C1CDA0C340EDC04F11404C4F120026D
:1004300020FA04F001FA02F340EA030021FA04F37F
:1004400045EA030130BDC4F10C04C4F1200220FAD6
:1004500002F001FA04F340EA0300294630BD21FA14
:1004600004F0294630BD94F0000F83F4801306BFDA
:1004700081F480110134013D4EE77FEA645C18BFCE
:100480007FEA655C29D094EA050F08BF90EA020F65
:1004900005D054EA000C04BF1946104630BD91EA5D
:1004A000030F1EBF0021002030BD5FEA545C05D160
:1004B0004000494128BF41F0004130BD14F580049F
:1004C0003CBF01F5801130BD01F0004545F0FE4113
:1004D00041F470014FF0000030BD7FEA645C1ABF48
:1004E000194610467FEA655C1CBF0B46024650EA7F
:1004F000013406BF52EA033591EA030F41F40021AB
:1005000030BD00BF90F0000F04BF0021704730B530
:100510004FF4806404F132044FF000054FF0000105
:1005200050E700BF90F0000F04BF0021704730B5C6
:100530004FF4806404F1320410F0004548BF40429B
:100540004FF000013EE700BF42004FEAE2014FEAF0
:1005500031014FEA02701FBF12F07F4393F07F4FCB
:1005600081F06051704732F07F4208BF704793F0CE
:100570007F4F04BF41F40021704730B54FF46074E1
:1005800001F0004521F000411CE700BF50EA0102E4
:1005900008BF704730B54FF000050AE050EA01028D
:1005A00008BF704730B511F0004502D5404261EBFD
:1005B00041014FF4806404F132045FEA915C3FF43E
:1005C000D8AE4FF003025FEADC0C18BF03325FEADB
:1005D000DC0C18BF033202EBDC02C2F1200300FA8C
:1005E00003FC20FA02F001FA03FE40EA0E0021FAB1
:1005F00002F11444BDE600BF70B54FF0FF0C4CF49F
:10060000E06C1CEA11541DBF1CEA135594EA0C0F50
:1006100095EA0C0F00F0DEF82C4481EA030621EA8B
:100620004C5123EA4C5350EA013518BF52EA0335C6
:1006300041F4801143F4801338D0A0FB02CE4FF078
:100640000005E1FB02E506F00042E0FB03E54FF0A8
:100650000006E1FB03569CF0000F18BF4EF0010EA0
:10066000A4F1FF04B6F5007F64F5407404D25FEA9C
:100670004E0E6D4146EB060642EAC62141EA55514F
:100680004FEAC52040EA5E504FEACE2EB4F1FD0C91
:1006900088BFBCF5E06F1ED8BEF1004F08BF5FEA0F
:1006A000500E50F1000041EB045170BD06F00046C1
:1006B00046EA010140EA020081EA0301B4EB5C046E
:1006C000C2BFD4EB0C0541EA045170BD41F4801166
:1006D0004FF0000E013C00F3AB8014F1360FDEBF8B
:1006E000002001F0004170BDC4F10004203C35DA67
:1006F0000C341BDC04F11404C4F1200500FA05F3EA
:1007000020FA04F001FA05F240EA020001F000428A
:1007100021F0004110EBD37021FA04F642EB060100
:100720005EEA430E08BF20EAD37070BDC4F10C042A
:10073000C4F1200500FA04F320FA05F001FA04F2EE
:1007400040EA020001F0004110EBD37041F10001DA
:100750005EEA430E08BF20EAD37070BDC4F12005E5
:1007600000FA05F24EEA020E20FA04F301FA05F24D
:1007700043EA020321FA04F001F0004121FA04F2F5
:1007800020EA020000EBD3705EEA430E08BF20EAC5
:10079000D37070BD94F0000F0FD101F000464000FF
:1007A00041EB010111F4801F08BF013CF7D041EA81
:1007B000060195F0000F18BF704703F00046520085
:1007C00043EB030313F4801F08BF013DF7D043EA56
:1007D0000603704794EA0C0F0CEA135518BF95EA0C
:1007E0000C0F0CD050EA410618BF52EA4306D1D193
:1007F00081EA030101F000414FF0000070BD50EAB2
:10080000410606BF1046194652EA430619D094EA3B
:100810000C0F02D150EA013613D195EA0C0F05D125
:1008200052EA03361CBF104619460AD181EA030179
:1008300001F0004141F0FE4141F470014FF0000031
:1008400070BD41F0FE4141F4780170BD70B54FF0CC
:10085000FF0C4CF4E06C1CEA11541DBF1CEA13554C
:1008600094EA0C0F95EA0C0F00F0A7F8A4EB05042E
:1008700081EA030E52EA03354FEA013100F0888025
:100880004FEA03334FF0805545EA131343EA1263EE
:100890004FEA022245EA111545EA10654FEA0026A3
:1008A0000EF000419D4208BF964244F1FD0404F55C
:1008B000407402D25B084FEA3202B61A65EB0305B8
:1008C0005B084FEA32024FF480104FF4002CB6EB75
:1008D000020E75EB030E22BFB61A754640EA0C00F5
:1008E0005B084FEA3202B6EB020E75EB030E22BF35
:1008F000B61A754640EA5C005B084FEA3202B6EB76
:10090000020E75EB030E22BFB61A754640EA9C0034
:100910005B084FEA3202B6EB020E75EB030E22BF04
:10092000B61A754640EADC0055EA060E18D04FEAC2
:10093000051545EA16754FEA06164FEAC30343EA62
:1009400052734FEAC2025FEA1C1CC0D111F4801F2F
:100950000BD141EA00014FF000004FF0004CB6E728
:1009600011F4801F04BF01430020B4F1FD0C88BFC7
:10097000BCF5E06F3FF6AFAEB5EB030C04BFB6EBD2
:10098000020C5FEA500C50F1000041EB045170BDC5
:100990000EF0004E4EEA113114EB5C04C2BFD4EBF2
:1009A0000C0541EA045170BD41F480114FF0000E76
:1009B000013C90E645EA060E8DE60CEA135594EAF2
:1009C0000C0F08BF95EA0C0F3FF43BAF94EA0C0FF5
:1009D0000AD150EA01347FF434AF95EA0C0F7FF46A
:1009E00025AF104619462CE795EA0C0F06D152EABE
:1009F00003353FF4FDAE1046194622E750EA4106A2
:100A000018BF52EA43067FF4C5AE50EA41047FF4B2
:100A10000DAF52EA43057FF4EBAE12E74FF0FF3C17
:100A200006E000BF4FF0010C02E000BF4FF0010CE8
:100A30004DF804CD4FEA410C7FEA6C5C4FEA430C61
:100A400018BF7FEA6C5C1BD001B050EA410C0CBFB0
:100A500052EA430C91EA030F02BF90EA020F002012
:100A6000704710F1000F91EA030F58BF994208BF79
:100A700090422CBFD8176FEAE37040F00100704736
:100A80004FEA410C7FEA6C5C02D150EA013C07D18D
:100A90004FEA430C7FEA6C5CD6D152EA033CD3D0D8
:100AA0005DF8040B704700BF8446104662468C46D2
:100AB0001946634600E000BF01B5FFF7B7FF002805
:100AC00048BF10F1000F01BD4DF808EDFFF7F4FF2E
:100AD0000CBF012000205DF808FB00BF4DF808EDB9
:100AE000FFF7EAFF34BF012000205DF808FB00BFDC
:100AF0004DF808EDFFF7E0FF94BF012000205DF8FE
:100B000008FB00BF4DF808EDFFF7CEFF94BF0120B2
:100B100000205DF808FB00BF4DF808EDFFF7C4FFAB
:100B200034BF012000205DF808FB00BF4FEA410CF4
:100B30007FEA6C5C02D150EA013C0AD14FEA430CD7
:100B40007FEA6C5C02D152EA033C02D14FF0000014
:100B500070474FF0010070474FEA410212F5001252
:100B600015D211D56FF47873B3EB625212D94FEAF4
:100B7000C12343F0004343EA505311F0004F23FADE
:100B800002F018BF404270474FF00000704750EA33
:100B9000013005D111F0004008BF6FF000407047F0
:100BA0004FF00000704700BF53B94AB9002908BF91
:100BB00000281CBF4FF0FF314FF0FF3000F06EB93E
:100BC000ADF1080C6DE904CE00F006F8DDF804E0A4
:100BD000DDE9022304B070472DE9F047089D044683
:100BE0008C46002B40F083808A42174647D9B2FAE0
:100BF00082F242B1C2F1200024FA00F09140974005
:100C000040EA010C94404FEA1748230CBCFBF8F66D
:100C10001FFA87FE08FB16C143EA014306FB0EF1EB
:100C2000994209D9FB1806F1FF3080F019819942E9
:100C300040F21681023E3B445B1AA4B2B3FBF8F0CB
:100C400008FB103344EA034400FB0EFEA64509D915
:100C50003C1900F1FF3380F00581A64540F2028186
:100C600002383C4440EA0640A4EB0E0400261DB1C5
:100C7000D4400023C5E900433146BDE8F08702B9FE
:100C8000FFDEB2FA82F2002A50D1CB1B4FEA174E98
:100C90001FFA87F80126B3FBFEFC210C0EFB1C3368
:100CA00041EA034108FB0CF38B4207D979180CF198
:100CB000FF3002D28B4200F2E9808446C91AA3B207
:100CC000B1FBFEF00EFB101143EA014408FB00F8F3
:100CD000A04507D93C1900F1FF3302D2A04500F22C
:100CE000D9801846A4EB080440EA0C40BFE78B42C9
:100CF00009D9002D00F0B1800026C5E90001304679
:100D00003146BDE8F087B3FA83F6002E4AD18B4214
:100D100002D3824200F2B880841A61EB0301012001
:100D20008C46002DA8D0C5E9004CA5E7C2F12003F0
:100D300020FA03F6974001FA02F04FEA174ED94025
:100D40003043030CB1FBFEF61FFA87F80EFB1611B9
:100D500043EA014306FB08F1994204FA02F409D977
:100D6000FB1806F1FF3C80F08D80994240F28A80AA
:100D7000023E3B445B1A81B2B3FBFEF00EFB103324
:100D800041EA034100FB08F38B4207D9791800F1CF
:100D9000FF3C73D28B4271D902383944CB1A40EAF6
:100DA000064678E7C6F1200C03FA06F422FA0CF3A3
:100DB0001C4320FA0CF701FA06F34FEA144E21FA0D
:100DC0000CF11F433B0CB1FBFEF91FFA84F80EFB3C
:100DD000191143EA014109FB08FA8A4502FA06F2B1
:100DE00000FA06F308D9611809F1FF3048D28A45A4
:100DF00046D9A9F102092144A1EB0A01BFB2B1FB16
:100E0000FEF00EFB101147EA014700FB08F8B84559
:100E100007D9E71900F1FF312ED2B8452CD9023895
:100E2000274440EA0940A7EB0807A0FB02894F4589
:100E3000C64649461AD317D05DB1B3EB0E0267EB35
:100E4000010707FA0CFCF2404CEA0202F740C5E940
:100E5000002700263146BDE8F0872E4628460BE7DE
:100E60000646E9E61846FDE64345E5D2B8EB020E34
:100E700069EB04010138DFE70846D2E760468DE7F9
:100E80008146B9E7664675E730464AE7ACF1020CA1
:100E9000394413E702383C4424E700BF704700BFE1
:100EA00010B584B000230193214B9B6B1B685C68D9
:100EB000C4F180041F4B1B68A3420CD01BD21E4AF6
:100EC0001A440392E31A0293002301AA02A91B48C1
:100ED000006804F0DDFF174B1C60802C25D0019BBF
:100EE0003BB1174B4FF080521A60BFF34F8FBFF3E7
:100EF0006F8F04B010BD104A1A440392C3F18003EF
:100F00000293002301AA02A90C48006804F0C0FF64
:100F1000002CE0D0084B03930294002301AA02A9FD
:100F20000648006804F0B4FFD5E700221A60D6E74F
:100F3000504F0020FC01002000020020104C002037
:100F400004ED00E000B583B00A4B1B681A6812F08C
:100F5000100F0BD0002201921A6801925B68019376
:100F6000019BFFF79DFF03B05DF804FB014804F00F
:100F700063FDF8E7504F002008B5024B986B01F075
:100F800033FF08BD504F002008B5024B586B01F0ED
:100F90002BFF08BD504F002008B50268034B9A4252
:100FA00000D008BDFFF77CFFFBE700BF0044004016
:100FB00000B583B001904FF6FF73012201A90348E9
:100FC00004F059FC019803B05DF804FB0C4F0020BD
:100FD00070B50C4616460025B54205DA14F8010B2B
:100FE000FFF7E6FF0135F7E7304670BD00B583B087
:100FF000C82005F049FB4FF47A730A22D0213D48FE
:1010000002F0A4FF18B1002003B05DF804FB012238
:101010000092394B7521D02000F0AEFB0028F3D0B0
:10102000354B1B78682B01D00020EDE7052005F03B
:101030002BFB314A802313700123019300926B2212
:10104000D0212C4802F092FD08B10020DCE764209A
:1010500005F01AFB284B00221A70012200926B2126
:10106000D02000F0B1FB0028CED00A2005F00CFB08
:10107000214B03221A70012200926B21D02000F034
:10108000A3FB0028C0D0052005F0FEFA1A4B07226A
:101090001A70012200921921D02000F095FB00283F
:1010A000B2D0052005F0F0FA134B00221A7001228D
:1010B00000921C21D02000F087FB0028A4D005203E
:1010C00005F0E2FA0C4B18221A70012200921B2143
:1010D000D02000F079FB002896D0052005F0D4FA46
:1010E000054B02221A70012200923721D02000F015
:1010F0006BFB89E7904C00208002002010B582B085
:101100000446062300930C4B01223B21D02000F023
:1011100033FB78B1084B19785A7842EA01222280D1
:101120009978DA7842EA012262801A795B7943EA97
:101130000223A38002B010BD8402002010B582B04B
:101140000446062300930C4B01224321D02000F0DB
:1011500013FB78B1084B19785A7842EA01222280B1
:101160009978DA7842EA012262801A795B7943EA57
:101170000223A38002B010BD8402002030B587B0E6
:101180004FF47A730A22EE212D4802F0DFFE18B1E7
:101190000025284607B030BD04462A491E230B709F
:1011A0000122EE2000F038FB05460028F1D00A208D
:1011B00005F06AFA0023ADF81430052C1BD804F1B1
:1011C00051014900C9B21F4B19700223009305ABAE
:1011D0000122EE2000F0D0FA78B39DF814209DF89B
:1011E000153043EA022306AA02EB440222F8103C1F
:1011F0000134E4B2E1E7BDF80820D203124B1A60D3
:1012000000225A60BDF80A201204104B1A60002216
:101210005A60BDF80C200E4B1A80BDF80E200D4B05
:101220001A80BDF810200C4B1A80BDF812200B4B11
:101230001A800A2005F028FAABE70546A9E700BFA7
:10124000904C0020A802002098020020900200206C
:10125000A2020020A0020020A6020020A40200207A
:1012600030B583B04FF47A730A223C21124802F061
:101270006DFE10B1002003B030BD104D78232B70EF
:10128000012400942B46224600213C2000F09CFAC9
:1012900020232B7000942B46224621463C2000F050
:1012A00093FA00232B7000942B46224602213C2007
:1012B00000F08AFA2046DEE7904C0020A9020020C8
:1012C00010B582B00446062300930C4B0122032183
:1012D0003C2000F051FA78B1084B19785A7842EA6C
:1012E0000122228019795A7942EA012262809A7891
:1012F000DB7843EA0223A38002B010BDAC020020D9
:10130000F0B585B0284806F0F1FBFFF76FFE054603
:101310000146264806F064FBFFF7A2FF0646014699
:10132000234806F05DFBFFF729FF044601462148EC
:1013300006F056FB002700971F4B204A0C21012086
:1013400004F05CFD1E4B186000971E4B1E4A0C21DA
:10135000012004F053FD1D4B186000971C4B1D4AE3
:101360000C21012004F04AFD1B4B18601B4B02931B
:101370001B4B0193042300933B464FF480721949A1
:10138000194804F075FF05EA0600044014F0FF0454
:1013900005D0164806F0AAFB204605B0F0BD14485B
:1013A00006F0A4FBF8E700BF5C9A0008709A0008FA
:1013B000849A0008989A0008B4020020FC020020D9
:1013C000204C00200803002050030020144C002073
:1013D0005C030020A4030020184C0020B00700206C
:1013E000B0030020AC9A0008A5160008B89A0008BF
:1013F000D49A0008F0B4049F059EB0F9044006EEAC
:10140000904AF8EEE66ADFED837A76EEA76ADFEDC2
:10141000827A66EEA76A814CC4ED006AB0F9025088
:1014200006EE105AB8EEC66ADFED7D7A36EE276A10
:10143000DFED7C7A26EE276A7B4D85ED006AB0F9F8
:10144000000007EE100AB8EEC77ADFED787A37EEC3
:10145000277ADFED777A67EE277A7648C0ED007A53
:10146000C3ED026A9FED747A26EE877A36EE077A2C
:1014700083ED017A9FED717A26EE076A77EE867A20
:101480009FED6F7A66EE876A77EEA67AC3ED007AF3
:10149000B1F9003007EE903AF8EEE77A9FED697AFD
:1014A00077EEC77A9FED687A67EE877AC0ED007AAB
:1014B000B1F9023006EE903AF8EEE66A9FED637AF3
:1014C00076EEC76A9FED627A66EE876AC5ED006ABE
:1014D000B1F9043007EE103AB8EEC77A9FED5D6AB5
:1014E00037EE067A9FED5C6A27EE067A84ED007A85
:1014F0009FED5A6A66EE866A77EEA67ADFED586A45
:1015000027EE267A77EE877AC7ED007A90ED007A9B
:10151000DFED547A67EE277A95ED006A77EE867AEA
:10152000D4ED006ADFED505A66EEA55A77EEA57A43
:10153000C7ED017ADFED4D7A27EE277ADFED4C7AA1
:1015400026EE276A37EE067A36EE877A87ED027A3C
:10155000B2F9003007EE903AF8EEE77A9FED457A5F
:1015600077EE877AC0ED007AB2F9023006EE903A53
:10157000F8EEE66A9FED407A76EEC76AC5ED006A3E
:10158000B2F9043007EE103AB8EEC77A9FED3B6A25
:1015900037EE467A84ED007A9FED396A67EE867AF7
:1015A0009FED386A66EE866A77EEA67ADFED366AD8
:1015B00027EE267A77EE877AC6ED007AD0ED007AAC
:1015C0009FED327A27EE877A95ED006ADFED306A7B
:1015D00066EE266A37EE267AD4ED006ADFED2D5AE4
:1015E00066EEA55A37EE257A86ED017A9FED2A7AC6
:1015F00067EE877A9FED297A26EE076A77EE867A7C
:101600009FED277A66EE876A77EEA67AC6ED027AB4
:10161000F0BC7047C395D243BDC11BBA1C4C00201F
:10162000D7A3C842E0EA1BBA284C0020AAC16B44E9
:1016300088621CBA244C0020F8FBE6BB94B7BE3885
:10164000B03196BB0F9CBC410B248B3A4BE5294033
:10165000E4748A3AF2B00E415E528C3A15D426BA3E
:10166000FCABA63B387832BBAC4FBD3B3328073CC4
:10167000ECD2503C09262643064E3A43671A1D43D6
:101680008920153BD59862B78307F838BAB4593822
:101690006FB3113BE2E254376DD15C375AA05CB7AF
:1016A0003CD9283B00B5A3B000F06EF904F08CFEE5
:1016B000129020A8FFF722FD1EA8FFF73FFD1CA8EF
:1016C000FFF7FEFD13AB019316AB009319AB1CAAF9
:1016D0001EA920A8FFF78EFE04F076FE4FF47A7361
:1016E00003FB00F0224BA3FB0030800907EE900AB9
:1016F000F8EE677A17EE900AFEF726FF04460D46CD
:101700001598FEF721FFCDE910011498FEF71CFF94
:10171000CDE90E011398FEF717FFCDE90C011898DB
:10172000FEF712FFCDE90A011798FEF70DFFCDE98C
:1017300008011698FEF708FFCDE906011B98FEF791
:1017400003FFCDE904011A98FEF7FEFECDE9020180
:101750001998FEF7F9FECDE9000122462B4605480F
:1017600006F03EF9322112A804F03CFFA1E700BFC9
:10177000D34D6210F09A0008F0B583B004460D46D0
:1017800016461F4605F038F80D4B1860BDF820309E
:101790000193009733462A4621460A4802F0CEFAC2
:1017A00010B1002003B0F0BD4FF47A71012005F0B4
:1017B00083F8012801D00020F4E70120F2E700BF00
:1017C00004080020904C0020F0B583B004460D467C
:1017D00016461F4605F010F80D4B1860BDF8203076
:1017E0000193009733462A4621460A4802F0BEF983
:1017F00010B1002003B0F0BD4FF47A71012005F064
:101800005BF8012801D00020F4E70120F2E700BFD7
:1018100004080020904C002070B504460D46164682
:1018200004F0EAFF0A4B186033462A46214609486D
:1018300002F0D4F808B1002070BD4FF47A71012095
:1018400005F03AF8012801D00020F5E70120F3E780
:1018500004080020904C002030B583B0002501958D
:10186000084C01A9206805F063F82560019B3BB195
:10187000054B4FF080521A60BFF34F8FBFF36F8F4D
:1018800003B030BD0408002004ED00E030B583B0A3
:1018900000250195084C01A9206805F049F825604C
:1018A000019B3BB1054B4FF080521A60BFF34F8F45
:1018B000BFF36F8F03B030BD0408002004ED00E0DB
:1018C00030B583B000250195084C01A9206805F0CA
:1018D0002FF82560019B3BB1054B4FF080521A60F9
:1018E000BFF34F8FBFF36F8F03B030BD04080020EC
:1018F00004ED00E030B583B000250195084C01A946
:10190000206805F015F82560019B3BB1054B4FF0B1
:1019100080521A60BFF34F8FBFF36F8F03B030BD9B
:101920000408002004ED00E000B585B0074B0293E9
:10193000074B01930223009300234FF48072054963
:10194000054804F095FC05B05DF804FB0C0C002084
:101950000C080020109B00088119000808B5064BF0
:101960001B7803B108BDFFF7CBFC0146024B187092
:10197000024806F035F8F5E7080800201C9B00082F
:1019800008B5FFF7EBFF08BD08B5044B1B7803B1A2
:1019900008BD022004F078FEFAE700BF0808002026
:1019A00030B595B03022002108A805F0A7FB00242F
:1019B0000394049405940694079401941B4B1A6CA9
:1019C00042F080521A641B6C03F080530193019B18
:1019D0000294174B1A6842F480421A601B6803F4A1
:1019E00080430293029B012308934FF480330993B1
:1019F00002250E954FF480030F9304231093A82221
:101A000011921295139308A800F030FC0F23039352
:101A1000049505944FF4A05306934FF48053079315
:101A2000052103A800F084FE15B030BD0038024047
:101A30000070004008B501F01FFBFFF7B1FF00F098
:101A40001FF800F071F800F045FA00F0CFF900F04F
:101A50005BFA00F0DDF8FFF767FF00F0C3F804F071
:101A6000D5FFFEE708B50268034B9A4200D008BDD7
:101A700001F01CFBFBE700BF0014004070470000B2
:101A800030B58BB00024059406940794089409940B
:101A90000094234B1A6B42F004021A631A6B02F093
:101AA00004020092009A01941A6B42F080021A63B9
:101AB0001A6B02F080020192019A02941A6B42F0B2
:101AC00001021A631A6B02F001020292029A039455
:101AD0001A6B42F008021A631A6B02F008020392B2
:101AE000039A04941A6B42F002021A631B6B03F010
:101AF00002030493049B0B4D01224FF4005128462E
:101B000000F0F4FF4FF4005305930123069307936D
:101B1000089405A9284600F0FFFE0BB030BD00BFB9
:101B2000003802400008024010B582B00024009442
:101B3000224B1A6B42F480021A631A6B02F4800281
:101B40000092009A01941A6B42F400121A631B6B04
:101B500003F400130193019B224605210B2001F0A1
:101B600049FA0B2001F07AFA22460621102001F0F2
:101B700041FA102001F072FA22460621112001F0EC
:101B800039FA112001F06AFA224605212F2001F0CE
:101B900031FA2F2001F062FA22460A213A2001F0A0
:101BA00029FA3A2001F05AFA22460A21462001F089
:101BB00021FA462001F052FA02B010BD003802406E
:101BC00008B5012004F05CFFFBE70000034B036055
:101BD000034B0B6080231360704700BF600E002032
:101BE000600C002030B589B001AC074D0FCD0FC49B
:101BF00095E8070084E80700002101A804F00BFF26
:101C0000024B186009B030BD409A00082C4C0020EF
:101C100008B50B480B4B03600B4B436000238360FC
:101C20001422C2604FF48042026143618361C36148
:101C3000036201F0F5FD00B908BDFFF71FFFFBE7E8
:101C4000904C002000540040801A060070B588B007
:101C50000023039304930593069307930268394B7B
:101C60009A4201D008B070BD044600250195364E59
:101C7000336B43F002033363336B03F002030193CE
:101C8000019BC0230393122304930595032306931A
:101C90000423079303A92D4800F03EFE0295336C00
:101CA00043F400133364336C03F400130293029B78
:101CB0002748284B03604FF0007343608560C56080
:101CC0004FF48063036145618561C5614FF4003362
:101CD0000362456200F090FF68BB1D4BA3639C63E9
:101CE0001D481E4B03604FF0007343604023836028
:101CF0000023C3604FF48062026143618361C3616A
:101D00004FF400320262436200F076FFB0B9124B2A
:101D100063639C63002205211F2001F06BF91F20E3
:101D200001F09CF900220521202001F063F9202018
:101D300001F094F996E7FFF7A1FECEE7FFF79EFECC
:101D4000E5E700BF005400400038024000040240B4
:101D5000E44C002010600240304C0020B86002408B
:101D60000268094B9A4200D0704782B00023019369
:101D7000064B1A6C42F004021A641B6C03F0040355
:101D80000193019B02B070470008004000380240F8
:101D900000B587B000230193029303930493059346
:101DA00002680F4B9A4202D007B05DF804FB002393
:101DB00000930C4A116B41F008011163126B02F0A1
:101DC00008020092009A4FF470420192022202929D
:101DD00003930493059201A9034800F09DFDE3E7F6
:101DE0000008004000380240000C024000B58FB0EF
:101DF00000230A930B930C930D930893099301937B
:101E00000293039304930593069307932F48304A54
:101E100002604360836040F6EF22C2600361836129
:101E200003F036FA002839D14FF480530A930AA9F7
:101E3000264803F031FB002833D1244803F054FA3C
:101E4000002831D100230893099308A91F4803F003
:101E500091FB60BB602301930022029203920592E2
:101E600001A91A4803F0A4FA20BB04220DEB0201D9
:101E7000164803F09DFA00BB082201A9134803F09D
:101E800097FAE8B90C2201A9104803F091FAD0B9E9
:101E90000E48FFF77DFF0FB05DF804FBFFF7EEFD86
:101EA000C2E7FFF7EBFDC8E7FFF7E8FDCAE7FFF77A
:101EB000E5FDCFE7FFF7E2FDD7E7FFF7DFFDDBE763
:101EC000FFF7DCFDDEE7FFF7D9FDE1E7444D002039
:101ED0000008004008B50A480A4B03604FF4E1339C
:101EE000436000238360C36003610C22426183610D
:101EF000C36103F091FC00B908BDFFF7BFFDFBE72C
:101F00000C4F00200010014008B50A480A4B03603E
:101F10004FF4E133436000238360C36003610C220C
:101F200042618361C36103F077FC00B908BDFFF72C
:101F3000A5FDFBE7504F00200044004030B58BB0BA
:101F400004460023059306930793089309930368B7
:101F5000674A934204D0674A934262D00BB030BDC7
:101F600000250195644B5A6C42F010025A645A6C79
:101F700002F010020192019A02951A6B42F00102DE
:101F80001A631B6B03F001030293029B4FF4C063BF
:101F900005930223069307950323089307230993C8
:101FA00005A9564800F0B8FC5548564B03604FF061
:101FB000006343608560C5604FF4806303614561E1
:101FC0008561C5610562456200F016FE18BB4C4B89
:101FD000A3639C634C484D4B03604FF00063436028
:101FE000402383600023C3604FF480620261436139
:101FF0008361C3610362436200F0FEFD70B9424B2E
:1020000063639C6300220A21252000F0F3FF252052
:1020100001F024F8A2E7FFF731FDD8E7FFF72EFD26
:10202000EDE700250395344B1A6C42F400321A6434
:102030001A6C02F400320392039A04951A6B42F070
:1020400001021A631B6B03F001030493049B0C232E
:102050000593022306930795032308930723099307
:1020600005A9264800F058FC29482A4B03604FF088
:10207000006343608560C5604FF480630361456120
:1020800085614FF48073C3614FF40033036245628E
:1020900000F0B2FD28BB1E4BA3639C631E481F4B80
:1020A00003604FF000634360402383600023C360FC
:1020B0004FF48062026143618361C3614FF48032F7
:1020C0000262436200F098FD70B9134B63639C6336
:1020D00000220621262000F08DFF262000F0BEFF02
:1020E0003CE7FFF7CBFCD6E7FFF7C8FCEDE700BF06
:1020F000001001400044004000380240000002404F
:102100004C4E002040640240EC4D0020B864024078
:102110008C4D002088600240AC4E0020A060024040
:102120007047FEE7FEE7FEE7FEE7704708B50248A6
:1021300000F05AFE08BD00BFE44C002008B502487C
:1021400002F04AFD08BD00BF904C002008B50248CF
:1021500002F00FFE08BD00BF904C002008B50248F9
:1021600003F06AFC08BD00BF0C4F002008B5024810
:1021700000F03AFE08BD00BF304C002008B5024810
:1021800002F065FF08BD00BF944F002008B502486B
:1021900000F02AFE08BD00BF4C4E002008B50248E2
:1021A00000F022FE08BD00BFEC4D002000B583B05A
:1021B000002200920D4B596C41F480415964596CD6
:1021C00001F48041009100990192196C41F0805115
:1021D00019641B6C03F080530193019B0F216FF076
:1021E000010000F007FF03B05DF804FB0038024077
:1021F00010B588B001460022372000F0FBFE3720E2
:1022000000F02CFF00240194144B1A6C42F02002C1
:102210001A641B6C03F020030193019B02A903A81D
:1022200000F05CFB00F03AFB43000D48A0FB0323E9
:102230009B0C013B0B480C4A026040F2E732C26043
:1022400043600461846003F023F810B1012008B0FA
:1022500010BD044802F0B2FEF9E700BF00380240AA
:1022600083DE1B43944F002000140040002800F040
:10227000DF8170B582B00446036813F0010F3BD0D4
:10228000A64B9B6803F00C03042B2CD0A34B9B683C
:1022900003F00C03082B21D06368B3F5803F4FD0C7
:1022A000B3F5A02F52D09D4B1A6822F480321A60E9
:1022B0001A6822F480221A606368002B50D000F064
:1022C00001FF0546954B1B6813F4003F14D100F045
:1022D000F9FE401B6428F5D90320B0E18F4B5B6801
:1022E00013F4800FD8D08D4B1B6813F4003F03D03C
:1022F0006368002B00F09E81236813F0020F54D016
:10230000864B9B6813F00C0F3ED0844B9B6803F008
:102310000C03082B33D0E368002B67D0804B0122DD
:102320001A6000F0CFFE05467C4B1B6813F0020FCD
:1023300053D100F0C7FE401B0228F5D903207EE1EF
:10234000764A136843F480331360B5E7734B1A6819
:1023500042F480221A601A6842F480321A60ABE7B5
:1023600000F0B0FE05466D4B1B6813F4003FC3D070
:1023700000F0A8FE401B6428F5D903205FE1674BFD
:102380005B6813F4800FC6D1644B1B6813F0020F17
:1023900003D0E368012B40F04F81604A136823F0BB
:1023A000F803216943EAC1031360236813F0080F9F
:1023B00040D0636963B35B4B01221A6000F082FE78
:1023C0000546564B5B6F13F0020F33D100F07AFED7
:1023D000401B0228F5D9032031E1504A136823F04D
:1023E000F803216943EAC1031360DEE74C4B002286
:1023F0001A6000F067FE0546484B1B6813F0020F99
:10240000D3D000F05FFE401B0228F5D9032016E16F
:10241000444B00221A6000F055FE05463F4B5B6FAF
:1024200013F0020F06D000F04DFE401B0228F5D934
:10243000032004E1236813F0040F78D0374B1B6CA2
:1024400013F0805F0DD100230193344B1A6C42F0DE
:1024500080521A641B6C03F080530193019B012589
:1024600000E00025304B1B6813F4807F21D0A36867
:10247000012B32D0052B36D0284B1A6F22F00102E7
:102480001A671A6F22F004021A67A368002B34D06F
:1024900000F018FE0646214B1B6F13F0020F45D1CA
:1024A00000F010FE801B41F288339842F3D90320DC
:1024B000C5E01D4A136843F48073136000F002FE08
:1024C0000646194B1B6813F4807FD0D100F0FAFD4B
:1024D000801B0228F5D90320B1E0104A136F43F0A6
:1024E00001031367D1E70D4B1A6F42F004021A671C
:1024F0001A6F42F001021A67C7E700F0E3FD0646D3
:10250000064B1B6F13F0020F10D000F0DBFD801B99
:1025100041F288339842F3D9032090E0003802401A
:1025200000004742800E474200700040EDB9A369A9
:10253000002B00F08380494A926802F00C02082ABE
:1025400051D0022B17D0464B00221A6000F0BAFD82
:102550000446424B1B6813F0007F42D000F0B2FDEE
:10256000001B0228F5D9032069E03C4A136C23F0D4
:1025700080531364DBE73A4B00221A6000F0A2FD9F
:102580000546364B1B6813F0007F06D000F09AFD1D
:10259000401B0228F5D9032051E0E369226A134366
:1025A000626A43EA8213A26A5208013A43EA02438A
:1025B000E26A43EA0263294A5360294B01221A6006
:1025C00000F080FD0446254B1B6813F0007F06D108
:1025D00000F078FD001B0228F5D903202FE0002031
:1025E0002DE000202BE0012B2BD01C4B5B6803F46B
:1025F0008001E269914226D103F03F02216A8A42BA
:1026000023D1616A47F6C0721A40B2EB811F1ED116
:1026100003F44031A26A5208013AB1EB024F18D1DB
:1026200003F07063E26AB3EB026F14D1002006E09E
:1026300001207047012002E0012000E0002002B0EC
:1026400070BD0120FBE70120F9E70120F7E7012039
:10265000F5E70120F3E70120F1E700BF0038024071
:1026600060004742F8B52F4B9B6803F00C03042B26
:1026700053D0082B53D12B4B5A6802F03F025B68B2
:1026800013F4800F28D0274B5B68C3F388135801DD
:102690000021C01A61F100018E0146EA90668701AF
:1026A0003C1A66EB0105E90041EA5471E000C018EC
:1026B00041F100014B0243EAD0534402204619463F
:1026C0000023FEF771FA174B5B68C3F30143013334
:1026D0005B00B0FBF3F023E0124B5B68C3F388139D
:1026E0005C010025E41A65F10005AE0146EA946636
:1026F000A701381B66EB0501CC0044EA5074C50005
:10270000E81844F100018B0243EA9053840220460A
:1027100019460023FEF748FAD5E7034800E00348CE
:10272000F8BD00BF0038024000127A000024F40017
:10273000002800F09B8070B50D4604464F4B1B6887
:1027400003F007038B4208D2CBB24C4A13701368D4
:1027500003F007038B4240F08B80236813F0020FD5
:1027600017D013F0040F04D0454A936843F4E053A4
:102770009360236813F0080F04D0414A936843F430
:10278000604393603E4A936823F0F003A1680B43D3
:102790009360236813F0010F32D06368012B21D0BE
:1027A0009A1E012A25D9364A126812F0020F61D00A
:1027B00033498A6822F0030213438B6000F082FCE5
:1027C00006462F4B9B6803F00C036268B3EB820F45
:1027D00016D000F077FC801B41F288339842F0D984
:1027E000032042E0264A126812F4003FE0D10120A3
:1027F0003BE0234A126812F0007FD9D1012034E077
:102800001E4B1B6803F00703AB4207D9EAB21B4B10
:102810001A701B6803F00703AB422DD1236813F035
:10282000040F06D0164A936823F4E053E1680B4383
:102830009360236813F0080F07D0114A936823F4BC
:102840006043216943EAC1039360FFF70BFF0C4B20
:102850009B68C3F303130B4AD35CD8400A4B186040
:102860000A4B1868FFF7C4FC002070BD01207047B8
:102870000120FAE70120F8E70120F6E7003C0240DA
:1028800000380240489B0008080000200400002097
:10289000014B1868704700BF0800002008B5FFF71B
:1028A000F7FF044B9B68C3F38223034AD35CD840F1
:1028B00008BD00BF00380240589B000808B5FFF76C
:1028C000E7FF044B9B68C3F34233034AD35CD84011
:1028D00008BD00BF00380240589B00080F2303606A
:1028E0000B4B9A6802F0030242609A6802F0F00211
:1028F00082609A6802F4E052C2609B68DB0803F4CD
:10290000E0530361034B1B6803F007030B60704740
:1029100000380240003C024000230F2B00F2DD8013
:10292000F0B482B05DE086685F000324BC4026EA14
:102930000406CC68BC4034438460466826EA02063C
:102940004C68C4F300129A403243426057E0DC08FE
:10295000083450F8247003F0070296000F22B240AA
:1029600027EA02070A69B2403A4340F824205AE0B5
:10297000072200E00022B2403A430234574E46F8A4
:102980002420574A1468EA4324EA05064F6817F4DE
:10299000803F01D045EA0406514C2660646802EA93
:1029A00004064F6817F4003F01D045EA04064C4C7A
:1029B0006660A46802EA04064F6817F4801F01D01D
:1029C00045EA0406464CA660E46822404E6816F4C8
:1029D000001F01D045EA0402414CE26001330F2B95
:1029E00078D801229A400C6804EA020532EA04040D
:1029F000F4D14C6804F00304013C012C93D94A68DB
:102A000002F00302032A09D0C4685E000322B24028
:102A100024EA02048A68B2402243C2604A6802F093
:102A20000302022A93D004685E000322B24024EA23
:102A300002044A6802F00302B240224302604A687C
:102A400012F0805FCAD000220192264A546C44F4EE
:102A500080445464526C02F480420192019A9C08B2
:102A6000A61C1E4A52F8267003F0030296000F229D
:102A7000B24027EA02071C4A90423FF47BAF02F5BE
:102A8000806290421AD002F58062904218D002F51E
:102A90008062904216D002F58062904214D002F516
:102AA0008062904212D002F58062904210D002F50E
:102AB000806290423FF45CAF08225CE701225AE753
:102AC000022258E7032256E7042254E7052252E780
:102AD000062250E702B0F0BC704770470038014052
:102AE000003C014000380240000002400AB1816110
:102AF000704709048161704730B405682C6824F47C
:102B000080242C60046863608368402B05D00368D0
:102B100099600368DA6030BC704703689A600368A4
:102B2000D960F8E710B40368D9B210390C4AA2FB97
:102B3000014212090B4CA25CC2655F2909D923F43A
:102B40007F7323F0030304338365806D5DF8044BCA
:102B5000704723F47F7323F003038365F5E700BF19
:102B6000ABAAAAAA409B0008836A826992B9012B8A
:102B70000AD0022B02D00BB100207047C36A13F0B9
:102B8000807F28D100207047C36AB3F1C07F24D072
:102B900000207047B2F5005F09D0022B25D9032B26
:102BA00025D1C36A13F0807F23D100207047032B07
:102BB00003D8DFE803F01404140A00207047C36A46
:102BC00013F0807F0DD100207047C36AB3F1C07F3E
:102BD00009D0002070470120704701207047012074
:102BE0007047012070470120704701207047002086
:102BF000704701207047000070B5044600F062FA8B
:102C0000002C5BD00546002384F83430022384F87E
:102C100035302268136823F00103136023681A68B3
:102C200012F0010F0AD000F04DFA431B052BF5D925
:102C300020236365032084F8350070BD1A6820489E
:102C400010406168A2680A43E1680A4321690A43A7
:102C500061690A43A1690A43E1690A43216A0A4397
:102C60000243616A04291ED01A602668756925F03E
:102C70000705636A1D43042B07D1A36A1D43E36A5A
:102C80001BB12046FFF770FF90B975612046FFF732
:102C900049FFE26D3F23934083600020606501237C
:102CA00084F83530C9E7E16A206B01430A43DBE76A
:102CB00040236365012084F83500BEE70120BCE7AE
:102CC0003F8010F038B50446856D90F83400012837
:102CD0002BD0012084F8340094F83500C0B20128CC
:102CE00004D0002384F83430022038BD022084F858
:102CF0003500002060652046FFF7FEFEE26D3F23B1
:102D00009340AB602268136843F016031360236C92
:102D100023B12268136843F0080313602268136824
:102D200043F0010313600020DFE70220DDE770B508
:102D30000446866D00F0C6F994F83530DBB2022BFC
:102D400006D080236365002384F83430012070BDF1
:102D500005462268136823F016031360226853693E
:102D600023F080035361236CE3B12268136823F0DE
:102D7000080313602268136823F0010313602368BB
:102D80001B6813F0010F11D000F09CF9431B052BB9
:102D9000F5D920236365002384F83430032084F8B8
:102DA0003500D4E7A36C002BDFD1E3E7E26D3F23CE
:102DB0009340B360002084F83400012384F8353058
:102DC000C5E790F83530DBB2022B03D08023436592
:102DD00001207047052380F835300268136823F01E
:102DE0000103136000207047F0B583B00446002350
:102DF0000193724B1D68724BA3FB0535AD0A876DBD
:102E00003E68C26D08239340334210D003681A68AD
:102E100012F0040F0BD01A6822F004021A60C26D7F
:102E200008239340BB60436D43F001034365E26DAB
:102E300001239340334209D02268526912F0800F77
:102E400004D0BB60636D43F002036365E26D04234D
:102E50009340334209D02268126812F0020F04D066
:102E6000BB60636D43F004036365E26D1023934020
:102E7000334224D02268126812F0080F1FD0BB60C2
:102E800023681A6812F4802F0DD01B6813F4002FEA
:102E900004D1236C9BB12046984710E0A36C73B11A
:102EA000204698470BE01A6812F4807F03D11A6815
:102EB00022F008021A60236C0BB120469847E26D9D
:102EC00020239340334255D02268126812F0100F2D
:102ED00050D0BB6094F83530DBB2052B0ED02368A0
:102EE0001A6812F4802F33D01B6813F4002F2AD1F4
:102EF000636C002B3ED0204698473BE02268136865
:102F000023F0160313602268536923F08003536192
:102F1000236CA3B12268136823F008031360E26DE9
:102F20003F239340BB60002384F83430012384F8AE
:102F30003530236D002B3FD0204698473CE0A36CF2
:102F4000002BE7D1EBE7E36BA3B12046984711E0F4
:102F50001A6812F4807F09D11A6822F010021A60F0
:102F6000002384F83430012384F83530E36B0BB14F
:102F700020469847636DFBB1636D13F0010F17D0C6
:102F8000052384F835302268136823F001031360A9
:102F9000019B01330193AB4204D823681B6813F0F3
:102FA000010FF5D1002384F83430012384F8353043
:102FB000E36C0BB12046984703B0F0BD0800002039
:102FC000B5814E1B90F835007047406D704700008A
:102FD000074AD36823F4E0631B041B0C000200F4CF
:102FE000E060034343F0BF6343F40033D3607047B2
:102FF00000ED00E030B4174BDB68C3F30223C3F1EC
:103000000704042C28BF04241D1D062D18D9033BDA
:103010004FF0FF3505FA04F421EA0401994005FA5E
:1030200003F322EA0303194300280BDB0901C9B2A9
:1030300000F1604000F5614080F8001330BC70473B
:103040000023E5E700F00F000901C9B2024B195453
:10305000F4E700BF00ED00E014ED00E0002807DB1E
:1030600000F01F02400901239340024A42F8203039
:10307000704700BF00E100E008B50B4B1A6842F44E
:1030800000721A601A6842F480621A601A6842F488
:1030900080721A600320FFF79BFF0020FFF7A8F85B
:1030A000FFF784F8002008BD003C0240034A116885
:1030B000034B1B780B441360704700BFDC4F0020AC
:1030C00000000020014B1868704700BFDC4F002053
:1030D00090F83E30DBB2402B10D00369B3F5804F3F
:1030E0001BD0036D002B39D1436CC3F3C8130268A6
:1030F00003F0060343F0F00313617047036D2BB92F
:10310000436C026803F0FE0313617047436C02686E
:1031100043F00103DBB21361704790F83D30DBB23E
:10312000212B0FD0436C026843F00103DBB2136123
:10313000436B6BB1DB6B5BB10268536843F40063B4
:1031400053607047436C026803F0FE031361EFE7BE
:10315000836B33B1DB6B002BEED102E0036D012BEF
:1031600000D07047436CC3F3C813026803F0060332
:1031700043F0F1031361F4E7436C0268DBB21361BF
:10318000436B3BB1DB6B2BB10268536843F40063C4
:1031900053607047836B002BFBD0DB6B002BF3D1AC
:1031A000F7E710B48BB090F83E30DAB2C16A046B26
:1031B00090F83D30DBB2222B0BD00023099303683B
:1031C0005A6909929B690993099B0BB05DF8044BFE
:1031D0007047036D0BB9402A17D0036D1BB9036903
:1031E000B3F5404F19D0438D9BB2002B25D10293EC
:1031F00003685A6902929A690292029A1A6842F422
:1032000000721A6000230365DFE7009303685A69C0
:1032100000929B690093009BD7E70023019303680A
:103220005A6901929A690192019A1A6842F480726D
:103230001A60036D01330365C7E7438D9BB2012B11
:1032400025D0438D9BB2022B7BD00268136843F4D8
:103250008063136003685A6812F4006F0ED011F592
:10326000803F07D0012905D0082903D0102901D0BB
:10327000202903D15A6842F480525A6000230893EF
:1032800003685A6908929B690893089BBAE711F58D
:10329000803F11D0082934D0202932D0122C2ED0D2
:1032A000042940D002293ED010293CD0026813687E
:1032B00023F4806313603BE00268136823F48063A7
:1032C000136003685A6812F4006F0CD01A6822F475
:1032D00080621A600023039303685A6903929B6912
:1032E0000393039B8EE7002204925A6904929A6921
:1032F0000492049A1A6842F400721A6082E7012963
:10330000CED00268136823F4806313600023069311
:1033100003685A6906929A690692069A1A6842F4F4
:1033200000721A606EE70268136843F480631360EA
:103330000023059303685A6905929B690593059BD1
:1033400060E704290ED002290CD010290AD00268A7
:10335000136823F4806313600268136843F4006306
:10336000136004E00268136843F480631360036829
:103370005A6812F4006F0ED011F5803F07D0012972
:1033800005D0082903D0102901D0202903D15A687B
:1033900042F480525A600023079303685A690792E7
:1033A0009B690793079B2DE7438D9BB25BB1426AF4
:1033B000036812781A61436A01334362438D9BB2FA
:1033C000013B9BB243857047438D9BB25BB1036861
:1033D0001A69436A1A70436A01334362438D9BB290
:1033E000013B9BB24385704782B0002301930E4B93
:1033F0001B68DB080D4AA2FB03231B0A03EB8303B4
:103400000193019B013B0193019B33B103681B684E
:1034100013F4007FF5D1002004E0036C43F0200397
:103420000364012002B070470800002089B5F81439
:1034300003685A6912F4806F01D1002070476FF45D
:1034400080625A6100230363202280F83D2080F8C7
:103450003E30026C42F00402026480F83C300120ED
:103460007047C36AB3F52A0F04D0C36AB3F12A4F79
:1034700003D070470123C36270470823C362F8E793
:103480002DE9F04107460D4690461E4622E0FFF723
:1034900019FE069BC01AB04200D8DEB900233B6378
:1034A000202287F83D2087F83E303A6C42F0200217
:1034B0003A6487F83C3001201AE03B689C6925EAB1
:1034C0000404A4B2B4FA84F46409A0450FD1B6F19F
:1034D000FF3FDCD1C5F30743012BEED13B685C69AC
:1034E00025EA0404A4B2B4FA84F46409EDE70020E8
:1034F000BDE8F0812DE9F04105460E461746984695
:103500003DE01A6842F400721A602B686FF4806222
:103510005A6100232B63202285F83D2085F83E3038
:103520002A6C42F004022A6485F83C30012034E021
:10353000FFF7C8FDA0EB0800B84200D8FFB9002390
:103540002B63202285F83D2085F83E302A6C42F01E
:1035500020022A6485F83C3001201EE02B689C691B
:1035600026EA0404A4B2003C18BF0124A4B12B68CD
:103570005A6912F4806FC4D1B7F1FF3FD8D1C6F3B6
:103580000743012BEAD12B685C6926EA0404A4B244
:10359000003C18BF0124E9E70020BDE8F08170B5C8
:1035A00004460D46164623685B6913F0800F1CD154
:1035B0002046FFF73DFFD0B9B5F1FF3FF3D0FFF74D
:1035C00081FD801BA84201D8002DECD1002323638C
:1035D000202284F83D2084F83E30226C42F0200204
:1035E000226484F83C30012000E0002070BD0120FE
:1035F000FCE700002DE9F04385B004460D469146F6
:103600001F46DDF830800D9E0368196841F4807113
:1036100019600096434600224FF00111FFF730FF7A
:1036200060B9236805F0FE051D6133464246264910
:103630002046FFF75FFF68B1012008E023681B68A0
:1036400013F4807F02D04FF400732364032005B08D
:10365000BDE8F0830023039323685A6903929B69B2
:103660000393039B324641462046FFF798FF30B94B
:10367000012F0FD123685FFA89F61E61E7E7236CFB
:10368000042B01D00120E2E72268136843F40073A1
:103690001360F7E723684FEA19221A613246414660
:1036A0002046FFF77CFF20B923685FFA89F61E6188
:1036B000CDE7236C042B01D00120C8E722681368F2
:1036C00043F400731360F7E7020001002DE9F047AF
:1036D00084B004460D46164699460C9FDDF83480AA
:1036E0000268136843F4806313600368196841F447
:1036F00080711960CDF800803B4600224FF0011127
:10370000FFF7BEFE70B95FFA85FA236805F0FE0583
:103710001D6143463A4641492046FFF7EBFE68B13A
:10372000012008E023681B6813F4807F02D04FF467
:1037300000732364032004B0BDE8F08700230393E3
:1037400023685A6903929B690393039B4246394657
:103750002046FFF724FF80B9B9F1010F18D1236883
:10376000F6B21E61424639462046FFF718FF68B39D
:10377000236C042B24D00120DDE7236C042B01D023
:103780000120D8E72268136843F400731360F7E759
:103790002368320A1A61424639462046FFF7FFFE87
:1037A00018B92368F6B21E61DCE7236C042B01D044
:1037B0000120C0E72268136843F400731360F7E741
:1037C0002268136843F400731360D4E72268136817
:1037D00043F480731360CDF800803B4600224FF025
:1037E00001112046FFF74CFE68B922684AF0010338
:1037F000136143463A4609492046FFF77BFE0028FD
:1038000099D0012097E723681B6813F4807F02D0CA
:103810004FF40073236403208DE700BF0200010012
:10382000002800F0CC80F8B5044690F83D30002B1D
:1038300077D0242384F83D302268136823F00103F5
:1038400013602268136843F400431360226813680E
:1038500023F400431360FFF721F862685A4B9A4241
:1038600064D85A4B98428CBF00230123002B40F0B0
:10387000A880574DA5FB0035AF0C2668716821F074
:103880003F0141EA9541716021680B6A23F03F03D3
:1038900065684D4A95424FD87A1C13430B622568E0
:1038A000E96921F44F4121F0FF016368464A9342E0
:1038B0004CD801385B00B0FBF3F0013040F6FC73EC
:1038C000184278D0C0F30B030B43EB6121680B68FF
:1038D00023F0C003E269206A024313430B602168AE
:1038E0008B6823F4034323F0FF032269E06802435B
:1038F00013438B602168CB6823F0FF036269A069E2
:1039000002431343CB602268136843F00103136042
:1039100000202064202384F83D30206384F83E009A
:10392000F8BD80F83C30FEF791F982E7294B9842C8
:103930008CBF0023012399E74FF4967202FB07F234
:10394000254DA5FB025292090132A6E7A268BAB939
:10395000461E03EB4307B6FBF7F60136C6F30B062C
:10396000B6FA86F6760946BBC2B9421E03EB43039C
:10397000B2FBF3F20132C2F30B0242F40043A3E7BD
:10398000461E03EB830707EB8707B6FBF7F6013606
:10399000C6F30B06B6FA86F67609E4E7421E03EB99
:1039A000830303EB8303B2FBF3F20132C2F30B0296
:1039B00042F4404388E7042386E7012384E701209B
:1039C00070470120ACE700BFA08601007F841E0085
:1039D00083DE1B43FF083D00D34D621030B583B03A
:1039E00005460020019095F83D00C0B2202840F027
:1039F000AD8059480068C008584CA4FB0040000A3C
:103A000000EB800000EB80000190019C013C0194E0
:103A10000198002851D02868846914F0020FF4D16D
:103A200095F83C40012C00F09480012485F83C403E
:103A3000046814F0010F03D1046844F00104046029
:103A40002C68206820F400602060212085F83D006B
:103A5000102085F83E00002028646A626B856B8D1B
:103A60009BB22B853E4AEA626964002B5AD06B6B8D
:103A7000002B31D03B4ADA636B6B3B4ADA646A6BEA
:103A800010646A6B50646A6B90646A6B10652A6894
:103A90002B8D1032696A686BFFF714F950B320233D
:103AA00085F83D30002285F83E202B6C43F0100352
:103AB0002B6485F83C20012049E000232B63202261
:103AC00085F83D2085F83E302A6C42F020022A64B9
:103AD00085F83C3001203AE0202385F83D30002273
:103AE00085F83E202B6C43F080032B6485F83C2046
:103AF00001202CE02A68136843F4806313602A686D
:103B0000136843F480731360002385F83C302A68FF
:103B1000536843F4407353602A68536843F4006366
:103B2000536011E02A68136843F4806313602A68C5
:103B3000136843F480731360002385F83C302A68CF
:103B4000536843F4E0635360002000E0022003B0B8
:103B500030BD0220FBE700BF0800002089B5F81443
:103B60000000FFFFE14500089B4500082DE9F043F8
:103B700085B005460E461746984600230393FFF787
:103B8000A1FA95F83D30DBB2202B40F0C68081468B
:103B9000654B1B68DB08654AA2FB03231B0A03EB8A
:103BA000830303EB83030393039C013C0394039C73
:103BB000002C54D02B689A6912F0020FF4D195F8BA
:103BC0003C20012A00F0AD80012285F83C201A68D3
:103BD00012F0010F03D11A6842F001021A602A683C
:103BE000136823F400631360212385F83D304023DC
:103BF00085F83E3000232B640C9B6B62BDF834309B
:103C00006B856B8D9BB22B85494AEA62002B76D07F
:103C10006B6B002B32D0474ADA636B6B464ADA642F
:103C20006A6B002313646A6B53646A6B93646A6BF8
:103C300013652A682B8D1032696A686BFFF742F8AA
:103C400050B3202385F83D30002285F83E202B6CB0
:103C500043F010032B6485F83C2001205EE0002334
:103C60002B63202285F83D2085F83E302A6C42F0F7
:103C700020022A6485F83C3001204FE0202385F89B
:103C80003D30002285F83E202B6C43F080032B64EE
:103C900085F83C20012041E0CDF8049023230093D7
:103CA00043463A4631462846FFF7A4FC98B900221D
:103CB00002922B685969029199690291029985F8DB
:103CC0003C205A6842F480725A602A68536843F470
:103CD0000063536022E0686BFFF773F86A6B0023A0
:103CE000D36329680A6822F480620A602B856B8599
:103CF0002A68136823F00103136001200EE02023DB
:103D000085F83D30002285F83E202B6C43F04003BF
:103D10002B6485F83C20012000E0022005B0BDE8BE
:103D2000F0830220FAE700BF0800002089B5F814EC
:103D30000000FFFFE14500089B4500082DE9F04326
:103D400087B005460E4617469846FFF7BBF9002395
:103D5000059395F83D30DBB2202B40F0E58081469D
:103D6000754B1B68DB08754AA2FB03231B0A03EB98
:103D7000830303EB83030593059C013C0594059C99
:103D8000002C55D02B689A6912F0020FF4D195F8E7
:103D90003C20012A00F0CC80012285F83C201A68E2
:103DA00012F0010F03D11A6842F001021A602A686A
:103DB000136823F400631360222385F83D30402309
:103DC00085F83E3000232B640E9B6B62BDF83C30BF
:103DD0006B856B8D9BB22B85594AEA62002B00F0F4
:103DE0008580AB6B002B32D0564ADA63AB6B564AF8
:103DF000DA64AA6B00231364AA6B5364AA6B9364FE
:103E0000AA6B136529682B8D6A6A1031A86BFEF7BF
:103E100059FF50B3202385F83D30002285F83E201D
:103E20002B6C43F010032B6485F83C2001207CE0D0
:103E300000232B63202285F83D2085F83E302A6C34
:103E400042F020022A6485F83C3001206DE02023F6
:103E500085F83D30002285F83E202B6C43F080032E
:103E60002B6485F83C2001205FE0CDF804902323EB
:103E7000009343463A4631462846FFF727FCD8B917
:103E80002B8D012B2CD02A68536843F48053536048
:103E9000002203922B685969039199690391039950
:103EA00085F83C205A6842F480725A602A68536848
:103EB00043F40063536035E0A86BFEF782FFAA6B02
:103EC0000023D36329680A6822F480620A602B8584
:103ED0006B852A68136823F001031360012024E036
:103EE0002A68136823F480631360D1E7CDF8049047
:103EF0002323009343463A4631462846FFF7E6FB24
:103F0000C0B9002104912B685A6904929A690492FD
:103F1000049A1A6842F400721A60202385F83D3032
:103F200085F83C10002000E0022007B0BDE8F083D7
:103F30000220FAE70120F8E70800002089B5F8140C
:103F40000000FFFFE14500089B4500082DE9F04710
:103F500084B00546894692461E46FFF7B3F895F8A9
:103F60003D30DBB2202B03D0022004B0BDE8F08747
:103F7000074600901923012258492846FFF780FA86
:103F8000002840F0A28095F83C30012B00F09F8083
:103F9000012385F83C302B681A6812F0010F03D119
:103FA0001A6842F001021A602A68136823F4006359
:103FB0001360242385F83D3000232B64A3F5803360
:103FC000EB624FF001083FE02B681B6813F4807F21
:103FD00002D04FF400732B640320C6E7A02385F8BA
:103FE0003D302A685369C3F340035269C2F380220B
:103FF00095F83D40E4B2A02C09D043B93AB9FFF797
:1040000061F8C01BB042E9D8002EEAD1E6E72023D0
:1040100085F83D302B685A6912F0020F32D11A68C8
:1040200042F400721A602B686FF480625A61009744
:104030001923012229492846FFF722FA00284AD1EC
:1040400008F10108D04538D22A68136843F4807318
:1040500013600097334600224FF001112846FFF706
:104060000FFA0028B0D12B6809F0FE021A61FFF7A1
:1040700029F807462A685369C3F340035269C2F31B
:104080008022B5E71A6842F400721A600023039395
:104090002B685A6903929B690393039B009719232A
:1040A00001220E492846FFF7EBF990B9202385F845
:1040B0003D30002385F83C3057E7202385F83D301C
:1040C000002385F83C3001204FE702204DE7022015
:1040D0004BE7012049E7012047E700BF020010003D
:1040E00008B5C26A90F83D30DBB2212B00D008BD84
:1040F000438D9BB263B1426A036812781A61436AC6
:1041000001334362438D9BB2013B9BB24385EEE793
:10411000082A04D0202A02D012F5803F13D1026869
:10412000536823F4E06353600268136843F4007338
:10413000136000230363202280F83D2080F83E3086
:10414000FDF7BEFBD3E70268536823F4E0635360D6
:1041500011230363002380F83E30202380F83D3094
:10416000FDF7AEFBC3E7704708B590F83D30DAB213
:10417000438D9BB283B1416A036809781961436A30
:1041800001334362438D9BB2013B9BB24385438D18
:104190009BB20BB9292A00D008BD0268536823F4EA
:1041A0008063536021230363282380F83D30FFF7A9
:1041B000DAFFF1E7704708B590F83D30DAB2438D89
:1041C0009BB283B103681969436A1970436A01336A
:1041D0004362438D9BB2013B9BB24385438D9BB2AF
:1041E0000BB92A2A00D008BD0268536823F4806303
:1041F000536022230363282380F83D30FFF7DAFF62
:10420000F1E7704708B590F83D3003F02803282BFC
:1042100007D003686FF002025A61002380F83C3037
:1042200008BD0268536823F48063536011F0040FE3
:104230000BD0002311F0800F09D18289002180F872
:104240003C101946FFF7DDFFEAE70123F2E7028B96
:10425000F4E7704708B590F83D30DBB2C26A082A2F
:1042600001D0202A01D1282B06D0212B1ED0036893
:104270006FF480625A6108BD1A4BC36202685368CA
:1042800023F4E063536003686FF480625A6102684C
:10429000136823F48063136000230363202280F8F3
:1042A0003D2080F83E30FFF7D4FFE4E70D4BC362BA
:1042B00021230363202380F83D30002380F83E3023
:1042C0000268536823F4E063536003686FF480620C
:1042D0005A610268136823F480631360FFF743FF99
:1042E000C9E700BF0000FFFF08B590F83D30026D40
:1042F0009AB9C36C012B08D0836CC3F307230268FF
:104300001361036D0133036508BD836C0268DBB282
:104310001361036D02330365F6E7DBB2026D012A18
:1043200023D0026D022AEFD1222B26D0428D92B2E9
:104330000AB1212B27D0428D92B2002AE4D1212B41
:10434000E2D10268536823F4E063536002681368A3
:1043500043F40073136000230363202280F83D20A0
:1043600080F83E30FDF792FACEE7836C0268DBB24C
:104370001361036D01330365C6E70268136843F4F4
:1043800080731360C0E7426A036812781A61436A57
:1043900001334362438D9BB2013B9BB24385B3E73C
:1043A00010B590F83D30DBB290F83E20D2B2C46A2E
:1043B000018D09B9212B04D0212B3BD0402A37D0C5
:1043C00010BD082C04D0202C02D014F5803F19D148
:1043D0000268536823F4E06353600268136843F48F
:1043E0000073136000230363202380F83D3090F8AE
:1043F0003E30DBB2402B15D0002380F83E30FDF775
:104400005FFADDE70268536823F4E0635360112329
:104410000363002380F83E30202380F83D30FDF711
:104420004FFACDE7002380F83E30FDF72FFAC7E7BB
:10443000222BC5D1438D9BB22BB90268536823F45C
:1044400080635360BCE790F83E30DBB2402B0CD069
:10445000426A036812781A61436A01334362438DEA
:104460009BB2013B9BB24385AAE7FFF73DFFA7E75D
:1044700008B5C26A438D9BB2042B14D0438D9BB206
:10448000032B22D0438D9BB2022B39D003681A69CB
:10449000436A1A70436A01334362438D9BB2013B06
:1044A0009BB2438510E00268536823F48063536035
:1044B00003681A69436A1A70436A01334362438D81
:1044C0009BB2013B9BB2438508BD01684B6823F456
:1044D00080634B60042A06D0022A04D00268136865
:1044E00023F48063136003681A69436A1A70436A8D
:1044F00001334362438D9BB2013B9BB24385E3E7AB
:10450000012A0BD0102A09D0042A38D0022A36D02A
:104510000268136843F40073136004E002681368D0
:1045200023F48063136003681A69436A1A70426A4D
:10453000531C4362438D9BB2013B9BB2438503688E
:104540001B695370436A01334362438D9BB2013B45
:104550009BB243850268536823F440735360202361
:1045600080F83D3090F83E30DBB2402B0DD0002378
:1045700080F83E3012230363FDF7BCF9A4E702681C
:10458000136843F480631360CDE7002380F83E3066
:104590000363FDF761F997E7704710B5846B636BB0
:1045A0000BB10022DA63A36B0BB10022DA63FEF7D2
:1045B0000CFD022800D110BD2268136823F480632B
:1045C000136000236385202284F83D2084F83E3068
:1045D000236C43F0100323642046FFF7DDFFEAE776
:1045E00038B5846B94F83D30DBB294F83E20D1B2FC
:1045F000E56A2068426822F440724260626B0AB148
:104600000020D063A26B0AB10020D06303F0210226
:10461000212A41D003F02202222A3BD094F83E30D6
:10462000002B49D0638D9BB2012B58D02268536870
:1046300023F44073536015F5803F06D0082D04D055
:10464000B5F12A4F01D0202D04D12268136843F41C
:10465000007313602268536823F480535360226808
:10466000536823F40063536000236385236C002B9D
:104670003BD1202384F83D3094F83E30DBB2402B10
:1046800037D0002384F83E30122323632046FDF701
:1046900031F911E02029C1D121684A6822F4006271
:1046A0004A6000226285292B07D02A2B0ED022686F
:1046B000536843F44073536038BD21232363282398
:1046C00084F83D302046FFF74EFDF0E722232363B8
:1046D000282384F83D302046FFF76CFDE7E7226889
:1046E000136823F480631360A0E72046FFF754FFAC
:1046F000E2E7002384F83E3023632046FDF7ACF860
:10470000DAE790F83D30DBB2222B00D0704710B5CD
:104710000446438D9BB2032B16D903681A69436A7A
:104720001A70436A01334362438D9BB2013B9BB2D3
:104730004385438D9BB2032B00D010BD02685368A4
:1047400023F480635360F8E7C26A022AF5D0012B94
:10475000F3D8FEF749FE00282ED12268136823F40F
:10476000806313602268536823F4E0635360236816
:104770001A69636A1A70636A01336362638D9BB25C
:10478000013B9BB26385202384F83D3094F83E3092
:10479000DBB2402B08D0002384F83E301223236381
:1047A0002046FDF7A7F8C8E7002384F83E302363CE
:1047B0002046FDF751F8C0E72268536823F4E06310
:1047C000536023681A69636A1A70636A013363620B
:1047D000638D9BB2013B9BB26385202384F83D30FF
:1047E000002384F83E302046FFF7D6FEA5E7704749
:1047F00000B583B000230193806B90F83D20D2B2C6
:10480000324B1B68DB083249A1FB03131B0A03EB85
:104810008303C3EBC3030193019B43B1019B013BA2
:10482000019303681B6813F4007FF5D103E0036C68
:1048300043F020030364436B0BB10021D963836B06
:104840000BB10021D96301680B6823F480630B600E
:1048500000234385436B0BB100211965836B0BB1BA
:104860000021196501680B6823F001030B6090F8C3
:104870003D30DBB2602B0ED002F02802282A14D083
:10488000202380F83D30002380F83E30FFF784FE7F
:1048900003B05DF804FB202380F83D30002380F84E
:1048A0003E300364FFF7A3FFF2E70268136843F0AA
:1048B000010313600268136843F4806313600023EC
:1048C0000363282380F83D30E0E700BF08000020A4
:1048D00089B5F81410B5044690F83D30DBB290F875
:1048E0003E20D2B2102A36D0402A34D003F028021B
:1048F000282A38D02268526812F4006F07D1602B42
:1049000005D0202384F83D30002384F83E30002376
:10491000236323685A6812F4006F48D05A6822F45F
:1049200000625A60626B92F83530DBB2012B20D006
:10493000444B1365606BFEF744FA002849D02268A7
:10494000136823F001031360202384F83D30606B6B
:10495000036D98473DE0222BC8D121680A6822F4F4
:1049600000620A60C2E700232363282384F83D30F5
:10497000CFE7A36B334A1A65A06BFEF722FA40B368
:1049800023685A6912F0400F05D01A69636A1A70D9
:10499000636A013363622268136823F001031360C2
:1049A000202384F83D30A06B036D984711E094F804
:1049B0003D20D2B2602A1FD05A6912F0400F05D0B4
:1049C0001A69636A1A70636A013363622046FFF7EB
:1049D000E3FD236C13F00F0F04D02268536823F417
:1049E000E063536094F83D30DBB2226C12F0040FA8
:1049F00001D0282B18D010BD202284F83D200022A1
:104A000022645A6912F0400F05D01A69636A1A705D
:104A1000636A013363622268136823F00103136041
:104A20002046FFF7E4FED4E7074BE362002323634D
:104A3000202284F83D2084F83E302046FFF709FC10
:104A4000D9E700BFF14700080000FFFF30B583B091
:104A5000044690F83D50EDB20268536823F4E063D9
:104A600053600023019303685A6901921A6842F067
:104A700001021A60019B0268136823F480631360CB
:104A800003685A6812F4006F38D0222D21D02A2DE5
:104A90001FD0426B1268526892B24285428D92B228
:104AA0001AB1026C42F0040202645A6822F40062F5
:104AB0005A60606BFEF786FA01281FD0636B444A88
:104AC0001A65606BFEF77DF9C0B1606B036D9847A6
:104AD00014E0A26B1268526892B26285628D92B243
:104AE0001AB1226C42F0040222645A6822F4006275
:104AF0005A60A06BFEF766FA012842D1638D9BB223
:104B000033B323685A6912F0040F0AD01A69636A32
:104B10001A70636A01336362638D9BB2013B9BB27F
:104B2000638523685A6912F0400F0AD01A69636AD4
:104B30001A70636A01336362638D9BB2013B9BB25F
:104B40006385638D9BB21BB1236C43F00403236424
:104B5000236C13BB2A2D25D094F83D30DBB2282BD3
:104B600029D0236B222B01D0222D19D100232363BE
:104B7000202284F83D2084F83E302046FFF71AFBBF
:104B80000EE0A36B124A1A65A06BFEF71AF9002813
:104B9000B4D0A06B036D9847B0E72046FFF79AFEAC
:104BA00003B030BD00232363282384F83D30204622
:104BB000FFF700FBD0E7074BE362002323632022CB
:104BC00084F83D2084F83E302046FFF742FBE7E7BB
:104BD000F14700080000FFFFF8B504460268556879
:104BE000C66A90F83E30DBB290F83D10102B14D01E
:104BF000C8B2402B11D0236C002B77D05369002111
:104C000013F0020F75D015F4007F72D0236C03B13E
:104C100091692046FFF7F6FAF8BD9769516911F0DE
:104C2000010005D1B6F52A0FF6D0B6F12A4FF3D020
:104C300010B115F4007F27D111F0080F02D015F440
:104C4000007F28D111F0020F02D015F4007F26D189
:104C500017F0040F2FD0526812F4006FDCD111F05E
:104C6000800F05D015F4806F02D011F0040F1AD018
:104C700011F0040FD0D015F4007FCDD0102B16D03A
:104C80002046FFF731FBC7E72046FEF7EAFB204648
:104C9000FEF71EFAC0E72046FEF76EFABCE7204694
:104CA000FEF77FFAB8E72046FFF77AFBB4E7204625
:104CB000FFF716FAB0E7536813F4006FACD111F0A8
:104CC000400F05D015F4806F02D011F0040F09D009
:104CD00011F0040FA0D015F4007F9DD02046FFF7FF
:104CE000C7FB99E72046FFF70CFD95E791695369EB
:104CF00086E713F0100F02D015F4007F18D1212899
:104D00001AD0292818D013F0400F05D015F4806F61
:104D100002D013F0040F28D013F0040F3FF47CAF3F
:104D200015F4007F3FF478AF2046FEF74DFB73E7A4
:104D30002046FFF78BFE6FE713F0800F05D015F4C8
:104D4000806F02D013F0040F0BD013F0040F3FF468
:104D500063AF15F4007F3FF45FAF2046FEF724FBFE
:104D60005AE72046FFF700FA56E72046FFF723FAF6
:104D700052E7F8B5044603685D695F6890F83E2025
:104D8000D2B215F4807F07D017F4807F3CD06FF447
:104D900080715961012600E0002615F4007F08D0DB
:104DA00017F4807F05D046F0020623686FF4007187
:104DB000596115F4806F19D017F4807F16D0638D78
:104DC00099B294F83D30DBB2206B202A1ED02368C4
:104DD0006FF48061596146F00406102A01D0402A20
:104DE00004D12268136843F40073136015F4006F54
:104DF00008D017F4807F05D046F0080623686FF4CA
:104E000000625A6186B9F8BD0026C6E70029DED1E6
:104E1000212B05D0292B03D0282BD8D12128D6D15E
:104E20002046FFF717FAE1E7236C1E43266420466D
:104E3000FFF750FDE7E7000030B4036A23F00103F9
:104E40000362056A4268846924F073040B681C439A
:104E500025F002058B682B43104DA84203D005F5C1
:104E60008065A84205D123F00803CD682B4323F0C9
:104E700004030A4DA84203D005F58065A84205D178
:104E800022F440724D6915438A692A434260846165
:104E90004A684263036230BC704700BF00000140B3
:104EA00030B4036A23F480730362036A4268C469FE
:104EB00024F073040D682C4323F400738D6843EAD7
:104EC0000523124DA84203D005F58065A84206D1FE
:104ED00023F40063CD6843EA052323F480630B4D7C
:104EE000A84203D005F58065A84207D122F44052BC
:104EF0004D6942EA05128D6942EA05124260C461B9
:104F00004A68C263036230BC704700BF00000140C2
:104F100030B4036A23F480530362036A4468C269AD
:104F200022F4E6420D6842EA052223F400538D681C
:104F300043EA0533094DA84203D005F58065A84230
:104F400004D124F480444D6944EA85144460C2616C
:104F50004A680264036230BC704700BF0000014031
:104F600030B4036A056A25F001050562846924F0FE
:104F7000F00444EA021423F00A030B438461036241
:104F800030BC704730B4056A25F0100505628469AD
:104F9000036A24F4704444EA023423F0A00343EA91
:104FA00001138461036230BC7047836823F070038F
:104FB0000B4343F0070383607047000090F83D30D7
:104FC000DBB2012B37D1022380F83D300268D36871
:104FD00043F00103D3600368194A934220D0B3F130
:104FE000804F1DD0A2F57C42934219D002F5806219
:104FF000934215D002F58062934211D002F57842B7
:1050000093420DD002F57052934209D0A2F594322A
:10501000934205D01A6842F001021A6000207047DE
:105020009A6802F00702062A07D01A6842F00102C5
:105030001A6000207047012070470020704700BFB1
:10504000000001407047704770477047704710B5C7
:10505000044603681A6912F0020F11D0DA6812F0E0
:10506000020F0DD06FF002021A610123037703686B
:105070009B6913F0030F70D0FFF7E6FF002323773F
:1050800023681A6912F0040F12D0DA6812F0040FC4
:105090000ED06FF004021A610223237723689B6904
:1050A00013F4407F5FD02046FFF7CEFF0023237725
:1050B00023681A6912F0080F12D0DA6812F0080F8C
:1050C0000ED06FF008021A61042323772368DB698E
:1050D00013F0030F4ED02046FFF7B6FF00232377CF
:1050E00023681A6912F0100F12D0DA6812F0100F4C
:1050F0000ED06FF010021A61082323772368DB6952
:1051000013F4407F3DD02046FFF79EFF0023237716
:1051100023681A6912F0010F03D0DA6812F0010F48
:1051200036D123681A6912F0800F03D0DA6812F0C2
:10513000800F34D123681A6912F0400F03D0DA6867
:1051400012F0400F32D123681A6912F0200F03D0F9
:10515000DA6812F0200F30D110BDFFF774FF20463F
:10516000FFF773FF8AE72046FFF76DFF2046FFF742
:105170006CFF9BE72046FFF766FF2046FFF765FFC1
:10518000ACE72046FFF75FFF2046FFF75EFFBDE775
:105190006FF001021A612046FCF764FCC1E76FF072
:1051A00080021A61204600F02AFAC3E76FF040023D
:1051B0001A612046FFF74AFFC5E76FF020021A6127
:1051C000204600F01BFAC7E70368304A904212D02D
:1051D000B0F1804F0FD0A2F57C4290420BD002F587
:1051E0008062904207D002F58062904203D002F5BF
:1051F0007842904203D123F070034A681343234A54
:1052000090422AD0B0F1804F27D0A2F57C42904244
:1052100023D002F5806290421FD002F58062904256
:105220001BD002F57842904217D002F5705290429E
:1052300013D002F5806290420FD002F58062904256
:105240000BD0A2F59832904207D002F580629042CE
:1052500003D002F58062904203D123F44073CA6800
:10526000134323F080034A69134303608B68C362CE
:105270000B688362054B984203D003F58063984224
:1052800001D10B69036301234361704700000140B2
:1052900040B310B5044690F83D30F3B1022384F8D2
:1052A0003D30214651F8040BFFF78EFF012384F8AF
:1052B000463084F83E3084F83F3084F8403084F83B
:1052C000413084F8423084F8433084F8443084F824
:1052D000453084F83D30002010BD80F83C30FCF7AC
:1052E0003FFDDBE70120704740B310B5044690F85E
:1052F0003D30F3B1022384F83D30214651F8040BD0
:10530000FFF762FF012384F8463084F83E3084F8CA
:105310003F3084F8403084F8413084F8423084F8DB
:10532000433084F8443084F8453084F83D30002020
:1053300010BD80F83C30FFF785FEDBE701207047A9
:1053400030B4036A23F010030362036A446882697D
:1053500022F4E6420D6842EA052223F020038D681C
:1053600043EA0513114DA84203D005F58065A84214
:1053700006D123F08003CD6843EA051323F04003F0
:105380000A4DA84203D005F58065A84207D124F450
:1053900040644D6944EA85048D6944EA85044460AB
:1053A00082614A688263036230BC7047000001403A
:1053B00038B590F83C30012B60D004460D460123EF
:1053C00080F83C300C2A1AD8DFE802F007191919C6
:1053D0001D1919193119191944000068FFF72CFD1E
:1053E0002268936943F0080393612268936923F06C
:1053F000040393612268936929690B439361002038
:1054000084F83C0038BD0068FFF79AFF2268936972
:1054100043F4006393612268936923F4806393618A
:1054200022689369296943EA01239361E7E70068E9
:10543000FFF736FD2268D36943F00803D361226881
:10544000D36923F00403D3612268D36929690B432C
:10545000D361D4E70068FFF75BFD2268D36943F4AA
:105460000063D3612268D36923F48063D361226827
:10547000D369296943EA0123D361C0E70220C1E768
:1054800010B4846824F47F4442EA03220A4322438E
:1054900082605DF8044B704790F83C30012B66D079
:1054A00010B50446012380F83C30022380F83D30DB
:1054B0000268936823F47F4323F0770393600B68BB
:1054C000602B40D022D8402B47D00BD9502B0ED187
:1054D000CA6849680068FFF743FD50212068FFF75C
:1054E00064FD04E0202B0CD008D9302B09D0012317
:1054F00084F83D30002084F83C0010BD0BB1102B27
:10550000F5D119462068FFF750FDF0E7702B0ED05B
:10551000B3F5005FEBD1CB684A6889680068FFF794
:10552000AFFF2268936843F480439360DFE7CB6862
:105530004A6889680068FFF7A3FF2268936843F010
:1055400077039360D3E7CA6849680068FFF71AFDDC
:1055500060212068FFF729FDC9E7CA68496800682B
:10556000FFF7FEFC40212068FFF71FFDBFE7022088
:105570007047000090F83C30012B3BD030B4012341
:1055800080F83C30022380F83D3003685C689D68F9
:1055900024F070040A6822435A600368164A934252
:1055A0001AD0B3F1804F17D0A2F57C42934213D0AA
:1055B00002F5806293420FD002F5806293420BD0D5
:1055C00002F57842934207D002F57052934203D01D
:1055D000A2F59432934204D125F080054A68154320
:1055E0009D60012380F83D30002380F83C30184650
:1055F00030BC704702207047000001407047704780
:105600000268D36823F49073D3600268536923F06F
:1056100001035361036B012B05D0202380F83E303A
:105620000023036370470268D36823F01003D3603C
:10563000F3E790F83D30DBB2212B01D00220704718
:105640008368B3F5805F17D0036A5A1C02621A7828
:1056500003685A60C38C9BB2013B9BB2C3844BB9B5
:105660000268D36823F08003D3600268D36843F0F4
:105670004003D360002070470369002BE4D1036A24
:105680001B880268C3F308035360036A0233036292
:10569000E0E7000070B504460268136923F4405344
:1056A000C1680B4313618368026913434269134362
:1056B000C2691A430168CB6823F4164323F00C0334
:1056C0001343CB600268536923F4407381690B4331
:1056D00053610368344A934206D002F580629342D4
:1056E00002D0FDF7DBF801E0FDF7E8F8E369B3F578
:1056F000004F2AD00026051846EB06012D1846EB70
:105700000101CB0043EA5573EA0015461946636868
:105710009A009B0F281846EB0101FBF745FA234D31
:10572000A5FB00325109642303FB11031B01323333
:10573000A5FB03235B0903F0F00202EB011203F067
:105740000F03216813448B6070BD0026051846EBDB
:1057500006012D1846EB0101CB0043EA5573EA0020
:105760001546194662683346921846EB030328181B
:1057700046EB0101FBF718FA0C4DA5FB003251096D
:10578000642303FB1103DB003233A5FB03235B0916
:105790005A0002F4F87202EB011203F007032168C9
:1057A00013448B60D0E700BF001001401F85EB5110
:1057B0002DE9F84305460F4616469946DDF8208048
:1057C0002C68246837EA04030CBF01240024B44287
:1057D0001FD1B8F1FF3FF3D0B8F1000F05D0FDF7AE
:1057E00071FCA0EB09004045EAD92A68D36823F48C
:1057F000D073D3602A68536923F0010353612023D7
:1058000085F83D3085F83E30002385F83C30032094
:1058100000E00020BDE8F88358B310B5044690F8C6
:105820003D300BB3242384F83D302268D36823F441
:105830000053D3602046FFF72DFF2268136923F43D
:10584000904313612268536923F02A03536122684D
:10585000D36843F40053D36000202064202384F8ED
:105860003D3084F83E3010BD80F83C30FCF766FBDC
:10587000D8E7012070472DE9F04182B01E4690F82C
:105880003D30DBB2202B54D104460D469046002912
:1058900053D0002A53D090F83C30012B51D0012333
:1058A00080F83C3000230364212380F83D30FDF76D
:1058B00009FC0746A4F82480A4F82680A368B3F561
:1058C000805F05D04FF00008002384F83C3012E0E0
:1058D000236913B14FF00008F6E7A8460025F3E767
:1058E00038F8023B2268C3F308035360E28C92B29B
:1058F000013A92B2E284E38C9BB273B100963B46CC
:10590000002280212046FFF753FFE0B9002DE7D0A9
:1059100015F8012B23685A60E8E700963B46002201
:1059200040212046FFF744FF78B9202384F83D301A
:1059300000E0022002B0BDE8F0810120FAE701207A
:10594000F8E70220F6E70320F4E70320F2E77047C8
:1059500008B50168CA6822F04002CA60202280F8B7
:105960003D20FFF7F4FF002008BD704708B5806BAD
:105970000023C385C384FFF7F8FF08BD704790F884
:105980003E30DBB2222B53D110B504468368B3F509
:10599000805F30D0A26AB3F5805F04D0002B37D18E
:1059A0002369002B34D123685B681370A36A013329
:1059B000A362E38D9BB2013B9BB2E385002B39D1FF
:1059C0002268D36823F02003D3602268D36823F4CD
:1059D0008073D3602268536923F00103536120234D
:1059E00084F83E30236B012B18D02046FBF7D4FA05
:1059F000002020631FE00269002ACBD1826A03687D
:105A00005B68C3F308031380836A02338362D0E7C1
:105A100023685B6803F07F031370C7E72268D368CD
:105A200023F01003D360A18D2046FFF7A7FFDFE727
:105A300002207047002010BD30B583B004460268D4
:105A40001368D068516913F00F0505D113F0200FCA
:105A500002D010F0200F19D12DB111F0010119D190
:105A600010F4907F16D1216B012975D013F0800FAF
:105A700003D010F0800F40F0D88013F0400F03D017
:105A800010F0400F40F0D58003B030BD2046FFF746
:105A900076FFF9E713F0010F06D010F4807F03D0F2
:105AA000226C42F00102226413F0040F04D019B1F9
:105AB000226C42F00202226413F0020F04D019B1EA
:105AC000226C42F00402226413F0080F07D010F099
:105AD000200F00D119B1226C42F008022264226C1E
