:020000040800F2
:1000000000000220B56C0008E1280008E328000881
:10001000E5280008E7280008E9280008000000009B
:10002000000000000000000000000000E16900087E
:10003000EB28000800000000816A0008E56A00085B
:10004000056D0008056D0008056D0008056D0008C8
:10005000056D0008056D0008056D0008056D0008B8
:10006000056D0008056D0008056D0008ED28000805
:10007000056D0008056D0008056D0008056D000898
:100080006D0F00087D0F0008056D0008056D000864
:10009000056D0008056D0008056D0008056D000878
:1000A000056D0008056D0008056D0008056D000868
:1000B000056D0008056D0008056D0008FD280008A5
:1000C0000D290008056D0008056D0008056D000884
:1000D000056D00081D290008390F0008056D00088E
:1000E000056D0008056D0008056D0008056D000828
:1000F000056D0008056D0008056D00082D29000834
:10010000056D0008056D0008056D0008056D000807
:10011000056D0008056D0008056D00083D29000803
:10012000056D0008056D00084D290008056D0008E3
:10013000056D0008056D0008056D0008056D0008D7
:10014000056D0008056D0008056D0008056D0008C7
:10015000056D0008056D00085D290008056D0008A3
:10016000056D0008056D0008056D0008056D0008A7
:10017000056D0008056D0008056D00080000000011
:08018000056D0008056D000883
:1001900010B5054C237833B9044B13B10448AFF3C1
:1001A00000800123237010BD000200200000000029
:1001B0009088000808B5034B1BB103490348AFF30F
:1001C000008008BD000000000402002090880008A4
:1001D000F0B400EB4003DFF8880000EBC30000F14F
:1001E00018063069F7687568874232D3B368DC1B3C
:1001F000631E934214D37D19D01900BF11F8013B3F
:1002000005F8013B013A05D011F8013B05F8013B27
:10021000013AF3D1BFF35F8FF0600120F0BC70476B
:10022000C018904219D37819121B11F8013B00F83D
:10023000013B013CF9D1141C05D011F8013B05F834
:10024000013B013AF9D1BFF35F8FF4600120F0BCAC
:100250007047C01B01389042CDD20020F0BC7047DF
:10026000D8540020034613F8012B002AFBD1181A9A
:100270000138704781F0004102E000BF83F0004385
:1002800030B54FEA41044FEA430594EA050F08BF31
:1002900090EA020F1FBF54EA000C55EA020C7FEAF5
:1002A000645C7FEA655C00F0E2804FEA5454D4EB72
:1002B0005555B8BF6D420CDD2C4480EA020281EA3C
:1002C000030382EA000083EA010180EA020281EA74
:1002D0000303362D88BF30BD11F0004F4FEA0131C6
:1002E0004FF4801C4CEA113102D0404261EB4101D5
:1002F00013F0004F4FEA03334CEA133302D052425B
:1003000063EB430394EA050F00F0A780A4F1010416
:10031000D5F1200E0DDB02FA0EFC22FA05F2801850
:1003200041F1000103FA0EF2801843FA05F3594136
:100330000EE0A5F120050EF1200E012A03FA0EFCB5
:1003400028BF4CF0020C43FA05F3C01851EBE371DF
:1003500001F0004507D54FF0000EDCF1000C7EEBFC
:1003600000006EEB0101B1F5801F1BD3B1F5001F3A
:100370000CD349085FEA30004FEA3C0C04F1010459
:100380004FEA445212F5800F80F09A80BCF1004F82
:1003900008BF5FEA500C50F1000041EB045141EA04
:1003A000050130BD5FEA4C0C404141EB0101013CCD
:1003B00028BFB1F5801FE9D291F0000F04BF0146BC
:1003C0000020B1FA81F308BF2033A3F10B03B3F18E
:1003D00020020CDA0C3208DD02F1140CC2F10C021E
:1003E00001FA0CF021FA02F10CE002F11402D8BF7C
:1003F000C2F1200C01FA02F120FA0CFCDCBF41EA48
:100400000C019040E41AA2BF01EB0451294330BD16
:100410006FEA04041F3C1CDA0C340EDC04F11404F3
:10042000C4F1200220FA04F001FA02F340EA0300CA
:1004300021FA04F345EA030130BDC4F10C04C4F110
:10044000200220FA02F001FA04F340EA03002946F0
:1004500030BD21FA04F0294630BD94F0000F83F43A
:10046000801306BF81F480110134013D4EE77FEA1D
:10047000645C18BF7FEA655C29D094EA050F08BF69
:1004800090EA020F05D054EA000C04BF194610464A
:1004900030BD91EA030F1EBF0021002030BD5FEA8E
:1004A000545C05D14000494128BF41F0004130BDB6
:1004B00014F580043CBF01F5801130BD01F000450A
:1004C00045F0FE4141F470014FF0000030BD7FEA7D
:1004D000645C1ABF194610467FEA655C1CBF0B4678
:1004E000024650EA013406BF52EA033591EA030F8F
:1004F00041F4002130BD00BF90F0000F04BF002187
:10050000704730B54FF4806404F132044FF00005B9
:100510004FF0000150E700BF90F0000F04BF002132
:10052000704730B54FF4806404F1320410F0004598
:1005300048BF40424FF000013EE700BF42004FEA93
:10054000E2014FEA31014FEA02701FBF12F07F4310
:1005500093F07F4F81F06051704732F07F4208BFC7
:10056000704793F07F4F04BF41F40021704730B5CE
:100570004FF4607401F0004521F000411CE700BF1A
:1005800050EA010208BF704730B54FF000050AE09D
:1005900050EA010208BF704730B511F0004502D59E
:1005A000404261EB41014FF4806404F132045FEAA0
:1005B000915C3FF4D8AE4FF003025FEADC0C18BF49
:1005C00003325FEADC0C18BF033202EBDC02C2F13B
:1005D000200300FA03FC20FA02F001FA03FE40EACD
:1005E0000E0021FA02F11444BDE600BF70B54FF0D1
:1005F000FF0C4CF4E06C1CEA11541DBF1CEA1355AF
:1006000094EA0C0F95EA0C0F00F0DEF82C4481EA16
:10061000030621EA4C5123EA4C5350EA013518BF36
:1006200052EA033541F4801143F4801338D0A0FB23
:1006300002CE4FF00005E1FB02E506F00042E0FBD0
:1006400003E54FF00006E1FB03569CF0000F18BFD6
:100650004EF0010EA4F1FF04B6F5007F64F540747E
:1006600004D25FEA4E0E6D4146EB060642EAC62111
:1006700041EA55514FEAC52040EA5E504FEACE2E7E
:10068000B4F1FD0C88BFBCF5E06F1ED8BEF1004F81
:1006900008BF5FEA500E50F1000041EB045170BDFD
:1006A00006F0004646EA010140EA020081EA030141
:1006B000B4EB5C04C2BFD4EB0C0541EA045170BD3D
:1006C00041F480114FF0000E013C00F3AB8014F1B7
:1006D000360FDEBF002001F0004170BDC4F1000400
:1006E000203C35DA0C341BDC04F11404C4F1200581
:1006F00000FA05F320FA04F001FA05F240EA0200DC
:1007000001F0004221F0004110EBD37021FA04F611
:1007100042EB06015EEA430E08BF20EAD37070BDCB
:10072000C4F10C04C4F1200500FA04F320FA05F02A
:1007300001FA04F240EA020001F0004110EBD3702C
:1007400041F100015EEA430E08BF20EAD37070BD9C
:10075000C4F1200500FA05F24EEA020E20FA04F375
:1007600001FA05F243EA020321FA04F001F0004124
:1007700021FA04F220EA020000EBD3705EEA430E95
:1007800008BF20EAD37070BD94F0000F0FD101F0C4
:100790000046400041EB010111F4801F08BF013CFD
:1007A000F7D041EA060195F0000F18BF704703F03B
:1007B0000046520043EB030313F4801F08BF013DC2
:1007C000F7D043EA0603704794EA0C0F0CEA13557E
:1007D00018BF95EA0C0F0CD050EA410618BF52EA38
:1007E0004306D1D181EA030101F000414FF000003E
:1007F00070BD50EA410606BF1046194652EA43064C
:1008000019D094EA0C0F02D150EA013613D195EABF
:100810000C0F05D152EA03361CBF104619460AD107
:1008200081EA030101F0004141F0FE4141F4700111
:100830004FF0000070BD41F0FE4141F4780170BD01
:1008400070B54FF0FF0C4CF4E06C1CEA11541DBF66
:100850001CEA135594EA0C0F95EA0C0F00F0A7F868
:10086000A4EB050481EA030E52EA03354FEA013195
:1008700000F088804FEA03334FF0805545EA1313A8
:1008800043EA12634FEA022245EA111545EA106570
:100890004FEA00260EF000419D4208BF964244F107
:1008A000FD0404F5407402D25B084FEA3202B61A26
:1008B00065EB03055B084FEA32024FF480104FF4FA
:1008C000002CB6EB020E75EB030E22BFB61A75466E
:1008D00040EA0C005B084FEA3202B6EB020E75EB01
:1008E000030E22BFB61A754640EA5C005B084FEA69
:1008F0003202B6EB020E75EB030E22BFB61A754636
:1009000040EA9C005B084FEA3202B6EB020E75EB40
:10091000030E22BFB61A754640EADC0055EA060E01
:1009200018D04FEA051545EA16754FEA06164FEA44
:10093000C30343EA52734FEAC2025FEA1C1CC0D1F0
:1009400011F4801F0BD141EA00014FF000004FF07D
:10095000004CB6E711F4801F04BF01430020B4F13E
:10096000FD0C88BFBCF5E06F3FF6AFAEB5EB030CF6
:1009700004BFB6EB020C5FEA500C50F1000041EBF3
:10098000045170BD0EF0004E4EEA113114EB5C04C0
:10099000C2BFD4EB0C0541EA045170BD41F4801193
:1009A0004FF0000E013C90E645EA060E8DE60CEA9B
:1009B000135594EA0C0F08BF95EA0C0F3FF43BAFB8
:1009C00094EA0C0F0AD150EA01347FF434AF95EA6F
:1009D0000C0F7FF425AF104619462CE795EA0C0F53
:1009E00006D152EA03353FF4FDAE1046194622E720
:1009F00050EA410618BF52EA43067FF4C5AE50EAFA
:100A000041047FF40DAF52EA43057FF4EBAE12E7E9
:100A10004FF0FF3C06E000BF4FF0010C02E000BFCA
:100A20004FF0010C4DF804CD4FEA410C7FEA6C5CAD
:100A30004FEA430C18BF7FEA6C5C1BD001B050EA50
:100A4000410C0CBF52EA430C91EA030F02BF90EA3B
:100A5000020F0020704710F1000F91EA030F58BFFA
:100A6000994208BF90422CBFD8176FEAE37040F05C
:100A7000010070474FEA410C7FEA6C5C02D150EAFA
:100A8000013C07D14FEA430C7FEA6C5CD6D152EAB5
:100A9000033CD3D05DF8040B704700BF844610467A
:100AA00062468C461946634600E000BF01B5FFF779
:100AB000B7FF002848BF10F1000F01BD4DF808ED49
:100AC000FFF7F4FF0CBF012000205DF808FB00BF1A
:100AD0004DF808EDFFF7EAFF34BF012000205DF874
:100AE00008FB00BF4DF808EDFFF7E0FF94BF0120C1
:100AF00000205DF808FB00BF4DF808EDFFF7CEFFC2
:100B000094BF012000205DF808FB00BF4DF808ED00
:100B1000FFF7C4FF34BF012000205DF808FB00BFD1
:100B20004FEA410C7FEA6C5C02D150EA013C0AD1E9
:100B30004FEA430C7FEA6C5C02D152EA033C02D1DB
:100B40004FF0000070474FF0010070474FEA41023C
:100B500012F5001215D211D56FF47873B3EB62520F
:100B600012D94FEAC12343F0004343EA505311F036
:100B7000004F23FA02F018BF404270474FF00000C8
:100B8000704750EA013005D111F0004008BF6FF006
:100B9000004070474FF00000704700BF53B94AB99A
:100BA000002908BF00281CBF4FF0FF314FF0FF3075
:100BB00000F06EB9ADF1080C6DE904CE00F006F856
:100BC000DDF804E0DDE9022304B070472DE9F047C9
:100BD000089D04468C46002B40F083808A421746CD
:100BE00047D9B2FA82F242B1C2F1200024FA00F0F1
:100BF0009140974040EA010C94404FEA1748230C7B
:100C0000BCFBF8F61FFA87FE08FB16C143EA014356
:100C100006FB0EF1994209D9FB1806F1FF3080F06E
:100C20001981994240F21681023E3B445B1AA4B2FC
:100C3000B3FBF8F008FB103344EA034400FB0EFE5C
:100C4000A64509D93C1900F1FF3380F00581A6457E
:100C500040F2028102383C4440EA0640A4EB0E0414
:100C600000261DB1D4400023C5E900433146BDE84C
:100C7000F08702B9FFDEB2FA82F2002A50D1CB1B14
:100C80004FEA174E1FFA87F80126B3FBFEFC210C32
:100C90000EFB1C3341EA034108FB0CF38B4207D9DE
:100CA00079180CF1FF3002D28B4200F2E9808446C1
:100CB000C91AA3B2B1FBFEF00EFB101143EA0144C6
:100CC00008FB00F8A04507D93C1900F1FF3302D218
:100CD000A04500F2D9801846A4EB080440EA0C4075
:100CE000BFE78B4209D9002D00F0B1800026C5E98D
:100CF000000130463146BDE8F087B3FA83F6002E96
:100D00004AD18B4202D3824200F2B880841A61EB4E
:100D1000030101208C46002DA8D0C5E9004CA5E7B1
:100D2000C2F1200320FA03F6974001FA02F04FEADD
:100D3000174ED9403043030CB1FBFEF61FFA87F87B
:100D40000EFB161143EA014306FB08F1994204FA2F
:100D500002F409D9FB1806F1FF3C80F08D8099421E
:100D600040F28A80023E3B445B1A81B2B3FBFEF044
:100D70000EFB103341EA034100FB08F38B4207D915
:100D8000791800F1FF3C73D28B4271D90238394493
:100D9000CB1A40EA064678E7C6F1200C03FA06F4BF
:100DA00022FA0CF31C4320FA0CF701FA06F34FEA7F
:100DB000144E21FA0CF11F433B0CB1FBFEF91FFA54
:100DC00084F80EFB191143EA014109FB08FA8A4530
:100DD00002FA06F200FA06F308D9611809F1FF30A9
:100DE00048D28A4546D9A9F102092144A1EB0A015A
:100DF000BFB2B1FBFEF00EFB101147EA014700FB4A
:100E000008F8B84507D9E71900F1FF312ED2B845E7
:100E10002CD90238274440EA0940A7EB0807A0FB79
:100E200002894F45C64649461AD317D05DB1B3EB88
:100E30000E0267EB010707FA0CFCF2404CEA0202D3
:100E4000F740C5E9002700263146BDE8F0872E4669
:100E500028460BE70646E9E61846FDE64345E5D297
:100E6000B8EB020E69EB04010138DFE70846D2E770
:100E700060468DE78146B9E7664675E730464AE742
:100E8000ACF1020C394413E702383C4424E700BFBC
:100E9000704700BF10B584B000230193214B9B6BBA
:100EA0001B685C68C4F180041F4B1B68A3420CD014
:100EB0001BD21E4A1A440392E31A0293002301AA8A
:100EC00002A91B48006804F039FD174B1C60802CF8
:100ED00025D0019B3BB1174B4FF080521A60BFF3F6
:100EE0004F8FBFF36F8F04B010BD104A1A440392A6
:100EF000C3F180030293002301AA02A90C480068F1
:100F000004F01CFD002CE0D0084B03930294002356
:100F100001AA02A90648006804F010FDD5E70022E6
:100F20001A60D6E7A45800201C02002020020020EE
:100F3000D454002004ED00E000B583B00A4B1B68D8
:100F40001A6812F0100F0BD0002201921A68019259
:100F50005B680193019BFFF79DFF03B05DF804FB05
:100F6000014804F021FBF8E7A458002008B5024B23
:100F7000986B02F019FB08BDA458002008B5024B7D
:100F8000586B02F011FB08BDA458002000B585B0D5
:100F90000368114A934205D0104A934205D005B028
:100FA0005DF804FBFFF776FFF9E70023039303AA3C
:100FB0000092012211460A48006805F035FA039BA9
:100FC000002BECD0074B4FF080521A60BFF34F8FCD
:100FD000BFF36F8FE3E700BF004400400010014003
:100FE000A002002004ED00E002680E4B9A4200D0FF
:100FF000704700B585B00023039303AA0092012235
:1010000002210948006805F00FFA039B3BB1074B2A
:101010004FF080521A60BFF34F8FBFF36F8F05B050
:101020005DF804FB00100140A002002004ED00E088
:1010300030B583B000250195084C01A9206805F062
:10104000A3FA2560019B3BB1054B4FF080521A601B
:10105000BFF34F8FBFF36F8F03B030BDA4020020EA
:1010600004ED00E030B583B000250195084C01A9DE
:10107000206805F089FA2560019B3BB1054B4FF0D4
:1010800080521A60BFF34F8FBFF36F8F03B030BD34
:10109000A402002004ED00E030B583B000250195E6
:1010A000084C01A9206805F06FFA2560019B3BB14F
:1010B000054B4FF080521A60BFF34F8FBFF36F8F15
:1010C00003B030BDA402002004ED00E030B583B0D1
:1010D00000250195084C01A9206805F055FA256006
:1010E000019B3BB1054B4FF080521A60BFF34F8F0D
:1010F000BFF36F8F03B030BDA402002004ED00E009
:1011000000B585B0074B6C460FCB07C423800E2279
:101110006946054804F044F94FF47A7004F0FCFF86
:10112000F5E700BFC48800086058002000B585B00E
:10113000074B0293074B01930223009300234FF4C4
:1011400080720549054804F00DFE05B05DF804FB0A
:10115000A8060020A8020020D48800080111000879
:1011600070B5C2B005F0A2F82C4B186000F0C0FBBF
:10117000064620222A492B4804F012F900F000FC10
:1011800001241BE0009B13F0010F08D113F0020FA4
:101190001DD0E4B104F0A4FE0546002417E00122AE
:1011A0000DF20711304600F0CBF901220DF20711C4
:1011B0001C4804F018FB0AE018BB01244FF4C87364
:1011C0006A460321002005F0D9F80128DAD0002C66
:1011D000F4D104F085FE401BB0F5C87FEED3304655
:1011E00000F05AFAFF28E7D94FF4807201A930467F
:1011F00000F000F982B201A90A4804F0D1F80124F4
:10120000DCE7024601A9304600F0F4F882B201A9F9
:10121000044804F0C5F80124D0E700BFA002002074
:10122000000000206058002010B584B00E4AD3683A
:1012300043F08073D3600D4B00245C601A6842F069
:1012400001021A6000F028F8094B0293094B019340
:101250000623009323464FF480720749074804F0A1
:1012600081FD04B010BD00BFF0ED00E0001000E013
:10127000FC0A0020FC060020E0880008611100083C
:1012800008B5034800F072FE024800F06FFE08BD8A
:10129000F08800082489000808B5064B1868064B3A
:1012A000064A014600F0E8FA4FF0805000F01AFBC1
:1012B00008BD00BF2800002081120008A489000892
:1012C0000369C268934204D88068801A0344581E98
:1012D00070479B1A581E70472DE9F843044688460C
:1012E0001646C5688768A7EB0509914509D9406886
:1012F000284405F03BFDBFF35F8F3544E560BDE852
:10130000F88340684A46284405F030FDED1B35441B
:101310002A4608EB0901606805F028FDBFF35F8FDE
:10132000E560ECE72DE9F843064688461746C568B0
:101330004FF000091AE0641B621EB3685C1B944204
:1013400028BF1446BC4228BF3C467068224641462E
:10135000284405F00BFDA144A0443F1B2544B3687D
:10136000AB420BD0BFF35F8FF5604FB13469A5423C
:10137000E1D3B268641B1444621EDEE70025F1E786
:101380004846BDE8F8830000144B03221A615A61F5
:1013900013499961134ADA614FF480621A6200229C
:1013A0009A625A62DA6219660F4959661021996683
:1013B0001A67DA665A670D4A1068C3F80700BFF368
:1013C0005F8F0B4A92E8030018609980BFF35F8F2C
:1013D00020229A71BFF35F8F704700BFD85400205E
:1013E00034890008600B0020500B00204089000861
:1013F000448900082DE9F047044688469146274B6A
:101400001B78C3B104EB4403244A02EBC3039F6A75
:101410005D6AAF4212D80026ED1B4D4528BF4D46F0
:1014200065BB2EB104EB44041C4800EBC404A76266
:101430003046BDE8F087FFF7A7FFE3E7134604EB6C
:10144000440A02EBCA0ADAF82060F61B4E4528BFB0
:101450004E46621C02EB420203EBC203596832465D
:101460003944404605F082FCB044A9EB06093744F4
:10147000DAF82030BB42CFD10027CDE7631C03EB65
:101480004303064A02EBC30359682A4639444046DF
:1014900005F06CFC2E442F44C3E700BFD854002055
:1014A0002DE9F047044688469146244B1B78C3B18A
:1014B00004EB4403214A02EBC3031F6FDD6EAF420E
:1014C00012D80026ED1B4D4528BF4D463DBB2EB121
:1014D00004EB4404194800EBC40427673046BDE818
:1014E000F087FFF751FFE3E704EB440A02EBCA0A77
:1014F000DAF86860F61B4E4528BF4E46DAF86410ED
:1015000032463944404605F031FCB044A9EB0609A7
:101510003744DAF86830BB42D4D10027D2E704EB75
:101520004403064A02EBC303596E2A463944404637
:1015300005F01CFC2E442F44C9E700BFD8540020FE
:10154000F8B50F46164600EB4000C4006034144B5B
:101550001C446569012D11D0022D1CD015B1002548
:101560002846F8BD2046FFF7ABFE8642F8D8324643
:1015700039462046FFF7B0FE3546F1E72046FFF733
:101580009FFE3546864228BF05462A4639462046F4
:10159000FFF7A2FEE4E72046FFF7C4FE0546DFE7BB
:1015A000D85400202DE9F04180460F4616461D46CE
:1015B0001E4B1B78002B32D0EFF311824FF020012D
:1015C00081F311880020441C04EB4404174B03EB07
:1015D000C404636823B10130144B1B698342F2DCFD
:1015E000124B1B6983421DDD104B411C01EB410472
:1015F000E40043F8048001EB410103EBC1014F60BB
:1016000000EB400103EBC1031E62002199625962A5
:10161000DD62BFF35F8F82F31188BDE8F081FFF7D1
:10162000B3FEC9E74FF0FF30F5E700BFD854002004
:101630002DE9F04104460F461646984615480078B5
:1016400010B3022C23D8EFF311834FF0200181F364
:1016500011885CB104EB44000E4D05EBC000076639
:101660004666C0F8688000220267C26604EB440444
:10167000084800EBC404069A6267BFF35F8F83F3E8
:1016800011880020BDE8F081FFF77EFED9E74FF01A
:10169000FF30F7E7D854002000EB4002084B03EB83
:1016A000C2039A6A5B6A9A4201D8981A704700EBA3
:1016B0004000034901EBC000006AD21A1044704791
:1016C000D854002010B504F011FC04464201C30EAA
:1016D000121A63F10003990041EA92719000001917
:1016E00041F10001CB0043EA5073C2001046194695
:1016F00010BD00B587B00190029103920493089B3E
:10170000059301A800F0D0FB07B05DF804FB0000D2
:10171000F0B583B005460C4616461F460522134910
:10172000204605F015FBD0B1114B1A68072A18D8CE
:10173000104B02EB820003EB800143F820504C6019
:101740008E60CF60089B0B610132094B1A60089BC9
:1017500000933B46324621462846FFF7CAFF03B0B6
:10176000F0BD054800F0DAFCF9E700BF4C8900083D
:10177000600F0020640F00205489000830B583B04A
:1017800000240A4B1B68A3420ED9094D04EB8403C5
:10179000980029180B690093CB688A684968285813
:1017A000FFF7A7FF0134ECE703B030BD600F002066
:1017B000640F002030B405460B4609B1002102E059
:1017C000002208E001315C5C002CFBD1914200D882
:1017D0000A46FE2A04D8284600F8012B00210BE017
:1017E000FF2129706A70110AE81CA970F6E713F846
:1017F000014B00F8014B01319142F8D330BC7047E6
:101800000430704710B584B001238DF80430184BB4
:101810005B690DF105027F2B05D963F07F0102F8AA
:10182000011BDB09F7E702F8013B124B1C68104B68
:10183000DB68E31A04E063F07F0102F8011BDB09B7
:101840007F2BF8D802F8013B01A9521A084B5878AF
:10185000FEF7BEFC30B1064BDC601A78013A1A7014
:1018600004B010BD024A536901335361F8E700BF69
:1018700010100020041000E02DE9F04782B0074668
:101880000E4690461D46DFF8589000234FF48062C4
:101890000F494846FFF786FEC0B20E4C60702076B6
:1018A0004FF0000ACDF800A008230B4A4946FFF785
:1018B000BFFEC4F810A0094B1B68E360C4F8208089
:1018C0006760A660656284F800A002B0BDE8F0879A
:1018D000381000201010002004100020041000E038
:1018E000AC890008014B1861704700BF1010002040
:1018F000014B5878704700BF1010002008B5034B0B
:101900001B6A13B15B6803B1984708BD1010002033
:10191000014B1B69C01A70471010002010B5064B10
:101920001C681CB910BD2469002CFBD0E368002B97
:10193000F9D09847F7E700BF1C15002010B5EFF36A
:1019400011844FF0200181F311880B48FFF758FFF5
:101950000A4B1B7801467F2B05D963F07F0201F803
:10196000012BDB09F7E701F8013B1B2200F0B2F87D
:1019700084F3118810BD00BF381400200C10002023
:1019800038B5294D01232B70EFF311844FF020015E
:1019900081F311880A2225496878FEF719FC84F33F
:1019A00011880A2000F014F9EFF311844FF02001A0
:1019B00081F311881E48FFF723FF6A6803467F2AD8
:1019C00005D962F07F0103F8011BD209F7E703F89C
:1019D000012B154A92687F2A05D962F07F0103F82E
:1019E000011BD209F7E703F8012B0F4A126904E043
:1019F00062F07F0103F8011BD2097F2AF8D819464B
:101A000001F8022B00225A70182200F063F884F3C8
:101A10001188054B5B6A03B1984700F037F9FFF76F
:101A20006DFFFFF78BFF38BD10100020B489000850
:101A30003814002000B583B001220DF10701244BBA
:101A4000187EFFF72DFD002822DD9DF80730072BBB
:101A50000AD85AB28AB35A1E062A2ED8DFE802F0F4
:101A6000161B1E2124272A007F2B11D0802B24D166
:101A700001220DF10701164B187EFFF711FD00281A
:101A800006DD9DF8070000F00BFB01E0FFF778FF93
:101A900003B05DF804FB00F0ABF9F9E700F0F6F8ED
:101AA000F6E7FFF72BFFF3E700F0BEF9F0E7FFF7EB
:101AB00045FFEDE7FFF732FFEAE713F0800FE7D0CD
:101AC00001220DF10701024B187EFFF7E9FCDFE769
:101AD0001010002070B506460C461546394B1B7891
:101AE000012B03D0002B4CD0022B12D01F2D05D878
:101AF000344BDB69EB4013F0010F42D1172D0FD8A7
:101B0000711E06F8015C304B1D682E4BDB68EB1A2A
:101B10002BE0FFF777FE2B4B1B78012B31D1E5E74C
:101B2000A31B7F2B12D9DA0906F8012CB01E63F033
:101B30007F0306F8023C7F2D0CD9EB0900F8013C2D
:101B4000811E65F07F0500F8025CDCE7701E06F878
:101B5000013CF0E7411E00F8015CD4E7224663F047
:101B60007F0002F8010BDB0914467F2BF6D804F83E
:101B7000013B621A134B5878FEF72AFBA0B1114BB8
:101B8000DD60104B1B7E114A03EB430102EBC101E8
:101B9000C96E03EB430302EBC3031B6F994202D0F0
:101BA000084B9B782BB170BD064A13780133137034
:101BB000E7E7044C0123A370FFF73CFF0023A37069
:101BC000F1E700BF10100020041000E0D8540020FE
:101BD00038B50446EFF311854FF0200181F31188E9
:101BE0000448FFF70DFE01462246FFF773FF85F319
:101BF000118838BD3814002070B505460C46EFF347
:101C000011864FF0200181F311880A48FFF7F8FD93
:101C100001467F2C05D964F07F0301F8013BE409FC
:101C2000F7E701F8014B2A46FFF754FF86F31188C6
:101C300070BD00BF38140020F8B505460F461446A5
:101C4000EFF311864FF0200181F311880E48FFF762
:101C5000D7FD01467F2F05D967F07F0301F8013BCF
:101C6000FF09F7E701F8017B04E064F07F0301F866
:101C7000013BE4097F2CF8D801F8014B2A46FFF715
:101C800029FF86F31188F8BD3814002008B5094BE8
:101C90001B6A43B11B6833B198470A4601460D20C1
:101CA000FFF7CAFF08BD044B19680C20FFF7A4FF1B
:101CB000F8E700BF10100020041000E02DE9F84301
:101CC0000546894690461F46089CEFF311864FF063
:101CD000200181F311881B48FFF792FD0146B9F1FD
:101CE0007F0F06D969F07F0301F8013B4FEAD9194C
:101CF000F5E701F8019BB8F17F0F06D968F07F0383
:101D000001F8013B4FEAD818F5E701F8018B7F2F66
:101D100005D967F07F0301F8013BFF09F7E701F8F8
:101D2000017B04E064F07F0301F8013BE4097F2CB0
:101D3000F8D801F8014B2A46FFF7CCFE86F311884C
:101D4000BDE8F883381400202DE9F04706468A469E
:101D500091461C46DDF82080099DEFF311874FF076
:101D6000200181F311882148FFF74AFD0146BAF1AD
:101D70007F0F06D96AF07F0301F8013B4FEADA1AB8
:101D8000F5E701F801ABB9F17F0F06D969F07F03E0
:101D900001F8013B4FEAD919F5E701F8019B7F2CC7
:101DA00005D964F07F0301F8013BE409F7E701F886
:101DB000014B05E068F07F0301F8013B4FEAD818BA
:101DC000B8F17F0FF6D801F8018B04E065F07F03CE
:101DD00001F8013BED097F2DF8D801F8015B32468F
:101DE000FFF778FE87F31188BDE8F08738140020EC
:101DF00010B5EFF311844FF0200181F311880848EA
:101E0000FFF7FEFC074B1B7813B984F3118810BD54
:101E10000B220146FFF75EFE024B00221A70F4E728
:101E2000381400201010002010B5EFF311844FF08B
:101E3000200181F311881A48FFF7E2FC194B5A6818
:101E400003467F2A05D962F07F0103F8011BD209FE
:101E5000F7E703F8012B134A92687F2A05D962F04D
:101E60007F0103F8011BD209F7E703F8012B0D4AA4
:101E7000126904E062F07F0103F8011BD2097F2A96
:101E8000F8D8194601F8022B00225A701822FFF7E1
:101E900021FE84F31188034B5B6A03B1984710BDA0
:101EA000381400201010002070B50646EFF311859D
:101EB0004FF0200181F311882A48FFF7A1FC044666
:101EC0003368294A12699B1A7F2B05D963F07F0278
:101ED00000F8012BDB09F7E700F8013BB3687F2B23
:101EE00005D963F07F0200F8012BDB09F7E700F862
:101EF000013B20227168FFF75DFC01460922204664
:101F0000FFF7E8FD3268184B1B69D21A23467F2A77
:101F100005D962F07F0103F8011BD209F7E703F846
:101F2000012BF26804E062F07F0103F8011BD20983
:101F30007F2AF8D803F8012B326904E062F07F01B0
:101F400003F8011BD2097F2AF8D8194601F8022BA1
:101F500000225A7015222046FFF7BCFD85F3118838
:101F600070BD00BF381400201010002070B5054669
:101F7000EFF311864FF0200181F311880748FFF736
:101F80003FFC044680222946FFF714FC01460E223E
:101F90002046FFF79FFD86F3118870BD381400209E
:101FA00010B5EFF311844FF0200181F3118805483B
:101FB000FFF726FC01461122FFF78CFD84F3118800
:101FC00010BD00BF3814002038B50446EFF311856A
:101FD0004FF0200181F311880B48FFF711FC0B4BE8
:101FE0001B69E31A01467F2B05D963F07F0201F8D4
:101FF000012BDB09F7E701F8013B0822FFF76AFD37
:1020000085F3118838BD00BF38140020101000205F
:1020100038B50446EFF311854FF0200181F31188A4
:102020000B48FFF7EDFB0B4B1B69E31A01467F2BB7
:1020300005D963F07F0201F8012BDB09F7E701F80E
:10204000013B0422FFF746FD85F3118838BD00BF30
:10205000381400201010002038B50446EFF3118525
:102060004FF0200181F311880B48FFF7C9FB0B4BA0
:102070001B69E31A01467F2B05D963F07F0201F843
:10208000012BDB09F7E701F8013B0622FFF722FDF0
:1020900085F3118838BD00BF3814002010100020CF
:1020A000F8B51C4B1C689CB3002300E001330746C5
:1020B000984202D92469002CF8D14CB3EFF3118671
:1020C0004FF0200181F311881348FFF799FB054673
:1020D0007F2F05D967F07F0300F8013BFF09F7E781
:1020E00000F8017BA3687F2B05D963F07F0200F81D
:1020F000012BDB09F7E700F8013B80222168FFF79D
:1021000059FB014616222846FFF7E4FC86F31188A6
:10211000F8BD00BF1C1500203814002070B505461E
:10212000EFF311864FF0200181F311880A48FFF781
:1021300067FB044680222946FFF73CFB014601234A
:1021400001F8023B002343701A222046FFF7C2FC2D
:1021500086F3118870BD00BF3814002030B595B0EB
:102160003022002108A804F00FFE002403940494F8
:1021700005940694079401941B4B1A6C42F080520C
:102180001A641B6C03F080530193019B0294174B5C
:102190001A6842F480421A601B6803F48043029379
:1021A000029B012308934FF48033099302250E9577
:1021B0004FF480030F9304231093A82211921295D9
:1021C000139308A800F032FC0F23039304950594A1
:1021D0004FF4A05306934FF480530793052103A8AF
:1021E00000F086FE15B030BD00380240007000409F
:1021F00008B501F01FFBFFF7B1FF00F021F800F078
:1022000073F800F047FA00F0D1F900F05DFA00F041
:10221000DFF8FFF709F8FEF789FF00F0C3F804F0D4
:102220002BFAFEE708B50268034B9A4200D008BDBE
:1022300001F01AFBFBE700BF0014004070470000EC
:1022400030B58BB000240594069407940894099443
:102250000094234B1A6B42F004021A631A6B02F0CB
:1022600004020092009A01941A6B42F080021A63F1
:102270001A6B02F080020192019A02941A6B42F0EA
:1022800001021A631A6B02F001020292029A03948D
:102290001A6B42F008021A631A6B02F008020392EA
:1022A000039A04941A6B42F002021A631B6B03F048
:1022B00002030493049B0B4D01224FF40051284666
:1022C00000F0F4FF4FF400530593012306930793A6
:1022D000089405A9284600F0FFFE0BB030BD00BFF2
:1022E000003802400008024010B582B0002400947B
:1022F000224B1A6B42F480021A631A6B02F48002BA
:102300000092009A01941A6B42F400121A631B6B3C
:1023100003F400130193019B224605210B2001F0D9
:1023200047FA0B2001F078FA22460621102001F02E
:102330003FFA102001F070FA22460621112001F028
:1023400037FA112001F068FA224605212F2001F00A
:102350002FFA2F2001F060FA22460A213A2001F0DC
:1023600027FA3A2001F058FA22460A21462001F0C5
:102370001FFA462001F050FA02B010BD00380240AA
:1023800008B5012004F0B2F9FBE70000034B03603D
:10239000034B0B6080231360704700BF20170020A1
:1023A0002015002030B589B001AC074D0FCD0FC40A
:1023B00095E8070084E80700002101A804F061F90E
:1023C000024B186009B030BDA88800088055002075
:1023D00008B50B480B4B03600B4B43600023836035
:1023E0001422C2604FF48042026143618361C36181
:1023F000036201F00BFC00B908BDFFF71FFFFBE70C
:10240000E455002000540040801A060070B588B0E2
:102410000023039304930593069307930268394BB3
:102420009A4201D008B070BD044600250195364E91
:10243000336B43F002033363336B03F00203019306
:10244000019BC02303931223049305950323069352
:102450000423079303A92D4800F03EFE0295336C38
:1024600043F400133364336C03F400130293029BB0
:102470002748284B03604FF0007343608560C560B8
:102480004FF48063036145618561C5614FF400339A
:102490000362456200F090FF68BB1D4BA3639C6321
:1024A0001D481E4B03604FF0007343604023836060
:1024B0000023C3604FF48062026143618361C361A2
:1024C0004FF400320262436200F076FFB0B9124B63
:1024D00063639C63002205211F2001F069F91F201E
:1024E00001F09AF900220521202001F061F9202055
:1024F00001F092F996E7FFF7A1FECEE7FFF79EFE07
:10250000E5E700BF005400400038024000040240EC
:10251000385600201060024084550020B860024008
:102520000268094B9A4200D0704782B000230193A1
:10253000064B1A6C42F004021A641B6C03F004038D
:102540000193019B02B07047000800400038024030
:1025500000B587B00023019302930393049305937E
:1025600002680F4B9A4202D007B05DF804FB0023CB
:1025700000930C4A116B41F008011163126B02F0D9
:1025800008020092009A4FF47042019202220292D5
:1025900003930493059201A9034800F09DFDE3E72E
:1025A0000008004000380240000C024000B58FB027
:1025B00000230A930B930C930D93089309930193B3
:1025C0000293039304930593069307932F48304A8D
:1025D00002604360836040F6EF22C2600361836162
:1025E00002F016FC002839D14FF480530A930AA94F
:1025F000264802F011FD002833D1244802F034FCB3
:10260000002831D100230893099308A91F4802F03C
:1026100071FD60BB60230193002202920392059238
:1026200001A91A4802F084FC20BB04220DEB020130
:10263000164802F07DFC00BB082201A9134802F0F5
:1026400077FCE8B90C2201A9104802F071FCD0B95E
:102650000E48FFF77DFF0FB05DF804FBFFF7EEFDBE
:10266000C2E7FFF7EBFDC8E7FFF7E8FDCAE7FFF7B2
:10267000E5FDCFE7FFF7E2FDD7E7FFF7DFFDDBE79B
:10268000FFF7DCFDDEE7FFF7D9FDE1E79856002014
:102690000008004008B50A480A4B03604FF4E133D4
:1026A000436000238360C36003610C224261836145
:1026B000C36102F045FE00B908BDFFF7BFFDFBE7AF
:1026C000605800200010014008B50A480A4B03601A
:1026D0004FF4E133436000238360C36003610C2245
:1026E00042618361C36102F02BFE00B908BDFFF7B0
:1026F000A5FDFBE7A45800200044004030B58BB096
:1027000004460023059306930793089309930368EF
:10271000674A934204D0674A934262D00BB030BDFF
:1027200000250195644B5A6C42F010025A645A6CB1
:1027300002F010020192019A02951A6B42F0010216
:102740001A631B6B03F001030293029B4FF4C063F7
:102750000593022306930795032308930723099300
:1027600005A9564800F0B8FC5548564B03604FF099
:10277000006343608560C5604FF480630361456119
:102780008561C5610562456200F016FE18BB4C4BC1
:10279000A3639C634C484D4B03604FF00063436060
:1027A000402383600023C3604FF480620261436171
:1027B0008361C3610362436200F0FEFD70B9424B66
:1027C00063639C6300220A21252000F0F1FF25208D
:1027D00001F022F8A2E7FFF731FDD8E7FFF72EFD61
:1027E000EDE700250395344B1A6C42F400321A646D
:1027F0001A6C02F400320392039A04951A6B42F0A9
:1028000001021A631B6B03F001030493049B0C2366
:10281000059302230693079503230893072309933F
:1028200005A9264800F058FC29482A4B03604FF0C0
:10283000006343608560C5604FF480630361456158
:1028400085614FF48073C3614FF4003303624562C6
:1028500000F0B2FD28BB1E4BA3639C631E481F4BB8
:1028600003604FF000634360402383600023C36034
:102870004FF48062026143618361C3614FF480322F
:102880000262436200F098FD70B9134B63639C636E
:1028900000220621262000F08BFF262000F0BCFF3E
:1028A0003CE7FFF7CBFCD6E7FFF7C8FCEDE700BF3E
:1028B0000010014000440040003802400000024087
:1028C000A05700204064024040570020B8640240F6
:1028D000E05600208860024000580020A0600240BE
:1028E0007047FEE7FEE7FEE7FEE7704708B50248DF
:1028F00000F05AFE08BD00BF3856002008B5024857
:1029000001F02AFF08BD00BFE455002008B50248C9
:1029100001F0EFFF08BD00BFE455002008B50248F4
:1029200002F042FE08BD00BF6058002008B5024812
:1029300000F03AFE08BD00BF8455002008B50248EB
:1029400002F045F908BD00BFE858002008B502486C
:1029500000F02AFE08BD00BFA057002008B50248BD
:1029600000F022FE08BD00BF4057002000B583B034
:10297000002200920D4B596C41F480415964596C0E
:1029800001F48041009100990192196C41F080514D
:1029900019641B6C03F080530193019B0F216FF0AE
:1029A000010000F005FF03B05DF804FB00380240B1
:1029B00010B588B001460022372000F0F9FE37201C
:1029C00000F02AFF00240194144B1A6C42F02002FC
:1029D0001A641B6C03F020030193019B02A903A856
:1029E00000F05CFB00F03AFB43000D48A0FB032322
:1029F0009B0C013B0B480C4A026040F2E732C2607C
:102A000043600461846002F003FA10B1012008B051
:102A100010BD044802F092F8F9E700BF0038024008
:102A200083DE1B43E858002000140040002800F01B
:102A3000DF8170B582B00446036813F0010F3BD00C
:102A4000A64B9B6803F00C03042B2CD0A34B9B6874
:102A500003F00C03082B21D06368B3F5803F4FD0FF
:102A6000B3F5A02F52D09D4B1A6822F480321A6021
:102A70001A6822F480221A606368002B50D000F09C
:102A8000FFFE0546954B1B6813F4003F14D100F080
:102A9000F7FE401B6428F5D90320B0E18F4B5B683B
:102AA00013F4800FD8D08D4B1B6813F4003F03D074
:102AB0006368002B00F09E81236813F0020F54D04E
:102AC000864B9B6813F00C0F3ED0844B9B6803F041
:102AD0000C03082B33D0E368002B67D0804B012216
:102AE0001A6000F0CDFE05467C4B1B6813F0020F08
:102AF00053D100F0C5FE401B0228F5D903207EE12A
:102B0000764A136843F480331360B5E7734B1A6851
:102B100042F480221A601A6842F480321A60ABE7ED
:102B200000F0AEFE05466D4B1B6813F4003FC3D0AA
:102B300000F0A6FE401B6428F5D903205FE1674B37
:102B40005B6813F4800FC6D1644B1B6813F0020F4F
:102B500003D0E368012B40F04F81604A136823F0F3
:102B6000F803216943EAC1031360236813F0080FD7
:102B700040D0636963B35B4B01221A6000F080FEB2
:102B80000546564B5B6F13F0020F33D100F078FE11
:102B9000401B0228F5D9032031E1504A136823F085
:102BA000F803216943EAC1031360DEE74C4B0022BE
:102BB0001A6000F065FE0546484B1B6813F0020FD3
:102BC000D3D000F05DFE401B0228F5D9032016E1AA
:102BD000444B00221A6000F053FE05463F4B5B6FEA
:102BE00013F0020F06D000F04BFE401B0228F5D96F
:102BF000032004E1236813F0040F78D0374B1B6CDB
:102C000013F0805F0DD100230193344B1A6C42F016
:102C100080521A641B6C03F080530193019B0125C1
:102C200000E00025304B1B6813F4807F21D0A3689F
:102C3000012B32D0052B36D0284B1A6F22F001021F
:102C40001A671A6F22F004021A67A368002B34D0A7
:102C500000F016FE0646214B1B6F13F0020F45D104
:102C600000F00EFE801B41F288339842F3D9032016
:102C7000C5E01D4A136843F48073136000F000FE42
:102C80000646194B1B6813F4807FD0D100F0F8FD85
:102C9000801B0228F5D90320B1E0104A136F43F0DE
:102CA00001031367D1E70D4B1A6F42F004021A6754
:102CB0001A6F42F001021A67C7E700F0E1FD06460D
:102CC000064B1B6F13F0020F10D000F0D9FD801BD4
:102CD00041F288339842F3D9032090E00038024053
:102CE00000004742800E474200700040EDB9A369E2
:102CF000002B00F08380494A926802F00C02082AF7
:102D000051D0022B17D0464B00221A6000F0B8FDBC
:102D10000446424B1B6813F0007F42D000F0B0FD28
:102D2000001B0228F5D9032069E03C4A136C23F00C
:102D300080531364DBE73A4B00221A6000F0A0FDD9
:102D40000546364B1B6813F0007F06D000F098FD57
:102D5000401B0228F5D9032051E0E369226A13439E
:102D6000626A43EA8213A26A5208013A43EA0243C2
:102D7000E26A43EA0263294A5360294B01221A603E
:102D800000F07EFD0446254B1B6813F0007F06D142
:102D900000F076FD001B0228F5D903202FE000206B
:102DA0002DE000202BE0012B2BD01C4B5B6803F4A3
:102DB0008001E269914226D103F03F02216A8A42F2
:102DC00023D1616A47F6C0721A40B2EB811F1ED14F
:102DD00003F44031A26A5208013AB1EB024F18D114
:102DE00003F07063E26AB3EB026F14D1002006E0D7
:102DF00001207047012002E0012000E0002002B025
:102E000070BD0120FBE70120F9E70120F7E7012071
:102E1000F5E70120F3E70120F1E700BF00380240A9
:102E200060004742F8B52F4B9B6803F00C03042B5E
:102E300053D0082B53D12B4B5A6802F03F025B68EA
:102E400013F4800F28D0274B5B68C3F38813580115
:102E50000021C01A61F100018E0146EA90668701E7
:102E60003C1A66EB0105E90041EA5471E000C01824
:102E700041F100014B0243EAD05344022046194677
:102E80000023FDF78BFE174B5B68C3F3014301334F
:102E90005B00B0FBF3F023E0124B5B68C3F38813D5
:102EA0005C010025E41A65F10005AE0146EA94666E
:102EB000A701381B66EB0501CC0044EA5074C5003D
:102EC000E81844F100018B0243EA90538402204643
:102ED00019460023FDF762FED5E7034800E00348EA
:102EE000F8BD00BF0038024000127A000024F40050
:102EF000002800F09B8070B50D4604464F4B1B68C0
:102F000003F007038B4208D2CBB24C4A137013680C
:102F100003F007038B4240F08B80236813F0020F0D
:102F200017D013F0040F04D0454A936843F4E053DC
:102F30009360236813F0080F04D0414A936843F468
:102F4000604393603E4A936823F0F003A1680B430B
:102F50009360236813F0010F32D06368012B21D0F6
:102F60009A1E012A25D9364A126812F0020F61D042
:102F700033498A6822F0030213438B6000F080FC1F
:102F800006462F4B9B6803F00C036268B3EB820F7D
:102F900016D000F075FC801B41F288339842F0D9BE
:102FA000032042E0264A126812F4003FE0D10120DB
:102FB0003BE0234A126812F0007FD9D1012034E0AF
:102FC0001E4B1B6803F00703AB4207D9EAB21B4B49
:102FD0001A701B6803F00703AB422DD1236813F06E
:102FE000040F06D0164A936823F4E053E1680B43BC
:102FF0009360236813F0080F07D0114A936823F4F5
:103000006043216943EAC1039360FFF70BFF0C4B58
:103010009B68C3F303130B4AD35CD8400A4B186078
:103020000A4B1868FFF7C4FC002070BD01207047F0
:103030000120FAE70120F8E70120F6E7003C024012
:1030400000380240D4890008280000202400002015
:10305000014B1868704700BF2800002008B5FFF733
:10306000F7FF044B9B68C3F38223034AD35CD84029
:1030700008BD00BF00380240E489000808B5FFF72A
:10308000E7FF044B9B68C3F34233034AD35CD84049
:1030900008BD00BF00380240E48900080F23036028
:1030A0000B4B9A6802F0030242609A6802F0F00249
:1030B00082609A6802F4E052C2609B68DB0803F405
:1030C000E0530361034B1B6803F007030B60704779
:1030D00000380240003C024000230F2B00F2DD804C
:1030E000F0B482B05DE086685F000324BC4026EA4D
:1030F0000406CC68BC4034438460466826EA020675
:103100004C68C4F300129A403243426057E0DC0836
:10311000083450F8247003F0070296000F22B240E2
:1031200027EA02070A69B2403A4340F824205AE0ED
:10313000072200E00022B2403A430234574E46F8DC
:103140002420574A1468EA4324EA05064F6817F416
:10315000803F01D045EA0406514C2660646802EACB
:1031600004064F6817F4003F01D045EA04064C4CB2
:103170006660A46802EA04064F6817F4801F01D055
:1031800045EA0406464CA660E46822404E6816F400
:10319000001F01D045EA0402414CE26001330F2BCD
:1031A00078D801229A400C6804EA020532EA040445
:1031B000F4D14C6804F00304013C012C93D94A6813
:1031C00002F00302032A09D0C4685E000322B24061
:1031D00024EA02048A68B2402243C2604A6802F0CC
:1031E0000302022A93D004685E000322B24024EA5C
:1031F00002044A6802F00302B240224302604A68B5
:1032000012F0805FCAD000220192264A546C44F426
:1032100080445464526C02F480420192019A9C08EA
:10322000A61C1E4A52F8267003F0030296000F22D5
:10323000B24027EA02071C4A90423FF47BAF02F5F6
:10324000806290421AD002F58062904218D002F556
:103250008062904216D002F58062904214D002F54E
:103260008062904212D002F58062904210D002F546
:10327000806290423FF45CAF08225CE701225AE78B
:10328000022258E7032256E7042254E7052252E7B8
:10329000062250E702B0F0BC70477047003801408A
:1032A000003C014000380240000002400AB1816148
:1032B000704709048161704730B405682C6824F4B4
:1032C00080242C60046863608368402B05D0036809
:1032D00099600368DA6030BC704703689A600368DD
:1032E000D960F8E710B40368D9B210390C4AA2FBD0
:1032F000014212090B4CA25CC2655F2909D923F473
:103300007F7323F0030304338365806D5DF8044B02
:10331000704723F47F7323F003038365F5E700BF51
:10332000ABAAAAAACC890008836A826992B9012B48
:103330000AD0022B02D00BB100207047C36A13F0F1
:10334000807F28D100207047C36AB3F1C07F24D0AA
:1033500000207047B2F5005F09D0022B25D9032B5E
:1033600025D1C36A13F0807F23D100207047032B3F
:1033700003D8DFE803F01404140A00207047C36A7E
:1033800013F0807F0DD100207047C36AB3F1C07F76
:1033900009D00020704701207047012070470120AC
:1033A00070470120704701207047012070470020BE
:1033B000704701207047000070B5044600F060FAC5
:1033C000002C5BD00546002384F83430022384F8B7
:1033D00035302268136823F00103136023681A68EC
:1033E00012F0010F0AD000F04BFA431B052BF5D960
:1033F00020236365032084F8350070BD1A682048D7
:1034000010406168A2680A43E1680A4321690A43DF
:1034100061690A43A1690A43E1690A43216A0A43CF
:103420000243616A04291ED01A602668756925F076
:103430000705636A1D43042B07D1A36A1D43E36A92
:103440001BB12046FFF770FF90B975612046FFF76A
:1034500049FFE26D3F2393408360002060650123B4
:1034600084F83530C9E7E16A206B01430A43DBE7A2
:1034700040236365012084F83500BEE70120BCE7E6
:103480003F8010F038B50446856D90F8340001286F
:103490002BD0012084F8340094F83500C0B2012804
:1034A00004D0002384F83430022038BD022084F890
:1034B0003500002060652046FFF7FEFEE26D3F23E9
:1034C0009340AB602268136843F016031360236CCB
:1034D00023B12268136843F008031360226813685D
:1034E00043F0010313600020DFE70220DDE770B541
:1034F0000446866D00F0C4F994F83530DBB2022B37
:1035000006D080236365002384F83430012070BD29
:1035100005462268136823F0160313602268536976
:1035200023F080035361236CE3B12268136823F016
:10353000080313602268136823F0010313602368F3
:103540001B6813F0010F11D000F09AF9431B052BF3
:10355000F5D920236365002384F83430032084F8F0
:103560003500D4E7A36C002BDFD1E3E7E26D3F2306
:103570009340B360002084F83400012384F8353090
:10358000C5E790F83530DBB2022B03D080234365CA
:1035900001207047052380F835300268136823F056
:1035A0000103136000207047F0B583B00446002388
:1035B0000193724B1D68724BA3FB0535AD0A876DF5
:1035C0003E68C26D08239340334210D003681A68E6
:1035D00012F0040F0BD01A6822F004021A60C26DB8
:1035E00008239340BB60436D43F001034365E26DE4
:1035F00001239340334209D02268526912F0800FB0
:1036000004D0BB60636D43F002036365E26D042385
:103610009340334209D02268126812F0020F04D09E
:10362000BB60636D43F004036365E26D1023934058
:10363000334224D02268126812F0080F1FD0BB60FA
:1036400023681A6812F4802F0DD01B6813F4002F22
:1036500004D1236C9BB12046984710E0A36C73B152
:10366000204698470BE01A6812F4807F03D11A684D
:1036700022F008021A60236C0BB120469847E26DD5
:1036800020239340334255D02268126812F0100F65
:1036900050D0BB6094F83530DBB2052B0ED02368D8
:1036A0001A6812F4802F33D01B6813F4002F2AD12C
:1036B000636C002B3ED0204698473BE0226813689D
:1036C00023F0160313602268536923F080035361CB
:1036D000236CA3B12268136823F008031360E26D22
:1036E0003F239340BB60002384F83430012384F8E7
:1036F0003530236D002B3FD0204698473CE0A36C2B
:10370000002BE7D1EBE7E36BA3B12046984711E02C
:103710001A6812F4807F09D11A6822F010021A6028
:10372000002384F83430012384F83530E36B0BB187
:1037300020469847636DFBB1636D13F0010F17D0FE
:10374000052384F835302268136823F001031360E1
:10375000019B01330193AB4204D823681B6813F02B
:10376000010FF5D1002384F83430012384F835307B
:10377000E36C0BB12046984703B0F0BD2800002051
:10378000B5814E1B90F8350070470000074AD3689A
:1037900023F4E0631B041B0C000200F4E06003430D
:1037A00043F0BF6343F40033D360704700ED00E0A3
:1037B00030B4174BDB68C3F30223C3F10704042CB6
:1037C00028BF04241D1D062D18D9033B4FF0FF35DB
:1037D00005FA04F421EA0401994005FA03F322EA08
:1037E0000303194300280BDB0901C9B200F1604053
:1037F00000F5614080F8001330BC70470023E5E716
:1038000000F00F000901C9B2024B1954F4E700BFE0
:1038100000ED00E014ED00E0002807DB00F01F02DF
:10382000400901239340024A42F82030704700BF0C
:1038300000E100E008B50B4B1A6842F400721A6010
:103840001A6842F480621A601A6842F480721A6040
:103850000320FFF79BFF0020FFF7AAF8FFF786F889
:10386000002008BD003C0240034A1168034B1B784E
:103870000B441360704700BF305900202000002027
:10388000014B1868704700BF3059002090F83E3057
:10389000DBB2402B10D00369B3F5804F1BD0036D12
:1038A000002B39D1436CC3F3C813026803F006033D
:1038B00043F0F00313617047036D2BB9436C02684A
:1038C00003F0FE0313617047436C026843F0010389
:1038D000DBB21361704790F83D30DBB2212B0FD083
:1038E000436C026843F00103DBB21361436B6BB1BD
:1038F000DB6B5BB10268536843F40063536070474D
:10390000436C026803F0FE031361EFE7836B33B18E
:10391000DB6B002BEED102E0036D012B00D0704772
:10392000436CC3F3C813026803F0060343F0F103CA
:103930001361F4E7436C0268DBB21361436B3BB184
:10394000DB6B2BB10268536843F40063536070472C
:10395000836B002BFBD0DB6B002BF3D1F7E710B4AC
:103960008BB090F83E30DAB2C16A046B90F83D300B
:10397000DBB2222B0BD00023099303685A6909920A
:103980009B690993099B0BB05DF8044B7047036D6D
:103990000BB9402A17D0036D1BB90369B3F5404F2B
:1039A00019D0438D9BB2002B25D1029303685A692D
:1039B00002929A690292029A1A6842F400721A609C
:1039C00000230365DFE7009303685A6900929B694F
:1039D0000093009BD7E70023019303685A69019283
:1039E0009A690192019A1A6842F480721A60036D12
:1039F00001330365C7E7438D9BB2012B25D0438D6F
:103A00009BB2022B7BD00268136843F4806313607F
:103A100003685A6812F4006F0ED011F5803F07D08A
:103A2000012905D0082903D0102901D0202903D16C
:103A30005A6842F480525A600023089303685A6916
:103A400008929B690893089BBAE711F5803F11D053
:103A5000082934D0202932D0122C2ED0042940D06D
:103A600002293ED010293CD00268136823F48063F9
:103A700013603BE00268136823F4806313600368FB
:103A80005A6812F4006F0CD01A6822F480621A602F
:103A90000023039303685A6903929B690393039B72
:103AA0008EE7002204925A6904929A690492049A59
:103AB0001A6842F400721A6082E70129CED00268C7
:103AC000136823F4806313600023069303685A6924
:103AD00006929A690692069A1A6842F400721A606F
:103AE0006EE70268136843F4806313600023059354
:103AF00003685A6905929B690593059B60E7042951
:103B00000ED002290CD010290AD00268136823F4C1
:103B1000806313600268136843F40063136004E079
:103B20000268136843F48063136003685A6812F4F0
:103B3000006F0ED011F5803F07D0012905D008296C
:103B400003D0102901D0202903D15A6842F48052B1
:103B50005A600023079303685A6907929B69079389
:103B6000079B2DE7438D9BB25BB1426A03681278D5
:103B70001A61436A01334362438D9BB2013B9BB29E
:103B800043857047438D9BB25BB103681A69436AF2
:103B90001A70436A01334362438D9BB2013B9BB26F
:103BA0004385704782B0002301930E4B1B68DB08EE
:103BB0000D4AA2FB03231B0A03EB83030193019B22
:103BC000013B0193019B33B103681B6813F4007F31
:103BD000F5D1002004E0036C43F0200303640120CE
:103BE00002B070472800002089B5F814C36AB3F505
:103BF0002A0F04D0C36AB3F12A4F03D070470123C0
:103C0000C36270470823C362F8E70000002800F091
:103C1000CC80F8B5044690F83D30002B77D02423B3
:103C200084F83D302268136823F001031360226892
:103C3000136843F4004313602268136823F40043BD
:103C40001360FFF70BFA62685A4B9A4264D85A4BDA
:103C500098428CBF00230123002B40F0A880574DD1
:103C6000A5FB0035AF0C2668716821F03F0141EAE1
:103C70009541716021680B6A23F03F0365684D4AE6
:103C800095424FD87A1C13430B622568E96921F4E9
:103C90004F4121F0FF016368464A93424CD80138F6
:103CA0005B00B0FBF3F0013040F6FC73184278D0B3
:103CB000C0F30B030B43EB6121680B6823F0C003D7
:103CC000E269206A024313430B6021688B6823F486
:103CD000034323F0FF032269E068024313438B6030
:103CE0002168CB6823F0FF036269A0690243134394
:103CF000CB602268136843F0010313600020206446
:103D0000202384F83D30206384F83E00F8BD80F81D
:103D10003C30FEF77BFB82E7294B98428CBF0023A7
:103D2000012399E74FF4967202FB07F2254DA5FB9C
:103D3000025292090132A6E7A268BAB9461E03EB05
:103D40004307B6FBF7F60136C6F30B06B6FA86F65E
:103D5000760946BBC2B9421E03EB4303B2FBF3F242
:103D60000132C2F30B0242F40043A3E7461E03EB09
:103D7000830707EB8707B6FBF7F60136C6F30B069A
:103D8000B6FA86F67609E4E7421E03EB830303EBFB
:103D90008303B2FBF3F20132C2F30B0242F440435D
:103DA00088E7042386E7012384E701207047012088
:103DB000ACE700BFA08601007F841E0083DE1B43AA
:103DC000FF083D00D34D621008B5C26A90F83D303F
:103DD000DBB2212B00D008BD438D9BB263B1426A98
:103DE000036812781A61436A01334362438D9BB2C0
:103DF000013B9BB24385EEE7082A04D0202A02D07B
:103E000012F5803F13D10268536823F4E0635360D6
:103E10000268136843F400731360002303632022D5
:103E200080F83D2080F83E30FDF736F9D3E7026890
:103E3000536823F4E063536011230363002380F885
:103E40003E30202380F83D30FDF726F9C3E7704768
:103E500008B590F83D30DAB2438D9BB283B1416A28
:103E6000036809781961436A01334362438D9BB249
:103E7000013B9BB24385438D9BB20BB9292A00D0ED
:103E800008BD0268536823F48063536021230363F1
:103E9000282380F83D30FFF7DAFFF1E7704708B5D7
:103EA00090F83D30DAB2438D9BB283B10368196953
:103EB000436A1970436A01334362438D9BB2013BED
:103EC0009BB24385438D9BB20BB92A2A00D008BD13
:103ED0000268536823F4806353602223036328231A
:103EE00080F83D30FFF7DAFFF1E7704708B590F84A
:103EF0003D3003F02803282B07D003686FF002023F
:103F00005A61002380F83C3008BD0268536823F4EE
:103F10008063536011F0040F0BD0002311F0800F69
:103F200009D18289002180F83C101946FFF7DDFF96
:103F3000EAE70123F2E7028BF4E7704708B590F84F
:103F40003D30DBB2C26A082A01D0202A01D1282BD9
:103F500006D0212B1ED003686FF480625A6108BD21
:103F60001A4BC3620268536823F4E063536003682A
:103F70006FF480625A610268136823F480631360EF
:103F800000230363202280F83D2080F83E30FFF7B5
:103F9000D4FFE4E70D4BC36221230363202380F8A1
:103FA0003D30002380F83E300268536823F4E0631C
:103FB000536003686FF480625A610268136823F4E7
:103FC00080631360FFF743FFC9E700BF0000FFFFF6
:103FD00008B590F83D30026D9AB9C36C012B08D03A
:103FE000836CC3F3072302681361036D0133036518
:103FF00008BD836C0268DBB21361036D0233036595
:10400000F6E7DBB2026D012A23D0026D022AEFD15E
:10401000222B26D0428D92B20AB1212B27D0428D7D
:1040200092B2002AE4D1212BE2D10268536823F432
:10403000E06353600268136843F400731360002365
:104040000363202280F83D2080F83E30FDF70AF817
:10405000CEE7836C0268DBB21361036D0133036545
:10406000C6E70268136843F480731360C0E7426ACE
:10407000036812781A61436A01334362438D9BB22D
:10408000013B9BB24385B3E710B590F83D30DBB2FE
:1040900090F83E20D2B2C46A018D09B9212B04D018
:1040A000212B3BD0402A37D010BD082C04D0202C27
:1040B00002D014F5803F19D10268536823F4E063FD
:1040C00053600268136843F40073136000230363B2
:1040D000202380F83D3090F83E30DBB2402B15D0E5
:1040E000002380F83E30FCF7D7FFDDE70268536815
:1040F00023F4E063536011230363002380F83E3010
:10410000202380F83D30FCF7C7FFCDE7002380F87F
:104110003E30FCF7A7FFC7E7222BC5D1438D9BB2EA
:104120002BB90268536823F480635360BCE790F8AE
:104130003E30DBB2402B0CD0426A036812781A6121
:10414000436A01334362438D9BB2013B9BB243857B
:10415000AAE7FFF73DFFA7E708B5C26A438D9BB208
:10416000042B14D0438D9BB2032B22D0438D9BB2E2
:10417000022B39D003681A69436A1A70436A013303
:104180004362438D9BB2013B9BB2438510E00268C2
:10419000536823F48063536003681A69436A1A7092
:1041A000436A01334362438D9BB2013B9BB243851B
:1041B00008BD01684B6823F480634B60042A06D075
:1041C000022A04D00268136823F480631360036832
:1041D0001A69436A1A70436A01334362438D9BB282
:1041E000013B9BB24385E3E7012A0BD0102A09D09B
:1041F000042A38D0022A36D00268136843F40073C8
:10420000136004E00268136823F48063136003689A
:104210001A69436A1A70426A531C4362438D9BB207
:10422000013B9BB2438503681B695370436A0133AA
:104230004362438D9BB2013B9BB243850268536846
:1042400023F440735360202380F83D3090F83E30D3
:10425000DBB2402B0DD0002380F83E3012230363E5
:10426000FCF734FFA4E70268136843F4806313602B
:10427000CDE7002380F83E300363FCF7D9FE97E7D3
:10428000704790F83D30DBB2222B00D0704710B55C
:104290000446438D9BB2032B16D903681A69436AFF
:1042A0001A70436A01334362438D9BB2013B9BB258
:1042B0004385438D9BB2032B00D010BD0268536829
:1042C00023F480635360F8E7C26A022AF5D0012B19
:1042D000F3D8FFF767FC00282ED12268136823F477
:1042E000806313602268536823F4E063536023689B
:1042F0001A69636A1A70636A01336362638D9BB2E1
:10430000013B9BB26385202384F83D3094F83E3016
:10431000DBB2402B08D0002384F83E301223236305
:104320002046FCF7D3FEC8E7002384F83E30236321
:104330002046FCF77DFEC0E72268536823F4E06363
:10434000536023681A69636A1A70636A013363628F
:10435000638D9BB2013B9BB26385202384F83D3083
:10436000002384F83E302046FFF78AFFA5E7704718
:1043700000B583B000230193806B90F83D20D2B24A
:10438000324B1B68DB083249A1FB03131B0A03EB0A
:104390008303C3EBC3030193019B43B1019B013B27
:1043A000019303681B6813F4007FF5D103E0036CED
:1043B00043F020030364436B0BB10021D963836B8B
:1043C0000BB10021D96301680B6823F480630B6093
:1043D00000234385436B0BB100211965836B0BB13F
:1043E0000021196501680B6823F001030B6090F848
:1043F0003D30DBB2602B0ED002F02802282A14D008
:10440000202380F83D30002380F83E30FFF738FF4E
:1044100003B05DF804FB202380F83D30002380F8D2
:104420003E300364FFF7A3FFF2E70268136843F02E
:10443000010313600268136843F480631360002370
:104440000363282380F83D30E0E700BF2800002008
:1044500089B5F81410B5044690F83D30DBB290F8F9
:104460003E20D2B2102A36D0402A34D003F028029F
:10447000282A38D02268526812F4006F07D1602BC6
:1044800005D0202384F83D30002384F83E300023FB
:10449000236323685A6812F4006F48D05A6822F4E4
:1044A00000625A60626B92F83530DBB2012B20D08B
:1044B000444B1365606BFFF764F8002849D022680D
:1044C000136823F001031360202384F83D30606BF0
:1044D000036D98473DE0222BC8D121680A6822F479
:1044E00000620A60C2E700232363282384F83D307A
:1044F000CFE7A36B334A1A65A06BFFF742F840B3CE
:1045000023685A6912F0400F05D01A69636A1A705D
:10451000636A013363622268136823F00103136046
:10452000202384F83D30A06B036D984711E094F888
:104530003D20D2B2602A1FD05A6912F0400F05D038
:104540001A69636A1A70636A013363622046FFF76F
:1045500097FE236C13F00F0F04D02268536823F4E6
:10456000E063536094F83D30DBB2226C12F0040F2C
:1045700001D0282B18D010BD202284F83D20002225
:1045800022645A6912F0400F05D01A69636A1A70E2
:10459000636A013363622268136823F001031360C6
:1045A0002046FFF7E4FED4E7074BE36200232363D2
:1045B000202284F83D2084F83E302046FFF7BDFCE1
:1045C000D9E700BF714300080000FFFF30B583B09A
:1045D000044690F83D50EDB20268536823F4E0635E
:1045E00053600023019303685A6901921A6842F0EC
:1045F00001021A60019B0268136823F48063136050
:1046000003685A6812F4006F38D0222D21D02A2D69
:104610001FD0426B1268526892B24285428D92B2AC
:104620001AB1026C42F0040202645A6822F4006279
:104630005A60606BFFF7A6F801281FD0636B444AED
:104640001A65606BFEF79DFFC0B1606B036D984704
:1046500014E0A26B1268526892B26285628D92B2C7
:104660001AB1226C42F0040222645A6822F40062F9
:104670005A60A06BFFF786F8012842D1638D9BB288
:1046800033B323685A6912F0040F0AD01A69636AB7
:104690001A70636A01336362638D9BB2013B9BB204
:1046A000638523685A6912F0400F0AD01A69636A59
:1046B0001A70636A01336362638D9BB2013B9BB2E4
:1046C0006385638D9BB21BB1236C43F004032364A9
:1046D000236C13BB2A2D25D094F83D30DBB2282B58
:1046E00029D0236B222B01D0222D19D10023236343
:1046F000202284F83D2084F83E302046FFF7CEFB90
:104700000EE0A36B124A1A65A06BFEF73AFF002871
:10471000B4D0A06B036D9847B0E72046FFF79AFE30
:1047200003B030BD00232363282384F83D302046A6
:10473000FFF7B4FBD0E7074BE3620023236320229B
:1047400084F83D2084F83E302046FFF7F6FBE7E78B
:10475000714300080000FFFFF8B504460268556881
:10476000C66A90F83E30DBB290F83D10102B14D0A2
:10477000C8B2402B11D0236C002B77D05369002195
:1047800013F0020F75D015F4007F72D0236C03B1C3
:1047900091692046FFF7AAFBF8BD9769516911F0AE
:1047A000010005D1B6F52A0FF6D0B6F12A4FF3D0A5
:1047B00010B115F4007F27D111F0080F02D015F4C5
:1047C000007F28D111F0020F02D015F4007F26D10E
:1047D00017F0040F2FD0526812F4006FDCD111F0E3
:1047E000800F05D015F4806F02D011F0040F1AD09D
:1047F00011F0040FD0D015F4007FCDD0102B16D0BF
:104800002046FFF7E5FBC7E72046FFF7EFF9204614
:10481000FFF73CF8C0E72046FFF78CF8BCE72046DE
:10482000FFF79DF8B8E72046FFF72EFCB4E72046D7
:10483000FFF7CAFAB0E7536813F4006FACD111F078
:10484000400F05D015F4806F02D011F0040F09D08D
:1048500011F0040FA0D015F4007F9DD02046FFF783
:104860007BFC99E72046FFF70CFD95E791695369BA
:1048700086E713F0100F02D015F4007F18D121281D
:104880001AD0292818D013F0400F05D015F4806FE6
:1048900002D013F0040F28D013F0040F3FF47CAFC4
:1048A00015F4007F3FF478AF2046FFF76BF973E70C
:1048B0002046FFF78BFE6FE713F0800F05D015F44D
:1048C000806F02D013F0040F0BD013F0040F3FF4ED
:1048D00063AF15F4007F3FF45FAF2046FFF742F966
:1048E0005AE72046FFF7B4FA56E72046FFF7D7FA13
:1048F00052E7F8B5044603685D695F6890F83E20AA
:10490000D2B215F4807F07D017F4807F3CD06FF4CB
:1049100080715961012600E0002615F4007F08D05F
:1049200017F4807F05D046F0020623686FF400710B
:10493000596115F4806F19D017F4807F16D0638DFC
:1049400099B294F83D30DBB2206B202A1ED0236848
:104950006FF48061596146F00406102A01D0402AA4
:1049600004D12268136843F40073136015F4006FD8
:1049700008D017F4807F05D046F0080623686FF44E
:1049800000625A6186B9F8BD0026C6E70029DED16B
:10499000212B05D0292B03D0282BD8D12128D6D1E3
:1049A0002046FFF7CBFAE1E7236C1E43266420463E
:1049B000FFF750FDE7E7000030B4036A23F001037E
:1049C0000362056A4268846924F073040B681C431F
:1049D00025F002058B682B43104DA84203D005F546
:1049E0008065A84205D123F00803CD682B4323F04E
:1049F00004030A4DA84203D005F58065A84205D1FD
:104A000022F440724D6915438A692A4342608461E9
:104A10004A684263036230BC704700BF0000014037
:104A200030B4036A23F480730362036A4268C46982
:104A300024F073040D682C4323F400738D6843EA5B
:104A40000523124DA84203D005F58065A84206D182
:104A500023F40063CD6843EA052323F480630B4D00
:104A6000A84203D005F58065A84207D122F4405240
:104A70004D6942EA05128D6942EA05124260C4613D
:104A80004A68C263036230BC704700BF0000014047
:104A900030B4036A23F480530362036A4468C26932
:104AA00022F4E6420D6842EA052223F400538D68A1
:104AB00043EA0533094DA84203D005F58065A842B5
:104AC00004D124F480444D6944EA85144460C261F1
:104AD0004A680264036230BC704700BF00000140B6
:104AE00030B4036A056A25F001050562846924F083
:104AF000F00444EA021423F00A030B4384610362C6
:104B000030BC704730B4056A25F010050562846931
:104B1000036A24F4704444EA023423F0A00343EA15
:104B200001138461036230BC7047836823F0700313
:104B30000B4343F0070383607047000090F83D305B
:104B4000DBB2012B37D1022380F83D300268D368F5
:104B500043F00103D3600368194A934220D0B3F1B4
:104B6000804F1DD0A2F57C42934219D002F580629D
:104B7000934215D002F58062934211D002F578423B
:104B800093420DD002F57052934209D0A2F59432AF
:104B9000934205D01A6842F001021A600020704763
:104BA0009A6802F00702062A07D01A6842F001024A
:104BB0001A6000207047012070470020704700BF36
:104BC000000001407047704770477047704710B54C
:104BD000044603681A6912F0020F11D0DA6812F065
:104BE000020F0DD06FF002021A61012303770368F0
:104BF0009B6913F0030F70D0FFF7E6FF00232377C4
:104C000023681A6912F0040F12D0DA6812F0040F48
:104C10000ED06FF004021A610223237723689B6988
:104C200013F4407F5FD02046FFF7CEFF00232377A9
:104C300023681A6912F0080F12D0DA6812F0080F10
:104C40000ED06FF008021A61042323772368DB6912
:104C500013F0030F4ED02046FFF7B6FF0023237753
:104C600023681A6912F0100F12D0DA6812F0100FD0
:104C70000ED06FF010021A61082323772368DB69D6
:104C800013F4407F3DD02046FFF79EFF002323779B
:104C900023681A6912F0010F03D0DA6812F0010FCD
:104CA00036D123681A6912F0800F03D0DA6812F047
:104CB000800F34D123681A6912F0400F03D0DA68EC
:104CC00012F0400F32D123681A6912F0200F03D07E
:104CD000DA6812F0200F30D110BDFFF774FF2046C4
:104CE000FFF773FF8AE72046FFF76DFF2046FFF7C7
:104CF0006CFF9BE72046FFF766FF2046FFF765FF46
:104D0000ACE72046FFF75FFF2046FFF75EFFBDE7F9
:104D10006FF001021A612046FDF784FAC1E76FF0D7
:104D200080021A61204600F02AFAC3E76FF04002C1
:104D30001A612046FFF74AFFC5E76FF020021A61AB
:104D4000204600F01BFAC7E70368304A904212D0B1
:104D5000B0F1804F0FD0A2F57C4290420BD002F50B
:104D60008062904207D002F58062904203D002F543
:104D70007842904203D123F070034A681343234AD8
:104D800090422AD0B0F1804F27D0A2F57C429042C9
:104D900023D002F5806290421FD002F580629042DB
:104DA0001BD002F57842904217D002F57052904223
:104DB00013D002F5806290420FD002F580629042DB
:104DC0000BD0A2F59832904207D002F58062904253
:104DD00003D002F58062904203D123F44073CA6885
:104DE000134323F080034A69134303608B68C36253
:104DF0000B688362054B984203D003F580639842A9
:104E000001D10B6903630123436170470000014036
:104E100040B310B5044690F83D30F3B1022384F856
:104E20003D30214651F8040BFFF78EFF012384F833
:104E3000463084F83E3084F83F3084F8403084F8BF
:104E4000413084F8423084F8433084F8443084F8A8
:104E5000453084F83D30002010BD80F83C30FDF72F
:104E60005FFBDBE70120704740B310B5044690F8C4
:104E70003D30F3B1022384F83D30214651F8040B54
:104E8000FFF762FF012384F8463084F83E3084F84F
:104E90003F3084F8403084F8413084F8423084F860
:104EA000433084F8443084F8453084F83D300020A5
:104EB00010BD80F83C30FFF785FEDBE7012070472E
:104EC00030B4036A23F010030362036A4468826902
:104ED00022F4E6420D6842EA052223F020038D68A1
:104EE00043EA0513114DA84203D005F58065A84299
:104EF00006D123F08003CD6843EA051323F0400375
:104F00000A4DA84203D005F58065A84207D124F4D4
:104F100040644D6944EA85048D6944EA850444602F
:104F200082614A688263036230BC704700000140BE
:104F300038B590F83C30012B60D004460D46012373
:104F400080F83C300C2A1AD8DFE802F0071919194A
:104F50001D1919193119191944000068FFF72CFDA2
:104F60002268936943F0080393612268936923F0F0
:104F7000040393612268936929690B4393610020BC
:104F800084F83C0038BD0068FFF79AFF22689369F7
:104F900043F4006393612268936923F4806393610F
:104FA00022689369296943EA01239361E7E700686E
:104FB000FFF736FD2268D36943F00803D361226806
:104FC000D36923F00403D3612268D36929690B43B1
:104FD000D361D4E70068FFF75BFD2268D36943F42F
:104FE0000063D3612268D36923F48063D3612268AC
:104FF000D369296943EA0123D361C0E70220C1E7ED
:1050000010B4846824F47F4442EA03220A43224312
:1050100082605DF8044B704790F83C30012B66D0FD
:1050200010B50446012380F83C30022380F83D305F
:105030000268936823F47F4323F0770393600B683F
:10504000602B40D022D8402B47D00BD9502B0ED10B
:10505000CA6849680068FFF743FD50212068FFF7E0
:1050600064FD04E0202B0CD008D9302B09D001239B
:1050700084F83D30002084F83C0010BD0BB1102BAB
:10508000F5D119462068FFF750FDF0E7702B0ED0E0
:10509000B3F5005FEBD1CB684A6889680068FFF719
:1050A000AFFF2268936843F480439360DFE7CB68E7
:1050B0004A6889680068FFF7A3FF2268936843F095
:1050C00077039360D3E7CA6849680068FFF71AFD61
:1050D00060212068FFF729FDC9E7CA6849680068B0
:1050E000FFF7FEFC40212068FFF71FFDBFE702200D
:1050F0007047000090F83C30012B3BD030B40123C6
:1051000080F83C30022380F83D3003685C689D687D
:1051100024F070040A6822435A600368164A9342D6
:105120001AD0B3F1804F17D0A2F57C42934213D02E
:1051300002F5806293420FD002F5806293420BD059
:1051400002F57842934207D002F57052934203D0A1
:10515000A2F59432934204D125F080054A681543A4
:105160009D60012380F83D30002380F83C301846D4
:1051700030BC704702207047000001407047704704
:105180000268D36823F0C003D360202380F83D3049
:1051900070470268D36823F49073D3600268536940
:1051A00023F001035361036B012B05D0202380F80A
:1051B0003E300023036370470268D36823F0100376
:1051C000D360F3E790F83D30DBB2212B01D0022011
:1051D00070478368B3F5805F17D0036A5A1C026278
:1051E0001A7803685A60C38C9BB2013B9BB2C3849C
:1051F0004BB90268D36823F08003D3600268D36898
:1052000043F04003D360002070470369002BE4D1D2
:10521000036A1B880268C3F308035360036A0233FE
:105220000362E0E770B504460268136923F4405353
:10523000C1680B43136183680269134342691343D6
:10524000C2691A430168CB6823F4164323F00C03A8
:105250001343CB600268536923F4407381690B43A5
:1052600053610368344A934206D002F58062934248
:1052700002D0FDF7F3FE01E0FDF700FFE369B3F5AF
:10528000004F2AD00026051846EB06012D1846EBE4
:105290000101CB0043EA5573EA00154619466368DD
:1052A0009A009B0F281846EB0101FBF777FC234D72
:1052B000A5FB00325109642303FB11031B013233A8
:1052C000A5FB03235B0903F0F00202EB011203F0DC
:1052D0000F03216813448B6070BD0026051846EB50
:1052E00006012D1846EB0101CB0043EA5573EA0095
:1052F0001546194662683346921846EB0303281890
:1053000046EB0101FBF74AFC0C4DA5FB00325109AD
:10531000642303FB1103DB003233A5FB03235B098A
:105320005A0002F4F87202EB011203F0070321683D
:1053300013448B60D0E700BF001001401F85EB5184
:1053400058B310B5044690F83D300BB3242384F8CD
:105350003D302268D36823F40053D3602046FFF722
:1053600061FF2268136923F4904313612268536933
:1053700023F02A0353612268D36843F40053D360B7
:1053800000202064202384F83D3084F83E3010BD96
:1053900080F83C30FDF7B2F9D8E7012070470000F3
:1053A00038B590F83D30DBB2202B31D104460029CE
:1053B00030D0002A30D090F83C30012B2ED0012381
:1053C00080F83C3001628284C28400250564212378
:1053D00080F83D30436B1248D863636B1148186402
:1053E000636B1148D864636B1D6520681346021D0A
:1053F000606BFEF747F823686FF040021A6084F88C
:105400003C502268536943F080035361284600E012
:10541000022038BD0120FCE70120FAE70220F8E76E
:105420002D540008795400088554000808B5034637
:10543000806B1B681B6813F4807F0CD10023C3842E
:105440000268536923F0800353610268D36843F014
:105450004003D36008BDFBF7C7FDFBE708B5016853
:10546000CA6822F04002CA60202280F83D20FBF783
:10547000BBFD002008BD704708B5806BFFF7FBFF40
:1054800008BD704710B5846B23685A6994F83D30A5
:10549000DBB2212B10D023685A6902F0400294F845
:1054A0003E30DBB2222B11D0236C43F01003236477
:1054B0002046FFF7E6FF10BD02F08002002AEAD086
:1054C0000023E3842046FFF75BFEE4E7002AEBD0ED
:1054D0000023E3852046FFF75CFEE5E708B5806B17
:1054E0000023C385C384FFF7CCFF08BD704790F845
:1054F0003E30DBB2222B53D110B504468368B3F59E
:10550000805F30D0A26AB3F5805F04D0002B37D122
:105510002369002B34D123685B681370A36A0133BD
:10552000A362E38D9BB2013B9BB2E385002B39D193
:105530002268D36823F02003D3602268D36823F461
:105540008073D3602268536923F0010353612023E1
:1055500084F83E30236B012B18D02046FBF716FD54
:10556000002020631FE00269002ACBD1826A036811
:105570005B68C3F308031380836A02338362D0E756
:1055800023685B6803F07F031370C7E72268D36862
:1055900023F01003D360A18D2046FFF7A7FFDFE7BC
:1055A00002207047002010BD30B583B00446026869
:1055B0001368D068516913F00F0505D113F0200F5F
:1055C00002D010F0200F19D12DB111F0010119D125
:1055D00010F4907F16D1216B012975D013F0800F44
:1055E00003D010F0800F40F0D88013F0400F03D0AC
:1055F00010F0400F40F0D58003B030BD2046FFF7DB
:1056000076FFF9E713F0010F06D010F4807F03D086
:10561000226C42F00102226413F0040F04D019B18D
:10562000226C42F00202226413F0020F04D019B17E
:10563000226C42F00402226413F0080F07D010F02D
:10564000200F00D119B1226C42F008022264226CB2
:10565000002AD1D013F0200F02D010F0200F21D15A
:1056600023685B6903F04003226C12F0080F00D13D
:1056700023B32046FFF78DFD23685A6912F0400FCF
:1056800018D05A6922F040025A61A36B73B1474A9D
:105690001A65A06BFDF775FF0028ADD0A06B036DF8
:1056A0009847A9E72046FFF722FFD9E72046FFF7F2
:1056B000E8FEA1E72046FFF7E4FE9DE72046FFF75E
:1056C000E0FE0023236497E713F0100F86D010F05C
:1056D000100F83D000230193136801935368019343
:1056E000019B536913F0400F33D0A16B0B685B68CB
:1056F0009BB2002B80D0A08D98427FF67DAFE385D2
:10570000CB69B3F5807F08D1A18DE38D9BB2C91A17
:1057100089B22046FFF7EAFE6EE7D36823F4807370
:10572000D3602268536923F00103536122685369EF
:1057300023F040035361202384F83E300023236389
:105740002268D36823F01003D360A06BFDF7CFFE6F
:10575000DAE7A18DE38D9BB2C91A89B2E38D9BB2C2
:10576000002B3FF449AF00293FF446AFD36823F440
:105770009073D3602268536923F00103536120239F
:1057800084F83E30002323632268D36823F010039B
:10579000D3602046FFF7AAFE2EE72046FFF712FD52
:1057A0002AE72046FFF75AFE26E700BFDD5400082F
:1057B000034681628285C28500201864222283F814
:1057C0003E2083F83C001968CA6842F48072CA60BF
:1057D00019684A6942F001024A611A68D36843F0C5
:1057E0002003D360704708B590F83E30DBB2202B21
:1057F0000DD171B17AB190F83C30012B0DD001235D
:1058000080F83C3000230363FFF7D2FF00E0022062
:1058100008BD0120FCE70120FAE70220F8E70000BC
:10582000054BD3F8882042F47002C3F888204FF06B
:1058300000629A60704700BF00ED00E000F10803CD
:1058400043604FF0FF328260C36003610023036056
:10585000704700230361704743684B609A688A6011
:10586000516099600861036801330360704730B488
:105870000D68B5F1FF3F11D000F108031C465B68CD
:105880001A68AA42FAD963684B6099608C606160BB
:10589000086103680133036030BC70470469F2E7B4
:1058A0000369416882688A60416851605A6882422F
:1058B00006D0002202611A68013A1A60186870471F
:1058C00082685A60F5E770B504461546866B026C2F
:1058D0005AB903681BB100200136A66370BD806809
:1058E00000F0EAFC0023A360F6E76DB9406801F020
:1058F0003DFA226C636813446360A268934219D333
:10590000236863602846E7E7C06801F02FFA226C3D
:105910005142E3689B1AE3602268934202D2A36873
:105920000B44E360022D01D00020D5E726B1013EF3
:105930000020D1E72846CFE70020CDE72DE9F84346
:1059400098B18946174698460446B9B1B8F1020F96
:1059500020D1E36B012B1DD04FF0500383F311884E
:10596000BFF36F8FBFF34F8FFEE74FF0500383F30A
:105970001188BFF36F8FBFF34F8FFEE7036C002BCF
:10598000E4D04FF0500383F31188BFF36F8FBFF360
:105990004F8FFEE701F060F9EFF311864FF05003EF
:1059A00083F31188BFF36F8FBFF34F8FA26BE36B4D
:1059B0009A4202D3B8F1020F29D194F845506DB242
:1059C000A36B2046FBF7A4FF01463A466020FCF794
:1059D00033F9424649462046FFF775FFB5F1FF3FD0
:1059E00008D06B1C5BB284F84530012086F3118827
:1059F000BDE8F883636A0BB90120F7E704F12400DE
:105A000000F00CFC68B177B101203860EEE7204669
:105A1000FBF77EFF01463A466020FCF70DF90020B7
:105A2000E4E70120E2E70120E0E70000084B1B6803
:105A30001B6823B9074B4FF0FF321A607047044BC5
:105A40001B68DB68DB685A68024B1A60704700BF4E
:105A5000781700204C1800202DE9F0478046994621
:105A6000089EDDF824A00A9C276B02F18042013ACF
:105A700007EB820727F0070789B30D4600220F2A9C
:105A800007D8A95CA31883F83410AB5C0BB10132C2
:105A9000F5E7002384F84330062E00D90626E66297
:105AA00066640025A564201DFFF7D3FE04F11800ED
:105AB000FFF7CFFE2461C6F10706A6616462E564C4
:105AC00084F850504A464146384600F06FFF206047
:105AD000BAF1000F01D0CAF80040BDE8F0870023FA
