:020000040800F2
:1000000000000220911F000855080008570800084A
:10001000590800085B0800085D080008000000009F
:10002000000000000000000000000000D11E0008D9
:100030005F08000800000000011F0008651F00089D
:10004000E11F0008E11F0008E11F0008E11F000890
:10005000E11F0008E11F0008E11F0008E11F000880
:10006000E11F0008E11F0008E11F0008E11F000870
:10007000E11F0008E9040008E11F0008E11F000873
:10008000E11F0008E11F0008E11F0008E11F000850
:10009000E11F0008E11F0008E11F0008E11F000840
:1000A000E11F0008E11F0008E11F0008E11F000830
:1000B000E11F0008E11F0008E11F0008E11F000820
:1000C000E11F0008E11F0008E11F0008E11F000810
:1000D000E11F0008E11F0008E11F0008E11F000800
:1000E000E11F0008E11F0008E11F0008E11F0008F0
:1000F000E11F0008E11F0008E11F0008E11F0008E0
:10010000E11F0008E11F0008E11F0008E11F0008CF
:1001100021050008E11F0008E11F00086108000830
:10012000E11F0008E11F0008E11F0008E11F0008AF
:10013000E11F0008E11F0008E11F0008E11F00089F
:10014000E11F0008E11F0008E11F0008E11F00088F
:10015000E11F0008E11F0008E11F0008E11F00087F
:10016000E11F0008E11F0008E11F0008E11F00086F
:10017000E11F0008E11F0008E11F00080000000067
:08018000E11F0008E11F000867
:1001900010B5054C237833B9044B13B10448AFF3C1
:1001A00000800123237010BD0C000020000000001F
:1001B000F420000808B5034B1BB103490348AFF313
:1001C000008008BD0000000010000020F42000089E
:1001D00053B94AB9002908BF00281CBF4FF0FF31AE
:1001E0004FF0FF3000F06EB9ADF1080C6DE904CEB0
:1001F00000F006F8DDF804E0DDE9022304B0704702
:100200002DE9F047089D04468C46002B40F0838082
:100210008A42174647D9B2FA82F242B1C2F12000AF
:1002200024FA00F09140974040EA010C94404FEAD4
:100230001748230CBCFBF8F61FFA87FE08FB16C113
:1002400043EA014306FB0EF1994209D9FB1806F176
:10025000FF3080F01981994240F21681023E3B4402
:100260005B1AA4B2B3FBF8F008FB103344EA034472
:1002700000FB0EFEA64509D93C1900F1FF3380F0C2
:100280000581A64540F2028102383C4440EA06401E
:10029000A4EB0E0400261DB1D4400023C5E90043A1
:1002A0003146BDE8F08702B9FFDEB2FA82F2002AD9
:1002B00050D1CB1B4FEA174E1FFA87F80126B3FB2C
:1002C000FEFC210C0EFB1C3341EA034108FB0CF33E
:1002D0008B4207D979180CF1FF3002D28B4200F221
:1002E000E9808446C91AA3B2B1FBFEF00EFB1011DF
:1002F00043EA014408FB00F8A04507D93C1900F186
:10030000FF3302D2A04500F2D9801846A4EB0804BE
:1003100040EA0C40BFE78B4209D9002D00F0B180C4
:100320000026C5E9000130463146BDE8F087B3FA42
:1003300083F6002E4AD18B4202D3824200F2B8806B
:10034000841A61EB030101208C46002DA8D0C5E979
:10035000004CA5E7C2F1200320FA03F6974001FA0A
:1003600002F04FEA174ED9403043030CB1FBFEF6C2
:100370001FFA87F80EFB161143EA014306FB08F14A
:10038000994204FA02F409D9FB1806F1FF3C80F007
:100390008D80994240F28A80023E3B445B1A81B2D2
:1003A000B3FBFEF00EFB103341EA034100FB08F300
:1003B0008B4207D9791800F1FF3C73D28B4271D977
:1003C00002383944CB1A40EA064678E7C6F1200CD9
:1003D00003FA06F422FA0CF31C4320FA0CF701FA94
:1003E00006F34FEA144E21FA0CF11F433B0CB1FB0C
:1003F000FEF91FFA84F80EFB191143EA014109FBCB
:1004000008FA8A4502FA06F200FA06F308D96118DA
:1004100009F1FF3048D28A4546D9A9F102092144A1
:10042000A1EB0A01BFB2B1FBFEF00EFB101147EACF
:10043000014700FB08F8B84507D9E71900F1FF317B
:100440002ED2B8452CD90238274440EA0940A7EB00
:100450000807A0FB02894F45C64649461AD317D064
:100460005DB1B3EB0E0267EB010707FA0CFCF2403B
:100470004CEA0202F740C5E9002700263146BDE8F4
:10048000F0872E4628460BE70646E9E61846FDE6C5
:100490004345E5D2B8EB020E69EB04010138DFE712
:1004A0000846D2E760468DE78146B9E7664675E7BC
:1004B00030464AE7ACF1020C394413E702383C44B9
:1004C00024E700BF704700BF08B505480268D3683D
:1004D00043F01003D3608022024901F035FB08BDD0
:1004E000FC010020280000207047000000B585B006
:1004F000094B5B6B1B6858680A2201A9C0F1800098
:1005000001F0ACFD4FF47A730A2201A9034801F00F
:10051000AAFA05B05DF804FBFC010020BC01002034
:100520000A4B1B681A6812F0100F00D1704700B513
:1005300083B0002201921A6801925B680193019BCB
:10054000FFF7D4FF03B05DF804FB00BFFC010020FF
:1005500030B595B03022002108A801F081FD0024BB
:100560000394049405940694079401941B4B1A6C0D
:1005700042F080521A641B6C03F080530193019B7C
:100580000294174B1A6842F480421A601B6803F405
:1005900080430293029B012308934FF48033099315
:1005A00002250E954FF480030F9304231093A82285
:1005B00011921295139308A800F0BAF90F23039330
:1005C000049505944FF4A05306934FF4805307937A
:1005D000052103A800F008FC15B030BD003802402A
:1005E0000070004008B500F04FFFFFF7B1FF00F0CA
:1005F00017F800F055F800F087F800F06BF8FFF7F7
:1006000063FFFEE708B50268034B9A4200D008BDBD
:1006100000F054FFFBE700BF0014004070470000EB
:1006200030B589B00024039404940594069407948B
:100630000094194B1A6B42F004021A631A6B02F011
:1006400004020092009A01941A6B42F080021A632D
:100650001A6B02F080020192019A02941A6B42F026
:1006600001021A631B6B03F001030293029B0B4D03
:1006700001224FF40051284600F090FD4FF4005342
:100680000393012304930593069403A9284600F0DD
:100690009FFC09B030BD00BF003802400008024096
:1006A00000B583B000220192094B196B41F400118F
:1006B00019631B6B03F400130193019B05210D20AB
:1006C00000F0A0FE0D2000F0D1FE03B05DF804FBA9
:1006D0000038024008B50A480A4B03604FF4E13382
:1006E000436000238360C36003610C224261836125
:1006F000C36101F089F900B908BDFFF78FFFFBE77F
:10070000FC010020004C004008B50A480A4B036079
:100710004FF41653436000238360C36003610C22CF
:1007200042618361C36101F06FF900B908BDFFF751
:1007300075FFFBE7BC0100200010014030B58BB015
:1007400000230593069307930893099303683B4A94
:10075000934204D03A4A93424BD00BB030BD04468A
:1007600000250195374B1A6C42F400221A641A6C6A
:1007700002F400220192019A02951A6B42F00102E2
:100780001A631B6B03F001030293029B032305937F
:10079000022206920122079208930823099305A9D1
:1007A000294800F015FC2948294B03604FF00063ED
:1007B00043608560C5604FF4806303614561856176
:1007C0004FF48073C3614FF400330362456200F05D
:1007D0006BFD58B91D4B63639C63002205213420D7
:1007E00000F010FE342000F041FEB6E7FFF716FFE0
:1007F000F0E700220392134B596C41F01001596449
:10080000596C01F01001039103990492196B41F0A6
:10081000010119631B6B03F001030493049B4FF464
:10082000C0630593022306930792032308930723CB
:10083000099305A9044800F0CBFB8EE7004C00406B
:100840000010014000380240000002405C0100201E
:10085000406002407047FEE7FEE7FEE7FEE77047B4
:1008600008B5024800F052FE08BD00BF3C0200205F
:1008700000B583B0002200920D4B596C41F48041C9
:100880005964596C01F48041009100990192196CEE
:1008900041F0805119641B6C03F080530193019B5C
:1008A0000F216FF0010000F0ADFD03B05DF804FB17
:1008B0000038024010B588B001460022372000F011
:1008C000A1FD372000F0D2FD00240194144B1A6CD6
:1008D00042F020021A641B6C03F020030193019B79
:1008E00002A903A800F056FB00F034FB43000D48BA
:1008F000A0FB03239B0C013B0B480C4A026040F217
:10090000E732C26043600461846000F021FF10B1EF
:10091000012008B010BD044800F0E3FDF9E700BF76
:100920000038024083DE1B433C02002000140040DC
:10093000002800F0D98170B582B00446036813F036
:10094000010F3BD0A64B9B6803F00C03042B2CD06B
:10095000A34B9B6803F00C03082B21D06368B3F50D
:10096000803F4FD0B3F5A02F52D09D4B1A6822F490
:1009700080321A601A6822F480221A606368002BA1
:1009800050D000F0A7FD0546954B1B6813F4003FBF
:1009900014D100F09FFD401B6428F5D90320AAE183
:1009A0008F4B5B6813F4800FD8D08D4B1B6813F40A
:1009B000003F03D06368002B00F09881236813F098
:1009C000020F54D0864B9B6813F00C0F3ED0844B23
:1009D0009B6803F00C03082B33D0E368002B67D02F
:1009E000804B01221A6000F075FD05467C4B1B68A8
:1009F00013F0020F53D100F06DFD401B0228F5D912
:100A0000032078E1764A136843F480331360B5E736
:100A1000734B1A6842F480221A601A6842F48032DA
:100A20001A60ABE700F056FD05466D4B1B6813F4EA
:100A3000003FC3D000F04EFD401B6428F5D90320D1
:100A400059E1674B5B6813F4800FC6D1644B1B6898
:100A500013F0020F03D0E368012B40F04981604A94
:100A6000136823F0F803216943EAC1031360236884
:100A700013F0080F40D0636963B35B4B01221A6027
:100A800000F028FD0546564B5B6F13F0020F33D183
:100A900000F020FD401B0228F5D903202BE1504A2D
:100AA000136823F0F803216943EAC1031360DEE70A
:100AB0004C4B00221A6000F00DFD0546484B1B68A8
:100AC00013F0020FD3D000F005FD401B0228F5D92A
:100AD000032010E1444B00221A6000F0FBFC0546A5
:100AE0003F4B5B6F13F0020F06D000F0F3FC401B8E
:100AF0000228F5D90320FEE0236813F0040F78D014
:100B0000374B1B6C13F0805F0DD100230193344BE6
:100B10001A6C42F080521A641B6C03F080530193EC
:100B2000019B012500E00025304B1B6813F4807FFA
:100B300021D0A368012B32D0052B36D0284B1A6F59
:100B400022F001021A671A6F22F004021A67A368E2
:100B5000002B34D000F0BEFC0646214B1B6F13F077
:100B6000020F45D100F0B6FC801B41F28833984259
:100B7000F3D90320BFE01D4A136843F48073136068
:100B800000F0A8FC0646194B1B6813F4807FD0D1F7
:100B900000F0A0FC801B0228F5D90320ABE0104A2E
:100BA000136F43F001031367D1E70D4B1A6F42F047
:100BB00004021A671A6F42F001021A67C7E700F0D1
:100BC00089FC0646064B1B6F13F0020F10D000F095
:100BD00081FC801B41F288339842F3D903208AE0DC
:100BE0000038024000004742800E4742007000403B
:100BF000E5B9A369002B7DD0464A926802F00C0249
:100C0000082A51D0022B17D0434B00221A6000F063
:100C100061FC04463F4B1B6813F0007F42D000F09C
:100C200059FC001B0228F5D9032064E0394A136CF3
:100C300023F080531364DCE7374B00221A6000F086
:100C400049FC0546334B1B6813F0007F06D000F0CB
:100C500041FC401B0228F5D903204CE0E369226ADD
:100C60001343626A43EA8213A26A5208013A43EAD2
:100C70000243E26A43EA0263264A5360264B01229A
:100C80001A6000F027FC0446224B1B6813F0007F1B
:100C900006D100F01FFC001B0228F5D903202AE032
:100CA000002028E0002026E0012B26D0194B5B68AD
:100CB00003F48001E269914221D103F03F02216AED
:100CC0008A421ED1616A47F6C0721A408A421AD11E
:100CD00003F44032A16A8A4217D103F07063E26ADA
:100CE000934214D1002006E001207047012002E069
:100CF000012000E0002002B070BD0120FBE70120D0
:100D0000F9E70120F7E70120F5E70120F3E70120EB
:100D1000F1E700BF0038024060004742F8B52F4BB2
:100D20009B6803F00C03042B53D0082B53D12B4B9F
:100D30005A6802F03F025B6813F4800F28D0274BFB
:100D40005B68C3F3881358010021C01A61F10001E8
:100D50008E0146EA906687013C1A66EB0105E900C0
:100D600041EA5471E000C01841F100014B0243EA2E
:100D7000D0534402204619460023FFF729FA174BA7
:100D80005B68C3F3014301335B00B0FBF3F023E086
:100D9000124B5B68C3F388135C010025E41A65F10C
:100DA0000005AE0146EA9466A701381B66EB050113
:100DB000CC0044EA5074C500E81844F100018B02ED
:100DC00043EA90538402204619460023FFF700FAB5
:100DD000D5E7034800E00348F8BD00BF00380240F3
:100DE00000127A000024F400002800F09B8070B507
:100DF0000D4604464F4B1B6803F00F038B4208D28D
:100E0000CBB24C4A1370136803F00F038B4240F0CF
:100E10008B80236813F0020F17D013F0040F04D057
:100E2000454A936843F4E0539360236813F0080F36
:100E300004D0414A936843F4604393603E4A936808
:100E400023F0F003A1680B439360236813F0010FB4
:100E500032D06368012B21D09A1E012A25D9364A47
:100E6000126812F0020F61D033498A6822F003023F
:100E700013438B6000F02EFB06462F4B9B6803F05C
:100E80000C036268B3EB820F16D000F023FB801BCB
:100E900041F288339842F0D9032042E0264A126892
:100EA00012F4003FE0D101203BE0234A126812F027
:100EB000007FD9D1012034E01E4B1B6803F00F03E3
:100EC000AB4207D9EAB21B4B1A701B6803F00F0341
:100ED000AB422DD1236813F0040F06D0164A936855
:100EE00023F4E053E1680B439360236813F0080F89
:100EF00007D0114A936823F46043216943EAC10390
:100F00009360FFF70BFF0C4B9B68C3F303130B4A73
:100F1000D35CD8400A4B18600A4B1868FFF7CAFC2C
:100F2000002070BD012070470120FAE70120F8E79A
:100F30000120F6E7003C024000380240142100087E
:100F40000800002004000020014B1868704700BF13
:100F50000800002008B5FFF7F7FF044B9B68C3F3B8
:100F60008223034AD35CD84008BD00BF003802404A
:100F70002421000808B5FFF7E7FF044B9B68C3F383
:100F80004233034AD35CD84008BD00BF003802405A
:100F9000242100080F2303600B4B9A6802F0030220
:100FA00042609A6802F0F00282609A6802F4E052AD
:100FB000C2609B68DB0803F4E0530361034B1B68CA
:100FC00003F00F030B60704700380240003C024002
:100FD00000230F2B00F2D980F0B583B039E007224F
:100FE00000E00022B2403A430234684E46F8242022
:100FF000674A1468EA4324EA05064F6817F4803FFD
:1010000001D045EA0406624C2660646802EA0406E0
:101010004F6817F4003F01D045EA04065C4C666057
:10102000A46802EA04064F6817F4801F01D045EA5D
:101030000406574CA660E46822404E6816F4001F70
:1010400001D045EA0402524CE26001330F2B00F25A
:101050009A8001229A400C6804EA020532EA0404EC
:10106000F3D14C68661E012E03D9112C01D0122C2D
:1010700012D186685F000324BC4026EA0406CC68CF
:10108000BC4034438460466826EA02064C68C4F3D8
:1010900000129A4032434260C7685E000324B440A5
:1010A000E24327EA04078C68B4403C43C4604C68C0
:1010B000022C01D0122C13D1DF08083750F827E09A
:1010C00003F007044FEA840C0F2404FA0CF42EEA10
:1010D000040E0C6904FA0CF444EA0E0440F82740AC
:1010E000046814404A6802F00302B24022430260DE
:1010F0004A6812F0805FA8D000220192254A546C01
:1011000044F480445464526C02F480420192019A87
:101110009C08A61C1D4A52F8267003F00302960094
:101120000F22B24027EA02071B4A90423FF459AF10
:1011300002F5806290421AD002F58062904218D087
:1011400002F58062904216D002F58062904214D07F
:1011500002F58062904212D002F58062904210D077
:1011600002F5806290423FF43AAF08223AE701224A
:1011700038E7022236E7032234E7042232E7052269
:1011800030E706222EE703B0F0BD7047003801407B
:10119000003C014000380240000002400AB1816179
:1011A000704709048161704730B405682C6824F4E5
:1011B00080242C60046863608368402B05D003683A
:1011C00099600368DA6030BC704703689A6003680E
:1011D000D960F8E710B40368D9B210390C4AA2FB01
:1011E000014212090B4CA25CC2655F2909D923F4A4
:1011F0007F7323F0030304338365806D5DF8044B34
:10120000704723F47F7323F003038365F5E700BF82
:10121000ABAAAAAA0C210008836A826992B9012BA1
:101220000AD0022B02D00BB100207047C36A13F022
:10123000807F28D100207047C36AB3F1C07F24D0DB
:1012400000207047B2F5005F09D0022B25D9032B8F
:1012500025D1C36A13F0807F23D100207047032B70
:1012600003D8DFE803F01404140A00207047C36AAF
:1012700013F0807F0DD100207047C36AB3F1C07FA7
:1012800009D00020704701207047012070470120DD
:1012900070470120704701207047012070470020EF
:1012A000704701207047000070B5044600F012F945
:1012B000002C5BD00546002384F83430022384F8E8
:1012C00035302268136823F00103136023681A681D
:1012D00012F0010F0AD000F0FDF8431B052BF5D9E1
:1012E00020236365032084F8350070BD1A68204808
:1012F00010406168A2680A43E1680A4321690A4311
:1013000061690A43A1690A43E1690A43216A0A4300
:101310000243616A04291ED01A602668756925F0A7
:101320000705636A1D43042B07D1A36A1D43E36AC3
:101330001BB12046FFF770FF90B975612046FFF79B
:1013400049FFE26D3F2393408360002060650123E5
:1013500084F83530C9E7E16A206B01430A43DBE7D3
:1013600040236365012084F83500BEE70120BCE717
:101370003F8010F038B50446856D90F834000128A0
:101380002BD0012084F8340094F83500C0B2012835
:1013900004D0002384F83430022038BD022084F8C1
:1013A0003500002060652046FFF7FEFEE26D3F231A
:1013B0009340AB602268136843F016031360236CFC
:1013C00023B12268136843F008031360226813688E
:1013D00043F0010313600020DFE70220DDE7000097
:1013E000074AD36823F4E0631B041B0C000200F4DB
:1013F000E060034343F0BF6343F40033D3607047BE
:1014000000ED00E030B4174BDB68C3F30223C3F1F7
:101410000704042C28BF04241D1D062D18D9033BE6
:101420004FF0FF3505FA04F421EA0401994005FA6A
:1014300003F322EA0303194300280BDB0901C9B2B5
:1014400000F1604000F5614080F8001330BC704747
:101450000023E5E700F00F000901C9B2024B19545F
:10146000F4E700BF00ED00E014ED00E0002807DB2A
:1014700000F01F02400901239340024A42F8203045
:10148000704700BF00E100E008B50B4B1A6842F45A
:1014900000721A601A6842F480621A601A6842F494
:1014A00080721A600320FFF79BFF0020FFF702FA0B
:1014B000FFF7DEF9002008BD003C0240034A116836
:1014C000034B1B780B441360704700BF7C02002065
:1014D00000000020014B1868704700BF7C0200200C
:1014E00070470268D36843F00103D36002689368D1
:1014F00003F00703062B03D0136843F001031360C6
:1015000000207047704770477047704710B5044619
:1015100003681A6912F0020F11D0DA6812F0020F94
:101520000DD06FF002021A610123037703689B69F3
:1015300013F0030F70D0FFF7E6FF00232377236833
:101540001A6912F0040F12D0DA6812F0040F0ED0EC
:101550006FF004021A610223237723689B6913F456
:10156000407F5FD02046FFF7CEFF0023237723681C
:101570001A6912F0080F12D0DA6812F0080F0ED0B4
:101580006FF008021A61042323772368DB6913F0E4
:10159000030F4ED02046FFF7B6FF002323772368C2
:1015A0001A6912F0100F12D0DA6812F0100F0ED074
:1015B0006FF010021A61082323772368DB6913F4A4
:1015C000407F3DD02046FFF79EFF0023237723680E
:1015D0001A6912F0010F03D0DA6812F0010F36D148
:1015E00023681A6912F0800F03D0DA6812F0800FB6
:1015F00034D123681A6912F0400F03D0DA6812F070
:10160000400F32D123681A6912F0200F03D0DA6834
:1016100012F0200F30D110BDFFF774FF2046FFF706
:1016200073FF8AE72046FFF76DFF2046FFF76CFF48
:101630009BE72046FFF766FF2046FFF765FFACE714
:101640002046FFF75FFF2046FFF75EFFBDE76FF024
:1016500001021A612046FEF7D5FFC1E76FF0800254
:101660001A61204600F08FF8C3E76FF040021A615C
:101670002046FFF74AFFC5E76FF020021A612046B7
:1016800000F080F8C7E700000368304A904212D0AB
:10169000B0F1804F0FD0A2F57C4290420BD002F502
:1016A0008062904207D002F58062904203D002F53A
:1016B0007842904203D123F070034A681343234ACF
:1016C00090422AD0B0F1804F27D0A2F57C429042C0
:1016D00023D002F5806290421FD002F580629042D2
:1016E0001BD002F57842904217D002F5705290421A
:1016F00013D002F5806290420FD002F580629042D2
:101700000BD0A2F59832904207D002F58062904249
:1017100003D002F58062904203D123F44073CA687B
:10172000134323F080034A69134303608B68C36249
:101730000B688362054B984203D003F5806398429F
:1017400001D10B690363012343617047000001402D
:10175000B0B110B5044690F83D3063B1022384F86F
:101760003D30214651F8040BFFF78EFF012384F82A
:101770003D30002010BD80F83C30FFF7B1FEEDE7B2
:1017800001207047704770470268D36823F0C00398
:10179000D360202380F8393070470268D36823F47F
:1017A0009073D3600268536923F0010353612023CF
:1017B00080F83A307047000070B50446026813693B
:1017C00023F44053C1680B431361836802691343D8
:1017D00042691343C2691A430168CB6823F4164374
:1017E00023F00C031343CB600268536923F4407366
:1017F00081690B435361C369B3F5004F36D0036869
:10180000654A934200F09A8002F58062934200F0AC
:101810009580FFF79FFB0026051846EB06012D1863
:1018200046EB0101CB0043EA5573EA001546194621
:1018300063689A009B0F281846EB0101FEF7C8FC6D
:10184000564DA5FB00325109642303FB11031B0114
:101850003233A5FB03235B0903F0F00202EB011214
:1018600003F00F03216813448B6093E003684A4A36
:10187000934233D002F5806293422FD0FFF76AFB88
:101880000026051846EB06012D1846EB0101CB009A
:1018900043EA5573EA0015461946626833469218C2
:1018A00046EB0303281846EB0101FEF791FC3B4D84
:1018B000A5FB00325109642303FB1103DB00323323
:1018C000A5FB03235B095A0002F4F87202EB011234
:1018D00003F00703216813448B605BE0FFF74AFBCA
:1018E0000026051846EB06012D1846EB0101CB003A
:1018F00043EA5573EA001546194662683346921862
:1019000046EB0303281846EB0101FEF761FC234D6B
:10191000A5FB00325109642303FB1103DB003233C2
:10192000A5FB03235B095A0002F4F87202EB0112D3
:1019300003F00703216813448B602BE0FFF71AFBC9
:101940000026051846EB06012D1846EB0101CB00D9
:1019500043EA5573EA001546194663689A009B0FDF
:10196000281846EB0101FEF733FC0C4DA5FB0032B5
:101970005109642303FB11031B013233A5FB03232D
:101980005B0903F0F00202EB011203F00F03216880
:1019900013448B6070BD00BF001001401F85EB51E8
:1019A0002DE9F84305460F4616469946DDF8208096
:1019B0002C68246837EA04030CBF01240024B442D5
:1019C0001FD1B8F1FF3FF3D0B8F1000F05D0FFF7FA
:1019D00081FDA0EB09004045EAD92A68D36823F4C9
:1019E000D073D3602A68536923F001035361202325
:1019F00085F8393085F83A30002385F838300320EF
:101A000000E00020BDE8F88358B310B5044690F814
:101A100039300BB3242384F839302268D36823F497
:101A20000053D3602046FFF7C7FE2268136923F4F2
:101A3000904313612268536923F02A03536122689B
:101A4000D36843F40053D3600020E063202384F87C
:101A5000393084F83A3010BD80F83830FEF76EFE29
:101A6000D8E7012070472DE9F04383B01E4690F877
:101A70003930DBB2202B59D104460D46904600295F
:101A800058D0002A58D090F83830012B56D0012376
:101A900080F838304FF00009C0F83C90212380F8DE
:101AA0003930FFF717FD0746A4F82480A4F82680F4
:101AB00084F8389017E000963B46002280212046AB
:101AC000FFF76EFF00283BD12B882268C3F3080381
:101AD000536023690BB9023505E0013503E015F8C1
:101AE000012B23685A60E38C9BB29BB1E28C92B2CB
:101AF000013A92B2E284A368B3F5805FDBD000962E
:101B00003B46002280212046FFF74AFF0028E6D00E
:101B100003200CE000963B46002240212046FFF7C0
:101B20003FFF78B9202384F8393000E0022003B069
:101B3000BDE8F0830120FAE70120F8E70220F6E78C
:101B40000320F4E70320F2E730B583B0044690F8B1
:101B50003A00C0B220283CD100293DD0002A3DD017
:101B600094F83830012B3BD0012384F83830A1623F
:101B7000A2850025E563222384F83A30636B194877
:101B8000D863636B18481864636B1848D864636B38
:101B90001D65206813460A46011D606BFFF7EAFBCE
:101BA000019523681A6801925A680192019A84F893
:101BB0003850DA6842F48072DA602268536943F080
:101BC000010353612268536943F04003536128467F
:101BD00000E0022003B030BD0120FBE70120F9E75F
:101BE0000220F7E7F31B0008331C00083F1C000825
:101BF000704708B50346806B1B681B6813F4807F31
:101C000013D10023C3850268D36823F48073D360A3
:101C10000268536923F0010353610268536923F09A
:101C200040035361202380F83A30FFF7E1FF08BDFD
:101C3000704708B5806BFFF7FBFF08BD704710B514
:101C4000846B23685A6994F83930DBB2212B10D0A9
:101C500023685A6902F0400294F83A30DBB2222B32
:101C600011D0E36B43F01003E3632046FFF7E6FF78
:101C700010BD02F08002002AEAD00023E38420464F
:101C8000FFF782FDE4E7002AEBD00023E38520463E
:101C9000FFF783FDE5E70000054BD3F8882042F409
:101CA0007002C3F888204FF000629A60704700BF4E
:101CB00000ED00E043684B609A688A60516099606B
:101CC00008610368013303607047036941688268F3
:101CD0008A60416851605A68824206D000220261DF
:101CE0001A68013A1A601868704782685A60F5E706
:101CF000084B1B681B6823B9074B4FF0FF321A6073
:101D00007047044B1B68DB68DB685A68024B1A603B
:101D1000704700BFAC0000204C010020F8B53A4BE2
:101D20001B68002B64D1394B1D6801351D60C5B996
:101D3000374B1B681B6843B14FF0500383F3118886
:101D4000BFF36F8FBFF34F8FFEE7314A1168314BFE
:101D5000186810601960304A136801331360FFF788
:101D6000C7FF2E4B1B68AB4238D900242C4B1B6895
:101D7000DB6A03EB83039A002A4B9B58012B3CD967
:101D800001243AE00124224B1B681B6843B3204B1B
:101D90001B68DB68DE6873689D4226D3371D3846B2
:101DA000FFF793FFB36A1BB106F11800FFF78DFF31
:101DB000F36A01229A401C49086802430A6003EB57
:101DC00083039A00394617481044FFF773FFF26AFD
:101DD000134B1B68DB6A9A42D4D2D4E70024D2E7C3
:101DE0000E4B4FF0FF321A60C0E70C4A1360BDE79C
:101DF0000E4A13680133136000240D4B1B6803B1B6
:101E000001242046F8BD00BF4401002054010020F9
:101E1000AC000020B0000020500100204C01002048
:101E2000A8000020B400002048010020400100204C
:101E300058010020204B1B681BB1204B01221A6067
:101E400070471E4B00221A601D4B1B68B3FA83F3C8
:101E5000DBB2C3F11F0303EB83018A0019498A58DF
:101E600042B94FF0500383F31188BFF36F8FBFF374
:101E70004F8FFEE710B4134903EB830082000A443E
:101E800050684068506003EB8304A2001446083297
:101E9000114488420BD003EB83039A00094B13448F
:101EA0005B68DA68084B1A605DF8044B704740685D
:101EB000044A22445060EEE744010020580100200B
:101EC00048010020B4000020A8000020000000000D
:101ED000074B19680868B0E8F04F80F30988BFF332
:101EE0006F8F4FF0000080F311887047AFF30080D0
:101EF000A80000200000000000000000000000001A
:101F0000EFF30980BFF36F8F154B1A681EF0100FA7
:101F100008BF20ED108A20E9F04F10602DE909007C
:101F20004FF0500080F31188BFF34F8FBFF36F8FD6
:101F3000FFF780FF4FF0000080F3118809BC19689B
:101F40000868B0E8F04F1EF0100F08BFB0EC108A20
:101F500080F30988BFF36F8F704700BFAFF3008035
:101F6000A800002008B54FF0500383F31188BFF399
:101F70006F8FBFF34F8FFFF7D1FE18B1034B4FF0B8
:101F800080521A60002383F3118808BD04ED00E03D
:101F9000DFF834D0002103E00C4B5B584350043190
:101FA0000B480C4B42189A42F6D30B4A02E000232E
:101FB00042F8043B094B9A42F9D3FFF76DFE00F05B
:101FC00011F8FEF70FFB70470000022064210008A3
:101FD000000000200C0000200C00002080020020E7
:101FE000FEE7000070B50D4D0D4C641BA4100026DB
:101FF000A64209D10B4D0C4C00F07CF8641BA410D8
:102000000026A64205D170BD55F8043B984701361D
:10201000EEE755F8043B98470136F2E75C210008EB
:102020005C2100085C21000860210008931E222B1F
:1020300010B50C4604D900230B701C46204610BD79
:102040000A2A09D1002807DA2D230B70404201210A
:10205000214400F00DF8F1E70021F9E7FFF7E6BFB2
:1020600002440346934200D1704703F8011BF9E78D
:10207000F0B51F4C8BB005460B466E4604F1200CA4
:1020800020686168374603C7083464453E46F7D187
:1020900021793971911E2068386022294FF00001A2
:1020A00004D919700B4618460BB0F0BD581E844673
:1020B000B5FBF2F70DF1280E02FB175676440C46DD
:1020C00016F8286C0CF8016F2E46B24201F101019E
:1020D0003D46EDD900225A541919A51AAA42E2DA4E
:1020E00010F8015F0E780670013201F80159F4E72B
:1020F0002C210008F8B500BFF8BC08BC9E4670470C
:0C210000F8B500BFF8BC08BC9E46704754
:10210C00000610160006101600000000000000006B
:10211C000102030406070809000000000102030481
:10212C003031323334353637383961626364656641
:10213C006768696A6B6C6D6E6F70717273747576AB
:08214C007778797A00000000A9
:08215400ACE0FF7F0100000078
:04215C00B5010008C1
:0421600091010008E1
:0C21640001000000100000000024F40046
:0400000508001F913F
:00000001FF
