:020000040800F2
:100000000000022075810008252C0008272C00081C
:10001000292C00082B2C00082D2C000800000000C3
:10002000000000000000000000000000A17E0008A9
:100030002F2C000800000000417F0008A57F000869
:10004000C5810008C5810008C5810008C581000878
:10005000C5810008C5810008C5810008C581000868
:10006000C5810008C5810008C5810008312C000841
:10007000C5810008C5810008C5810008C581000848
:100080007514000885140008C5810008C5810008A2
:10009000C5810008C5810008C5810008C581000828
:1000A000C5810008C5810008C5810008C581000818
:1000B000C5810008C5810008C5810008412C0008E1
:1000C000512C0008C5810008C5810008C5810008C1
:1000D000C5810008612C000841140008C581000892
:1000E000C5810008C5810008C5810008C5810008D8
:1000F000C5810008C5810008C5810008712C000871
:10010000C5810008C5810008C5810008C5810008B7
:10011000C5810008C5810008C5810008812C000840
:10012000C5810008C5810008912C0008C581000820
:10013000C5810008C5810008C5810008C581000887
:10014000C5810008C5810008C5810008C581000877
:10015000C5810008C5810008A12C0008C5810008E0
:10016000C5810008C5810008C5810008C581000857
:10017000C5810008C5810008C58100080000000095
:08018000C5810008C5810008DB
:1001C00010B5054C237833B9044B13B10448AFF391
:1001D00000800123237010BDC8090020000000002A
:1001E00094F2000808B5034B1BB103490348AFF371
:1001F000008008BD00000000CC09002094F2000837
:10020000844641EA000313F003036DD1403A41D321
:1002100051F8043B40F8043B51F8043B40F8043BE0
:1002200051F8043B40F8043B51F8043B40F8043BD0
:1002300051F8043B40F8043B51F8043B40F8043BC0
:1002400051F8043B40F8043B51F8043B40F8043BB0
:1002500051F8043B40F8043B51F8043B40F8043BA0
:1002600051F8043B40F8043B51F8043B40F8043B90
:1002700051F8043B40F8043B51F8043B40F8043B80
:1002800051F8043B40F8043B51F8043B40F8043B70
:10029000403ABDD2303211D351F8043B40F8043B10
:1002A00051F8043B40F8043B51F8043B40F8043B50
:1002B00051F8043B40F8043B103AEDD20C3205D320
:1002C00051F8043B40F8043B043AF9D2043208D018
:1002D000D2071CBF11F8013B00F8013B01D30B888A
:1002E00003806046704700BF082A13D38B078DD068
:1002F00010F003038AD0C3F10403D21ADB071CBF3A
:1003000011F8013B00F8013B80D331F8023B20F8A3
:10031000023B7BE7043AD9D3013A11F8013B00F8DC
:10032000013BF9D20B7803704B7843708B78837064
:100330006046704700000000000000000000000060
:1003400090F800F06DE9024520F007016FF0000C15
:1003500010F0070491F820F040F049804FF00004BD
:100360006FF00700D1E9002391F840F000F1080098
:1003700082FA4CF2A4FA8CF283FA4CF3A2FA8CF3D0
:100380004BBBD1E9022382FA4CF200F10800A4FA37
:100390008CF283FA4CF3A2FA8CF3E3B9D1E904238B
:1003A00082FA4CF200F10800A4FA8CF283FA4CF3C2
:1003B000A2FA8CF37BB9D1E9062301F1200182FA7C
:1003C0004CF200F10800A4FA8CF283FA4CF3A2FA82
:1003D0008CF3002BC6D0002A04BF04301A4612BA90
:1003E000B2FA82F2FDE8024500EBD2007047D1E993
:1003F000002304F00305C4F100004FEAC50514F022
:10040000040F91F840F00CFA05F562EA05021CBFF2
:1004100063EA050362464FF00004A9E7000000000C
:1004200001F0FF01102A2BDB10F0070F08D010F8A5
:10043000013B013A8B422DD010F0070F42B3F6D1A9
:10044000F0B441EA012141EA014122F007047FF0C2
:1004500000070023F0E80256083C85EA010586EA19
:10046000010685FA47F5A3FA87F586FA47F6A5FA55
:1004700087F68EB9EED1F0BC01F0FF0102F0070261
:1004800032B110F8013B013A83EA010313B1F8D10C
:100490000020704701387047002D06BF35460338ED
:1004A000073815F0010F07D1013015F4807F02BF26
:1004B000013015F4C03F0130F0BC0138704700BF77
:1004C00081F0004102E000BF83F0004330B54FEA05
:1004D00041044FEA430594EA050F08BF90EA020F72
:1004E0001FBF54EA000C55EA020C7FEA645C7FEA05
:1004F000655C00F0E2804FEA5454D4EB5555B8BF28
:100500006D420CDD2C4480EA020281EA030382EA98
:10051000000083EA010180EA020281EA0303362D2A
:1005200088BF30BD11F0004F4FEA01314FF4801CFD
:100530004CEA113102D0404261EB410113F0004F0F
:100540004FEA03334CEA133302D0524263EB4303C6
:1005500094EA050F00F0A780A4F10104D5F1200E64
:100560000DDB02FA0EFC22FA05F2801841F10001BF
:1005700003FA0EF2801843FA05F359410EE0A5F193
:1005800020050EF1200E012A03FA0EFC28BF4CF0C4
:10059000020C43FA05F3C01851EBE37101F000457A
:1005A00007D54FF0000EDCF1000C7EEB00006EEB87
:1005B0000101B1F5801F1BD3B1F5001F0CD3490811
:1005C0005FEA30004FEA3C0C04F101044FEA445268
:1005D00012F5800F80F09A80BCF1004F08BF5FEAEF
:1005E000500C50F1000041EB045141EA050130BDCF
:1005F0005FEA4C0C404141EB0101013C28BFB1F5E1
:10060000801FE9D291F0000F04BF01460020B1FA2B
:1006100081F308BF2033A3F10B03B3F120020CDAFE
:100620000C3208DD02F1140CC2F10C0201FA0CF0DC
:1006300021FA02F10CE002F11402D8BFC2F1200C41
:1006400001FA02F120FA0CFCDCBF41EA0C019040F7
:10065000E41AA2BF01EB0451294330BD6FEA040440
:100660001F3C1CDA0C340EDC04F11404C4F120022B
:1006700020FA04F001FA02F340EA030021FA04F33D
:1006800045EA030130BDC4F10C04C4F1200220FA94
:1006900002F001FA04F340EA0300294630BD21FAD2
:1006A00004F0294630BD94F0000F83F4801306BF98
:1006B00081F480110134013D4EE77FEA645C18BF8C
:1006C0007FEA655C29D094EA050F08BF90EA020F23
:1006D00005D054EA000C04BF1946104630BD91EA1B
:1006E000030F1EBF0021002030BD5FEA545C05D11E
:1006F0004000494128BF41F0004130BD14F580045D
:100700003CBF01F5801130BD01F0004545F0FE41D0
:1007100041F470014FF0000030BD7FEA645C1ABF05
:10072000194610467FEA655C1CBF0B46024650EA3C
:10073000013406BF52EA033591EA030F41F4002168
:1007400030BD00BF90F0000F04BF0021704730B5EE
:100750004FF4806404F132044FF000054FF00001C3
:1007600050E700BF90F0000F04BF0021704730B584
:100770004FF4806404F1320410F0004548BF404259
:100780004FF000013EE700BF42004FEAE2014FEAAE
:1007900031014FEA02701FBF12F07F4393F07F4F89
:1007A00081F06051704732F07F4208BF704793F08C
:1007B0007F4F04BF41F40021704730B54FF460749F
:1007C00001F0004521F000411CE700BF50EA0102A2
:1007D00008BF704730B54FF000050AE050EA01024B
:1007E00008BF704730B511F0004502D5404261EBBB
:1007F00041014FF4806404F132045FEA915C3FF4FC
:10080000D8AE4FF003025FEADC0C18BF03325FEA98
:10081000DC0C18BF033202EBDC02C2F1200300FA49
:1008200003FC20FA02F001FA03FE40EA0E0021FA6E
:1008300002F11444BDE600BF70B54FF0FF0C4CF45C
:10084000E06C1CEA11541DBF1CEA135594EA0C0F0E
:1008500095EA0C0F00F0DEF82C4481EA030621EA49
:100860004C5123EA4C5350EA013518BF52EA033584
:1008700041F4801143F4801338D0A0FB02CE4FF036
:100880000005E1FB02E506F00042E0FB03E54FF066
:100890000006E1FB03569CF0000F18BF4EF0010E5E
:1008A000A4F1FF04B6F5007F64F5407404D25FEA5A
:1008B0004E0E6D4146EB060642EAC62141EA55510D
:1008C0004FEAC52040EA5E504FEACE2EB4F1FD0C4F
:1008D00088BFBCF5E06F1ED8BEF1004F08BF5FEACD
:1008E000500E50F1000041EB045170BD06F000467F
:1008F00046EA010140EA020081EA0301B4EB5C042C
:10090000C2BFD4EB0C0541EA045170BD41F4801123
:100910004FF0000E013C00F3AB8014F1360FDEBF48
:10092000002001F0004170BDC4F10004203C35DA24
:100930000C341BDC04F11404C4F1200500FA05F3A7
:1009400020FA04F001FA05F240EA020001F0004248
:1009500021F0004110EBD37021FA04F642EB0601BE
:100960005EEA430E08BF20EAD37070BDC4F10C04E8
:10097000C4F1200500FA04F320FA05F001FA04F2AC
:1009800040EA020001F0004110EBD37041F1000198
:100990005EEA430E08BF20EAD37070BDC4F12005A3
:1009A00000FA05F24EEA020E20FA04F301FA05F20B
:1009B00043EA020321FA04F001F0004121FA04F2B3
:1009C00020EA020000EBD3705EEA430E08BF20EA83
:1009D000D37070BD94F0000F0FD101F000464000BD
:1009E00041EB010111F4801F08BF013CF7D041EA3F
:1009F000060195F0000F18BF704703F00046520043
:100A000043EB030313F4801F08BF013DF7D043EA13
:100A10000603704794EA0C0F0CEA135518BF95EAC9
:100A20000C0F0CD050EA410618BF52EA4306D1D150
:100A300081EA030101F000414FF0000070BD50EA6F
:100A4000410606BF1046194652EA430619D094EAF9
:100A50000C0F02D150EA013613D195EA0C0F05D1E3
:100A600052EA03361CBF104619460AD181EA030137
:100A700001F0004141F0FE4141F470014FF00000EF
:100A800070BD41F0FE4141F4780170BD70B54FF08A
:100A9000FF0C4CF4E06C1CEA11541DBF1CEA13550A
:100AA00094EA0C0F95EA0C0F00F0A7F8A4EB0504EC
:100AB00081EA030E52EA03354FEA013100F08880E3
:100AC0004FEA03334FF0805545EA131343EA1263AC
:100AD0004FEA022245EA111545EA10654FEA002661
:100AE0000EF000419D4208BF964244F1FD0404F51A
:100AF000407402D25B084FEA3202B61A65EB030576
:100B00005B084FEA32024FF480104FF4002CB6EB32
:100B1000020E75EB030E22BFB61A754640EA0C00B2
:100B20005B084FEA3202B6EB020E75EB030E22BFF2
:100B3000B61A754640EA5C005B084FEA3202B6EB33
:100B4000020E75EB030E22BFB61A754640EA9C00F2
:100B50005B084FEA3202B6EB020E75EB030E22BFC2
:100B6000B61A754640EADC0055EA060E18D04FEA80
:100B7000051545EA16754FEA06164FEAC30343EA20
:100B800052734FEAC2025FEA1C1CC0D111F4801FED
:100B90000BD141EA00014FF000004FF0004CB6E7E6
:100BA00011F4801F04BF01430020B4F1FD0C88BF85
:100BB000BCF5E06F3FF6AFAEB5EB030C04BFB6EB90
:100BC000020C5FEA500C50F1000041EB045170BD83
:100BD0000EF0004E4EEA113114EB5C04C2BFD4EBB0
:100BE0000C0541EA045170BD41F480114FF0000E34
:100BF000013C90E645EA060E8DE60CEA135594EAB0
:100C00000C0F08BF95EA0C0F3FF43BAF94EA0C0FB2
:100C10000AD150EA01347FF434AF95EA0C0F7FF427
:100C200025AF104619462CE795EA0C0F06D152EA7B
:100C300003353FF4FDAE1046194622E750EA41065F
:100C400018BF52EA43067FF4C5AE50EA41047FF470
:100C50000DAF52EA43057FF4EBAE12E74FF0FF3CD5
:100C600006E000BF4FF0010C02E000BF4FF0010CA6
:100C70004DF804CD4FEA410C7FEA6C5C4FEA430C1F
:100C800018BF7FEA6C5C1BD001B050EA410C0CBF6E
:100C900052EA430C91EA030F02BF90EA020F0020D0
:100CA000704710F1000F91EA030F58BF994208BF37
:100CB00090422CBFD8176FEAE37040F001007047F4
:100CC0004FEA410C7FEA6C5C02D150EA013C07D14B
:100CD0004FEA430C7FEA6C5CD6D152EA033CD3D096
:100CE0005DF8040B704700BF8446104662468C4690
:100CF0001946634600E000BF01B5FFF7B7FF0028C3
:100D000048BF10F1000F01BD4DF808EDFFF7F4FFEB
:100D10000CBF012000205DF808FB00BF4DF808ED76
:100D2000FFF7EAFF34BF012000205DF808FB00BF99
:100D30004DF808EDFFF7E0FF94BF012000205DF8BB
:100D400008FB00BF4DF808EDFFF7CEFF94BF012070
:100D500000205DF808FB00BF4DF808EDFFF7C4FF69
:100D600034BF012000205DF808FB00BF4FEA410CB2
:100D70007FEA6C5C02D150EA013C0AD14FEA430C95
:100D80007FEA6C5C02D152EA033C02D14FF00000D2
:100D900070474FF0010070474FEA410212F5001210
:100DA00015D211D56FF47873B3EB625212D94FEAB2
:100DB000C12343F0004343EA505311F0004F23FA9C
:100DC00002F018BF404270474FF00000704750EAF1
:100DD000013005D111F0004008BF6FF000407047AE
:100DE0004FF00000704700BF4FEA4102B2F1E0430C
:100DF00024BFB3F5001CDCF1FE5C0DD901F0004C02
:100E00004FEAC0024CEA5070B2F1004F40EB830051
:100E100008BF20F00100704711F0804F21D113F17D
:100E20003872BCBF01F00040704741F480114FEAB6
:100E30005252C2F11802C2F1200C10FA0CF320FA3F
:100E400002F018BF40F001004FEAC1234FEAD3235C
:100E500003FA0CFC40EA0C0023FA02F34FEA4303C6
:100E6000CCE77FEA625307D150EA01331EBF4FF04F
:100E7000FE4040F44000704701F0004040F0FE406A
:100E800040F40000704700BF80F0004002E000BF67
:100E900081F0004142001FBF5FEA410392EA030F65
:100EA0007FEA226C7FEA236C6AD04FEA1262D2EBAF
:100EB0001363C1BFD218414048404140B8BF5B42B4
:100EC000192B88BF704710F0004F40F4000020F04D
:100ED0007F4018BF404211F0004F41F4000121F063
:100EE0007F4118BF494292EA030F3FD0A2F10102AD
:100EF00041FA03FC10EB0C00C3F1200301FA03F1EB
:100F000000F0004302D5494260EB4000B0F5000F0D
:100F100013D3B0F1807F06D340084FEA310102F1CC
:100F20000102FE2A51D2B1F1004F40EBC25008BF7E
:100F300020F0010040EA03007047490040EB000048
:100F4000013A28BFB0F5000FEDD2B0FA80FCACF149
:100F5000080CB2EB0C0200FA0CF0AABF00EBC25076
:100F600052421843BCBFD0401843704792F0000F64
:100F700081F4000106BF80F400000132013BB5E7B7
:100F80004FEA41037FEA226C18BF7FEA236C21D02D
:100F900092EA030F04D092F0000F08BF0846704792
:100FA00090EA010F1CBF0020704712F07F4F04D160
:100FB000400028BF40F00040704712F100723CBF73
:100FC00000F50000704700F0004343F0FE4040F49D
:100FD000000070477FEA226216BF08467FEA23635B
:100FE0000146420206BF5FEA412390EA010F40F446
:100FF000800070474FF0000304E000BF10F0004392
:1010000048BF40425FEA000C08BF704743F0964378
:1010100001464FF000001CE050EA010208BF704793
:101020004FF000030AE000BF50EA010208BF70471A
:1010300011F0004302D5404261EB41015FEA010C2F
:1010400002BF84460146002043F0B64308BFA3F127
:101050008053A3F50003BCFA8CF2083AA3EBC25309
:1010600010DB01FA02FC634400FA02FCC2F1200228
:10107000BCF1004F20FA02F243EB020008BF20F05F
:101080000100704702F1200201FA02FCC2F12002C5
:1010900050EA4C0021FA02F243EB020008BF20EABA
:1010A000DC70704753B94AB9002908BF00281CBF3B
:1010B0004FF0FF314FF0FF3000F06EB9ADF1080C8A
:1010C0006DE904CE00F006F8DDF804E0DDE9022366
:1010D00004B070472DE9F047089D04468C46002B6C
:1010E00040F083808A42174647D9B2FA82F242B171
:1010F000C2F1200024FA00F09140974040EA010C30
:1011000094404FEA1748230CBCFBF8F61FFA87FE01
:1011100008FB16C143EA014306FB0EF1994209D9C7
:10112000FB1806F1FF3080F01981994240F21681D8
:10113000023E3B445B1AA4B2B3FBF8F008FB103349
:1011400044EA034400FB0EFEA64509D93C1900F110
:10115000FF3380F00581A64540F2028102383C440D
:1011600040EA0640A4EB0E0400261DB1D440002343
:10117000C5E900433146BDE8F08702B9FFDEB2FAA7
:1011800082F2002A50D1CB1B4FEA174E1FFA87F884
:101190000126B3FBFEFC210C0EFB1C3341EA03418C
:1011A00008FB0CF38B4207D979180CF1FF3002D2FF
:1011B0008B4200F2E9808446C91AA3B2B1FBFEF06B
:1011C0000EFB101143EA014408FB00F8A04507D9C3
:1011D0003C1900F1FF3302D2A04500F2D980184635
:1011E000A4EB080440EA0C40BFE78B4209D9002D6C
:1011F00000F0B1800026C5E9000130463146BDE867
:10120000F087B3FA83F6002E4AD18B4202D3824292
:1012100000F2B880841A61EB030101208C46002D96
:10122000A8D0C5E9004CA5E7C2F1200320FA03F6D7
:10123000974001FA02F04FEA174ED9403043030CB1
:10124000B1FBFEF61FFA87F80EFB161143EA0143C5
:1012500006FB08F1994204FA02F409D9FB1806F1D9
:10126000FF3C80F08D80994240F28A80023E3B44F0
:101270005B1A81B2B3FBFEF00EFB103341EA03416F
:1012800000FB08F38B4207D9791800F1FF3C73D2B9
:101290008B4271D902383944CB1A40EA064678E7C6
:1012A000C6F1200C03FA06F422FA0CF31C4320FAD0
:1012B0000CF701FA06F34FEA144E21FA0CF11F4322
:1012C0003B0CB1FBFEF91FFA84F80EFB191143EA3F
:1012D000014109FB08FA8A4502FA06F200FA06F310
:1012E00008D9611809F1FF3048D28A4546D9A9F1D9
:1012F00002092144A1EB0A01BFB2B1FBFEF00EFBD3
:10130000101147EA014700FB08F8B84507D9E7196B
:1013100000F1FF312ED2B8452CD90238274440EADB
:101320000940A7EB0807A0FB02894F45C64649467E
:101330001AD317D05DB1B3EB0E0267EB010707FAC2
:101340000CFCF2404CEA0202F740C5E900270026F7
:101350003146BDE8F0872E4628460BE70646E9E60B
:101360001846FDE64345E5D2B8EB020E69EB0401F1
:101370000138DFE70846D2E760468DE78146B9E7E6
:10138000664675E730464AE7ACF1020C394413E78C
:1013900002383C4424E700BF704700BF10B584B05A
:1013A00000230193214B9B6B1B685C68C4F1800494
:1013B0001F4B1B68A3420CD01BD21E4A1A44039237
:1013C000E31A0293002301AA02A91B48006805F052
:1013D000CFFC174B1C60802C25D0019B3BB1174BD9
:1013E0004FF080521A60BFF34F8FBFF36F8F04B07E
:1013F00010BD104A1A440392C3F1800302930023E4
:1014000001AA02A90C48006805F0B2FC002CE0D04B
:10141000084B03930294002301AA02A9064800681E
:1014200005F0A6FCD5E700221A60D6E74C61002043
:10143000E4090020E80900207059002004ED00E0D4
:1014400000B583B00A4B1B681A6812F0100F0BD05E
:10145000002201921A6801925B680193019BFFF7D9
:101460009DFF03B05DF804FB014805F02FF9F8E794
:101470004C61002008B5024B986B02F037FA08BDAA
:101480004C61002008B5024B586B02F02FFA08BDE2
:101490004C61002008B50268034B9A4200D008BD99
:1014A000FFF77CFFFBE700BF0044004000B583B0BE
:1014B00001904FF6FF73012201A9034805F025F8BA
:1014C000019803B05DF804FB0861002070B50C467C
:1014D00016460025B54205DA14F8010BFFF7E6FFC2
:1014E0000135F7E7304670BD10B502F06DFB4201E3
:1014F000C30E121A63F10003990041EA927194003D
:10150000221841F10003D90041EA5271D00002468D
:101510000B460349486A101843F1000110BD00BF93
:101520000014004000B583B0C82006F0CBF84FF49B
:101530007A730A22D0213D4803F052FB18B10020F3
:1015400003B05DF804FB01220092394B7521D020D5
:1015500000F042FD0028F3D0354B1B78682B01D0FA
:101560000020EDE7052006F0ADF8314A8023137026
:101570000123019300926B22D0212C4803F040F903
:1015800008B10020DCE7642006F09CF8284B00221C
:101590001A70012200926B21D02000F045FD002836
:1015A000CED00A2006F08EF8214B03221A700122B9
:1015B00000926B21D02000F037FD0028C0D005201C
:1015C00006F080F81A4B07221A70012200921921A6
:1015D000D02000F029FD0028B2D0052006F072F8D6
:1015E000134B00221A70012200921C21D02000F01F
:1015F0001BFD0028A4D0052006F064F80C4B18222F
:101600001A70012200921B21D02000F00DFD00284D
:1016100096D0052006F056F8054B02221A700122DA
:1016200000923721D02000F0FFFC89E78C5E00207B
:10163000680A002010B582B00446062300930C4BC4
:1016400001223B21D02000F0C7FC78B1084B19786B
:101650005A7842EA012222809978DA7842EA012215
:1016600062801A795B7943EA0223A38002B010BD3D
:101670006C0A002010B582B00446062300930C4B80
:1016800001224321D02000F0A7FC78B1084B197843
:101690005A7842EA012222809978DA7842EA0122D5
:1016A00062801A795B7943EA0223A38002B010BDFD
:1016B0006C0A0020B0F904C007EE10CAB8EEC77A71
:1016C000DFED487A37EE277AB0F902C006EE90CA0D
:1016D000F8EEE66ADFED447A76EEA76AB0F900002C
:1016E00007EE900AF8EEE77A9FED406A77EE867A89
:1016F0009FED3F6A27EE066A82ED026A9FED3D6A22
:1017000026EE866ADFED3C5A67EE255A36EE256AEC
:1017100082ED016A9FED396A67EE867A9FED386A3D
:1017200066EE866A77EEA67ADFED366A27EE267ACF
:1017300077EE877AC2ED007AB1F9002007EE902AA1
:10174000F8EEE77A9FED307A77EEC77AB1F90220AA
:1017500006EE902AF8EEE66A9FED2C7A76EEC76ADE
:10176000B1F9042007EE102AB8EEC77A9FED286A77
:1017700037EE067A9FED276A27EE866ADFED265A56
:1017800066EEA55A36EE256ADFED245A67EE255A35
:1017900036EE256A83ED006A9FED216A27EE866AA0
:1017A000DFED205A66EEA55A36EE256ADFED1E5AA9
:1017B00067EE255A36EE256A83ED016A9FED1B6AB6
:1017C00067EE867A9FED1A6A66EE866A77EEA67AEB
:1017D000DFED186A27EE267A77EE877AC3ED027A74
:1017E000704700BFC395D243D7A3C842AAC16B4478
:1017F000BDC11BBAE0EA1BBA5E898C3688621CBA8E
:10180000435068B380C336360F9CBC414BE529403A
:10181000F2B00E410B248B3AFF7434B55CB7B63688
:10182000CE0042B6E4748A3AF788CF36B6EB123768
:1018300060DF61375E528C3A30B587B04FF47A730F
:101840000A22EE212D4803F0CBF918B100252846D5
:1018500007B030BD04462A491E230B700122EE203A
:1018600000F02AFC05460028F1D00A2005F02AFFE6
:101870000023ADF81430052C1BD804F151014900A8
:10188000C9B21F4B19700223009305AB0122EE2051
:1018900000F0A2FB78B39DF814209DF8153043EAC0
:1018A000022306AA02EB440222F8103C0134E4B2FF
:1018B000E1E7BDF80820D203124B1A6000225A60FB
:1018C000BDF80A201204104B1A6000225A60BDF8BD
:1018D0000C200E4B1A80BDF80E200D4B1A80BDF85F
:1018E00010200C4B1A80BDF812200B4B1A800A20D6
:1018F00005F0E8FEABE70546A9E700BF8C5E0020D7
:10190000930A0020800A0020780A00208A0A00201A
:10191000880A00208E0A00208C0A002010B5044698
:10192000124958230B700122EE2000F0C5FB00B9CC
:1019300010BD0A2005F0C6FE0C4900230B700122E1
:10194000EE2000F0B9FB0028F2D003220849EE2077
:1019500000F092FB0028EBD0054A117853781B0267
:1019600043EA0143927813432360E1E7930A00209E
:10197000900A002010B50446124948230B7001223A
:10198000EE2000F099FB00B910BD0A2005F09AFE88
:101990000C4900230B700122EE2000F08DFB002883
:1019A000F2D003220849EE2000F066FB0028EBD0BD
:1019B000054A117853781B0243EA01439278134396
:1019C0002360E1E7930A0020900A00200000000055
:1019D0002DE9F04F87B0009005A8FFF7CBFF054633
:1019E00018B9284607B0BDE8F08F04A8FFF796FFA6
:1019F00005460028F5D06E4B1B88049AA2EB032203
:101A00004FEAE2796B4B1E88A2FB060106FB091127
:101A1000C40D44EA41244FEAE15C14F5FA639A46A6
:101A20004CF100039B46644B1888A2FB006700FB47
:101A30000977F00940EA4760F911604E336876682B
:101A4000C01846EB01015E4B1E88A2FB062306FB75
:101A50000933160A46EA03661F125A4A1368526887
:101A6000F31847EB0202D146DA465F46B9F5FA6F42
:101A700077F1000762DA04FB0CFEA4FB046707EBB6
:101A80004E074FEA87084FEA860B48EA967E1BEB23
:101A9000060B4EEB07064FEA5B0848EAC67877105C
:101AA00001974FEA9B0E4EEA867EB6100296464E8E
:101AB0004FF0FF37B1457AEB070635DA40F6AC5602
:101AC000A6194FF000044CEB040C06FB0CFCA6FB23
:101AD000066707EB4C074FEAC70BF4004BEA567C4E
:101AE000A41B6CEB070C18EB0408019C44EB0C04E2
:101AF0000194B41947EB070CA4194CEB070C4FEAFF
:101B00008C0B4BEA947BA4000394039CA41B6BEB0B
:101B1000070C660846EACC764FEA6C071EEB060E09
:101B2000029C47EB04040294B0EB0800019C61EBBB
:101B30000401B3EB0E03029C62EB0402059CA4FBC0
:101B4000036704FB0277730D43EAC7237A15181A5B
:101B500062EB0101C00B40EA4140C913FFF764FA90
:101B600007EE100ADFED197AC7EE277A17EE900A12
:101B7000FEF70AFE9FED0A1B41EC100B0BF080FBF9
:101B800053EC102B00201249FEF79EFC06A3D3E96C
:101B90000023FEF751FEFFF727F9009B186020E7AE
:101BA000000000608B5AC83F000000A058A5E54027
:101BB0008E0A00208C0A0020880A0020780A002063
:101BC0008A0A0020800A002024FAFFFF80E6C54729
:101BD0000000F03F30B583B04FF47A730A223C2105
:101BE000124802F0FDFF10B1002003B030BD104DCF
:101BF00078232B70012400942B46224600213C20A0
:101C000000F012FA20232B7000942B462246214626
:101C10003C2000F009FA00232B7000942B4622464A
:101C200002213C2000F000FA2046DEE78C5E002016
:101C3000940A002010B582B00446062300930C4B92
:101C4000012203213C2000F0C7F978B1084B197834
:101C50005A7842EA0122228019795A7942EA01220D
:101C600062809A78DB7843EA0223A38002B010BD39
:101C7000980A0020B0F9003007EE903AF8EEE77AC3
:101C80009FED277A77EE877AB0F9023006EE903A28
:101C9000F8EEE66A9FED237A76EEC76AB0F9043073
:101CA00007EE103AB8EEC77A9FED1F6A37EE467A14
:101CB0009FED1E6A27EE866ADFED1D5A66EEA55A75
:101CC00036EE256ADFED1B5A67EE255A36EE256A99
:101CD00081ED006A9FED186A27EE866ADFED175ADC
:101CE00066EEA55A36EE256ADFED155A67EE255ADF
:101CF00036EE256A81ED016A9FED126A67EE867AFB
:101D00009FED116A66EE866A77EEA67ADFED0F6ABE
:101D100027EE267A77EE877AC1ED027A704700BF08
:101D200009262643064E3A43671A1D438920153B70
:101D3000D59862B78307F838BAB459386FB3113BF6
:101D4000E2E254376DD15C375AA05CB73CD9283BEE
:101D500070B582B0264806F00DFBFFF7E3FB0546A1
:101D60000146244806F0A4FAFFF734FF0646014670
:101D7000214806F09DFAFFF75FFD044601461F4823
:101D800006F096FA05EA0600044014F0FF042AD093
:101D90001B4806F0EFFA002500951A4B1A4A0C2151
:101DA000012004F0DBFE194B18600095184B194A0E
:101DB0000C21012004F0D2FE174B18600095174B40
:101DC000174A0C21012004F0C9FE164B186000953B
:101DD000154B164A0421012004F0C0FE144B186074
:101DE000204602B070BD134806F0C4FAD3E700BF26
:101DF000CCF20008E0F20008F4F2000808F3000852
:101E00001CF30008A00A0020E80A002078590020EE
:101E1000400B0020880B00207C590020940B0020F0
:101E2000DC0B002074590020F40A00203C0B002039
:101E30008059002038F3000838B5044615464FF0A5
:101E4000FF32084B186804F0FBFF4FF0FF322946C1
:101E5000054B186804F0F4FFFFF746FBC4E90001E6
:101E600038BD00BF785900207C59002030B593B0B0
:101E700000231093ADF844300E93ADF83C300C9332
:101E8000ADF8343000220B92089309930A9305931E
:101E90000693079302930393049305F0B3FA01901A
:101EA0000A240D2513E00CA8FFF7C4FE02A90CA814
:101EB000FFF7E0FE0223002202A92048006804F098
:101EC00097FE0D2529E0012101A805F0A9FB10A826
:101ED000FFF7B0FB0EA8FFF7CDFB05AB08AA0EA9D4
:101EE00010A8FFF7E7FB08A9154800F02FFA05A98D
:101EF000144800F02BFA0223002208A912480068B7
:101F000004F076FE0223002205A91048006804F0C0
:101F10006FFE6B1E13F0FF05C5D0631E13F0FF04A8
:101F2000D1D10BA8FFF754FD022300220BA90848CA
:101F3000006804F05DFE0A24C5E700BF7459002064
:101F4000E80B00203C0C0020785900207C59002030
:101F50008059002030B52DED028B85B0002418E0AB
:101F60009FED158AE500C4EBC4029300F3EE0E0A60
:101F7000B0EE480A1148184400F076F92B1B9A007D
:101F8000DFED0F0AB0EE480A0E48104400F06CF97D
:101F90000134022CE4D90C4B02930C4B0193052322
:101FA000009300234FF4807209490A4805F07EF936
:101FB00005B0BDEC028B30BD00007A44E80B002078
:101FC0000000A0423C0C002090100020900C00204B
:101FD00054F300086D1E0008F0B583B004460D46AA
:101FE00016461F4605F092FC0D4B1860BDF82030D8
:101FF0000193009733462A4621460A4802F0E8FC3E
:1020000010B1002003B0F0BD4FF47A71012005F04B
:10201000EDFC012801D00020F4E70120F2E700BF29
:10202000E41000208C5E0020F0B583B004460D461D
:1020300016461F4605F06AFC0D4B1860BDF82030AF
:102040000193009733462A4621460A4802F0D8FBFE
:1020500010B1002003B0F0BD4FF47A71012005F0FB
:10206000C5FC012801D00020F4E70120F2E700BF01
:10207000E41000208C5E002070B504460D46164624
:1020800005F044FC0A4B186033462A4621460948AD
:1020900002F0EEFA08B1002070BD4FF47A71012011
:1020A00005F0A4FC012801D00020F5E70120F3E7AA
:1020B000E41000208C5E002070B504460D461646E4
:1020C00005F024FC0A4B186033462A46214609488D
:1020D00002F006FA08B1002070BD4FF47A710120B9
:1020E00005F084FC012801D00020F5E70120F3E78A
:1020F000E41000208C5E002030B583B000250195EF
:10210000084C01A9206805F0ADFC2560019B3BB19E
:10211000054B4FF080521A60BFF34F8FBFF36F8FA4
:1021200003B030BDE410002004ED00E030B583B012
:1021300000250195084C01A9206805F093FC256055
:10214000019B3BB1054B4FF080521A60BFF34F8F9C
:10215000BFF36F8F03B030BDE410002004ED00E04A
:1021600030B583B000250195084C01A9206805F021
:1021700079FC2560019B3BB1054B4FF080521A6002
:10218000BFF34F8FBFF36F8F03B030BDE41000205B
:1021900004ED00E030B583B000250195084C01A99D
:1021A000206805F05FFC2560019B3BB1054B4FF0BB
:1021B00080521A60BFF34F8FBFF36F8F03B030BDF3
:1021C000E410002004ED00E000B585B0074B029359
:1021D000074B01930223009300234FF480720549BB
:1021E000054805F063F805B05DF804FBEC14002029
:1021F000EC10002060F30008512200080E4B1B7801
:1022000003B1704710B5FFF7A3FD04469FED0B1A0D
:10221000B0EE412ADFED0A1ADFED0A0A9FED0A0A45
:1022200000F0AEF804EA0001C9B2034B1970074888
:1022300006F03EF810BD00BFE8100020ACC52737FF
:1022400017B7D1386F12833A17D91C416CF30008C5
:1022500008B5FFF7D3FFFFF77DFE00F009F94FF057
:10226000FF3005F02FFAFAE7C0B310B50446F5EEDB
:10227000C00AF1EE10FA30D9DFED197A60EEA70A44
:1022800080EE800A0AF0CCFF9FED167A60EE076AB6
:10229000B7EE007A76EE877A20EE000A77EE807A43
:1022A00080EE276A84ED026A76EE065AC4ED035A80
:1022B00084ED046A30EE476A36EE066AC6EE275AA7
:1022C000C4ED005A37EE667A30EE070A80EE277AC0
:1022D00084ED017A00236361A36110BD704700BFE4
:1022E000DB0F4940F304B53FD0ED056AD0ED007A2D
:1022F00066EEA77A70EE677A90ED067A90ED016A45
:1023000027EE066A77EEC67AF0EEE75A9FED0E6A80
:10231000F4EE465AF1EE10FA01D8B0EE670AD0EDAD
:10232000027A67EE807A90ED036A26EE866A77EE8F
:10233000867A90ED046A27EE067AC0ED066A80ED93
:10234000050A37EE870A7047FFFF7F7F38B50546DD
:102350000C4691ED000AFFF7C7FF84ED000A94EDEB
:10236000010A05F11C00FFF7BFFF84ED010A94ED9F
:10237000020A05F13800FFF7B7FF84ED020A38BD05
:10238000F8B52A4A002313605360B1EE400A82ED8B
:10239000020A274C002525606560A560E56025617F
:1023A0006561E56425656565A565E56525664FF0AC
:1023B0007E56A661E36123626362A662E3622363E1
:1023C0006363A663E36323646364A66404F16C0738
:1023D0003B461022114604F164000CF051FF4FF40B
:1023E00080622946384605F013FFE666C4F8B060FF
:1023F000C4F8F4600F4BC4F80432C4F84832C4F88F
:102400008C320D4BC4F8D032C4F81433C4F81833EE
:102410000A4BC4F89C33C4F8E03304F2244423602C
:10242000074805F0A7FF0120F8BD00BF885900202C
:1024300098590020E68AF93C0BD7233C17B7D138CE
:1024400084F30008704700B58BB004F0DBFF019007
:1024500002AA05A908A8FFF7EFFC02AA05A908A887
:10246000FFF7F0FF012101A805F0DAF8F0E700001E
:1024700000B585B0074B0293074B019304230093EB
:1024800000234FF480720549054804F00FFF05B0A2
:102490005DF804FB4019002040150020A0F300085F
:1024A0004724000830B595B03022002108A805F077
:1024B000AFFE0024039404940594069407940194B9
:1024C0001B4B1A6C42F080521A641B6C03F0805351
:1024D0000193019B0294174B1A6842F480421A60E0
:1024E0001B6803F480430293029B012308934FF47B
:1024F0008033099302250E954FF480030F93042334
:102500001093A82211921295139308A800F030FCA2
:102510000F230393049505944FF4A05306934FF4AF
:1025200080530793052103A800F084FE15B030BD49
:10253000003802400070004008B501F01FFBFFF7B3
:10254000B1FF00F01FF800F071F800F045FA00F05C
:10255000CFF900F05BFA00F0DDF8FFF735FE00F090
:10256000C3F805F0EDFAFEE708B50268034B9A429E
:1025700000D008BD01F01CFBFBE700BF00140040C9
:102580007047000030B58BB0002405940694079482
:10259000089409940094234B1A6B42F004021A63C6
:1025A0001A6B02F004020092009A01941A6B42F036
:1025B00080021A631A6B02F080020192019A02945F
:1025C0001A6B42F001021A631A6B02F001020292C6
:1025D000029A03941A6B42F008021A631A6B02F013
:1025E00008020392039A04941A6B42F002021A63DF
:1025F0001B6B03F002030493049B0B4D01224FF469
:102600000051284600F0F4FF4FF4005305930123D6
:1026100006930793089405A9284600F0FFFE0BB027
:1026200030BD00BF003802400008024010B582B043
:1026300000240094224B1A6B42F480021A631A6B36
:1026400002F480020092009A01941A6B42F4001284
:102650001A631B6B03F400130193019B22460521AF
:102660000B2001F049FA0B2001F07AFA22460621EC
:10267000102001F041FA102001F072FA22460621E2
:10268000112001F039FA112001F06AFA22460521E1
:102690002F2001F031FA2F2001F062FA22460A21A0
:1026A0003A2001F029FA3A2001F05AFA22460A218A
:1026B000462001F021FA462001F052FA02B010BD86
:1026C0000038024008B5012005F074FAFBE700006D
:1026D000034B0360034B0B6080231360704700BF04
:1026E000941B00209419002030B589B001AC074D2F
:1026F0000FCD0FC495E8070084E80700002101A86A
:1027000005F023FA024B186009B030BDB0F20008A2
:10271000285E002008B50B480B4B03600B4B436051
:10272000002383601422C2604FF48042026143613F
:102730008361C361036201F0F5FD00B908BDFFF7D5
:102740001FFFFBE78C5E002000540040801A06004B
:1027500070B588B000230393049305930693079301
:102760000268394B9A4201D008B070BD044600257A
:102770000195364E336B43F002033363336B03F042
:1027800002030193019BC023039312230493059535
:10279000032306930423079303A92D4800F03EFE6C
:1027A0000295336C43F400133364336C03F4001369
:1027B0000293029B2748284B03604FF0007343604D
:1027C0008560C5604FF48063036145618561C561C3
:1027D0004FF400330362456200F090FF68BB1D4B6D
:1027E000A3639C631D481E4B03604FF0007343605E
:1027F000402383600023C3604FF480620261436121
:102800008361C3614FF400320262436200F076FFDD
:10281000B0B9124B63639C63002205211F2001F0B5
:102820006BF91F2001F09CF900220521202001F006
:1028300063F9202001F094F996E7FFF7A1FECEE7B7
:10284000FFF79EFEE5E700BF00540040003802405D
:1028500000040240E05E0020106002402C5E002078
:10286000B86002400268094B9A4200D0704782B0BB
:1028700000230193064B1A6C42F004021A641B6C8D
:1028800003F004030193019B02B07047000800406D
:102890000038024000B587B00023019302930393F0
:1028A0000493059302680F4B9A4202D007B05DF87B
:1028B00004FB002300930C4A116B41F008011163E3
:1028C000126B02F008020092009A4FF470420192DB
:1028D0000222029203930493059201A9034800F097
:1028E0009DFDE3E70008004000380240000C024074
:1028F00000B58FB000230A930B930C930D930893AC
:10290000099301930293039304930593069307930A
:102910002F48304A02604360836040F6EF22C26075
:102920000361836103F0FEFA002839D14FF480532C
:102930000A930AA9264803F0F9FB002833D124485A
:1029400003F01CFB002831D100230893099308A948
:102950001F4803F059FC60BB6023019300220292E0
:102960000392059201A91A4803F06CFB20BB0422D4
:102970000DEB0201164803F065FB00BB082201A91C
:10298000134803F05FFBE8B90C2201A9104803F0DB
:1029900059FBD0B90E48FFF77DFF0FB05DF804FB7F
:1029A000FFF7EEFDC2E7FFF7EBFDC8E7FFF7E8FD35
:1029B000CAE7FFF7E5FDCFE7FFF7E2FDD7E7FFF74F
:1029C000DFFDDBE7FFF7DCFDDEE7FFF7D9FDE1E741
:1029D000405F00200008004008B50A480A4B036029
:1029E0004FF4E133436000238360C36003610C2232
:1029F00042618361C36103F059FD00B908BDFFF76F
:102A0000BFFDFBE7086100200010014008B50A483F
:102A10000A4B03604FF4E133436000238360C360DB
:102A200003610C2242618361C36103F03FFD00B981
:102A300008BDFFF7A5FDFBE74C6100200044004006
:102A400030B58BB004460023059306930793089393
:102A500009930368674A934204D0674A934262D05D
:102A60000BB030BD00250195644B5A6C42F010024A
:102A70005A645A6C02F010020192019A02951A6B84
:102A800042F001021A631B6B03F001030293029BE5
:102A90004FF4C0630593022306930795032308931D
:102AA0000723099305A9564800F0B8FC5548564B32
:102AB00003604FF0006343608560C5604FF480633E
:102AC000036145618561C5610562456200F016FEDE
:102AD00018BB4C4BA3639C634C484D4B03604FF0B9
:102AE00000634360402383600023C3604FF480622F
:102AF000026143618361C3610362436200F0FEFDD2
:102B000070B9424B63639C6300220A21252000F0C8
:102B1000F3FF252001F024F8A2E7FFF731FDD8E705
:102B2000FFF72EFDEDE700250395344B1A6C42F4B8
:102B300000321A641A6C02F400320392039A04956C
:102B40001A6B42F001021A631B6B03F0010304933A
:102B5000049B0C23059302230693079503230893F4
:102B60000723099305A9264800F058FC29482A4B59
:102B700003604FF0006343608560C5604FF480637D
:102B80000361456185614FF48073C3614FF4003385
:102B90000362456200F0B2FD28BB1E4BA3639C6339
:102BA0001E481F4B03604FF0006343604023836067
:102BB0000023C3604FF48062026143618361C3619B
:102BC0004FF480320262436200F098FD70B9134BFB
:102BD00063639C6300220621262000F08DFF2620DF
:102BE00000F0BEFF3CE7FFF7CBFCD6E7FFF7C8FCE1
:102BF000EDE700BF001001400044004000380240F3
:102C0000000002404860002040640240E85F00206D
:102C1000B8640240885F002088600240A8600020FD
:102C2000A06002407047FEE7FEE7FEE7FEE7704760
:102C300008B5024800F05AFE08BD00BFE05E002063
:102C400008B5024802F012FE08BD00BF8C5E0020ED
:102C500008B5024802F0D7FE08BD00BF8C5E002018
:102C600008B5024803F032FD08BD00BF086100202E
:102C700008B5024800F03AFE08BD00BF2C5E0020F7
:102C800008B5024803F02DF808BD00BF9061002090
:102C900008B5024800F02AFE08BD00BF48600020C9
:102CA00008B5024800F022FE08BD00BFE85F002022
:102CB00000B583B0002200920D4B596C41F4804165
:102CC0005964596C01F48041009100990192196C8A
:102CD00041F0805119641B6C03F080530193019BF8
:102CE0000F216FF0010000F007FF03B05DF804FB57
:102CF0000038024010B588B001460022372000F0AD
:102D0000FBFE372000F02CFF00240194144B1A6CBA
:102D100042F020021A641B6C03F020030193019B14
:102D200002A903A800F05CFB00F03AFB43000D4849
:102D3000A0FB03239B0C013B0B480C4A026040F2B2
:102D4000E732C26043600461846003F0EBF810B1C5
:102D5000012008B010BD044802F07AFFF9E700BF77
:102D60000038024083DE1B439061002000140040C5
:102D7000002800F0DF8170B582B00446036813F0CC
:102D8000010F3BD0A64B9B6803F00C03042B2CD007
:102D9000A34B9B6803F00C03082B21D06368B3F5A9
:102DA000803F4FD0B3F5A02F52D09D4B1A6822F42C
:102DB00080321A601A6822F480221A606368002B3D
:102DC00050D000F001FF0546954B1B6813F4003FFF
:102DD00014D100F0F9FE401B6428F5D90320B0E1BE
:102DE0008F4B5B6813F4800FD8D08D4B1B6813F4A6
:102DF000003F03D06368002B00F09E81236813F02E
:102E0000020F54D0864B9B6813F00C0F3ED0844BBE
:102E10009B6803F00C03082B33D0E368002B67D0CA
:102E2000804B01221A6000F0CFFE05467C4B1B68E8
:102E300013F0020F53D100F0C7FE401B0228F5D952
:102E400003207EE1764A136843F480331360B5E7CC
:102E5000734B1A6842F480221A601A6842F4803276
:102E60001A60ABE700F0B0FE05466D4B1B6813F42B
:102E7000003FC3D000F0A8FE401B6428F5D9032012
:102E80005FE1674B5B6813F4800FC6D1644B1B682E
:102E900013F0020F03D0E368012B40F04F81604A2A
:102EA000136823F0F803216943EAC1031360236820
:102EB00013F0080F40D0636963B35B4B01221A60C3
:102EC00000F082FE0546564B5B6F13F0020F33D1C4
:102ED00000F07AFE401B0228F5D9032031E1504A68
:102EE000136823F0F803216943EAC1031360DEE7A6
:102EF0004C4B00221A6000F067FE0546484B1B68E9
:102F000013F0020FD3D000F05FFE401B0228F5D96A
:102F1000032016E1444B00221A6000F055FE0546DE
:102F20003F4B5B6F13F0020F06D000F04DFE401BCD
:102F30000228F5D9032004E1236813F0040F78D0A8
:102F4000374B1B6C13F0805F0DD100230193344B82
:102F50001A6C42F080521A641B6C03F08053019388
:102F6000019B012500E00025304B1B6813F4807F96
:102F700021D0A368012B32D0052B36D0284B1A6FF5
:102F800022F001021A671A6F22F004021A67A3687E
:102F9000002B34D000F018FE0646214B1B6F13F0B7
:102FA000020F45D100F010FE801B41F28833984299
:102FB000F3D90320C5E01D4A136843F480731360FE
:102FC00000F002FE0646194B1B6813F4807FD0D137
:102FD00000F0FAFD801B0228F5D90320B1E0104A69
:102FE000136F43F001031367D1E70D4B1A6F42F0E3
:102FF00004021A671A6F42F001021A67C7E700F06D
:10300000E3FD0646064B1B6F13F0020F10D000F0D5
:10301000DBFD801B41F288339842F3D9032090E016
:103020000038024000004742800E474200700040D6
:10303000EDB9A369002B00F08380494A926802F041
:103040000C02082A51D0022B17D0464B00221A60DE
:1030500000F0BAFD0446424B1B6813F0007F42D0DB
:1030600000F0B2FD001B0228F5D9032069E03C4ABC
:10307000136C23F080531364DBE73A4B00221A6091
:1030800000F0A2FD0546364B1B6813F0007F06D00A
:1030900000F09AFD401B0228F5D9032051E0E369B6
:1030A000226A1343626A43EA8213A26A5208013A0F
:1030B00043EA0243E26A43EA0263294A5360294B26
:1030C00001221A6000F080FD0446254B1B6813F0B6
:1030D000007F06D100F078FD001B0228F5D90320FF
:1030E0002FE000202DE000202BE0012B2BD01C4BEB
:1030F0005B6803F48001E269914226D103F03F024C
:10310000216A8A4223D1616A47F6C0721A40B2EB43
:10311000811F1ED103F44031A26A5208013AB1EB7B
:10312000024F18D103F07063E26AB3EB026F14D15F
:10313000002006E001207047012002E0012000E0AD
:10314000002002B070BD0120FBE70120F9E701205B
:10315000F7E70120F5E70120F3E70120F1E700BFE1
:103160000038024060004742F8B52F4B9B6803F0DF
:103170000C03042B53D0082B53D12B4B5A6802F06D
:103180003F025B6813F4800F28D0274B5B68C3F3C2
:10319000881358010021C01A61F100018E0146EA2E
:1031A000906687013C1A66EB0105E90041EA54711B
:1031B000E000C01841F100014B0243EAD053440241
:1031C000204619460023FDF76DFF174B5B68C3F3DC
:1031D000014301335B00B0FBF3F023E0124B5B686B
:1031E000C3F388135C010025E41A65F10005AE0104
:1031F00046EA9466A701381B66EB0501CC0044EA59
:103200005074C500E81844F100018B0243EA905362
:103210008402204619460023FDF744FFD5E7034802
:1032200000E00348F8BD00BF0038024000127A00F9
:103230000024F400002800F09B8070B50D46044681
:103240004F4B1B6803F007038B4208D2CBB24C4AAA
:103250001370136803F007038B4240F08B802368E0
:1032600013F0020F17D013F0040F04D0454A9368EF
:1032700043F4E0539360236813F0080F04D0414AED
:10328000936843F4604393603E4A936823F0F003ED
:10329000A1680B439360236813F0010F32D0636879
:1032A000012B21D09A1E012A25D9364A126812F024
:1032B000020F61D033498A6822F0030213438B6006
:1032C00000F082FC06462F4B9B6803F00C036268FB
:1032D000B3EB820F16D000F077FC801B41F28833ED
:1032E0009842F0D9032042E0264A126812F4003FC7
:1032F000E0D101203BE0234A126812F0007FD9D1CF
:10330000012034E01E4B1B6803F00703AB4207D9D2
:10331000EAB21B4B1A701B6803F00703AB422DD1B6
:10332000236813F0040F06D0164A936823F4E05381
:10333000E1680B439360236813F0080F07D0114A2C
:10334000936823F46043216943EAC1039360FFF764
:103350000BFF0C4B9B68C3F303130B4AD35CD840A1
:103360000A4B18600A4B1868FFF7C4FC002070BDB8
:10337000012070470120FAE70120F8E70120F6E775
:10338000003C024000380240C8F30008080000205A
:1033900004000020014B1868704700BF080000209F
:1033A00008B5FFF7F7FF044B9B68C3F38223034A7A
:1033B000D35CD84008BD00BF00380240D8F30008F5
:1033C00008B5FFF7E7FF044B9B68C3F34233034A9A
:1033D000D35CD84008BD00BF00380240D8F30008D5
:1033E0000F2303600B4B9A6802F0030242609A6855
:1033F00002F0F00282609A6802F4E052C2609B68B8
:10340000DB0803F4E0530361034B1B6803F007037D
:103410000B60704700380240003C024000230F2B35
:1034200000F2DD80F0B482B05DE086685F000324C6
:10343000BC4026EA0406CC68BC403443846046683D
:1034400026EA02064C68C4F300129A4032434260F6
:1034500057E0DC08083450F8247003F007029600A7
:103460000F22B24027EA02070A69B2403A4340F805
:1034700024205AE0072200E00022B2403A430234FE
:10348000574E46F82420574A1468EA4324EA0506B2
:103490004F6817F4803F01D045EA0406514C26607E
:1034A000646802EA04064F6817F4003F01D045EA59
:1034B00004064C4C6660A46802EA04064F6817F4E0
:1034C000801F01D045EA0406464CA660E46822400D
:1034D0004E6816F4001F01D045EA0402414CE26038
:1034E00001330F2B78D801229A400C6804EA0205B8
:1034F00032EA0404F4D14C6804F00304013C012CCA
:1035000093D94A6802F00302032A09D0C4685E0016
:103510000322B24024EA02048A68B2402243C26015
:103520004A6802F00302022A93D004685E00032274
:10353000B24024EA02044A6802F00302B240224385
:1035400002604A6812F0805FCAD000220192264AC7
:10355000546C44F480445464526C02F480420192EE
:10356000019A9C08A61C1E4A52F8267003F003021A
:1035700096000F22B24027EA02071C4A90423FF40D
:103580007BAF02F5806290421AD002F580629042D1
:1035900018D002F58062904216D002F58062904207
:1035A00014D002F58062904212D002F580629042FF
:1035B00010D002F5806290423FF45CAF08225CE7D5
:1035C00001225AE7022258E7032256E7042254E771
:1035D000052252E7062250E702B0F0BC7047704760
:1035E00000380140003C0140003802400000024029
:1035F0000AB18161704709048161704730B4056880
:103600002C6824F480242C60046863608368402B59
:1036100005D0036899600368DA6030BC70470368BE
:103620009A600368D960F8E710B40368D9B210391A
:103630000C4AA2FB014212090B4CA25CC2655F2935
:1036400009D923F47F7323F0030304338365806D6A
:103650005DF8044B704723F47F7323F00303836505
:10366000F5E700BFABAAAAAAC0F30008836A826983
:1036700092B9012B0AD0022B02D00BB10020704767
:10368000C36A13F0807F28D100207047C36AB3F16A
:10369000C07F24D000207047B2F5005F09D0022B14
:1036A00025D9032B25D1C36A13F0807F23D10020B5
:1036B0007047032B03D8DFE803F01404140A00203A
:1036C0007047C36A13F0807F0DD100207047C36A32
:1036D000B3F1C07F09D0002070470120704701205E
:1036E000704701207047012070470120704701207A
:1036F00070470020704701207047000070B50446F5
:1037000000F062FA002C5BD00546002384F83430C8
:10371000022384F835302268136823F00103136014
:1037200023681A6812F0010F0AD000F04DFA431B0B
:10373000052BF5D920236365032084F8350070BD7F
:103740001A68204810406168A2680A43E1680A4389
:1037500021690A4361690A43A1690A43E1690A438D
:10376000216A0A430243616A04291ED01A6026684E
:10377000756925F00705636A1D43042B07D1A36A09
:103780001D43E36A1BB12046FFF770FF90B97561D6
:103790002046FFF749FFE26D3F23934083600020FE
:1037A0006065012384F83530C9E7E16A206B014385
:1037B0000A43DBE740236365012084F83500BEE758
:1037C0000120BCE73F8010F038B50446856D90F8C5
:1037D000340001282BD0012084F8340094F83500FF
:1037E000C0B2012804D0002384F83430022038BD50
:1037F000022084F83500002060652046FFF7FEFEB9
:10380000E26D3F239340AB602268136843F01603D8
:103810001360236C23B12268136843F0080313601C
:103820002268136843F0010313600020DFE70220E1
:10383000DDE770B50446866D00F0C6F994F83530C2
:10384000DBB2022B06D080236365002384F834307A
:10385000012070BD05462268136823F0160313602B
:103860002268536923F080035361236CE3B122681B
:10387000136823F0080313602268136823F0010320
:10388000136023681B6813F0010F11D000F09CF93E
:10389000431B052BF5D920236365002384F83430BE
:1038A000032084F83500D4E7A36C002BDFD1E3E7D5
:1038B000E26D3F239340B360002084F8340001237D
:1038C00084F83530C5E790F83530DBB2022B03D0F1
:1038D0008023436501207047052380F83530026856
:1038E000136823F00103136000207047F0B583B024
:1038F000044600230193724B1D68724BA3FB0535F0
:10390000AD0A876D3E68C26D08239340334210D0E4
:1039100003681A6812F0040F0BD01A6822F0040230
:103920001A60C26D08239340BB60436D43F00103EE
:103930004365E26D01239340334209D02268526906
:1039400012F0800F04D0BB60636D43F00203636527
:10395000E26D04239340334209D02268126812F0CA
:10396000020F04D0BB60636D43F004036365E26D36
:1039700010239340334224D02268126812F0080FBB
:103980001FD0BB6023681A6812F4802F0DD01B680B
:1039900013F4002F04D1236C9BB12046984710E00C
:1039A000A36C73B1204698470BE01A6812F4807F2D
:1039B00003D11A6822F008021A60236C0BB120466A
:1039C0009847E26D20239340334255D02268126815
:1039D00012F0100F50D0BB6094F83530DBB2052BDD
:1039E0000ED023681A6812F4802F33D01B6813F4AA
:1039F000002F2AD1636C002B3ED0204698473BE035
:103A00002268136823F0160313602268536923F0B9
:103A100080035361236CA3B12268136823F0080369
:103A20001360E26D3F239340BB60002384F8343081
:103A3000012384F83530236D002B3FD02046984772
:103A40003CE0A36C002BE7D1EBE7E36BA3B120468E
:103A5000984711E01A6812F4807F09D11A6822F0A1
:103A600010021A60002384F83430012384F83530C2
:103A7000E36B0BB120469847636DFBB1636D13F0A8
:103A8000010F17D0052384F835302268136823F01E
:103A900001031360019B01330193AB4204D82368F7
:103AA0001B6813F0010FF5D1002384F83430012393
:103AB00084F83530E36C0BB12046984703B0F0BD75
:103AC00008000020B5814E1B90F835007047406D0E
:103AD00070470000074AD36823F4E0631B041B0C03
:103AE000000200F4E060034343F0BF6343F400339B
:103AF000D360704700ED00E030B4174BDB68C3F3D0
:103B00000223C3F10704042C28BF04241D1D062D25
:103B100018D9033B4FF0FF3505FA04F421EA0401FC
:103B2000994005FA03F322EA0303194300280BDB4B
:103B30000901C9B200F1604000F5614080F800134E
:103B400030BC70470023E5E700F00F000901C9B25F
:103B5000024B1954F4E700BF00ED00E014ED00E063
:103B6000002807DB00F01F02400901239340024AAE
:103B700042F82030704700BF00E100E008B50B4B71
:103B80001A6842F400721A601A6842F480621A607D
:103B90001A6842F480721A600320FFF79BFF00202E
:103BA000FFF7A8F8FFF784F8002008BD003C0240AA
:103BB000034A1168034B1B780B441360704700BF26
:103BC000D861002000000020014B1868704700BF3A
:103BD000D861002090F83E30DBB2402B10D0036952
:103BE000B3F5804F1BD0036D002B39D1436CC3F369
:103BF000C813026803F0060343F0F0031361704733
:103C0000036D2BB9436C026803F0FE031361704728
:103C1000436C026843F00103DBB21361704790F814
:103C20003D30DBB2212B0FD0436C026843F001031F
:103C3000DBB21361436B6BB1DB6B5BB10268536842
:103C400043F4006353607047436C026803F0FE0363
:103C50001361EFE7836B33B1DB6B002BEED102E036
:103C6000036D012B00D07047436CC3F3C813026887
:103C700003F0060343F0F1031361F4E7436C0268B9
:103C8000DBB21361436B3BB1DB6B2BB10268536852
:103C900043F4006353607047836B002BFBD0DB6BF6
:103CA000002BF3D1F7E710B48BB090F83E30DAB2C6
:103CB000C16A046B90F83D30DBB2222B0BD000239D
:103CC000099303685A6909929B690993099B0BB090
:103CD0005DF8044B7047036D0BB9402A17D0036D94
:103CE0001BB90369B3F5404F19D0438D9BB2002B2C
:103CF00025D1029303685A6902929A690292029A44
:103D00001A6842F400721A6000230365DFE700932B
:103D100003685A6900929B690093009BD7E70023D0
:103D2000019303685A6901929A690192019A1A688B
:103D300042F480721A60036D01330365C7E7438D57
:103D40009BB2012B25D0438D9BB2022B7BD0026806
:103D5000136843F48063136003685A6812F4006FB9
:103D60000ED011F5803F07D0012905D0082903D0D6
:103D7000102901D0202903D15A6842F480525A6098
:103D80000023089303685A6908929B690893089B6B
:103D9000BAE711F5803F11D0082934D0202932D05C
:103DA000122C2ED0042940D002293ED010293CD01C
:103DB0000268136823F4806313603BE002681368B1
:103DC00023F48063136003685A6812F4006F0CD008
:103DD0001A6822F480621A600023039303685A6908
:103DE00003929B690393039B8EE7002204925A6916
:103DF00004929A690492049A1A6842F400721A6052
:103E000082E70129CED00268136823F4806313602F
:103E10000023069303685A6906929A690692069AE5
:103E20001A6842F400721A606EE70268136843F47D
:103E3000806313600023059303685A6905929B69A8
:103E40000593059B60E704290ED002290CD01029A8
:103E50000AD00268136823F4806313600268136851
:103E600043F40063136004E00268136843F4806362
:103E7000136003685A6812F4006F0ED011F5803F8A
:103E800007D0012905D0082903D0102901D0202905
:103E900003D15A6842F480525A60002307930368A2
:103EA0005A6907929B690793079B2DE7438D9BB245
:103EB0005BB1426A036812781A61436A0133436254
:103EC000438D9BB2013B9BB243857047438D9BB2B0
:103ED0005BB103681A69436A1A70436A013343622B
:103EE000438D9BB2013B9BB24385704782B0002358
:103EF00001930E4B1B68DB080D4AA2FB03231B0A30
:103F000003EB83030193019B013B0193019B33B1BD
:103F100003681B6813F4007FF5D1002004E0036CF4
:103F200043F020030364012002B070470800002022
:103F300089B5F81403685A6912F4806F01D1002022
:103F400070476FF480625A6100230363202280F877
:103F50003D2080F83E30026C42F00402026480F89A
:103F60003C3001207047C36AB3F52A0F04D0C36AFE
:103F7000B3F12A4F03D070470123C362704708236F
:103F8000C362F8E72DE9F04107460D4690461E460C
:103F900022E0FFF719FE069BC01AB04200D8DEB936
:103FA00000233B63202287F83D2087F83E303A6C9F
:103FB00042F020023A6487F83C3001201AE03B6866
:103FC0009C6925EA0404A4B2B4FA84F46409A04507
:103FD0000FD1B6F1FF3FDCD1C5F30743012BEED182
:103FE0003B685C6925EA0404A4B2B4FA84F4640969
:103FF000EDE70020BDE8F0812DE9F04105460E46D1
:10400000174698463DE01A6842F400721A602B6821
:104010006FF480625A6100232B63202285F83D20D3
:1040200085F83E302A6C42F004022A6485F83C3060
:10403000012034E0FFF7C8FDA0EB0800B84200D82B
:10404000FFB900232B63202285F83D2085F83E3000
:104050002A6C42F020022A6485F83C3001201EE0E0
:104060002B689C6926EA0404A4B2003C18BF012412
:10407000A4B12B685A6912F4806FC4D1B7F1FF3F25
:10408000D8D1C6F30743012BEAD12B685C6926EA35
:104090000404A4B2003C18BF0124E9E70020BDE8F5
:1040A000F08170B504460D46164623685B6913F02F
:1040B000800F1CD12046FFF73DFFD0B9B5F1FF3F7F
:1040C000F3D0FFF781FD801BA84201D8002DECD171
:1040D00000232363202284F83D2084F83E30226CA4
:1040E00042F02002226484F83C30012000E00020ED
:1040F00070BD0120FCE700002DE9F04385B00446C7
:104100000D4691461F46DDF830800D9E0368196804
:1041100041F4807119600096434600224FF001116E
:10412000FFF730FF60B9236805F0FE051D613346D7
:10413000424626492046FFF75FFF68B1012008E0AC
:1041400023681B6813F4807F02D04FF4007323644C
:10415000032005B0BDE8F0830023039323685A6968
:1041600003929B690393039B324641462046FFF727
:1041700098FF30B9012F0FD123685FFA89F61E61CD
:10418000E7E7236C042B01D00120E2E722681368E3
:1041900043F400731360F7E723684FEA19221A61AA
:1041A000324641462046FFF77CFF20B923685FFA7C
:1041B00089F61E61CDE7236C042B01D00120C8E7EE
:1041C0002268136843F400731360F7E702000100EC
:1041D0002DE9F04784B004460D46164699460C9FDB
:1041E000DDF834800268136843F480631360036869
:1041F000196841F480711960CDF800803B460022B7
:104200004FF00111FFF7BEFE70B95FFA85FA23681F
:1042100005F0FE051D6143463A4641492046FFF739
:10422000EBFE68B1012008E023681B6813F4807F6F
:1042300002D04FF400732364032004B0BDE8F0877C
:104240000023039323685A6903929B690393039B9A
:10425000424639462046FFF724FF80B9B9F1010FE5
:1042600018D12368F6B21E61424639462046FFF750
:1042700018FF68B3236C042B24D00120DDE7236CE6
:10428000042B01D00120D8E72268136843F400739F
:104290001360F7E72368320A1A614246394620461E
:1042A000FFF7FFFE18B92368F6B21E61DCE7236C46
:1042B000042B01D00120C0E72268136843F4007387
:1042C0001360F7E72268136843F400731360D4E7C0
:1042D0002268136843F480731360CDF800803B4676
:1042E00000224FF001112046FFF74CFE68B922680A
:1042F0004AF00103136143463A4609492046FFF755
:104300007BFE002899D0012097E723681B6813F4EF
:10431000807F02D04FF40073236403208DE700BF39
:1043200002000100002800F0CC80F8B5044690F8A7
:104330003D30002B77D0242384F83D302268136869
:1043400023F0010313602268136843F400431360F1
:104350002268136823F400431360FFF721F86268B2
:104360005A4B9A4264D85A4B98428CBF002301237F
:10437000002B40F0A880574DA5FB0035AF0C2668F8
:10438000716821F03F0141EA9541716021680B6A33
:1043900023F03F0365684D4A95424FD87A1C13437A
:1043A0000B622568E96921F44F4121F0FF01636840
:1043B000464A93424CD801385B00B0FBF3F0013021
:1043C00040F6FC73184278D0C0F30B030B43EB614B
:1043D00021680B6823F0C003E269206A024313439B
:1043E0000B6021688B6823F4034323F0FF032269E9
:1043F000E068024313438B602168CB6823F0FF031E
:104400006269A06902431343CB602268136843F0DA
:104410000103136000202064202384F83D302063D2
:1044200084F83E00F8BD80F83C30FEF791F982E751
:10443000294B98428CBF0023012399E74FF49672D1
:1044400002FB07F2254DA5FB025292090132A6E7B5
:10445000A268BAB9461E03EB4307B6FBF7F601366E
:10446000C6F30B06B6FA86F6760946BBC2B9421EFB
:1044700003EB4303B2FBF3F20132C2F30B0242F44B
:104480000043A3E7461E03EB830707EB8707B6FB52
:10449000F7F60136C6F30B06B6FA86F67609E4E7B8
:1044A000421E03EB830303EB8303B2FBF3F20132FF
:1044B000C2F30B0242F4404388E7042386E701235A
:1044C00084E7012070470120ACE700BFA08601000F
:1044D0007F841E0083DE1B43FF083D00D34D621026
:1044E00030B583B005460020019095F83D00C0B27C
:1044F000202840F0AD8059480068C008584CA4FB03
:104500000040000A00EB800000EB80000190019C5D
:10451000013C01940198002851D02868846914F066
:10452000020FF4D195F83C40012C00F09480012456
:1045300085F83C40046814F0010F03D1046844F08E
:10454000010404602C68206820F4006020602120B1
:1045500085F83D00102085F83E00002028646A623E
:104560006B856B8D9BB22B853E4AEA626964002B9A
:104570005AD06B6B002B31D03B4ADA636B6B3B4AF2
:10458000DA646A6B10646A6B50646A6B90646A6B7D
:1045900010652A682B8D1032696A686BFFF714F971
:1045A00050B3202385F83D30002285F83E202B6C47
:1045B00043F010032B6485F83C20012049E00023E0
:1045C0002B63202285F83D2085F83E302A6C42F08E
:1045D00020022A6485F83C3001203AE0202385F847
:1045E0003D30002285F83E202B6C43F080032B6485
:1045F00085F83C2001202CE02A68136843F480638E
:1046000013602A68136843F480731360002385F8ED
:104610003C302A68536843F4407353602A685368F7
:1046200043F40063536011E02A68136843F4806325
:1046300013602A68136843F480731360002385F8BD
:104640003C302A68536843F4E0635360002000E084
:10465000022003B030BD0220FBE700BF08000020AD
:1046600089B5F8140000FFFF755200082F520008AA
:1046700030B583B005460020019095F83D00C0B2EA
:10468000202840F0AD8059480068C008584CA4FB71
:104690000040000A00EB800000EB80000190019CCC
:1046A000013C01940198002851D02868846914F0D5
:1046B000020FF4D195F83C40012C00F094800124C5
:1046C00085F83C40046814F0010F03D1046844F0FD
:1046D000010404602C68206820F40060206022201F
:1046E00085F83D00102085F83E00002028646A62AD
:1046F0006B856B8D9BB22B853E4AEA626964002B09
:104700005AD0AB6B002B31D03B4ADA63AB6B3B4AE0
:10471000DA64AA6B1064AA6B5064AA6B9064AA6BEB
:10472000106529682B8D6A6A1031A86BFFF74CF869
:1047300050B3202385F83D30002285F83E202B6CB5
:1047400043F010032B6485F83C20012049E000234E
:104750002B63202285F83D2085F83E302A6C42F0FC
:1047600020022A6485F83C3001203AE0202385F8B5
:104770003D30002285F83E202B6C43F080032B64F3
:1047800085F83C2001202CE02A68136843F48063FC
:1047900013602A68136843F480731360002385F85C
:1047A0003C302A68536843F4407353602A68536866
:1047B00043F40063536011E02A68136843F4806394
:1047C00013602A68136843F480731360002385F82C
:1047D0003C302A68536843F4E0635360002000E0F3
:1047E000022003B030BD0220FBE700BF080000201C
:1047F00089B5F8140000FFFF755200082F52000819
:104800002DE9F04385B005460E461746984600232D
:104810000393FFF7D9F995F83D30DBB2202B40F038
:10482000C6808146654B1B68DB08654AA2FB0323F3
:104830001B0A03EB830303EB83030393039C013CF9
:104840000394039C002C54D02B689A6912F0020F39
:10485000F4D195F83C20012A00F0AD80012285F8C2
:104860003C201A6812F0010F03D11A6842F00102CD
:104870001A602A68136823F400631360212385F803
:104880003D30402385F83E3000232B640C9B6B6247
:10489000BDF834306B856B8D9BB22B85494AEA623B
:1048A000002B76D06B6B002B32D0474ADA636B6BF0
:1048B000464ADA646A6B002313646A6B53646A6B5A
:1048C00093646A6B13652A682B8D1032696A686B72
:1048D000FEF77AFF50B3202385F83D30002285F89B
:1048E0003E202B6C43F010032B6485F83C20012004
:1048F0005EE000232B63202285F83D2085F83E30C2
:104900002A6C42F020022A6485F83C3001204FE0F6
:10491000202385F83D30002285F83E202B6C43F0A3
:1049200080032B6485F83C20012041E0CDF8049001
:104930002323009343463A4631462846FFF7DCFBE3
:1049400098B9002202922B685969029199690291E3
:10495000029985F83C205A6842F480725A602A68AD
:10496000536843F40063536022E0686BFEF7ABFFCB
:104970006A6B0023D36329680A6822F480620A60A4
:104980002B856B852A68136823F0010313600120CF
:104990000EE0202385F83D30002285F83E202B6C68
:1049A00043F040032B6485F83C20012000E0022006
:1049B00005B0BDE8F0830220FAE700BF0800002040
:1049C00089B5F8140000FFFF755200082F52000847
:1049D0002DE9F04387B005460E4617469846FFF787
:1049E000F3F80023059395F83D30DBB2202B40F01F
:1049F000E5808146754B1B68DB08754AA2FB0323E3
:104A00001B0A03EB830303EB83030593059C013C23
:104A10000594059C002C55D02B689A6912F0020F62
:104A2000F4D195F83C20012A00F0CC80012285F8D1
:104A30003C201A6812F0010F03D11A6842F00102FB
:104A40001A602A68136823F400631360222385F830
:104A50003D30402385F83E3000232B640E9B6B6273
:104A6000BDF83C306B856B8D9BB22B85594AEA6251
:104A7000002B00F08580AB6B002B32D0564ADA63F6
:104A8000AB6B564ADA64AA6B00231364AA6B5364B7
:104A9000AA6B9364AA6B136529682B8D6A6A10311F
:104AA000A86BFEF791FE50B3202385F83D3000221D
:104AB00085F83E202B6C43F010032B6485F83C20D6
:104AC00001207CE000232B63202285F83D2085F81F
:104AD0003E302A6C42F020022A6485F83C300120E6
:104AE0006DE0202385F83D30002285F83E202B6CB8
:104AF00043F080032B6485F83C2001205FE0CDF873
:104B000004902323009343463A4631462846FFF754
:104B10005FFBD8B92B8D012B2CD02A68536843F446
:104B200080535360002203922B685969039199695D
:104B30000391039985F83C205A6842F480725A60C8
:104B40002A68536843F40063536035E0A86BFEF7AE
:104B5000BAFEAA6B0023D36329680A6822F4806234
:104B60000A602B856B852A68136823F001031360A4
:104B7000012024E02A68136823F480631360D1E7DE
:104B8000CDF804902323009343463A463146284605
:104B9000FFF71EFBC0B9002104912B685A690492EB
:104BA0009A690492049A1A6842F400721A602023E7
:104BB00085F83D3085F83C10002000E0022007B069
:104BC000BDE8F0830220FAE70120F8E708000020A2
:104BD00089B5F8140000FFFF755200082F52000835
:104BE0002DE9F04784B00546894692461E46FEF7F9
:104BF000EBFF95F83D30DBB2202B03D0022004B050
:104C0000BDE8F0870746009019230122584928463D
:104C1000FFF7B8F9002840F0A28095F83C30012B4E
:104C200000F09F80012385F83C302B681A6812F051
:104C3000010F03D11A6842F001021A602A68136852
:104C400023F400631360242385F83D3000232B6494
:104C5000A3F58033EB624FF001083FE02B681B683F
:104C600013F4807F02D04FF400732B640320C6E757
:104C7000A02385F83D302A685369C3F34003526985
:104C8000C2F3802295F83D40E4B2A02C09D043B98C
:104C90003AB9FEF799FFC01BB042E9D8002EEAD11D
:104CA000E6E7202385F83D302B685A6912F0020FA1
:104CB00032D11A6842F400721A602B686FF4806275
:104CC0005A6100971923012229492846FFF75AF90A
:104CD00000284AD108F10108D04538D22A68136863
:104CE00043F4807313600097334600224FF00111A4
:104CF0002846FFF747F90028B0D12B6809F0FE02DB
:104D00001A61FEF761FF07462A685369C3F340033F
:104D10005269C2F38022B5E71A6842F400721A6041
:104D2000002303932B685A6903929B690393039BA7
:104D30000097192301220E492846FFF723F990B95D
:104D4000202385F83D30002385F83C3057E72023A9
:104D500085F83D30002385F83C3001204FE70220E4
:104D60004DE702204BE7012049E7012047E700BF5C
:104D70000200100008B5C26A90F83D30DBB2212B6A
:104D800000D008BD438D9BB263B1426A03681278BC
:104D90001A61436A01334362438D9BB2013B9BB26C
:104DA0004385EEE7082A04D0202A02D012F5803F7E
:104DB00013D10268536823F4E063536002681368F8
:104DC00043F40073136000230363202280F83D2026
:104DD00080F83E30FDF7C4F9D3E70268536823F446
:104DE000E063536011230363002380F83E302023E7
:104DF00080F83D30FDF7B4F9C3E7704708B590F887
:104E00003D30DAB2438D9BB283B1416A03680978C1
:104E10001961436A01334362438D9BB2013B9BB2EC
:104E20004385438D9BB20BB9292A00D008BD026887
:104E3000536823F48063536021230363282380F89D
:104E40003D30FFF7DAFFF1E7704708B590F83D30E5
:104E5000DAB2438D9BB283B103681969436A197052
:104E6000436A01334362438D9BB2013B9BB243854E
:104E7000438D9BB20BB92A2A00D008BD0268536843
:104E800023F48063536022230363282380F83D309A
:104E9000FFF7DAFFF1E7704708B590F83D3003F00F
:104EA0002803282B07D003686FF002025A61002301
:104EB00080F83C3008BD0268536823F48063536077
:104EC00011F0040F0BD0002311F0800F09D182895B
:104ED000002180F83C101946FFF7DDFFEAE70123C7
:104EE000F2E7028BF4E7704708B590F83D30DBB28B
:104EF000C26A082A01D0202A01D1282B06D0212BF2
:104F00001ED003686FF480625A6108BD1A4BC362F9
:104F10000268536823F4E063536003686FF48062AF
:104F20005A610268136823F48063136000230363EB
:104F3000202280F83D2080F83E30FFF7D4FFE4E7E0
:104F40000D4BC36221230363202380F83D300023EF
:104F500080F83E300268536823F4E06353600368CE
:104F60006FF480625A610268136823F480631360EF
:104F7000FFF743FFC9E700BF0000FFFF08B590F847
:104F80003D30026D9AB9C36C012B08D0836CC3F31A
:104F9000072302681361036D0133036508BD836C49
:104FA0000268DBB21361036D02330365F6E7DBB21F
:104FB000026D012A23D0026D022AEFD1222B26D0C6
:104FC000428D92B20AB1212B27D0428D92B2002A93
:104FD000E4D1212BE2D10268536823F4E0635360EB
:104FE0000268136843F400731360002303632022F4
:104FF00080F83D2080F83E30FDF798F8CEE7836CCE
:105000000268DBB21361036D01330365C6E7026812
:10501000136843F480731360C0E7426A0368127830
:105020001A61436A01334362438D9BB2013B9BB2D9
:105030004385B3E710B590F83D30DBB290F83E20E1
:10504000D2B2C46A018D09B9212B04D0212B3BD0E7
:10505000402A37D010BD082C04D0202C02D014F5E3
:10506000803F19D10268536823F4E06353600268FB
:10507000136843F40073136000230363202380F854
:105080003D3090F83E30DBB2402B15D0002380F845
:105090003E30FDF765F8DDE70268536823F4E0630E
:1050A000536011230363002380F83E30202380F8EF
:1050B0003D30FDF755F8CDE7002380F83E30FDF791
:1050C00035F8C7E7222BC5D1438D9BB22BB90268B7
:1050D000536823F480635360BCE790F83E30DBB242
:1050E000402B0CD0426A036812781A61436A01337C
:1050F0004362438D9BB2013B9BB24385AAE7FFF716
:105100003DFFA7E708B5C26A438D9BB2042B14D0BC
:10511000438D9BB2032B22D0438D9BB2022B39D0FF
:1051200003681A69436A1A70436A01334362438D04
:105130009BB2013B9BB2438510E00268536823F4A5
:105140008063536003681A69436A1A70436A0133C3
:105150004362438D9BB2013B9BB2438508BD01680E
:105160004B6823F480634B60042A06D0022A04D0E3
:105170000268136823F48063136003681A69436A42
:105180001A70436A01334362438D9BB2013B9BB269
:105190004385E3E7012A0BD0102A09D0042A38D02E
:1051A000022A36D00268136843F40073136004E0E7
:1051B0000268136823F48063136003681A69436A02
:1051C0001A70426A531C4362438D9BB2013B9BB2EF
:1051D000438503681B695370436A01334362438DFF
:1051E0009BB2013B9BB243850268536823F4407332
:1051F0005360202380F83D3090F83E30DBB2402BE6
:105200000DD0002380F83E3012230363FCF7C2FF69
:10521000A4E70268136843F480631360CDE70023BA
:1052200080F83E300363FCF767FF97E7704710B5DF
:10523000846B636B0BB10022DA63A36B0BB10022AA
:10524000DA63FEF744FC022800D110BD226813681F
:1052500023F48063136000236385202284F83D20BB
:1052600084F83E30236C43F0100323642046FFF79C
:10527000DDFFEAE738B5846B94F83D30DBB294F893
:105280003E20D1B2E56A2068426822F44072426052
:10529000626B0AB10020D063A26B0AB10020D06318
:1052A00003F02102212A41D003F02202222A3BD01E
:1052B00094F83E30002B49D0638D9BB2012B58D01F
:1052C0002268536823F44073536015F5803F06D07D
:1052D000082D04D0B5F12A4F01D0202D04D1226829
:1052E000136843F4007313602268536823F48053F7
:1052F00053602268536823F400635360002363857E
:10530000236C002B3BD1202384F83D3094F83E30B1
:10531000DBB2402B37D0002384F83E3012232363C6
:105320002046FCF737FF11E02029C1D121684A68E7
:1053300022F400624A6000226285292B07D02A2BC2
:105340000ED02268536843F44073536038BD212364
:105350002363282384F83D302046FFF74EFDF0E715
:1053600022232363282384F83D302046FFF76CFD79
:10537000E7E72268136823F480631360A0E7204600
:10538000FFF754FFE2E7002384F83E302363204612
:10539000FCF7B2FEDAE790F83D30DBB2222B00D00A
:1053A000704710B50446438D9BB2032B16D9036892
:1053B0001A69436A1A70436A01334362438D9BB290
:1053C000013B9BB24385438D9BB2032B00D010BDA4
:1053D0000268536823F480635360F8E7C26A022AC4
:1053E000F5D0012BF3D8FEF781FD00282ED12268DD
:1053F000136823F4806313602268536823F4E06326
:10540000536023681A69636A1A70636A01336362BE
:10541000638D9BB2013B9BB26385202384F83D30B2
:1054200094F83E30DBB2402B08D0002384F83E30A5
:10543000122323632046FCF7ADFEC8E7002384F85F
:105440003E3023632046FCF757FEC0E722685368CE
:1054500023F4E063536023681A69636A1A70636A0D
:1054600001336362638D9BB2013B9BB26385202352
:1054700084F83D30002384F83E302046FFF7D6FE06
:10548000A5E7704700B583B000230193806B90F8C7
:105490003D20D2B2324B1B68DB083249A1FB03131B
:1054A0001B0A03EB8303C3EBC3030193019B43B1CB
:1054B000019B013B019303681B6813F4007FF5D146
:1054C00003E0036C43F020030364436B0BB1002142
:1054D000D963836B0BB10021D96301680B6823F496
:1054E00080630B6000234385436B0BB1002119657A
:1054F000836B0BB10021196501680B6823F0010370
:105500000B6090F83D30DBB2602B0ED002F0280229
:10551000282A14D0202380F83D30002380F83E3024
:10552000FFF784FE03B05DF804FB202380F83D30D4
:10553000002380F83E300364FFF7A3FFF2E7026820
:10554000136843F0010313600268136843F4806337
:10555000136000230363282380F83D30E0E700BF99
:105560000800002089B5F81410B5044690F83D30C5
:10557000DBB290F83E20D2B2102A36D0402A34D086
:1055800003F02802282A38D02268526812F4006FEB
:1055900007D1602B05D0202384F83D30002384F808
:1055A0003E300023236323685A6812F4006F48D00A
:1055B0005A6822F400625A60626B92F83530DBB2AE
:1055C000012B20D0444B1365606BFEF77CF900285B
:1055D00049D02268136823F001031360202384F864
:1055E0003D30606B036D98473DE0222BC8D12168A8
:1055F0000A6822F400620A60C2E7002323632823BA
:1056000084F83D30CFE7A36B334A1A65A06BFEF7F1
:105610005AF940B323685A6912F0400F05D01A694D
:10562000636A1A70636A013363622268136823F045
:1056300001031360202384F83D30A06B036D98476D
:1056400011E094F83D20D2B2602A1FD05A6912F0BE
:10565000400F05D01A69636A1A70636A0133636286
:105660002046FFF7E3FD236C13F00F0F04D02268F0
:10567000536823F4E063536094F83D30DBB2226C4E
:1056800012F0040F01D0282B18D010BD202284F86E
:105690003D20002222645A6912F0400F05D01A6999
:1056A000636A1A70636A013363622268136823F0C5
:1056B000010313602046FFF7E4FED4E7074BE362E3
:1056C00000232363202284F83D2084F83E302046C6
:1056D000FFF709FCD9E700BF855400080000FFFF71
:1056E00030B583B0044690F83D50EDB2026853687F
:1056F00023F4E06353600023019303685A69019225
:105700001A6842F001021A60019B0268136823F4D0
:105710008063136003685A6812F4006F38D0222D3A
:1057200021D02A2D1FD0426B1268526892B2428556
:10573000428D92B21AB1026C42F0040202645A68BD
:1057400022F400625A60606BFEF7BEF901281FD098
:10575000636B444A1A65606BFEF7B5F8C0B1606BC5
:10576000036D984714E0A26B1268526892B262858A
:10577000628D92B21AB1226C42F0040222645A681D
:1057800022F400625A60A06BFEF79EF9012842D114
:10579000638D9BB233B323685A6912F0040F0AD0A9
:1057A0001A69636A1A70636A01336362638D9BB21C
:1057B000013B9BB2638523685A6912F0400F0AD0FF
:1057C0001A69636A1A70636A01336362638D9BB2FC
:1057D000013B9BB26385638D9BB21BB1236C43F08D
:1057E00004032364236C13BB2A2D25D094F83D3089
:1057F000DBB2282B29D0236B222B01D0222D19D1EB
:1058000000232363202284F83D2084F83E30204684
:10581000FFF71AFB0EE0A36B124A1A65A06BFEF7A6
:1058200052F80028B4D0A06B036D9847B0E720462B
:10583000FFF79AFE03B030BD00232363282384F8CA
:105840003D302046FFF700FBD0E7074BE362002323
:105850002363202284F83D2084F83E302046FFF761
:1058600042FBE7E7855400080000FFFFF8B5044657
:1058700002685568C66A90F83E30DBB290F83D1079
:10588000102B14D0C8B2402B11D0236C002B77D032
:105890005369002113F0020F75D015F4007F72D008
:1058A000236C03B191692046FFF7F6FAF8BD9769BA
:1058B000516911F0010005D1B6F52A0FF6D0B6F105
:1058C0002A4FF3D010B115F4007F27D111F0080F43
:1058D00002D015F4007F28D111F0020F02D015F488
:1058E000007F26D117F0040F2FD0526812F4006FFA
:1058F000DCD111F0800F05D015F4806F02D011F0CB
:10590000040F1AD011F0040FD0D015F4007FCDD0C1
:10591000102B16D02046FFF731FBC7E72046FEF7D5
:1059200022FB2046FEF756F9C0E72046FEF7A6F90F
:10593000BCE72046FEF7B7F9B8E72046FFF77AFB49
:10594000B4E72046FFF716FAB0E7536813F4006F88
:10595000ACD111F0400F05D015F4806F02D011F0DA
:10596000040F09D011F0040FA0D015F4007F9DD0D2
:105970002046FFF7C7FB99E72046FFF70CFD95E7A8
:105980009169536986E713F0100F02D015F4007F78
:1059900018D121281AD0292818D013F0400F05D08B
:1059A00015F4806F02D013F0040F28D013F0040F09
:1059B0003FF47CAF15F4007F3FF478AF2046FEF74C
:1059C00085FA73E72046FFF78BFE6FE713F0800F31
:1059D00005D015F4806F02D013F0040F0BD013F034
:1059E000040F3FF463AF15F4007F3FF45FAF204630
:1059F000FEF75CFA5AE72046FFF700FA56E7204622
:105A0000FFF723FA52E7F8B5044603685D695F685B
:105A100090F83E20D2B215F4807F07D017F4807F33
:105A20003CD06FF480715961012600E0002615F426
:105A3000007F08D017F4807F05D046F00206236867
:105A40006FF40071596115F4806F19D017F4807FDD
:105A500016D0638D99B294F83D30DBB2206B202ACA
:105A60001ED023686FF48061596146F00406102A45
:105A700001D0402A04D12268136843F400731360F4
:105A800015F4006F08D017F4807F05D046F00806A3
:105A900023686FF400625A6186B9F8BD0026C6E734
:105AA0000029DED1212B05D0292B03D0282BD8D1DA
:105AB0002128D6D12046FFF717FAE1E7236C1E43D1
:105AC00026642046FFF750FDE7E7000030B4036A84
:105AD00023F001030362056A4268846924F07304B9
:105AE0000B681C4325F002058B682B43104DA84220
:105AF00003D005F58065A84205D123F00803CD68E1
:105B00002B4323F004030A4DA84203D005F580651A
