:020000040800F2
:1000000000000220656B0008811F0008831F0008A4
:10001000851F0008871F0008891F000800000000D6
:1000200000000000000000000000000091680008CF
:100030008B1F000800000000316900089569000866
:10004000B56B0008B56B0008B56B0008B56B000810
:10005000B56B0008B56B0008B56B0008B56B000800
:10006000B56B0008B56B0008B56B00088D1F000864
:10007000B56B0008B56B0008B56B0008B56B0008E0
:10008000790F0008890F0008B56B0008B56B0008F0
:10009000B56B0008B56B0008B56B0008B56B0008C0
:1000A000B56B0008B56B0008B56B0008B56B0008B0
:1000B000B56B0008B56B0008B56B00089D1F000804
:1000C000AD1F0008B56B0008B56B0008B56B0008E4
:1000D000B56B0008BD1F0008450F0008B56B000890
:1000E000B56B0008B56B0008B56B0008B56B000870
:1000F000B56B0008B56B0008B56B0008CD1F000894
:10010000B56B0008B56B0008B56B0008B56B00084F
:10011000B56B0008B56B0008B56B0008DD1F000863
:10012000B56B0008B56B0008ED1F0008B56B000843
:10013000B56B0008B56B0008B56B0008B56B00081F
:10014000B56B0008B56B0008B56B0008B56B00080F
:10015000B56B0008B56B0008FD1F0008B56B000803
:10016000B56B0008B56B0008B56B0008B56B0008EF
:10017000B56B0008B56B0008B56B00080000000007
:08018000B56B0008B56B000827
:1001900010B5054C237833B9044B13B10448AFF3C1
:1001A00000800123237010BDE0010020000000004A
:1001B0005894000808B5034B1BB103490348AFF33B
:1001C000008008BD00000000E401002058940008F1
:1001D000034613F8012B002AFBD1181A0138704787
:1001E00001F0FF01102A2BDB10F0070F08D010F8E8
:1001F000013B013A8B422DD010F0070F42B3F6D1EC
:10020000F0B441EA012141EA014122F007047FF004
:1002100000070023F0E80256083C85EA010586EA5B
:10022000010685FA47F5A3FA87F586FA47F6A5FA97
:1002300087F68EB9EED1F0BC01F0FF0102F00702A3
:1002400032B110F8013B013A83EA010313B1F8D14E
:100250000020704701387047002D06BF354603382F
:10026000073815F0010F07D1013015F4807F02BF68
:10027000013015F4C03F0130F0BC0138704700BFB9
:1002800081F0004102E000BF83F0004330B54FEA47
:1002900041044FEA430594EA050F08BF90EA020FB4
:1002A0001FBF54EA000C55EA020C7FEA645C7FEA47
:1002B000655C00F0E2804FEA5454D4EB5555B8BF6A
:1002C0006D420CDD2C4480EA020281EA030382EADB
:1002D000000083EA010180EA020281EA0303362D6D
:1002E00088BF30BD11F0004F4FEA01314FF4801C40
:1002F0004CEA113102D0404261EB410113F0004F52
:100300004FEA03334CEA133302D0524263EB430308
:1003100094EA050F00F0A780A4F10104D5F1200EA6
:100320000DDB02FA0EFC22FA05F2801841F1000101
:1003300003FA0EF2801843FA05F359410EE0A5F1D5
:1003400020050EF1200E012A03FA0EFC28BF4CF006
:10035000020C43FA05F3C01851EBE37101F00045BC
:1003600007D54FF0000EDCF1000C7EEB00006EEBC9
:100370000101B1F5801F1BD3B1F5001F0CD3490853
:100380005FEA30004FEA3C0C04F101044FEA4452AA
:1003900012F5800F80F09A80BCF1004F08BF5FEA31
:1003A000500C50F1000041EB045141EA050130BD11
:1003B0005FEA4C0C404141EB0101013C28BFB1F523
:1003C000801FE9D291F0000F04BF01460020B1FA6E
:1003D00081F308BF2033A3F10B03B3F120020CDA41
:1003E0000C3208DD02F1140CC2F10C0201FA0CF01F
:1003F00021FA02F10CE002F11402D8BFC2F1200C84
:1004000001FA02F120FA0CFCDCBF41EA0C01904039
:10041000E41AA2BF01EB0451294330BD6FEA040482
:100420001F3C1CDA0C340EDC04F11404C4F120026D
:1004300020FA04F001FA02F340EA030021FA04F37F
:1004400045EA030130BDC4F10C04C4F1200220FAD6
:1004500002F001FA04F340EA0300294630BD21FA14
:1004600004F0294630BD94F0000F83F4801306BFDA
:1004700081F480110134013D4EE77FEA645C18BFCE
:100480007FEA655C29D094EA050F08BF90EA020F65
:1004900005D054EA000C04BF1946104630BD91EA5D
:1004A000030F1EBF0021002030BD5FEA545C05D160
:1004B0004000494128BF41F0004130BD14F580049F
:1004C0003CBF01F5801130BD01F0004545F0FE4113
:1004D00041F470014FF0000030BD7FEA645C1ABF48
:1004E000194610467FEA655C1CBF0B46024650EA7F
:1004F000013406BF52EA033591EA030F41F40021AB
:1005000030BD00BF90F0000F04BF0021704730B530
:100510004FF4806404F132044FF000054FF0000105
:1005200050E700BF90F0000F04BF0021704730B5C6
:100530004FF4806404F1320410F0004548BF40429B
:100540004FF000013EE700BF42004FEAE2014FEAF0
:1005500031014FEA02701FBF12F07F4393F07F4FCB
:1005600081F06051704732F07F4208BF704793F0CE
:100570007F4F04BF41F40021704730B54FF46074E1
:1005800001F0004521F000411CE700BF50EA0102E4
:1005900008BF704730B54FF000050AE050EA01028D
:1005A00008BF704730B511F0004502D5404261EBFD
:1005B00041014FF4806404F132045FEA915C3FF43E
:1005C000D8AE4FF003025FEADC0C18BF03325FEADB
:1005D000DC0C18BF033202EBDC02C2F1200300FA8C
:1005E00003FC20FA02F001FA03FE40EA0E0021FAB1
:1005F00002F11444BDE600BF70B54FF0FF0C4CF49F
:10060000E06C1CEA11541DBF1CEA135594EA0C0F50
:1006100095EA0C0F00F0DEF82C4481EA030621EA8B
:100620004C5123EA4C5350EA013518BF52EA0335C6
:1006300041F4801143F4801338D0A0FB02CE4FF078
:100640000005E1FB02E506F00042E0FB03E54FF0A8
:100650000006E1FB03569CF0000F18BF4EF0010EA0
:10066000A4F1FF04B6F5007F64F5407404D25FEA9C
:100670004E0E6D4146EB060642EAC62141EA55514F
:100680004FEAC52040EA5E504FEACE2EB4F1FD0C91
:1006900088BFBCF5E06F1ED8BEF1004F08BF5FEA0F
:1006A000500E50F1000041EB045170BD06F00046C1
:1006B00046EA010140EA020081EA0301B4EB5C046E
:1006C000C2BFD4EB0C0541EA045170BD41F4801166
:1006D0004FF0000E013C00F3AB8014F1360FDEBF8B
:1006E000002001F0004170BDC4F10004203C35DA67
:1006F0000C341BDC04F11404C4F1200500FA05F3EA
:1007000020FA04F001FA05F240EA020001F000428A
:1007100021F0004110EBD37021FA04F642EB060100
:100720005EEA430E08BF20EAD37070BDC4F10C042A
:10073000C4F1200500FA04F320FA05F001FA04F2EE
:1007400040EA020001F0004110EBD37041F10001DA
:100750005EEA430E08BF20EAD37070BDC4F12005E5
:1007600000FA05F24EEA020E20FA04F301FA05F24D
:1007700043EA020321FA04F001F0004121FA04F2F5
:1007800020EA020000EBD3705EEA430E08BF20EAC5
:10079000D37070BD94F0000F0FD101F000464000FF
:1007A00041EB010111F4801F08BF013CF7D041EA81
:1007B000060195F0000F18BF704703F00046520085
:1007C00043EB030313F4801F08BF013DF7D043EA56
:1007D0000603704794EA0C0F0CEA135518BF95EA0C
:1007E0000C0F0CD050EA410618BF52EA4306D1D193
:1007F00081EA030101F000414FF0000070BD50EAB2
:10080000410606BF1046194652EA430619D094EA3B
:100810000C0F02D150EA013613D195EA0C0F05D125
:1008200052EA03361CBF104619460AD181EA030179
:1008300001F0004141F0FE4141F470014FF0000031
:1008400070BD41F0FE4141F4780170BD70B54FF0CC
:10085000FF0C4CF4E06C1CEA11541DBF1CEA13554C
:1008600094EA0C0F95EA0C0F00F0A7F8A4EB05042E
:1008700081EA030E52EA03354FEA013100F0888025
:100880004FEA03334FF0805545EA131343EA1263EE
:100890004FEA022245EA111545EA10654FEA0026A3
:1008A0000EF000419D4208BF964244F1FD0404F55C
:1008B000407402D25B084FEA3202B61A65EB0305B8
:1008C0005B084FEA32024FF480104FF4002CB6EB75
:1008D000020E75EB030E22BFB61A754640EA0C00F5
:1008E0005B084FEA3202B6EB020E75EB030E22BF35
:1008F000B61A754640EA5C005B084FEA3202B6EB76
:10090000020E75EB030E22BFB61A754640EA9C0034
:100910005B084FEA3202B6EB020E75EB030E22BF04
:10092000B61A754640EADC0055EA060E18D04FEAC2
:10093000051545EA16754FEA06164FEAC30343EA62
:1009400052734FEAC2025FEA1C1CC0D111F4801F2F
:100950000BD141EA00014FF000004FF0004CB6E728
:1009600011F4801F04BF01430020B4F1FD0C88BFC7
:10097000BCF5E06F3FF6AFAEB5EB030C04BFB6EBD2
:10098000020C5FEA500C50F1000041EB045170BDC5
:100990000EF0004E4EEA113114EB5C04C2BFD4EBF2
:1009A0000C0541EA045170BD41F480114FF0000E76
:1009B000013C90E645EA060E8DE60CEA135594EAF2
:1009C0000C0F08BF95EA0C0F3FF43BAF94EA0C0FF5
:1009D0000AD150EA01347FF434AF95EA0C0F7FF46A
:1009E00025AF104619462CE795EA0C0F06D152EABE
:1009F00003353FF4FDAE1046194622E750EA4106A2
:100A000018BF52EA43067FF4C5AE50EA41047FF4B2
:100A10000DAF52EA43057FF4EBAE12E74FF0FF3C17
:100A200006E000BF4FF0010C02E000BF4FF0010CE8
:100A30004DF804CD4FEA410C7FEA6C5C4FEA430C61
:100A400018BF7FEA6C5C1BD001B050EA410C0CBFB0
:100A500052EA430C91EA030F02BF90EA020F002012
:100A6000704710F1000F91EA030F58BF994208BF79
:100A700090422CBFD8176FEAE37040F00100704736
:100A80004FEA410C7FEA6C5C02D150EA013C07D18D
:100A90004FEA430C7FEA6C5CD6D152EA033CD3D0D8
:100AA0005DF8040B704700BF8446104662468C46D2
:100AB0001946634600E000BF01B5FFF7B7FF002805
:100AC00048BF10F1000F01BD4DF808EDFFF7F4FF2E
:100AD0000CBF012000205DF808FB00BF4DF808EDB9
:100AE000FFF7EAFF34BF012000205DF808FB00BFDC
:100AF0004DF808EDFFF7E0FF94BF012000205DF8FE
:100B000008FB00BF4DF808EDFFF7CEFF94BF0120B2
:100B100000205DF808FB00BF4DF808EDFFF7C4FFAB
:100B200034BF012000205DF808FB00BF4FEA410CF4
:100B30007FEA6C5C02D150EA013C0AD14FEA430CD7
:100B40007FEA6C5C02D152EA033C02D14FF0000014
:100B500070474FF0010070474FEA410212F5001252
:100B600015D211D56FF47873B3EB625212D94FEAF4
:100B7000C12343F0004343EA505311F0004F23FADE
:100B800002F018BF404270474FF00000704750EA33
:100B9000013005D111F0004008BF6FF000407047F0
:100BA0004FF00000704700BF53B94AB9002908BF91
:100BB00000281CBF4FF0FF314FF0FF3000F06EB93E
:100BC000ADF1080C6DE904CE00F006F8DDF804E0A4
:100BD000DDE9022304B070472DE9F047089D044683
:100BE0008C46002B40F083808A42174647D9B2FAE0
:100BF00082F242B1C2F1200024FA00F09140974005
:100C000040EA010C94404FEA1748230CBCFBF8F66D
:100C10001FFA87FE08FB16C143EA014306FB0EF1EB
:100C2000994209D9FB1806F1FF3080F019819942E9
:100C300040F21681023E3B445B1AA4B2B3FBF8F0CB
:100C400008FB103344EA034400FB0EFEA64509D915
:100C50003C1900F1FF3380F00581A64540F2028186
:100C600002383C4440EA0640A4EB0E0400261DB1C5
:100C7000D4400023C5E900433146BDE8F08702B9FE
:100C8000FFDEB2FA82F2002A50D1CB1B4FEA174E98
:100C90001FFA87F80126B3FBFEFC210C0EFB1C3368
:100CA00041EA034108FB0CF38B4207D979180CF198
:100CB000FF3002D28B4200F2E9808446C91AA3B207
:100CC000B1FBFEF00EFB101143EA014408FB00F8F3
:100CD000A04507D93C1900F1FF3302D2A04500F22C
:100CE000D9801846A4EB080440EA0C40BFE78B42C9
:100CF00009D9002D00F0B1800026C5E90001304679
:100D00003146BDE8F087B3FA83F6002E4AD18B4214
:100D100002D3824200F2B880841A61EB0301012001
:100D20008C46002DA8D0C5E9004CA5E7C2F12003F0
:100D300020FA03F6974001FA02F04FEA174ED94025
:100D40003043030CB1FBFEF61FFA87F80EFB1611B9
:100D500043EA014306FB08F1994204FA02F409D977
:100D6000FB1806F1FF3C80F08D80994240F28A80AA
:100D7000023E3B445B1A81B2B3FBFEF00EFB103324
:100D800041EA034100FB08F38B4207D9791800F1CF
:100D9000FF3C73D28B4271D902383944CB1A40EAF6
:100DA000064678E7C6F1200C03FA06F422FA0CF3A3
:100DB0001C4320FA0CF701FA06F34FEA144E21FA0D
:100DC0000CF11F433B0CB1FBFEF91FFA84F80EFB3C
:100DD000191143EA014109FB08FA8A4502FA06F2B1
:100DE00000FA06F308D9611809F1FF3048D28A45A4
:100DF00046D9A9F102092144A1EB0A01BFB2B1FB16
:100E0000FEF00EFB101147EA014700FB08F8B84559
:100E100007D9E71900F1FF312ED2B8452CD9023895
:100E2000274440EA0940A7EB0807A0FB02894F4589
:100E3000C64649461AD317D05DB1B3EB0E0267EB35
:100E4000010707FA0CFCF2404CEA0202F740C5E940
:100E5000002700263146BDE8F0872E4628460BE7DE
:100E60000646E9E61846FDE64345E5D2B8EB020E34
:100E700069EB04010138DFE70846D2E760468DE7F9
:100E80008146B9E7664675E730464AE7ACF1020CA1
:100E9000394413E702383C4424E700BF704700BFE1
:100EA00010B584B000230193214B5B6B1B685C6819
:100EB000C4F180041F4B1B68A3420CD01BD21E4AF6
:100EC0001A440392E31A0293002301AA02A91B48C1
:100ED000006804F079FD174B1C60802C25D0019B25
:100EE0003BB1174B4FF080521A60BFF34F8FBFF3E7
:100EF0006F8F04B010BD104A1A440392C3F18003EF
:100F00000293002301AA02A90C48006804F05CFDCA
:100F1000002CE0D0084B03930294002301AA02A9FD
:100F20000648006804F050FDD5E700221A60D6E7B5
:100F3000E44C0020FC01002000020020B049002009
:100F400004ED00E000B583B00A4B1B681A6812F08C
:100F5000100F0BD0002201921A6801925B68019376
:100F6000019BFFF79DFF03B05DF804FB014804F00F
:100F700067FBF8E7E44C002008B5024B586B01F022
:100F80000FFE08BDE44C002008B5024B186B01F0C1
:100F900007FE08BDE44C002008B50268034B9A42E6
:100FA00000D008BDFFF77CFFFBE700BF0044004016
:100FB00000B583B001904FF6FF73012201A90348E9
:100FC00004F06FFA019803B05DF804FBA44C002014
:100FD00070B50C4616460025B54205DA14F8010B2B
:100FE000FFF7E6FF0135F7E7304670BD00B583B087
:100FF000C82005F0E5F84FF47A730A22D0213C4866
:1010000002F048FE18B1002003B05DF804FB012295
:101010000092384B7521D02000F01AFB0028F3D045
:10102000344B1B78682B01D00020EDE7052005F03C
:10103000C7F8304B80221A70012200926B21D02019
:1010400000F02EFB0028DFD0642005F0B9F8294B12
:1010500000221A70012200926B21D02000F020FBA8
:101060000028D1D00A2005F0ABF8224B03221A70D9
:10107000012200926B21D02000F012FB0028C3D087
:10108000052005F09DF81B4B07221A7001220092E3
:101090001921D02000F004FB0028B5D0052005F070
:1010A0008FF8144B00221A70012200921C21D020CC
:1010B00000F0F6FA0028A7D0052005F081F80D4BC6
:1010C00018221A70012200921B21D02000F0E8FAA9
:1010D000002899D0052005F073F8064B02221A70FB
:1010E000012200923721D02000F0DAFA8CE700BF0D
:1010F000304A00208002002010B582B0044606234A
:1011000000930C4B01223B21D02000F0A1FA78B1D2
:10111000084B19785A7842EA012222809978DA78C5
:1011200042EA012262801A795B7943EA0223A380B2
:1011300002B010BD8402002010B582B00446062320
:1011400000930C4B01224321D02000F081FA78B1AA
:10115000084B19785A7842EA012222809978DA7885
:1011600042EA012262801A795B7943EA0223A38072
:1011700002B010BD8402002030B587B04FF47A73FE
:101180000A22EE212D4802F085FD18B100252846DF
:1011900007B030BD04462A491E230B700122EE2001
:1011A00000F0A6FA05460028F1D00A2005F008F85C
:1011B0000023ADF81430052C1BD804F1510149006F
:1011C000C9B21F4B19700223009305AB0122EE2018
:1011D00000F03EFA78B39DF814209DF8153043EAEC
:1011E000022306AA02EB440222F8103C0134E4B2C6
:1011F000E1E7BDF80820D203124B1A6000225A60C2
:10120000BDF80A201204104B1A6000225A60BDF883
:101210000C200E4B1A80BDF80E200D4B1A80BDF825
:1012200010200C4B1A80BDF812200B4B1A800A209C
:1012300004F0C6FFABE70546A9E700BF304A00202F
:10124000A80200209802002090020020A2020020A4
:10125000A0020020A6020020A402002030B583B026
:101260004FF47A730A223C21124802F013FD10B1A8
:10127000002003B030BD104D78232B700124009462
:101280002B46224600213C2000F00AFA20232B7036
:1012900000942B46224621463C2000F001FA002310
:1012A0002B7000942B46224602213C2000F0F8F9D6
:1012B0002046DEE7304A0020A902002010B582B0A7
:1012C0000446062300930C4B012203213C2000F02E
:1012D000BFF978B1084B19785A7842EA0122228086
:1012E0009978DA7842EA012262801A795B7943EAD6
:1012F0000223A38002B010BDAC02002010B584B060
:1013000000240094144B154A0C21012004F012FB18
:10131000134B18600094134B134A0C21012004F066
:1013200009FB124B18600094114B124A0C2101204A
:1013300004F000FB104B1860104B0293104B01930C
:101340000523009323464FF4C0720E490E4804F063
:101350002BFD04B010BD00BFB4020020FC02002031
:10136000C04900200803002050030020B449002099
:101370005C030020A4030020B8490020B00900202D
:10138000B00300208C94000891150008F0B4049D6F
:10139000059CB0F9046006EE906AF8EEE66ADFEDAF
:1013A000637A76EEE76ADFED627A66EEA76A614EEF
:1013B000C6ED006AB0F9027006EE107AB8EEC66AA1
:1013C000DFED5D7A36EE676ADFED5C7A26EE276A3E
:1013D0005B4F87ED006AB0F9000007EE100AB8EE27
:1013E000C77ADFED587A37EE677ADFED577A67EE26
:1013F000277A5648C0ED007AC3ED026A9FED547A11
:1014000026EE877A36EE077A83ED017A9FED517AE0
:1014100026EE076A77EE867A9FED4F7A66EE876A48
:1014200077EEA67AC3ED007AB1F9003007EE903A74
:10143000F8EEE77A9FED497A77EE877A9FED487A62
:1014400067EE877AC0ED007AB1F9023006EE903A85
:10145000F8EEE66A9FED437A76EE876A9FED427A70
:1014600066EE876AC7ED006AB1F9043007EE103AFC
:10147000B8EEC77A9FED3D6A37EE467A9FED3C6A3B
:1014800027EE067A86ED007A9FED3A6A66EE866A66
:1014900077EEA67ADFED386A27EE267A77EE877A3E
:1014A000C5ED007A90ED007ADFED347A67EE277AA9
:1014B00097ED006A77EE867AD6ED006ADFED305A56
:1014C00066EEA55A77EEA57AC5ED017ADFED2D7AA5
:1014D00027EE277ADFED2C7A26EE276A37EE067A9A
:1014E00036EE877A85ED027AB2F9003007EE103ACF
:1014F000B8EEC77ADFED256A27EE267A84ED007A0A
:10150000B2F9023007EE103AB8EEC77A27EE267A23
:1015100084ED017AB2F9043007EE903AF8EEE77AFA
:1015200067EEA67AC4ED027AF0BC7047C395D24349
:10153000BDC11B3ABC490020D7A3C842E0EA1B3A10
:10154000C8490020AAC16B4488621C3AC4490020E3
:10155000F8FBE6BB94B7BE38B03196BB0F9CBC41DC
:101560000B248B3A4BE52940E4748A3AF2B00E41E1
:101570005E528C3A15D426BAFCABA63B387832BB07
:10158000AC4FBD3B3328073CECD2503CC47F703A93
:1015900030B5A1B0FFF72AFD0446FFF75FFE044017
:1015A000FFF7EAFD00284FD0E4B2002C4CD004F045
:1015B000A7FC10901EA8FFF79FFD1CA8FFF7BCFD1D
:1015C0001AA8FFF77BFE11AB019314AB009317AB86
:1015D0001AAA1CA91EA8FFF7D9FE1798FEF7B4FF98
:1015E00004460D461398FEF7AFFFCDE90E011298A1
:1015F000FEF7AAFFCDE90C011198FEF7A5FFCDE992
:101600000A011698FEF7A0FFCDE908011598FEF72C
:101610009BFFCDE906011498FEF796FFCDE9040182
:101620001998FEF791FFCDE902011898FEF78CFF9B
:10163000CDE9000122462B46044805F061FF6421F4
:1016400010A804F06BFDB5E721B030BD9C940008F4
:10165000F0B583B004460D4616461F4604F068FEFA
:101660000D4B1860BDF820300193009733462A4691
:1016700021460A4802F028FA10B1002003B0F0BD5C
:101680004FF47A71012004F0B3FE012801D000204C
:10169000F4E70120F2E700BF040A0020304A0020EE
:1016A000F0B583B004460D4616461F4604F040FED2
:1016B0000D4B1860BDF820300193009733462A4641
:1016C00021460A4802F03CF910B1002003B0F0BDF9
:1016D0004FF47A71012004F08BFE012801D0002024
:1016E000F4E70120F2E700BF040A0020304A00209E
:1016F00070B504460D46164604F01AFE0A4B1860F3
:1017000033462A462146094802F064F808B1002011
:1017100070BD4FF47A71012004F06AFE012801D0F7
:101720000020F5E70120F3E7040A0020304A0020FA
:1017300000B583B00023019301A9084B186804F099
:1017400093FE019B3BB1064B4FF080521A60BFF3F2
:101750004F8FBFF36F8F03B05DF804FB040A0020C6
:1017600004ED00E000B583B00023019301A9084B0C
:10177000186804F079FE019B3BB1064B4FF0805294
:101780001A60BFF34F8FBFF36F8F03B05DF804FB98
:10179000040A002004ED00E000B583B000230193AB
:1017A00001A9084B186804F05FFE019B3BB1064B92
:1017B0004FF080521A60BFF34F8FBFF36F8F03B0AB
:1017C0005DF804FB040A002004ED00E000B583B0DE
:1017D0000023019301A9084B186804F045FE019B02
:1017E0003BB1064B4FF080521A60BFF34F8FBFF3EF
:1017F0006F8F03B05DF804FB040A002004ED00E0E5
:1018000030B595B03022002108A805F007FA002471
:101810000394049405940694079401941B4B1A6C4A
:1018200042F080521A641B6C03F080530193019BB9
:101830000294174B1A6842F480421A601B6803F442
:1018400080430293029B012308934FF48033099352
:1018500002250E954FF480030F9304231093A822C2
:1018600011921295139308A800F030FC0F230393F4
:10187000049505944FF4A05306934FF480530793B7
:10188000052103A800F07EFE15B030BD00380240EF
:101890000070004008B501F0CBFAFFF7B1FF00F08F
:1018A0001FF800F071F800F045FA00F0CFF900F0F1
:1018B0005BFA00F0DDF8FFF721FD00F0C3F804F05B
:1018C00041FEFEE708B50268034B9A4200D008BD0E
:1018D00001F0C8FAFBE700BF0014004070470000A9
:1018E00030B58BB0002405940694079408940994AD
:1018F0000094234B1A6B42F004021A631A6B02F035
:1019000004020092009A01941A6B42F080021A635A
:101910001A6B02F080020192019A02941A6B42F053
:1019200001021A631A6B02F001020292029A0394F6
:101930001A6B42F008021A631A6B02F00802039253
:10194000039A04941A6B42F002021A631B6B03F0B1
:1019500002030493049B0B4D01224FF400512846CF
:1019600000F0EAFF4FF40053059301230693079319
:10197000089405A9284600F0F9FE0BB030BD00BF61
:10198000003802400008024010B582B000240094E4
:10199000224B1A6B42F480021A631A6B02F4800223
:1019A0000092009A01941A6B42F400121A631B6BA6
:1019B00003F400130193019B224605210B2001F043
:1019C000F5F90B2001F026FA22460521102001F03E
:1019D000EDF9102001F01EFA22460521112001F038
:1019E000E5F9112001F016FA224605212F2001F019
:1019F000DDF92F2001F00EFA224621463A2001F0AF
:101A0000D5F93A2001F006FA22462146462001F097
:101A1000CDF9462001F0FEF902B010BD00380240B9
:101A200008B5012004F0C8FDFBE70000034B03608C
:101A3000034B0B6080231360704700BF080C00202D
:101A4000080A002030B589B001AC074D0FCD0FC496
:101A500095E8070084E80700002101A804F077FD5D
:101A6000024B186009B030BD70940008CC490020CA
:101A700008B50B480B4B03600B4B4360002383609E
:101A80001422C2604FF48042026143618361C361EA
:101A9000036201F0C1FD00B908BDFFF71FFFFBE7BE
:101AA000304A002000540040801A060070B588B00B
:101AB0000023039304930593069307930268394B1D
:101AC0009A4201D008B070BD044600250195364EFB
:101AD000336B43F002033363336B03F00203019370
:101AE000019BC023039312230493059503230693BC
:101AF0000423079303A92D4800F038FE0295336CA8
:101B000043F400133364336C03F400130293029B19
:101B10002748284B03604FF0007343608560C56021
:101B20004FF48063036145618561C5614FF4803383
:101B30000362456200F086FF68BB1D4BA3639C6394
:101B40001D481E4B03604FF00073436040238360C9
:101B50000023C3604FF48062026143618361C3610B
:101B60004FF480320262436200F06CFFB0B9124B56
:101B700063639C63002205211F2001F017F91F20D9
:101B800001F048F900220521202001F00FF9202062
:101B900001F040F996E7FFF7A1FECEE7FFF79EFEC2
:101BA000E5E700BF00540040003802400004024056
:101BB000844A002010600240D0490020B8600240F2
:101BC0000268094B9A4200D0704782B0002301930B
:101BD000064B1A6C42F004021A641B6C03F00403F7
:101BE0000193019B02B0704700080040003802409A
:101BF00000B587B0002301930293039304930593E8
:101C000002680F4B9A4202D007B05DF804FB002334
:101C100000930C4A116B41F008011163126B02F042
:101C200008020092009A4FF470420192022202923E
:101C300003930493059201A9034800F097FDE3E79D
:101C40000008004000380240000C024000B58FB090
:101C500000230A930B930C930D930893099301931C
:101C60000293039304930593069307932F48304AF6
:101C700002604360836040F6EF22C26003618361CB
:101C800003F0DCF8002839D14FF480530A930AA9F5
:101C9000264803F0B9F9002833D1244803F0E8F8C6
:101CA000002831D100230893099308A91F4803F0A5
:101CB00019FA60BB602301930022029203920592FD
:101CC00001A91A4803F026F920BB04220DEB0201FA
:101CD000164803F01FF900BB082201A9134803F0BE
:101CE00019F9E8B90C2201A9104803F013F9D0B989
:101CF0000E48FFF77DFF0FB05DF804FBFFF7EEFD28
:101D0000C2E7FFF7EBFDC8E7FFF7E8FDCAE7FFF71B
:101D1000E5FDCFE7FFF7E2FDD7E7FFF7DFFDDBE704
:101D2000FFF7DCFDDEE7FFF7D9FDE1E7E44A00203D
:101D30000008004008B50A480A4B03604FF4E1333D
:101D4000436000238360C36003610C2242618361AE
:101D5000C36103F077FB00B908BDFFF7BFFDFBE7E8
:101D6000A44C00200010014008B50A480A4B03604B
:101D70004FF4E133436000238360C36003610C22AE
:101D800042618361C36103F05DFB00B908BDFFF7E9
:101D9000A5FDFBE7E44C00200044004030B58BB0CB
:101DA0000446002305930693079308930993036859
:101DB000674A934204D0674A934262D00BB030BD69
:101DC00000250195644B5A6C42F010025A645A6C1B
:101DD00002F010020192019A02951A6B42F0010280
:101DE0001A631B6B03F001030293029B4FF4C06361
:101DF000059302230693079503230893072309936A
:101E000005A9564800F0B2FC5548564B03604FF008
:101E1000006343608560C5604FF480630361456182
:101E20008561C5610562456200F00CFE18BB4C4B34
:101E300063639C634C484D4B03604FF00063436009
:101E4000402383600023C3604FF4806202614361DA
:101E50008361C3610362436200F0F4FD70B9424BD9
:101E600023639C6300221146252000F09FFF25205C
:101E700000F0D0FFA2E7FFF731FDD8E7FFF72EFD16
:101E8000EDE700250395344B1A6C42F400321A64D6
:101E90001A6C02F400320392039A04951A6B42F012
:101EA00001021A631B6B03F001030493049B0C23D0
:101EB00005930223069307950323089307230993A9
:101EC00005A9264800F052FC29482A4B03604FF030
:101ED000006343608560C5604FF4806303614561C2
:101EE00085614FF48073C3614FF400330362456230
:101EF00000F0A8FD28BB1E4B63639C631E481F4B6C
:101F000003604FF000634360402383600023C3609D
:101F10004FF48062026143618361C3614FF4803298
:101F20000262436200F08EFD70B9134B23639C6321
:101F300000220521262000F039FF262000F06AFF4C
:101F40003CE7FFF7CBFCD6E7FFF7C8FCEDE700BFA7
:101F500000100140004400400038024000000240F0
:101F6000E44B002040640240844B0020B8640240EF
:101F7000244B002088600240444C0020A0600240B6
:101F80007047FEE7FEE7FEE7FEE7704708B5024848
:101F900000F006FE08BD00BF844A002008B50248D4
:101FA00002F02CFC08BD00BF304A002008B50248F2
:101FB00002F0EAFC08BD00BF304A002008B5024824
:101FC00003F03EFB08BD00BFA44C002008B502484A
:101FD00000F0E6FD08BD00BFD049002008B502486A
:101FE00002F00BFE08BD00BF244D002008B50248DA
:101FF00000F0D6FD08BD00BFE44B002008B5024844
:1020000000F0CEFD08BD00BF844B002000B583B0BA
:10201000002200920D4B596C41F480415964596C77
:1020200001F48041009100990192196C41F08051B6
:1020300019641B6C03F080530193019B0F216FF017
:10204000010000F0B3FE03B05DF804FB003802406D
:1020500010B588B001460022372000F0A7FE3720D7
:1020600000F0D8FE00240194144B1A6C42F02002B8
:102070001A641B6C03F020030193019B02A903A8BF
:1020800000F056FB00F034FB43000D48A0FB032397
:102090009B0C013B0B480C4A026040F2E732C260E5
:1020A00043600461846002F0C9FE10B1012008B0F1
:1020B00010BD044802F08BFDF9E700BF0038024074
:1020C00083DE1B43244D002000140040002800F054
:1020D000D98170B582B00446036813F0010F3BD07C
:1020E000A64B9B6803F00C03042B2CD0A34B9B68DE
:1020F00003F00C03082B21D06368B3F5803F4FD069
:10210000B3F5A02F52D09D4B1A6822F480321A608A
:102110001A6822F480221A606368002B50D000F005
:10212000ADFE0546954B1B6813F4003F14D100F03B
:10213000A5FE401B6428F5D90320AAE18F4B5B68FC
:1021400013F4800FD8D08D4B1B6813F4003F03D0DD
:102150006368002B00F09881236813F0020F54D0BD
:10216000864B9B6813F00C0F3ED0844B9B6803F0AA
:102170000C03082B33D0E368002B67D0804B01227F
:102180001A6000F07BFE05467C4B1B6813F0020FC3
:1021900053D100F073FE401B0228F5D9032078E1EB
:1021A000764A136843F480331360B5E7734B1A68BB
:1021B00042F480221A601A6842F480321A60ABE757
:1021C00000F05CFE05466D4B1B6813F4003FC3D066
:1021D00000F054FE401B6428F5D9032059E1674BF9
:1021E0005B6813F4800FC6D1644B1B6813F0020FB9
:1021F00003D0E368012B40F04981604A136823F063
:10220000F803216943EAC1031360236813F0080F40
:1022100040D0636963B35B4B01221A6000F02EFE6D
:102220000546564B5B6F13F0020F33D100F026FECC
:10223000401B0228F5D903202BE1504A136823F0F4
:10224000F803216943EAC1031360DEE74C4B002227
:102250001A6000F013FE0546484B1B6813F0020F8E
:10226000D3D000F00BFE401B0228F5D9032010E16B
:10227000444B00221A6000F001FE05463F4B5B6FA5
:1022800013F0020F06D000F0F9FD401B0228F5D92B
:102290000320FEE0236813F0040F78D0374B1B6C4B
:1022A00013F0805F0DD100230193344B1A6C42F080
:1022B00080521A641B6C03F080530193019B01252B
:1022C00000E00025304B1B6813F4807F21D0A36809
:1022D000012B32D0052B36D0284B1A6F22F0010289
:1022E0001A671A6F22F004021A67A368002B34D011
:1022F00000F0C4FD0646214B1B6F13F0020F45D1C1
:1023000000F0BCFD801B41F288339842F3D90320D2
:10231000BFE01D4A136843F48073136000F0AEFD04
:102320000646194B1B6813F4807FD0D100F0A6FD40
:10233000801B0228F5D90320ABE0104A136F43F04D
:1023400001031367D1E70D4B1A6F42F004021A67BD
:102350001A6F42F001021A67C7E700F08FFD0646C8
:10236000064B1B6F13F0020F10D000F087FD801B8F
:1023700041F288339842F3D903208AE000380240C2
:1023800000004742800E474200700040E5B9A36953
:10239000002B7DD0464A926802F00C02082A51D0E8
:1023A000022B17D0434B00221A6000F067FD044651
:1023B0003F4B1B6813F0007F42D000F05FFD001B15
:1023C0000228F5D9032064E0394A136C23F08053C6
:1023D0001364DCE7374B00221A6000F04FFD05461E
:1023E000334B1B6813F0007F06D000F047FD401B05
:1023F0000228F5D903204CE0E369226A1343626A9C
:1024000043EA8213A26A5208013A43EA0243E26AAB
:1024100043EA0263264A5360264B01221A6000F009
:102420002DFD0446224B1B6813F0007F06D100F0FF
:1024300025FD001B0228F5D903202AE0002028E012
:10244000002026E0012B26D0194B5B6803F48001A5
:10245000E269914221D103F03F02216A8A421ED1F2
:10246000616A47F6C0721A408A421AD103F44032B8
:10247000A16A8A4217D103F07063E26A934214D1D1
:10248000002006E001207047012002E0012000E06A
:10249000002002B070BD0120FBE70120F9E7012018
:1024A000F7E70120F5E70120F3E70120F1E700BF9E
:1024B0000038024060004742F8B52F4B9B6803F09C
:1024C0000C03042B53D0082B53D12B4B5A6802F02A
:1024D0003F025B6813F4800F28D0274B5B68C3F37F
:1024E000881358010021C01A61F100018E0146EAEB
:1024F000906687013C1A66EB0105E90041EA5471D8
:10250000E000C01841F100014B0243EAD0534402FD
:10251000204619460023FEF747FB174B5B68C3F3C1
:10252000014301335B00B0FBF3F023E0124B5B6827
:10253000C3F388135C010025E41A65F10005AE01C0
:1025400046EA9466A701381B66EB0501CC0044EA15
:102550005074C500E81844F100018B0243EA90531F
:102560008402204619460023FEF71EFBD5E70348E8
:1025700000E00348F8BD00BF0038024000127A00B6
:102580000024F400002800F09B8070B50D4604463E
:102590004F4B1B6803F00F038B4208D2CBB24C4A5F
:1025A0001370136803F00F038B4240F08B80236895
:1025B00013F0020F17D013F0040F04D0454A9368AC
:1025C00043F4E0539360236813F0080F04D0414AAA
:1025D000936843F4604393603E4A936823F0F003AA
:1025E000A1680B439360236813F0010F32D0636836
:1025F000012B21D09A1E012A25D9364A126812F0E1
:10260000020F61D033498A6822F0030213438B60C2
:1026100000F034FC06462F4B9B6803F00C03626805
:10262000B3EB820F16D000F029FC801B41F28833F7
:102630009842F0D9032042E0264A126812F4003F83
:10264000E0D101203BE0234A126812F0007FD9D18B
:10265000012034E01E4B1B6803F00F03AB4207D987
:10266000EAB21B4B1A701B6803F00F03AB422DD16B
:10267000236813F0040F06D0164A936823F4E0533E
:10268000E1680B439360236813F0080F07D0114AE9
:10269000936823F46043216943EAC1039360FFF721
:1026A0000BFF0C4B9B68C3F303130B4AD35CD8405E
:1026B0000A4B18600A4B1868FFF7CAFC002070BD6F
:1026C000012070470120FAE70120F8E70120F6E732
:1026D000003C024000380240CC9400080800002072
:1026E00004000020014B1868704700BF080000205C
:1026F00008B5FFF7F7FF044B9B68C3F38223034A37
:10270000D35CD84008BD00BF00380240DC9400080C
:1027100008B5FFF7E7FF044B9B68C3F34233034A56
:10272000D35CD84008BD00BF00380240DC940008EC
:102730000F2303600B4B9A6802F0030242609A6811
:1027400002F0F00282609A6802F4E052C2609B6874
:10275000DB0803F4E0530361034B1B6803F00F0332
:102760000B60704700380240003C024000230F2BF2
:1027700000F2D980F0B583B039E0072200E00022F2
:10278000B2403A430234684E46F82420674A14683F
:10279000EA4324EA05064F6817F4803F01D045EA72
:1027A0000406624C2660646802EA04064F6817F467
:1027B000003F01D045EA04065C4C6660A46802EA6A
:1027C00004064F6817F4801F01D045EA0406574CF1
:1027D000A660E46822404E6816F4001F01D045EA66
:1027E0000402524CE26001330F2B00F29A80012266
:1027F0009A400C6804EA020532EA0404F3D14C68FA
:10280000661E012E03D9112C01D0122C12D186681C
:102810005F000324BC4026EA0406CC68BC40344375
:102820008460466826EA02064C68C4F300129A40A7
:1028300032434260C7685E000324B440E24327EAA3
:1028400004078C68B4403C43C4604C68022C01D03F
:10285000122C13D1DF08083750F827E003F00704E3
:102860004FEA840C0F2404FA0CF42EEA040E0C69CF
:1028700004FA0CF444EA0E0440F8274004681440BB
:102880004A6802F00302B240224302604A6812F032
:10289000805FA8D000220192254A546C44F4804401
:1028A0005464526C02F480420192019A9C08A61C66
:1028B0001D4A52F8267003F0030296000F22B24020
:1028C00027EA02071B4A90423FF459AF02F58062A3
:1028D00090421AD002F58062904218D002F58062D0
:1028E000904216D002F58062904214D002F58062C8
:1028F000904212D002F58062904210D002F58062C0
:1029000090423FF43AAF08223AE7012238E7022228
:1029100036E7032234E7042232E7052230E70622B5
:102920002EE703B0F0BD704700380140003C014085
:1029300000380240000002400AB18161704709047A
:102940008161704730B405682C6824F480242C60C1
:10295000046863608368402B05D00368996003684E
:10296000DA6030BC704703689A600368D960F8E7A2
:1029700010B40368D9B210390C4AA2FB0142120903
:102980000B4CA25CC2655F2909D923F47F7323F045
:10299000030304338365806D5DF8044B704723F4B3
:1029A0007F7323F003038365F5E700BFABAAAAAAF0
:1029B000C4940008836A826992B9012B0AD0022B61
:1029C00002D00BB100207047C36A13F0807F28D17A
:1029D00000207047C36AB3F1C07F24D00020704745
:1029E000B2F5005F09D0022B25D9032B25D1C36A8C
:1029F00013F0807F23D100207047032B03D8DFE83A
:102A000003F01404140A00207047C36A13F0807F97
:102A10000DD100207047C36AB3F1C07F09D00020F8
:102A20007047012070470120704701207047012046
:102A30007047012070470120704700207047012037
:102A40007047000070B5044600F018FA002C5BD007
:102A50000546002384F83430022384F83530226898
:102A6000136823F00103136023681A6812F0010F42
:102A70000AD000F003FA431B052BF5D92023636528
:102A8000032084F8350070BD1A6820481040616842
:102A9000A2680A43E1680A4321690A4361690A435B
:102AA000A1690A43E1690A43216A0A430243616A50
:102AB00004291ED01A602668756925F00705636A27
:102AC0001D43042B07D1A36A1D43E36A1BB12046B3
:102AD000FFF770FF90B975612046FFF749FFE26D7F
:102AE0003F239340836000206065012384F83530E4
:102AF000C9E7E16A206B01430A43DBE740236365D2
:102B0000012084F83500BEE70120BCE73F8010F0CB
:102B100038B50446856D90F8340001282BD001208B
:102B200084F8340094F83500C0B2012804D00023A2
:102B300084F83430022038BD022084F835000020AB
:102B400060652046FFF7FEFEE26D3F239340AB60D9
:102B50002268136843F016031360236C23B12268C4
:102B6000136843F0080313602268136843F00103FD
:102B700013600020DFE70220DDE790F83530DBB29C
:102B8000022B03D08023436501207047052380F882
:102B900035300268136823F001031360002070478A
:102BA000F0B583B0044600230193724B1D68724B4D
:102BB000A3FB0535AD0A876D3E68C26D08239340BF
:102BC000334210D003681A6812F0040F0BD01A6851
:102BD00022F004021A60C26D08239340BB60436D6B
:102BE00043F001034365E26D01239340334209D072
:102BF0002268526912F0800F04D0BB60636D43F00D
:102C000002036365E26D04239340334209D02268D6
:102C1000126812F0020F04D0BB60636D43F004032E
:102C20006365E26D10239340334224D0226812681A
:102C300012F0080F1FD0BB6023681A6812F4802FAF
:102C40000DD01B6813F4002F04D1236C9BB12046D8
:102C5000984710E0A36C73B1204698470BE01A68C0
:102C600012F4807F03D11A6822F008021A60236CE4
:102C70000BB120469847E26D20239340334255D054
:102C80002268126812F0100F50D0BB6094F83530F3
:102C9000DBB2052B0ED023681A6812F4802F33D0D4
:102CA0001B6813F4002F2AD1636C002B3ED0204602
:102CB00098473BE02268136823F0160313602268EC
:102CC000536923F080035361236CA3B12268136816
:102CD00023F008031360E26D3F239340BB600023A1
:102CE00084F83430012384F83530236D002B3FD035
:102CF000204698473CE0A36C002BE7D1EBE7E36B61
:102D0000A3B12046984711E01A6812F4807F09D1D8
:102D10001A6822F010021A60002384F8343001236C
:102D200084F83530E36B0BB120469847636DFBB1F7
:102D3000636D13F0010F17D0052384F83530226836
:102D4000136823F001031360019B01330193AB422D
:102D500004D823681B6813F0010FF5D1002384F811
:102D60003430012384F83530E36C0BB120469847AA
:102D700003B0F0BD08000020B5814E1B90F835006F
:102D80007047406D70470000074AD36823F4E06342
:102D90001B041B0C000200F4E060034343F0BF631C
:102DA00043F40033D360704700ED00E030B4174BBC
:102DB000DB68C3F30223C3F10704042C28BF0424F7
:102DC0001D1D062D18D9033B4FF0FF3505FA04F4FD
:102DD00021EA0401994005FA03F322EA03031943A7
:102DE00000280BDB0901C9B200F1604000F5614029
:102DF00080F8001330BC70470023E5E700F00F00B7
:102E00000901C9B2024B1954F4E700BF00ED00E01C
:102E100014ED00E0002807DB00F01F024009012349
:102E20009340024A42F82030704700BF00E100E0C2
:102E300008B50B4B1A6842F400721A601A6842F423
:102E400080621A601A6842F480721A600320FFF7E9
:102E50009BFF0020FFF7FCF8FFF7D8F8002008BD23
:102E6000003C0240034A1168034B1B780B4413607B
:102E7000704700BF644D002000000020014B18681F
:102E8000704700BF644D0020036D9BB9C36C012BDC
:102E900008D0836CC3F3072302681361036D013309
:102EA00003657047836C0268DBB21361036D023304
:102EB00003657047036D012B03D0036D022B08D00F
:102EC0007047836C0268DBB21361036D01330365E5
:102ED000704790F83D30DBB2222B11D090F83D3096
:102EE000DBB2212BECD1426A036812781A61436A83
:102EF00001334362438D9BB2013B9BB24385DFE7C5
:102F00000268136843F480731360704790F83E3092
:102F1000DBB2402B10D00369B3F5804F1BD0036D9B
:102F2000002B39D1436CC3F3C813026803F00603C6
:102F300043F0F00313617047036D2BB9436C0268D3
:102F400003F0FE0313617047436C026843F0010312
:102F5000DBB21361704790F83D30DBB2212B0FD00C
:102F6000436C026843F00103DBB21361436B6BB146
:102F7000DB6B5BB10268536843F4006353607047D6
:102F8000436C026803F0FE031361EFE7836B33B118
:102F9000DB6B002BEED102E0036D012B00D07047FC
:102FA000436CC3F3C813026803F0060343F0F10354
:102FB0001361F4E7436C0268DBB21361436B3BB10E
:102FC000DB6B4BB10268536843F400635360704796
:102FD000826B002AF4D1FAE7836BDB6B002BF1D113
:102FE000F5E710B48BB090F83E30DAB2C16A046BEA
:102FF00090F83D30DBB2222B0BD0002309930368FD
:103000005A6909929B690993099B0BB05DF8044BBF
:103010007047036D0BB9402A17D0036D1BB90369C4
:10302000B3F5404F19D0438D9BB2002B25D10293AD
:1030300003685A6902929A690292029A1A6842F4E3
:1030400000721A6000230365DFE7009303685A6982
:1030500000929B690093009BD7E7002301930368CC
:103060005A6901929A690192019A1A6842F480722F
:103070001A60036D01330365C7E7438D9BB2012BD3
:1030800025D0438D9BB2022B7BD00268136843F49A
:103090008063136003685A6812F4006F0ED011F554
:1030A000803F07D0012905D0082903D0102901D07D
:1030B000202903D15A6842F480525A6000230893B1
:1030C00003685A6908929B690893089BBAE711F54F
:1030D000803F11D0082934D0202932D0122C2ED094
:1030E000042940D002293ED010293CD00268136840
:1030F00023F4806313603BE00268136823F4806369
:10310000136003685A6812F4006F0CD01A6822F436
:1031100080621A600023039303685A6903929B69D3
:103120000393039B8EE7002204925A6904929A69E2
:103130000492049A1A6842F400721A6082E7012924
:10314000CED00268136823F48063136000230693D3
:1031500003685A6906929A690692069A1A6842F4B6
:1031600000721A606EE70268136843F480631360AC
:103170000023059303685A6905929B690593059B93
:1031800060E704290ED002290CD010290AD0026869
:10319000136823F4806313600268136843F40063C8
:1031A000136004E00268136843F4806313600368EB
:1031B0005A6812F4006F0ED011F5803F07D0012934
:1031C00005D0082903D0102901D0202903D15A683D
:1031D00042F480525A600023079303685A690792A9
:1031E0009B690793079B2DE7438D9BB25BB1426AB6
:1031F000036812781A61436A01334362438D9BB2BC
:10320000013B9BB243857047438D9BB25BB1036822
:103210001A69436A1A70436A01334362438D9BB251
:10322000013B9BB24385704703685A6912F4806F73
:1032300001D1002070476FF480625A61002303635C
:10324000202280F83D2080F83E30026C42F00402DB
:10325000026480F83C3001207047C36AB3F52A0F3E
:1032600004D0C36AB3F12A4F03D070470123C3626D
:1032700070470823C362F8E72DE9F04107460D4681
:1032800090461E4622E0FFF7F9FD069BC01AB042A9
:1032900000D8DEB900233B63202287F83D2087F861
:1032A0003E303A6C42F020023A6487F83C3001200C
:1032B0001AE03B689C6925EA0404A4B2B4FA84F4D9
:1032C0006409A0450FD1B6F1FF3FDCD1C5F3074338
:1032D000012BEED13B685C6925EA0404A4B2B4FA80
:1032E00084F46409EDE70020BDE8F0812DE9F041A8
:1032F00005460E46174698463DE01A6842F40072AD
:103300001A602B686FF480625A6100232B632022BD
:1033100085F83D2085F83E302A6C42F004022A648C
:1033200085F83C30012034E0FFF7A8FDA0EB080051
:10333000B84200D8FFB900232B63202285F83D2036
:1033400085F83E302A6C42F020022A6485F83C3031
:1033500001201EE02B689C6926EA0404A4B2003C0C
:1033600018BF0124A4B12B685A6912F4806FC4D12C
:10337000B7F1FF3FD8D1C6F30743012BEAD12B6841
:103380005C6926EA0404A4B2003C18BF0124E9E702
:103390000020BDE8F08170B504460D46164623684E
:1033A0005B6913F0800F1CD12046FFF73DFFD0B9B9
:1033B000B5F1FF3FF3D0FFF761FD801BA84201D8B4
:1033C000002DECD100232363202284F83D2084F8D3
:1033D0003E30226C42F02002226484F83C3001200E
:1033E00000E0002070BD0120FCE700002DE9F04363
:1033F00085B004460D4691461F46DDF830800D9E8F
:103400000368196841F480711960009643460022F0
:103410004FF00111FFF730FF60B9236805F0FE059A
:103420001D613346424626492046FFF75FFF68B1DB
:10343000012008E023681B6813F4807F02D04FF45A
:1034400000732364032005B0BDE8F08300230393D9
:1034500023685A6903929B690393039B3246414652
:103460002046FFF798FF30B9012F0FD123685FFA8C
:1034700089F61E61E7E7236C042B01D00120E2E707
:103480002268136843F400731360F7E723684FEA78
:1034900019221A61324641462046FFF77CFF20B9C7
:1034A00023685FFA89F61E61CDE7236C042B01D0F7
:1034B0000120C8E72268136843F400731360F7E73C
:1034C000020001002DE9F04784B004460D4616467F
:1034D00099460C9FDDF834800268136843F48063DA
:1034E00013600368196841F480711960CDF8008099
:1034F0003B4600224FF00111FFF7BEFE70B95FFAA4
:1035000085FA236805F0FE051D6143463A464149A8
:103510002046FFF7EBFE68B1012008E023681B6836
:1035200013F4807F02D04FF400732364032004B0AF
:10353000BDE8F0870023039323685A6903929B69CF
:103540000393039B424639462046FFF724FF80B988
:10355000B9F1010F18D12368F6B21E61424639460F
:103560002046FFF718FF68B3236C042B24D00120FA
:10357000DDE7236C042B01D00120D8E72268136813
:1035800043F400731360F7E72368320A1A61424676
:1035900039462046FFF7FFFE18B92368F6B21E61D0
:1035A000DCE7236C042B01D00120C0E722681368FC
:1035B00043F400731360F7E72268136843F4007361
:1035C0001360D4E72268136843F480731360CDF866
:1035D00000803B4600224FF001112046FFF74CFED1
:1035E00068B922684AF00103136143463A46094923
:1035F0002046FFF77BFE002899D0012097E723683B
:103600001B6813F4807F02D04FF4007323640320FF
:103610008DE700BF02000100002800F0CC80F8B563
:10362000044690F83D30002B77D0242384F83D30B9
:103630002268136823F0010313602268136843F4BF
:10364000004313602268136823F400431360FFF7FC
:103650004FF862685A4B9A4264D85A4B98428CBFD2
:1036600000230123002B40F0A880574DA5FB003517
:10367000AF0C2668716821F03F0141EA9541716005
:1036800021680B6A23F03F0365684D4A95424FD885
:103690007A1C13430B622568E96921F44F4121F03C
:1036A000FF016368464A93424CD801385B00B0FB87
:1036B000F3F0013040F6FC73184278D0C0F30B03EE
:1036C0000B43EB6121680B6823F0C003E269206AB9
:1036D000024313430B6021688B6823F4034323F0F8
:1036E000FF032269E068024313438B602168CB68C3
:1036F00023F0FF036269A06902431343CB60226891
:10370000136843F00103136000202064202384F831
:103710003D30206384F83E00F8BD80F83C30FEF771
:10372000C5F982E7294B98428CBF0023012399E712
:103730004FF4967202FB07F2254DA5FB0252920947
:103740000132A6E7A268BAB9461E03EB4307B6FBEF
:10375000F7F60136C6F30B06B6FA86F6760946BBCF
:10376000C2B9421E03EB4303B2FBF3F20132C2F3D0
:103770000B0242F40043A3E7461E03EB830707EB6B
:103780008707B6FBF7F60136C6F30B06B6FA86F6E0
:103790007609E4E7421E03EB830303EB8303B2FBEA
:1037A000F3F20132C2F30B0242F4404388E70423F0
:1037B00086E7012384E7012070470120ACE700BFC2
:1037C000A08601007F841E0083DE1B43FF083D00AE
:1037D000D34D621030B583B005460020019095F8B6
:1037E0003D00C0B2202840F09C8050480068C008CE
:1037F0004F4CA4FB0040000A00EB800000EB80006F
:103800000190019C013C0194019800283ED0286859
:10381000846914F0020FF4D195F83C40012C00F0BB
:103820008380012485F83C40046814F0010F03D123
:10383000046844F0010404602C68206820F40060EF
:103840002060212085F83D00102085F83E000020F2
:1038500028646A626B856B8D9BB22B85354AEA6260
:10386000696413BB2A68136843F4806313602A6891
:10387000136843F480731360002385F83C302A6892
:10388000536843F4E063536000204BE000232B6354
:10389000202285F83D2085F83E302A6C42F0200237
:1038A0002A6485F83C3001203CE06B6B224ADA63E5
:1038B0006B6B224ADA646A6B10646A6B50646A6BE1
:1038C00090646A6B10652A682B8D1032696A686B88
:1038D000FFF71EF9B8B92A68136843F480631360D0
:1038E0002A68136843F480731360002385F83C3022
:1038F0002A68536843F4407353602A68536843F45A
:1039000000635360C0E7202385F83D30002285F82E
:103910003E202B6C43F010032B6485F83C200120E3
:1039200000E0022003B030BD0220FBE708000020C9
:1039300089B5F8140000FFFF41430008FB4200086E
:103940002DE9F04385B005460E46174698460023FC
:103950000393FFF793FA95F83D30DBB2202B40F04C
:10396000A1808146534B1B68DB08534AA2FB03230B
:103970001B0A03EB830303EB83030393039C013CC8
:103980000394039C002C3AD02B689A6912F0020F22
:10399000F4D195F83C20012A00F08880012285F8B6
:1039A0003C201A6812F0010F03D11A6842F001029C
:1039B0001A602A68136823F400631360212385F8D2
:1039C0003D30402385F83E3000232B640C9B6B6216
:1039D000BDF834306B856B8D9BB22B85374AEA621C
:1039E000E3B9202385F83D30002285F83E202B6C7A
:1039F00043F040032B6485F83C20012053E0002372
:103A00002B63202285F83D2085F83E302A6C42F059
:103A100020022A6485F83C30012044E06B6B284A80
:103A2000DA636B6B274ADA646A6B002313646A6B90
:103A300053646A6B93646A6B13652A682B8D10322A
:103A4000696A686BFFF764F868B1202385F83D3038
:103A5000002285F83E202B6C43F010032B6485F880
:103A60003C2001201FE0CDF804902323009343461F
:103A70003A4631462846FFF7B9FCC8B900220292FF
:103A80002B685969029199690291029985F83C2045
:103A90005A6842F480725A602A68536843F400639B
:103AA000536000E0022005B0BDE8F0830220FAE791
:103AB0000120F8E70800002089B5F8140000FFFF96
:103AC00041430008FB4200082DE9F04387B005465A
:103AD0000E4617469846FFF7D1F90023059395F84F
:103AE0003D30DBB2202B40F0C1808146644B1B6827
:103AF000DB08644AA2FB03231B0A03EB830303EBEB
:103B000083030593059C013C0594059C002C52D031
:103B10002B689A6912F0020FF4D195F83C20012A23
:103B200000F0A880012285F83C201A6812F0010FED
:103B300003D11A6842F001021A602A68136823F45C
:103B400000631360222385F83D30402385F83E3022
:103B500000232B640E9B6B62BDF83C306B856B8D34
:103B60009BB22B85484AEA62002B61D0AB6B474A77
:103B7000DA63AB6B464ADA64AA6B00231364AA6B60
:103B80005364AA6B9364AA6B136529682B8D6A6AC8
:103B90001031A86BFEF7BCFFE0B1202385F83D3063
:103BA000002285F83E202B6C43F010032B6485F82F
:103BB0003C2001205BE000232B63202285F83D2080
:103BC00085F83E302A6C42F020022A6485F83C30A9
:103BD00001204CE0CDF804902323009343463A465D
:103BE00031462846FFF76EFC002845D12B8D012B6E
:103BF00018D02A68536843F480535360002203921C
:103C00002B685969039199690391039985F83C20C0
:103C10005A6842F480725A602A68536843F4006319
:103C2000536021E02A68136823F480631360E5E79A
:103C3000CDF804902323009343463A463146284664
:103C4000FFF740FCD0B9002104912B685A69049217
:103C50009A690492049A1A6842F400721A60202346
:103C600085F83D3085F83C10002000E0022007B0C8
:103C7000BDE8F0830220FAE70120F8E70120F6E72B
:103C80000800002089B5F8140000FFFF4143000838
:103C9000FB4200082DE9F04784B00546894692466C
:103CA0001E46FFF7EBF895F83D30DBB2202B03D032
:103CB000022004B0BDE8F0870746009019230122D6
:103CC00058492846FFF7D8FA002840F0A28095F816
:103CD0003C30012B00F09F80012385F83C302B689D
:103CE0001A6812F0010F03D11A6842F001021A603B
:103CF0002A68136823F400631360242385F83D3099
:103D000000232B64A3F58033EB624FF001083FE002
:103D10002B681B6813F4807F02D04FF400732B6470
:103D20000320C6E7A02385F83D302A685369C3F312
:103D300040035269C2F3802295F83D40E4B2A02CC2
:103D400009D043B93AB9FFF799F8C01BB042E9D896
:103D5000002EEAD1E6E7202385F83D302B685A692A
:103D600012F0020F32D11A6842F400721A602B6806
:103D70006FF480625A61009719230122294928466D
:103D8000FFF77AFA00284AD108F10108D04538D265
:103D90002A68136843F48073136000973346002247
:103DA0004FF001112846FFF767FA0028B0D12B68C1
:103DB00009F0FE021A61FFF761F807462A685369A5
:103DC000C3F340035269C2F38022B5E71A6842F494
:103DD00000721A60002303932B685A6903929B694F
:103DE0000393039B0097192301220E492846FFF7EE
:103DF00043FA90B9202385F83D30002385F83C3004
:103E000057E7202385F83D30002385F83C3001201A
:103E10004FE702204DE702204BE7012049E7012050
:103E200047E700BF02001000704708B590F83D302A
:103E3000DAB2438D9BB283B1416A03680978196194
:103E4000436A01334362438D9BB2013B9BB243857E
:103E5000438D9BB20BB9292A00D008BD0268536874
:103E600023F48063536021230363282380F83D30CB
:103E7000FFF7DAFFF1E7704708B590F83D30DAB2A6
:103E8000438D9BB283B103681969436A1970436A11
:103E900001334362438D9BB2013B9BB24385438D0B
:103EA0009BB20BB92A2A00D008BD0268536823F4DC
:103EB0008063536022230363282380F83D30FFF79B
:103EC000DAFFF1E7704708B590F83D3003F02803BA
:103ED000282B07D003686FF002025A61002380F894
:103EE0003C3008BD0268536823F48063536011F0CE
:103EF000040F0BD0002311F0800F09D1828900211B
:103F000080F83C101946FFF7DDFFEAE70123F2E7EE
:103F1000028BF4E77047000008B590F83D30DBB243
:103F2000C26A082A01D0202A01D1282B06D0212BD1
:103F30001ED003686FF480625A6108BD1A4BC362D9
:103F40000268536823F4E063536003686FF480628F
:103F50005A610268136823F48063136000230363CB
:103F6000202280F83D2080F83E30FFF7D3FFE4E7C1
:103F70000D4BC36221230363202380F83D300023CF
:103F800080F83E300268536823F4E06353600368AE
:103F90006FF480625A610268136823F480631360CF
:103FA000FFF742FFC9E700BF0000FFFF10B590F820
:103FB0003D30DBB290F83E20D2B2C46A018D09B91F
:103FC000212B04D0212B3BD0402A37D010BD082C08
:103FD00004D0202C02D014F5803F19D10268536818
:103FE00023F4E06353600268136843F400731360C2
:103FF00000230363202380F83D3090F83E30DBB28D
:10400000402B15D0002380F83E30FDF7C5FBDDE7DF
:104010000268536823F4E0635360112303630023B1
:1040200080F83E30202380F83D30FDF7B5FBCDE72A
:10403000002380F83E30FDF795FBC7E7222BC5D162
:10404000438D9BB22BB90268536823F4806353609D
:10405000BCE790F83E30DBB2402B0CD0426A0368DC
:1040600012781A61436A01334362438D9BB2013B6C
:104070009BB24385AAE7FEF707FFA7E708B5C26A28
:1040800090F83D30DBB2212B05D090F83E30DBB20A
:10409000402B47D008BD438D9BB263B1426A036891
:1040A00012781A61436A01334362438D9BB2013B2C
:1040B0009BB24385EEE7082A04D0202A02D012F5ED
:1040C000803F19D10268536823F4E06353600268AB
:1040D000136843F40073136000230363202380F804
:1040E0003D3090F83E30DBB2402B15D0002380F8F5
:1040F0003E30FDF751FBCDE70268536823F4E063DF
:10410000536011230363002380F83E30202380F89E
:104110003D30FDF741FBBDE7002380F83E30FDF761
:1041200021FBB7E7FEF7B0FEB4E708B590F83D30E5
:10413000DBB2222B00D008BD438D9BB2032B15D9D7
:1041400003681A69436A1A70436A01334362438DF4
:104150009BB2013B9BB24385438D9BB2032BEAD1BB
:104160000268536823F480635360E4E7C26A022A5A
:10417000E1D0012BDFD80268136823F48063136059
:104180000268536823F4E063536003681A69436A62
:104190001A70436A01334362438D9BB2013B9BB269
:1041A0004385202380F83D3090F83E30DBB2402B31
:1041B00007D0002380F83E3012230363FDF706FB8F
:1041C000B9E7002380F83E300363FDF7B1FAB2E7A8
:1041D00008B5C26A438D9BB2042B14D0438D9BB2A9
:1041E000032B22D0438D9BB2022B39D003681A696E
:1041F000436A1A70436A01334362438D9BB2013BA9
:104200009BB2438510E00268536823F480635360D7
:1042100003681A69436A1A70436A01334362438D23
:104220009BB2013B9BB2438508BD01684B6823F4F8
:1042300080634B60042A06D0022A04D00268136807
:1042400023F48063136003681A69436A1A70436A2F
:1042500001334362438D9BB2013B9BB24385E3E74D
:10426000012A0BD0102A09D0042A38D0022A36D0CD
:104270000268136843F40073136004E00268136873
:1042800023F48063136003681A69436A1A70426AF0
:10429000531C4362438D9BB2013B9BB24385036831
:1042A0001B695370436A01334362438D9BB2013BE8
:1042B0009BB243850268536823F440735360202304
:1042C00080F83D3090F83E30DBB2402B0DD000231B
:1042D00080F83E3012230363FDF778FAA4E7026802
:1042E000136843F480631360CDE7002380F83E3009
:1042F0000363FDF71DFA97E7704710B5846B636B96
:104300000BB10022DA63A36B0BB10022DA63FEF774
:1043100038FD022800D110BD2268136823F48063A1
:10432000136000236385202284F83D2084F83E300A
:10433000236C43F0100323642046FFF7DDFFEAE718
:1043400038B5846B94F83D30DBB294F83E20D1B29E
:10435000E56A2068426822F440724260626B0AB1EA
:104360000020D063A26B0AB10020D06303F02102C9
:10437000212A41D003F02202222A3BD094F83E3079
:10438000002B49D0638D9BB2012B58D02268536813
:1043900023F44073536015F5803F06D0082D04D0F8
:1043A000B5F12A4F01D0202D04D12268136843F4BF
:1043B000007313602268536823F4805353602268AB
:1043C000536823F40063536000236385236C002B40
:1043D0003BD1202384F83D3094F83E30DBB2402BB3
:1043E00037D0002384F83E30122323632046FDF7A4
:1043F000EDF911E02029C1D121684A6822F4006258
:104400004A6000226285292B07D02A2B0ED0226811
:10441000536843F44073536038BD2123236328233A
:1044200084F83D302046FFF7FFFCF0E722232363AA
:10443000282384F83D302046FFF71DFDE7E722687A
:10444000136823F480631360A0E72046FFF754FF4E
:10445000E2E7002384F83E3023632046FDF768F945
:10446000DAE7704708B5806B90F83D30DBB2426BFD
:104470000AB10021D163826B0AB10021D1630168C6
:104480000A6822F480620A6000224285426B0AB107
:1044900000211165826B0AB10021116501680A686B
:1044A00022F001020A6090F83D20D2B2602A0CD0BE
:1044B00003F02803282B12D0202380F83D3000235E
:1044C00080F83E30FFF718FF08BD202380F83D300C
:1044D000002380F83E300364FFF7C3FFF4E702686F
:1044E000136843F0010313600268136843F48063A8
:1044F000136000230363282380F83D30E2E70000C7
:1045000010B5044690F83D30DBB290F83E20D2B2B0
:10451000102A33D003F02802282A37D022685268A4
:1045200012F4006F04D1602B02D0202384F83D30B8
:104530000023236384F83E3023685A6812F4006F26
:1045400048D05A6822F400625A60626B92F83530A3
:10455000DBB2012B20D0444B1365606BFEF70DFBE3
:10456000002849D02268136823F001031360202338
:1045700084F83D30606B036D98473DE0222BC9D134
:1045800001680A6822F400620A60C3E7002323631B
:10459000282384F83D30CFE7A36B334A1A65A06B1C
:1045A000FEF7EBFA40B323685A6912F0400F05D0CA
:1045B0001A69636A1A70636A013363622268136856
:1045C00023F001031360202384F83D30A06B036DBA
:1045D000984711E094F83D20D2B2602A1FD05A6962
:1045E00012F0400F05D01A69636A1A70636A0133CA
:1045F00063622046FFF780FE236C13F00F0F04D098
:104600002268536823F4E063536094F83D30DBB2D2
:10461000226C12F0040F01D0282B18D010BD2022DC
:1046200084F83D20002222645A6912F0400F05D020
:104630001A69636A1A70636A0133636222681368D5
:1046400023F0010313602046FFF70BFFD4E7074B6D
:10465000E36200232363202284F83D2084F83E3067
:104660002046FFF757FCD9E7654400080000FFFF2C
:1046700030B583B0044690F83D50EDB202685368FF
:1046800023F4E06353600023019303685A690192A5
:104690001A6842F001021A60019B0268136823F451
:1046A0008063136003685A6812F4006F38D0222DBB
:1046B00021D02A2D1FD0426B1268526892B24285D7
:1046C000428D92B21AB1026C42F0040202645A683E
:1046D00022F400625A60606BFEF750FB01281FD085
:1046E000636B444A1A65606BFEF747FAC0B1606BB2
:1046F000036D984714E0A26B1268526892B262850B
:10470000628D92B21AB1226C42F0040222645A689D
:1047100022F400625A60A06BFEF730FB012842D100
:10472000638D9BB233B323685A6912F0040F0AD029
:104730001A69636A1A70636A01336362638D9BB29C
:10474000013B9BB2638523685A6912F0400F0AD07F
:104750001A69636A1A70636A01336362638D9BB27C
:10476000013B9BB26385638D9BB21BB1236C43F00D
:1047700004032364236C13BB2A2D25D094F83D3009
:10478000DBB2282B29D0236B222B01D0222D19D16B
:1047900000232363202284F83D2084F83E30204605
:1047A000FFF769FB0EE0A36B124A1A65A06BFEF7D8
:1047B000E4F90028B4D0A06B036D9847B0E7204619
:1047C000FFF79EFE03B030BD00232363282384F847
:1047D0003D302046FFF74FFBD0E7074BE362002355
:1047E0002363202284F83D2084F83E302046FFF7E2
:1047F00091FBE7E7654400080000FFFF70B5044641
:1048000002685568C66A90F83E30DBB290F83D10F9
:10481000102B14D0C8B2402B11D0236C002B71D0B8
:104820005369002113F0020F6FD015F4007F6CD094
:10483000236C03B191692046FFF745FB70BD906979
:10484000536913F0010105D1B6F52A0FF6D0B6F180
:104850002A4FF3D011B115F4007F25D113F0080FC2
:1048600002D015F4007F26D113F0020F02D015F408
:10487000007F24D110F0040F29D0526812F4006F89
:10488000DCD113F0800F05D015F4806F02D013F047
:10489000040F18D013F0040FD0D015F4007FCDD042
:1048A0002046FFF7EBFBC9E72046FEF7D6FC204683
:1048B000FEF72CFBC2E72046FEF77CFBBEE7204656
:1048C000FEF78FFBBAE72046FFF770FBB6E75268AA
:1048D00012F4006FB2D113F0400F05D015F4806FC1
:1048E00002D013F0040F09D013F0040FA6D015F472
:1048F000007FA3D02046FFF76BFC9FE72046FFF721
:1049000014FC9BE7916953698CE713F0100F02D0F8
:1049100015F4007F17D1212819D0292817D013F0BA
:10492000400F05D015F4806F02D013F0040F27D08C
:1049300013F0040F82D015F4007F3FF47FAF2046C0
:10494000FEF762FC7AE72046FFF792FE76E713F067
:10495000800F05D015F4806F02D013F0040F0BD038
:1049600013F0040F3FF46AAF15F4007F3FF466AF15
:104970002046FEF739FC61E72046FFF756FA5DE76F
:104980002046FFF779FA59E7F8B5044603685D69F0
:104990005F6890F83E20D2B215F4807F07D017F4FC
:1049A000807F3CD06FF480715961012600E00026C1
:1049B00015F4007F08D017F4807F05D046F002067A
:1049C00023686FF40071596115F4806F19D017F4E2
:1049D000807F16D0638D99B294F83D30DBB2206BA6
:1049E000202A1ED023686FF48061596146F00406C6
:1049F000102A01D0402A04D12268136843F40073BE
:104A0000136015F4006F08D017F4807F05D046F0CE
:104A1000080623686FF400625A6186B9F8BD002663
:104A2000C6E70029DED1212B05D0292B03D0282B66
:104A3000D8D12128D6D12046FFF76EFAE1E7236CC2
:104A40001E4326642046FFF75BFDE7E730B4036AA8
:104A500023F001030362056A4268846924F0730449
:104A60000B681C4325F002058B682B43104DA842B0
:104A700003D005F58065A84205D123F00803CD6871
:104A80002B4323F004030A4DA84203D005F58065AB
:104A9000A84205D122F440724D6915438A692A4320
:104AA000426084614A684263036230BC704700BF61
:104AB0000000014030B4036A23F480730362036A88
:104AC0004268C46924F073040D682C4323F4007316
:104AD0008D6843EA0523124DA84203D005F5806591
:104AE000A84206D123F40063CD6843EA052323F4EA
:104AF00080630B4DA84203D005F58065A84207D11D
:104B000022F440524D6942EA05128D6942EA0512CB
:104B10004260C4614A68C263036230BC704700BF30
:104B20000000014030B4036A23F480530362036A37
:104B30004468C26922F4E6420D6842EA052223F481
:104B400000538D6843EA0533094DA84203D005F5AB
:104B50008065A84204D124F480444D6944EA851458
:104B60004460C2614A680264036230BC704700BF9F
:104B70000000014030B4036A056A25F001050562B2
:104B8000846924F0F00444EA021423F00A030B437E
:104B90008461036230BC704730B4056A25F01005AB
:104BA00005628469036A24F4704444EA023423F001
:104BB000A00343EA01138461036230BC7047836839
:104BC00023F070030B4343F00703836070470268D0
:104BD000D36843F00103D3600268936803F00703CE
:104BE000062B03D0136843F00103136000207047C5
:104BF0007047704770477047704710B504460368A8
:104C00001A6912F0020F11D0DA6812F0020F0DD0FB
:104C10006FF002021A610123037703689B6913F0A6
:104C2000030F70D0FFF7E6FF0023237723681A698C
:104C300012F0040F12D0DA6812F0040F0ED06FF0E9
:104C400004021A610223237723689B6913F4407FCF
:104C50005FD02046FFF7CEFF0023237723681A6931
:104C600012F0080F12D0DA6812F0080F0ED06FF0B1
:104C700008021A61042323772368DB6913F0030F0A
:104C80004ED02046FFF7B6FF0023237723681A692A
:104C900012F0100F12D0DA6812F0100F0ED06FF071
:104CA00010021A61082323772368DB6913F4407F1D
:104CB0003DD02046FFF79EFF0023237723681A6923
:104CC00012F0010F03D0DA6812F0010F36D1236819
:104CD0001A6912F0800F03D0DA6812F0800F34D115
:104CE00023681A6912F0400F03D0DA6812F0400FFF
:104CF00032D123681A6912F0200F03D0DA6812F05B
:104D0000200F30D110BDFFF774FF2046FFF773FF6F
:104D10008AE72046FFF76DFF2046FFF76CFF9BE711
:104D20002046FFF766FF2046FFF765FFACE7204609
:104D3000FFF75FFF2046FFF75EFFBDE76FF0010260
:104D40001A612046FCF7BEFDC1E76FF080021A61D0
:104D5000204600F00CFAC3E76FF040021A612046CB
:104D6000FFF74AFFC5E76FF020021A61204600F006
:104D7000FDF9C7E70368304A904212D0B0F1804F86
:104D80000FD0A2F57C4290420BD002F58062904297
:104D900007D002F58062904203D002F5784290423B
:104DA00003D123F070034A681343234A90422AD068
:104DB000B0F1804F27D0A2F57C42904223D002F57B
:104DC000806290421FD002F5806290421BD002F5B3
:104DD0007842904217D002F57052904213D002F5FB
:104DE000806290420FD002F5806290420BD0A2F513
:104DF0009832904207D002F58062904203D002F5CB
:104E00008062904203D123F44073CA68134323F0B5
:104E100080034A69134303608B68C3620B68836233
:104E2000054B984203D003F58063984201D10B698A
:104E3000036301234361704700000140B0B110B526
:104E4000044690F83D3063B1022384F83D3021469A
:104E500051F8040BFFF78EFF012384F83D3000204A
:104E600010BD80F83C30FCF7ABFEEDE70120704749
:104E7000B0B110B5044690F83D3063B1022384F818
:104E80003D30214651F8040BFFF774FF012384F8ED
:104E90003D30002010BD80F83C30FFF7A9FEEDE763
:104EA0000120704730B4036A23F010030362036AE1
:104EB0004468826922F4E6420D6842EA052223F042
:104EC00020038D6843EA0513114DA84203D005F570
:104ED0008065A84206D123F08003CD6843EA05131C
:104EE00023F040030A4DA84203D005F58065A8428F
:104EF00007D124F440644D6944EA85048D6944EA8D
:104F00008504446082614A688263036230BC7047F2
:104F10000000014038B590F83C30012B66D00446C3
:104F20000D46012380F83C30022380F83D300C2AE6
:104F30001AD8DFE802F007191919201919193419BC
:104F4000191947000068FFF781FD2268936943F053
:104F5000080393612268936923F004039361226834
:104F6000936929690B439361012384F83D30002044
:104F700084F83C0038BD0068FFF794FF226893690D
:104F800043F4006393612268936923F4806393611F
:104F900022689369296943EA01239361E4E7006881
:104FA000FFF788FD2268D36943F00803D3612268C4
:104FB000D36923F00403D3612268D36929690B43C1
:104FC000D361D1E70068FFF7ADFD2268D36943F4F0
:104FD0000063D3612268D36923F48063D3612268BC
:104FE000D369296943EA0123D361BDE70220C1E700
:104FF00010B4846824F47F4442EA03220A43224323
:1050000082605DF8044B704790F83C30012B66D00D
:1050100010B50446012380F83C30022380F83D306F
:105020000268936823F47F4323F0770393600B684F
:10503000602B40D022D8402B47D00BD9502B0ED11B
:10504000CA6849680068FFF795FD50212068FFF79E
:10505000B6FD04E0202B0CD008D9302B09D0012359
:1050600084F83D30002084F83C0010BD0BB1102BBB
:10507000F5D119462068FFF7A2FDF0E7702B0ED09E
:10508000B3F5005FEBD1CB684A6889680068FFF729
:10509000AFFF2268936843F480439360DFE7CB68F7
:1050A0004A6889680068FFF7A3FF2268936843F0A5
:1050B00077039360D3E7CA6849680068FFF76CFD1F
:1050C00060212068FFF77BFDC9E7CA68496800686E
:1050D000FFF750FD40212068FFF771FDBFE7022078
:1050E0007047000090F83C30012B3BD030B40123D6
:1050F00080F83C30022380F83D3003685C689D688E
:1051000024F070040A6822435A600368164A9342E6
:105110001AD0B3F1804F17D0A2F57C42934213D03E
:1051200002F5806293420FD002F5806293420BD069
:1051300002F57842934207D002F57052934203D0B1
:10514000A2F59432934204D125F080054A681543B4
:105150009D60012380F83D30002380F83C301846E4
:1051600030BC704702207047000001407047704714
:105170000268D36823F49073D3600268536923F004
:1051800001035361202380F83A30704790F839309A
:10519000DBB2212B01D0022070478368B3F5805F1A
:1051A00017D0036A5A1C02621A7803685A60C38CCB
:1051B0009BB2013B9BB2C3844BB90268D36823F016
:1051C0008003D3600268D36843F04003D3600020BB
:1051D0007047036A1B880268C3F3080353600369BE
:1051E0001BB9036A02330362E1E7036A0133036216
:1051F000DDE7000070B504460268136923F44053EC
:10520000C1680B4313618368026913434269134306
:10521000C2691A430168CB6823F4164323F00C03D8
:105220001343CB600268536923F4407381690B43D5
:105230005361C369B3F5004F36D00368654A9342A2
:1052400000F09A8002F58062934200F09580FDF7AD
:105250004FFA0026051846EB06012D1846EB010112
:10526000CB0043EA5573EA001546194663689A0075
:105270009B0F281846EB0101FBF796FC564DA5FB4A
:1052800000325109642303FB11031B013233A5FBD8
:1052900003235B0903F0F00202EB011203F00F039A
:1052A000216813448B6093E003684A4A934233D0E9
:1052B00002F5806293422FD0FDF71AFA00260518F6
:1052C00046EB06012D1846EB0101CB0043EA55736E
:1052D000EA001546194662683346921846EB030306
:1052E000281846EB0101FBF75FFC3B4DA5FB0032A4
:1052F0005109642303FB1103DB003233A5FB0323B5
:105300005B095A0002F4F87202EB011203F0070382
:10531000216813448B605BE0FDF7FAF9002605185D
:1053200046EB06012D1846EB0101CB0043EA55730D
:10533000EA001546194662683346921846EB0303A5
:10534000281846EB0101FBF72FFC234DA5FB00328B
:105350005109642303FB1103DB003233A5FB032354
:105360005B095A0002F4F87202EB011203F0070322
:10537000216813448B602BE0FDF7CAF9002605185D
:1053800046EB06012D1846EB0101CB0043EA5573AD
:10539000EA001546194663689A009B0F281846EBE9
:1053A0000101FBF701FC0C4DA5FB00325109642300
:1053B00003FB11031B013233A5FB03235B0903F03D
:1053C000F00202EB011203F00F03216813448B601B
:1053D00070BD00BF001001401F85EB512DE9F8435F
:1053E00005460F4616469946DDF820802C6824684D
:1053F00037EA04030CBF01240024B4421FD1B8F1E2
:10540000FF3FF3D0B8F1000F05D0FDF737FDA0EB5B
:1054100009004045EAD92A68D36823F4D073D360E1
:105420002A68536923F001035361202385F839303A
:1054300085F83A30002385F83830032000E000205A
:10544000BDE8F88358B310B5044690F839300BB373
:10545000242384F839302268D36823F40053D360BE
:105460002046FFF7C7FE2268136923F490431361B7
:105470002268536923F02A0353612268D36843F4F6
:105480000053D3600020E063202384F8393084F88F
:105490003A3010BD80F83830FCF780FCD8E70120A6
:1054A00070472DE9F04383B01E4690F83930DBB2E7
:1054B000202B59D104460D469046002958D0002A89
:1054C00058D090F83830012B56D0012380F838306E
:1054D0004FF00009C0F83C90212380F83930FDF7E7
:1054E000CDFC0746A4F82480A4F8268084F83890E0
:1054F00017E000963B46002280212046FFF76EFF12
:1055000000283BD12B882268C3F30803536023692A
:105510000BB9023505E0013503E015F8012B2368CE
:105520005A60E38C9BB29BB1E28C92B2013A92B288
:10553000E284A368B3F5805FDBD000963B4600228F
:1055400080212046FFF74AFF0028E6D003200CE028
:1055500000963B46002240212046FFF73FFF78B9E6
:10556000202384F8393000E0022003B0BDE8F08346
:105570000120FAE70120F8E70220F6E70320F4E72C
:105580000320F2E7704708B50168CA6822F04002BC
:10559000CA60202280F83920FFF7F4FF002008BD00
:1055A00008B590F83A30DBB2222B46D18368B3F5C8
:1055B000805F0FD003690BBB03685A68836A591C6C
:1055C00081621A70C38D9BB2013B9BB2C385F3B15C
:1055D000002008BD826A036943B903685B68C3F3AE
:1055E00008031380836A02338362EBE703685B6816
:1055F000DBB21380836A01338362E3E703685B688D
:10560000826A511C816203F07F031370DAE702683B
:10561000D36823F02003D3600268D36823F4807337
:10562000D3600268536923F001035361202380F89B
:105630003A30FBF7B1FC0020CBE70220C9E7704706
:1056400010B5044602681368D168526913F00F0060
:1056500005D113F0200F02D011F0200F13D128B183
:1056600012F0010213D111F4907F10D113F0800FCA
:1056700002D011F0800F6CD113F0400F02D011F066
:10568000400F6AD110BD2046FFF78AFFFAE713F0FA
:10569000010F06D011F4807F03D0E06B40F00100D1
:1056A000E06313F0040F04D01AB1E06B40F0020085
:1056B000E06313F0020F04D01AB1E06B40F0040075
:1056C000E06313F0080F07D011F0200F00D11AB1DA
:1056D000E26B42F00802E263E26B002AD2D013F0E0
:1056E000200F02D011F0200F21D123685B6903F055
:1056F0004003E26B12F0080F00D123B32046FFF7FE
:1057000037FD23685A6912F0400F18D05A6922F009
:1057100040025A61636B73B1124A1A65606BFDF700
:105720002CFA0028AED0606B036D9847AAE720469C
:10573000FFF736FFD9E72046FFF781FFA2E72046B3
:10574000FFF77DFF9EE72046FFF779FF0023E36325
:1057500098E72046FFF71AFD94E72046FFF713FF6E
:1057600090E700BF6957000808B5806B0023C38528
:10577000C384FFF764FF08BD054BD3F8882042F4CB
:105780007002C3F888204FF000629A60704700BF33
:1057900000ED00E000F1080343604FF0FF3282604B
:1057A000C3600361002303607047002303617047F7
:1057B00043684B609A688A60516099600861036829
:1057C00001330360704730B40D68B5F1FF3F11D06D
:1057D00000F108031C465B681A68AA42FAD963689C
:1057E0004B6099608C6061600861036801330360FD
:1057F00030BC70470469F2E70369416882688A60D7
:10580000416851605A68824206D0002202611A68DB
:10581000013A1A601868704782685A60F5E770B5F7
:1058200004461546866B026C5AB903681BB100200A
:105830000136A66370BD806800F080FD0023A36080
:10584000F6E76DB9406801F0DBF9226C6368134438
:105850006360A268934219D3236863602846E7E730
:10586000C06801F0CDF9226C5142E3689B1AE360F5
:105870002268934202D2A3680B44E360022D01D058
:105880000020D5E726B1013E0020D1E72846CFE72A
:105890000020CDE738B5E0B10D46044601F00AF826
:1058A0002168E26B236C03FB0210A0600020A06360
:1058B0006160013A02FB0313E360FF2384F8443084
:1058C00084F84530EDB9236963B901F015F801207A
:1058D00038BD4FF0500383F31188BFF36F8FBFF3D0
:1058E0004F8FFEE704F1100000F0DCFC0028ECD044
:1058F000084B4FF080521A60BFF34F8FBFF36F8F8A
:10590000E3E704F11000FFF745FF04F12400FFF77F
:1059100041FFDAE704ED00E010B5034602980C46BB
:1059200031B90060C36304640121FFF7B3FF10BD08
:105930000260F7E740B94FF0500383F31188BFF3DB
:105940006F8FBFF34F8FFEE730B585B01C4605461D
:1059500053B192B189B94FF0500383F31188BFF36B
:105960006F8FBFF34F8FFEE74FF0500383F3118823
:10597000BFF36F8FBFF34F8FFEE76AB148230393E6
:10598000039B482B13D04FF0500383F31188BFF3D0
:105990006F8FBFF34F8FFEE70029EFD04FF050031A
:1059A00083F31188BFF36F8FBFF34F8FFEE7039B25
:1059B000012384F8463000949DF820302846FFF7F4
:1059C000ABFF204605B030BD2DE9F84390B18946C4
:1059D00090461F460446B1B1022F20D1E36B012B44
:1059E0001DD04FF0500383F31188BFF36F8FBFF3C7
:1059F0004F8FFEE74FF0500383F31188BFF36F8F93
:105A0000BFF34F8FFEE7036C002BE5D04FF0500340
:105A100083F31188BFF36F8FBFF34F8FFEE701F061
:105A200073F8EFF311864FF0500383F31188BFF33F
:105A30006F8FBFF34F8FA26BE36B9A4206D3022F97
:105A400004D0002086F31188BDE8F88394F845500F
:105A50006DB23A4649462046FFF7E1FEB5F1FF3FF9
:105A600005D06B1C5BB284F845300120EAE7636A1D
:105A70000BB90120E6E704F1240000F013FC30B17B
:105A8000B8F1000F05D00120C8F80000DAE70120C6
:105A9000D8E70120D6E70000084B1B681B6823B934
:105AA000074B4FF0FF321A607047044B1B68DB68EE
:105AB000DB685A68024B1A60704700BF600C002018
:105AC000340D00202DE9F04780469946089EDDF808
:105AD00024A00A9C276B02F18042013A07EB82075F
